:020000040002F8
:10000000D0D10020552B02005D2B02005F2B020097
:10001000612B0200632B0200652B02000000000030
:10002000000000000000000000000000672B02003C
:10003000692B0200000000006B2B02009D130200E0
:100040006F2B0200712B0200732B0200752B020034
:10005000772B0200792B02007B2B02007D2B020004
:100060007F2B0200812B0200832B0200852B0200D4
:10007000872B0200892B02008B2B02008D2B0200A4
:100080008F2B0200912B0200932B0200952B020074
:10009000972B0200111102009B2B02009D2B0200E6
:1000A0009F2B0200A12B0200A32B0200A52B020014
:1000B000A72B0200A92B0200AB2B0200AD2B0200E4
:1000C000AF2B0200B12B0200B32B0200B52B0200B4
:1000D000B72B0200B92B0200B1130200BD2B0200A6
:1000E000BF2B0200C12B0200C32B0200C52B020054
:1000F000C72B0200C92B0200CB2B0200CD2B020024
:10010000CF2B0200D12B0200D32B0200D52B0200F3
:10011000D72B0200D92B0200DB2B0200DD2B0200C3
:10012000DF2B0200E12B0200E32B0200E52B020093
:10013000E72B0200E92B0200EB2B0200ED2B020063
:10014000EF2B0200F12B0200F32B0200F52B020033
:10015000F72B0200F92B0200FB2B0200FD2B020003
:10016000FF2B0200B9040200032C0200052C020040
:10017000072C0200092C02000B2C0200BD0102001A
:100180000F2C0200112C0200132C0200152C02006F
:10019000172C0200192C02001B2C02001D2C02003F
:1001A0001F2C0200212C0200DFF80CD029F01CFDCE
:1001B0000048004721030200D0D1002080B546F658
:1001C0000010C4F2040004F05BFA0120BDE8804096
:1001D00021F0BEBBF0B581B01C4683784178C07871
:1001E0001B0243EA014100F0030715463A19014496
:1001F000101D48F20006930718BF20F00302C81B29
:10020000C8F2360600F1E041304629F00AF947EA23
:1002100006012846224629F004F9012001B0F0BD6C
:10022000F0B581B040F24C000C46C2F2000001680B
:10023000B4F90000B4F902304FF4487713FB070318
:10024000A08801EB4305B0F5487F16460CD1E08845
:100250004FF4C86100FB01F22846314601B0BDE809
:10026000F04029F0DEB800BFE188C9B3002700BF25
:1002700042002846314629F0D4F8E08847F00101D1
:1002800081422DD2A08806EB4006420005F5C860E9
:10029000314629F0C6F8E08847F0020181421FD2BA
:1002A000A08806EB4006420005F54860314629F07B
:1002B000B8F8E08847F00301814211D2A08806EB2C
:1002C0004006420005F59650314629F0AAF8A0886C
:1002D000E18806EB400604378F4205F5C855C7D3C1
:1002E00001B0F0BDB0B500200C46002501F054FA75
:1002F00040B140F29410C2F2000001880125218033
:1003000040896080A573B0BD00208873704700BF2E
:1003100037210A2838BF30210844C0B2704700BFD7
:1003200082B02425C4F2000501F0FCFB62B600F0A7
:1003300093FE00F0BDFE00F0CDF800F0B7FF012005
:10034000012403F095FD042000F070FB03F074FB22
:1003500001F0EEF840F20800C2F20000009446F608
:1003600000140288C4F20404204600214FF47A737A
:10037000002703F001FE204604F0A4F80AF0A2F9D9
:1003800047F20001C0F217014FF0004029F070F869
:1003900028F0B8F928F0A4F92868800704D50220CD
:1003A000286027A02AF0D0F840F299094CF2CC1628
:1003B00040F2A4044CF65845C2F20009C2F200060D
:1003C000C2F20004C0F204050FF288080AF09AF99C
:1003D000012000F09DFF99F8000048B3204689F8FD
:1003E000007027F08DFC2178284629F00FFC6178F9
:1003F000284629F00BFCA178284629F007FCE17873
:10040000284629F003FC2179284629F0FFFB617971
:10041000284629F0FBFBA179284629F0F7FBE17972
:10042000284629F0F3FB40462AF08EF867602760E3
:1004300030780028CAD0377027F0B4FCC6E700BF78
:100440005744542052657365742048617070656E1E
:1004500065640D000D00000080B588B00420ADF883
:10046000000040F22030C0F2E010CDF80200282059
:100470008DF80600ADF808000D208DF80A001D204B
:10048000C0F23000039040F24C00C2F2000000685D
:10049000302105904FF6FF7006904FF48070ADF854
:1004A0001C0042F20000ADF81010C4F200006946D2
:1004B00002F07EFF08B080BD10B542F20004C4F225
:1004C0000004204603F028F82046BDE8104003F061
:1004D00011B800BF2DE9F0478AB04027C4F20A07DF
:1004E00007F1400940F2000844F2402548460D213A
:1004F00002220023C4F20A08C0F20F054FF0000ADE
:1005000003F0E4F848460E210322002303F0DEF84E
:10051000A7F13006304607210122002303F0D6F868
:10052000304608210422002303F0D0F83046092188
:100530000422002303F0CAF830460A2104220023D3
:1005400003F0C4F838460F210122002303F0BEF85F
:1005500038460E210122002303F0B8F807F15004B9
:1005600020460E210122002303F0B0F820460D2181
:100570000122002303F0AAF820460C2101220023C7
:1005800003F0A4F820460B210122002303F09EF87B
:1005900020460A210122002303F098F82046092171
:1005A0000122002303F092F82046082101220023B3
:1005B00003F08CF8204607210122002303F086F87F
:1005C000204606210122002303F080F82046032163
:1005D0000222002303F07AF820460F210122002393
:1005E00003F074F8204602210122002303F06EF884
:1005F00048460F210322002303F068F838460721FC
:100600000122012303F062F838460621012201236A
:1006100003F05CF8384605210122012303F056F867
:10062000384604210122012303F050F83846032103
:100630000122012303F04AF8384602210122012356
:1006400003F044F8384601210122012303F03EF86B
:10065000384600210122012303F038F838460821EA
:100660000122012303F032F8384609210122012337
:1006700003F02CF838460A210122012303F026F862
:1006800038460B210122012303F020F838460C21C3
:100690000122012303F01AF838460D21012201231B
:1006A00003F014F8203F38460E210122012303F005
:1006B0000DF838460F210122012303F007F83046D8
:1006C00006210122002303F001F848460C210222F2
:1006D000002302F0FBFF4FF00070029040F6027022
:1006E000ADF80C0002A803F017F8A8F5BD242046C9
:1006F000092101220023CDF800A0CDF804A002F0CA
:1007000085FB2046092102F039FC20460121012207
:100710000023CDF800A0CDF804A002F077FB20461E
:10072000012102F033FC284600BF00BF00BF00BF1C
:1007300000BF00BF00BF00BF00BF00BF00BF00BFC1
:1007400000BF00BF00BF00BF00BF00BF00BF00BFB1
:1007500000BF00BF00BF00BF00BF00BF00BF00BFA1
:1007600000BF00BF00BF00BF00BF00BF00BF00BF91
:1007700000BF00BF00BF00BF00BF00BF00BF00BF81
:1007800000BF00BF00BF00BF00BF00BF00BF00BF71
:1007900000BF00BF00BF00BF00BF00BF00BF00BF61
:1007A00000BF00BF00BF403800BFBDD120460121BF
:1007B00002F0E4FB00BF00BF00BF00BF00BF00BFEE
:1007C00000BF00BF00BF00BF00BF00BF00BF00BF31
:1007D00000BF00BF00BF00BF00BF00BF00BF00BF21
:1007E00000BF00BF00BF00BF00BF00BF00BF00BF11
:1007F00000BF00BF00BF00BF00BF00BF00BF00BF01
:1008000000BF00BF00BF00BF00BF00BF00BF00BFF0
:1008100000BF00BF00BF00BF00BF00BF00BF00BFE0
:1008200000BF00BF00BF00BF00BF00BF00BF00BFD0
:1008300000BF403D00BFBDD130460121042200234E
:10084000042402F043FF30460B210622002302F06D
:100850003DFF30460D21072200230D2502F036FF13
:1008600030460F210722002302F030FF40460221CC
:100870000422002302F02AFF40460921022200231D
:1008800002F024FF40460A210522002302F01EFF49
:1008900040460B210422002302F018FF40460C21A1
:1008A0000422002302F012FF40460D2104220023FF
:1008B00002F00CFF40460E210222002302F006FF48
:1008C00040460F210222002302F000FF384600219B
:1008D0000522002302F0FAFE3846012106220023F9
:1008E00002F0F4FE384602210622002302F0EEFE5A
:1008F000384603210622002302F0E8FE3846042190
:100900000622002302F0E2FE3846052104220023DD
:1009100002F0DCFE384608210122002302F0D6FE58
:10092000384609210422002302F0D0FE38460A216D
:100930000422002302F0CAFE38460B2104220023C1
:1009400002F0C4FE38460C210322002302F0BEFE52
:1009500038460D210622002302F0B8FE304602215F
:100960000622002302F0B2FE48460821032200239B
:1009700002F0ACFE48460B210222002302F0A6FE44
:10098000304605210622002302F0A0FE40F220306E
:10099000C0F2E010CDF80A0028208DF80E00ADF866
:1009A00010001D20C0F2300040F24C0105903020B4
:1009B000C2F200010968ADF818004FF6FF70ADF8FB
:1009C000084008904FF48070A8F51E240791ADF8F8
:1009D000240002A920468DF8125002F0E9FC2046BE
:1009E00002F088FD0AB0BDE8F08700BF40F24C037A
:1009F000C2F20003D3F800C04FF4487301FB0300B8
:100A00002CF81020704700BF40F28C12C2F2000296
:100A100040F24C03D2F800C0C2F200034FF4487217
:100A20001B6801FB020023F810C0704770B582B04C
:100A30003025C4F20A050446284605210122002378
:100A400002F044FE284606210122002302F03EFE69
:100A50002846082102220123022602F037FE2846FA
:100A600007210322012302F031FE2846032102223E
:100A7000012302F02BFE284604210222012302F06A
:100A800025FE022C08D0042C0CD102200121322694
:100A9000EB228DF800000BE08DF8006000210120B2
:100AA000BB2205E002268DF8006000200322002111
:100AB0008DF8020068468DF801208DF803608DF8EE
:100AC000041002F06DFF02B070BD00BFF0B581B040
:100AD00000F0030714467A1848F200060D46111D6F
:100AE00000F1E040C8F23606930718BF21F0030278
:100AF00020F00301304628F094FC47EA0601204626
:100B00002A4628F08EFC012001B0F0BDB0B50C469D
:100B1000B2F5807F054607D94CF65D40C0F204006F
:100B200029F012FD4FF48072920820462946BDE854
:100B3000B04003F095B800BF2DE9F04116460D46D0
:100B4000044608064FEA122730D0002FC5F10007EF
:100B500044D0F8B2A6EB00088208284621461FFAC6
:100B600088F603F07DF8002055FA87F5B0EB162FD4
:100B700054FA87F40CD0370A284621464022013F18
:100B800003F06EF805F58075380604F58074F3D12E
:100B90005FFA88F0002808BFBDE8F0818208284687
:100BA0002146BDE8F04103F05BB800BF002F27D01D
:100BB0000CD000BF284621464022013F03F050F8E8
:100BC00005F58075380604F58074F3D1C6F3850207
:100BD00028462146BDE8F04103F042B8F0B2FFB22A
:100BE000B8420DD9BA08284621462E4403F038F8F9
:100BF0007819E119C6F38502BDE8F04103F030B879
:100C0000B6F5807F07D94CF65D40C0F2040029F0AC
:100C10009BFC4FF48076B20828462146BDE8F0419F
:100C200003F01EB8B0B582B041F60004C4F204046B
:100C3000002520460521012201230095019502F09F
:100C4000E5F820460621012201230095019502F0D6
:100C5000DDF820460821012201230095019502F0CC
:100C6000D5F820460721002201230095019502F0C6
:100C7000CDF820460321012201230095019502F0C1
:100C8000C5F820460421012201230095019502F0B8
:100C9000BDF82046032102F071F92046042102F03C
:100CA0006DF92046062102F069F92046082102F07C
:100CB00065F92046052102B0BDE8B04002F05EB9FA
:100CC000B0B541F60004C4F20404054620460521EF
:100CD00002F05CF9280605D42046082102F056F9F6
:100CE00004E000BF2046082102F048F92046052113
:100CF00002F044F92046052102F048F9680605D4BF
:100D00002046082102F042F904E000BF20460821F5
:100D100002F034F92046052102F030F92046052181
:100D200002F034F9A80605D42046082102F02EF975
:100D300004E000BF2046082102F020F920460521EA
:100D400002F01CF92046052102F020F9E80605D43E
:100D50002046082102F01AF904E000BF20460821CD
:100D600002F00CF92046052102F008F92046052181
:100D700002F00CF9280705D42046082102F006F9F4
:100D800004E000BF2046082102F0F8F820460521C3
:100D900002F0F4F82046052102F0F8F8680705D4BF
:100DA0002046082102F0F2F804E000BF20460821A6
:100DB00002F0E4F82046052102F0E0F82046052183
:100DC00002F0E4F8A80705D42046082102F0DEF876
:100DD00004E000BF2046082102F0D0F8204605219B
:100DE00002F0CCF82046052102F0D0F8E80709D13E
:100DF0002046082102F0CAF820460521BDE8B0408F
:100E000002F0BCB82046082102F0B8F820460521BF
:100E1000BDE8B04002F0B2B870B541F60004C4F2CB
:100E200004042046052102F0A9F82046052102F01D
:100E3000ADF82046072102F0B9F80546002818BF92
:100E400001252046052102F099F82046052102F0EF
:100E50009DF82046072102F0A9F8002818BF0120BC
:100E600040EA45062046052102F088F82046052183
:100E700002F08CF82046072102F098F80546002879
:100E800018BF01252046052102F078F820460521EB
:100E900002F07CF8B00040EA45052046072102F048
:100EA00085F8002818BF01202E182046052102F0E1
:100EB00065F82046052102F069F82046072102F076
:100EC00075F80546002818BF01252046052102F0C7
:100ED00055F82046052102F059F8B00040EA4505D2
:100EE0002046072102F062F8002818BF01202E18C2
:100EF0002046052102F042F82046052102F046F87E
:100F00002046072102F052F80546002818BF0125A7
:100F10002046052102F032F82046052102F036F87D
:100F2000B00040EA45052046072102F03FF80028BE
:100F300018BF012005442046052102F01FF8E8B241
:100F400070BD00BF2DE9F04182B041F600081C469B
:100F500016460F460546C4F20408FFF763FE4046F6
:100F6000062102F013F83FB1013D00BF15F8010F53
:100F7000FFF7A6FE013FF9D134B1751EFFF74CFF14
:100F800005F8010F013CF9D14046062101F0F6FFBA
:100F90003024C4F20A042046052101220023002542
:100FA00002F094FB204606210122002302F08EFB72
:100FB000204608210222012302F088FB2046072157
:100FC0000322012302F082FB204603210222012397
:100FD00002F07CFB204604210222012302F076FB72
:100FE00040F20230C0F20020009068468DF80450B4
:100FF00002F0D6FC012002B0BDE8F081B0B543F6A6
:101000000005C4F204050446C1B2284603F030FED0
:10101000284603F037FE0028FAD12046B0BD00BFB5
:1010200070B543F6000504460026C4F2040500BF6F
:10103000284603F027FE0028FAD12178284603F03D
:1010400017FE14F8011F701C022E0646F0D300296B
:10105000064608BF70BDEBE7B0B584B08024C4F28B
:101060000A042046002101220123002502F02EFB64
:10107000204601210122002302F028FB42F2000455
:101080004FF4E130C4F20404009069462046ADF804
:1010900004508DF806508DF808508DF80A508DF8E0
:1010A0000C5003F019FD204603F0DCFD04B0B0BD88
:1010B000B0B584B01024C4F20A04204604210222F0
:1010C0000123012502F002FB204603210222002316
:1010D00002F0FCFA4FF4E13000904FF020600190F4
:1010E00040F2017043F60004C0F60020C4F204048C
:1010F0000290694620468DF80C5003F0EDFCE06943
:1011000020F48050E061204603F0ACFD04B0B0BD97
:10111000F0B581B043F60004C4F204042046102167
:1011200003F076FE40F298060028C2F200066CD06A
:101130002046102103F064FE6946204603F09AFD24
:1011400048B93078092806D89DF8001032180130C7
:101150009170117330706946204603F08BFD48B9D9
:1011600030780A2806D29DF80010321801309170AC
:10117000117330706946204603F07CFD48B9307821
:10118000092806D89DF800103218013091701173AB
:1011900030706946204603F06DFD48B93078092863
:1011A00006D89DF80010321801309170117330701C
:1011B0006946204603F05EFD48B93078092806D814
:1011C0009DF800103218013091701173307069462B
:1011D000204603F04FFD48B93078092806D89DF81D
:1011E000001032180130917011733070694620463A
:1011F00003F040FD48B93078092806D89DF8001062
:101200003218013091701173307020464FF48041D4
:1012100003F0FEFD18B3204603F03AFD10B330781A
:10122000012815D1B078052812D1EFF3108072B6DD
:1012300004F5BA2420460021052203F005FE2046CD
:1012400003F042FE00BF00BF00BF00BFFAE700BFCF
:101250000020307020464FF4804103F0D1FD01B0F2
:10126000F0BD00BF6D46012706E000BF7770204645
:1012700003F00EFD0028D2D12046294603F0FAFCE7
:101280000028F4D130780928F0D89DF800103218E1
:101290000130917011733070E8E700BF014643F6EA
:1012A0000000C4F2040003F0E3BC000040F20400BC
:1012B000C2F20000006844F6D351C1F26201A0FB03
:1012C00001014FF0FF3000EB9110B0F1807F01D3AE
:1012D000FEE700BF4EF21001CEF2000148604EF66C
:1012E0002350CEF20000E022027000208860072028
:1012F0000860704740F29010C2F2000001680131AE
:101300000160704740F29010C2F200000068704720
:1013100040F29011C2F200010A6808E00B689B1AC3
:10132000834228BF70470B689B1A834207D20B6821
:101330009B1A834203D20B689B1A8342EED37047F9
:1013400080B54EF21801CEF2000151F804CC44F6FB
:10135000D3520CFB00F0C1F26202A0FB020208684B
:101360004FEA921E002309E003449B1A904298BF63
:1013700063447345104628BF80BD00BF0A68904291
:10138000F2D10A689042EFD10A689042ECD10A6823
:101390009042F3D0E8E700BF704700BF40F29010E2
:1013A000C2F20000016801310160FFF7F5BF0000E3
:1013B00010B541F60004C4F204042046002101F0F7
:1013C00073FC002808BF10BD2046002101F078FC06
:1013D00040F28810C2F200000121017010BD00BF70
:1013E000704700BF10B582B041F60004C4F2040497
:1013F0004FF0000C2046002100220023CDF800C051
:10140000CDF804C001F002FD20460021002201F0C9
:101410000DFC4EF20410CEF2000040210160204687
:10142000002102B0BDE8104001F036BC002070473A
:101430002DE9F04146F20008C4F20A0815460E46AE
:1014400004464046BA210122012701F005FFE0B120
:10145000210A40460122012701F04AFFA8B1E1B26A
:1014600040460122012701F043FF70B165B1012719
:1014700031784046012201F03BFF30B1013D06F1D9
:101480000106F5D1002700E000274046012101F0C8
:101490000FFF3846BDE8F0812DE9F04381B046F2F8
:1014A0000009C4F20A0990460D4606464846BA218C
:1014B0000122012701F0D0FE90B3310A48460122F3
:1014C000012701F015FF58B3F1B248460122012768
:1014D00001F00EFF20B30520FFF71AFF4846BB219D
:1014E0000122012701F0B8FED0B1B8F1020F0FD3ED
:1014F000A8F101070026002448460121012201F03D
:101500001DFF0134A855E6B2B742F5DC01E000BF8B
:101510000026484600210122002701F00FFFA855B0
:101520004846012101F0C4FE384601B0BDE8F08311
:101530002DE9F04788B00025C4F2040505F5C02662
:10154000304601210122012348F240084FF0010AF0
:1015500002F0BCF840F20014C4F20A042068002132
:1015600040F002002060D4F80003012240F00200A5
:10157000C4F8000330460123002702F0A7F82068D2
:1015800004F5BE4640F001002060D4F8000302A933
:1015900040F00100C4F8000348F2A060C0F201006E
:1015A000039030468DF808A08DF81070ADF81670D5
:1015B00001F078FD304601F049FE05F5C056304691
:1015C000002100220023CDF800A0019701F01EFCAD
:1015D00028460521012201230097019701F016FCFE
:1015E0002846052101F0D2FC0A20FFF791FE28468B
:1015F000052101F0C3FC0A20FFF78AFE07AF4FF078
:10160000020948F24000394601228DF81C90FFF78C
:101610000FFF6420FFF77CFE6420FFF779FE284669
:10162000052101F0B3FC3046002101F0AFFC1E2083
:10163000FFF76EFE2846052101F0A0FC3046002190
:1016400001F0A4FC1E20FFF763FE3046002101F0EC
:101650009DFC1E20FFF75CFE3046002101F08EFC51
:1016600048F2401039460422FFF716FF079843F26C
:101670003911C0F23101884204D0504608B0BDE8AB
:10168000F08700BF07AC48F24000214601228DF8E8
:101690001C90FFF7CDFE08F1070080B22146012221
:1016A000FFF7FAFE9DF81C1067299CBF09A028F0DF
:1016B000ADFA0A20FFF72CFE4FF0000A07A948F206
:1016C000400001228DF81CA0FFF7B2FE504608B082
:1016D000BDE8F08744656661756C74205665723AA2
:1016E00025780D0A00000000B0B541F60004C4F2F0
:1016F00004042828A4F5C05516D0BA2828D12846B5
:10170000052101F043FC2046002101F03FFC1E2092
:10171000FFF7FEFD2846052101F030FC20460021A0
:1017200001F034FC27E000BF2846052101F02EFC23
:101730002046002101F022FC1E20FFF7E9FD28468B
:10174000052101F01BFC2046002101F017FC12E0EE
:101750002846052101F01AFC2046002101F016FC64
:101760001E20FFF7D5FD2846052101F007FC204685
:10177000002101F00BFC1E20FFF7CAFD20460021CE
:1017800001F004FC1E20FFF7C3FD20460021BDE848
:10179000B04001F0F3BB00BF2DE9F04383B000205F
:1017A0008DF805000DF1050148F24E10012248F2B6
:1017B0004E160127FFF770FE70B1A6F5877080B254
:1017C0000DF10B0101228DF80B70FFF731FE0020A7
:1017D00003B0BDE8F08300BF40F29419C2F20009E3
:1017E00099F914009DF80550B0F1FF3F40F3E880EF
:1017F00068B205F00F04B0F1FF3F0DDC052C0BD8EB
:1018000000208DF806000DF1060148F24E1001226D
:10181000FFF70EFE0028D0D1002C00F0DB80FF2067
:10182000A040C1218DF8060061EA000099F81480FB
:1018300089F81400B9F80000B9F80A10A9F80800EE
:10184000B01C80B2A9F812100DF107010422FFF7B5
:1018500023FE0028B1D19DF808109DF8070001F083
:101860000F0140EA01209DF80A109DF80920A9F80F
:10187000000001F00F0199F8140042EA01218207EB
:10188000A9F80A101FD506F10A0080B20DF1070170
:101890000422FFF701FE00288FD19DF808109DF863
:1018A000070001F00F0140EA01209DF80A109DF8A1
:1018B0000920A9F8020001F00F0042EA002199F87E
:1018C0001400A9F80C10410720D506F1120080B2CF
:1018D0000DF107010422FFF7DFFD00287FF46DAF53
:1018E0009DF808109DF8070001F00F0140EA012063
:1018F0009DF80A109DF80920A9F8040001F00F00D6
:1019000042EA002199F81400A9F80E10010720D529
:1019100006F11A0080B20DF107010422FFF7BCFDA9
:1019200000287FF44AAF9DF808109DF8070001F0E9
:101930000F0140EA01209DF80A109DF80920A9F83E
:10194000060001F00F0042EA002199F81400A9F8FE
:101950001010C0061ED506F1220080B20DF107015D
:101960000422FFF799FD00287FF427AF9DF80810A7
:101970009DF807009DF80A309DF8092001F00F013D
:1019800040EA012003F00F0142EA0121A9F8080012
:10199000A9F81210B9F800004009182804D8B9F8BD
:1019A0000A00B0F5F07F09D3022C31D3B9F8020058
:1019B000B9F80C10A9F80000A9F80A1001200AE0F3
:1019C00015B3FF2D7FF414AF002089F8140003B085
:1019D000BDE8F083002005F08F0180297FF4F8AE88
:1019E00099F814804FFA88F1B1F1FF3F21DD4FF0F3
:1019F000FF31A9F80010A9F80A1008F0E00189F8F1
:101A0000141003B0BDE8F083012003B0BDE8F083FB
:101A1000B9F80800B9F81210A9F800008020A9F858
:101A20000A108DF8050001204FFA88F1B1F1FF3F4F
:101A3000DDDC08F07F0189F8141003B0BDE8F08305
:101A400080B582B001208DF807000DF1070148F242
:101A500040000122FFF7ECFC02B080BD4FF0804156
:101A60000868C00740F20400C2F200000ED1096805
:101A7000C1F38201042944D8DFE801F00418282CBE
:101A8000320000BF4FF4FA413AE000BF4AF20001D1
:101A9000C4F20A010968890745F60021C0F26221F3
:101AA0005CBF42F60051C0F2311131E04AF2000150
:101AB000C4F20A01096C89074CF2EC11C0F6EB3153
:101AC0005CBF40F60061C0F2277119E04FF400419D
:101AD00016E000BF41F60031C0F2B70110E000BFD0
:101AE00042F60051C0F2311101604AF20001C4F225
:101AF0000A010968890704D545F60021C0F2622170
:101B000001604FF080410A680168920701D5C90859
:101B100001604DF68362C4F21B32A1FB0212910CEC
:101B20004160704710B57024C4F2000454F8680C8A
:101B300040F0007044F8680C962001F013F9002082
:101B400000F0BCF84FF080400168C90716D100686A
:101B500040F6006CC0F38201C0F2277C04296CD8E7
:101B6000DFE801F00432444C560000BF40F20401AB
:101B7000C2F200014FF4FA425EE000BF4AF20000F8
:101B8000C4F20A00006845F6002180074DF6836024
:101B9000C0F26221C4F21B305CBF42F60051C0F2B9
:101BA0003111A1FB000240F20400C2F20000920CCD
:101BB000C0E900124CF28032C0F2C9121E209142DC
:101BC00088BF282061E000BF4AF20001C4F20A0188
:101BD000096C40F2040289074CF2EC11C0F6EB31BB
:101BE000C2F2000258BF6146116026E040F20401D3
:101BF000C2F200014FF400421EE000BF40F20401B7
:101C000041F60032C2F20001C0F2B70214E000BF98
:101C100040F2040142F60052C2F20001C0F2311259
:101C20000A604AF20002C4F20A021268920704D55E
:101C300045F60022C0F262220A604FF080410B6834
:101C400040F204029B07C2F200024DF68363116862
:101C5000C4F21B3344BFC9081160A1FB0330800CE0
:101C60006145506002D996200FE000BF4BF2004062
:101C7000C0F2C440814201D9782006E045F6002038
:101C8000C0F26220814295D9502001F06BF840F2F9
:101C90008010C4F20A00D0F8001121F00201C0F84F
:101CA0000011016821F00C010160206820F006009D
:101CB0002060206840F00200206010BDB0B54AF2FC
:101CC0000001C4F20A0101220A604FF080410A6853
:101CD0000446D20720D1086810F01C0F06D04FF040
:101CE0008040006800F01C00082815D100BF00BF2C
:101CF00000BF00BF00BF00BF00BF00BF00BF00BFEC
:101D000000BF00BF00BF00BF00BF00BF00BF00BFDB
:101D100000BF00BF36E000BF44F6206000BF00BF38
:101D200000BF00BF00BF00BF00BF00BF00BF00BFBB
:101D300000BF00BF00BF00BF00BF00BF00BF00BFAB
:101D400000BF00BF00BF00BF00BF00BF00BF00BF9B
:101D500000BF00BF00BF00BF00BF00BF00BF00BF8B
:101D600000BF00BF00BF00BF00BF00BF00BF00BF7B
:101D700000BF00BF00BF00BF00BF00BF00BF3238C0
:101D800000BFCBD14FF08045286840F001002860AB
:101D900000F0F6FB0420C4F2000001210160286875
:101DA000002C20F01C002860286840F00400286007
:101DB000286820F0020018BF02302860286820F050
:101DC00001002860B0BD00BF704700BF4AF20000AC
:101DD000C4F20A00012101604FF080400168C90788
:101DE00020D1006810F01C0F06D04FF08040006832
:101DF00000F01C00082815D100BF00BF00BF00BFC5
:101E000000BF00BF00BF00BF00BF00BF00BF00BFDA
:101E100000BF00BF00BF00BF00BF00BF00BF00BFCA
:101E200036E000BF44F6206000BF00BF00BF00BF27
:101E300000BF00BF00BF00BF00BF00BF00BF00BFAA
:101E400000BF00BF00BF00BF00BF00BF00BF00BF9A
:101E500000BF00BF00BF00BF00BF00BF00BF00BF8A
:101E600000BF00BF00BF00BF00BF00BF00BF00BF7A
:101E700000BF00BF00BF00BF00BF00BF00BF00BF6A
:101E800000BF00BF00BF00BF00BF323800BFCBD1D2
:101E90004FF08040016841F001010160704700BFD0
:101EA0004AF20000C4F20A00012101604FF08040B4
:101EB0000168C90720D1006810F01C0F06D04FF050
:101EC0008040006800F01C00082815D100BF00BF4A
:101ED00000BF00BF00BF00BF00BF00BF00BF00BF0A
:101EE00000BF00BF00BF00BF00BF00BF00BF00BFFA
:101EF00000BF00BF36E000BF44F6206000BF00BF57
:101F000000BF00BF00BF00BF00BF00BF00BF00BFD9
:101F100000BF00BF00BF00BF00BF00BF00BF00BFC9
:101F200000BF00BF00BF00BF00BF00BF00BF00BFB9
:101F300000BF00BF00BF00BF00BF00BF00BF00BFA9
:101F400000BF00BF00BF00BF00BF00BF00BF00BF99
:101F500000BF00BF00BF00BF00BF00BF00BF3238DE
:101F600000BFCBD14FF080400168012241F0010158
:101F700001600421C4F200010A60016821F01C0123
:101F80000160016841F010010160016841F0020147
:101F900001600168C9071FD1006810F01C0F06D04E
:101FA0004FF08040006800F01C00082814D100BFEA
:101FB00000BF00BF00BF00BF00BF00BF00BF00BF29
:101FC00000BF00BF00BF00BF00BF00BF00BF00BF19
:101FD00000BF00BF00BF35E044F6206000BF00BF77
:101FE00000BF00BF00BF00BF00BF00BF00BF00BFF9
:101FF00000BF00BF00BF00BF00BF00BF00BF00BFE9
:1020000000BF00BF00BF00BF00BF00BF00BF00BFD8
:1020100000BF00BF00BF00BF00BF00BF00BF00BFC8
:1020200000BF00BF00BF00BF00BF00BF00BF00BFB8
:1020300000BF00BF00BF00BF00BF00BF00BF3238FD
:1020400000BFCBD14FF08040016821F00101016059
:10205000704700BF4AF20000C4F20A000321016089
:102060004FF080400168C90720D1006810F01C0FB4
:1020700006D04FF08040006800F01C00082815D101
:1020800000BF00BF00BF00BF00BF00BF00BF00BF58
:1020900000BF00BF00BF00BF00BF00BF00BF00BF48
:1020A00000BF00BF00BF00BF36E000BF44F62060A5
:1020B00000BF00BF00BF00BF00BF00BF00BF00BF28
:1020C00000BF00BF00BF00BF00BF00BF00BF00BF18
:1020D00000BF00BF00BF00BF00BF00BF00BF00BF08
:1020E00000BF00BF00BF00BF00BF00BF00BF00BFF8
:1020F00000BF00BF00BF00BF00BF00BF00BF00BFE8
:1021000000BF00BF00BF00BF00BF00BF00BF00BFD7
:1021100000BF323800BFCBD14FF08040016841F0A2
:1021200001010160704700BF4AF20000C4F20A00DA
:10213000032101604FF080400168C90720D1006889
:1021400010F01C0F06D04FF08040006800F01C001B
:10215000082815D100BF00BF00BF00BF00BF00BFEF
:1021600000BF00BF00BF00BF00BF00BF00BF00BF77
:1021700000BF00BF00BF00BF00BF00BF36E000BF10
:1021800044F6206000BF00BF00BF00BF00BF00BF1B
:1021900000BF00BF00BF00BF00BF00BF00BF00BF47
:1021A00000BF00BF00BF00BF00BF00BF00BF00BF37
:1021B00000BF00BF00BF00BF00BF00BF00BF00BF27
:1021C00000BF00BF00BF00BF00BF00BF00BF00BF17
:1021D00000BF00BF00BF00BF00BF00BF00BF00BF07
:1021E00000BF00BF00BF323800BFCBD14FF08040EE
:1021F0000168012241F0010101600421C4F20001E3
:102200000A60016821F01C010160016841F01001C1
:102210000160016841F0020101600168C9071FD136
:10222000006810F01C0F06D04FF08040006800F0EE
:102230001C00082814D100BF00BF00BF00BF00BFB2
:1022400000BF00BF00BF00BF00BF00BF00BF00BF96
:1022500000BF00BF00BF00BF00BF00BF00BF35E030
:1022600044F6206000BF00BF00BF00BF00BF00BF3A
:1022700000BF00BF00BF00BF00BF00BF00BF00BF66
:1022800000BF00BF00BF00BF00BF00BF00BF00BF56
:1022900000BF00BF00BF00BF00BF00BF00BF00BF46
:1022A00000BF00BF00BF00BF00BF00BF00BF00BF36
:1022B00000BF00BF00BF00BF00BF00BF00BF00BF26
:1022C00000BF00BF00BF323800BFCBD14FF080400D
:1022D000016821F001010160704700BFF0B581B0D5
:1022E0004AF22006C4F20A06012146F8201C4FF0EB
:1022F00080410A680446D20720D1086810F01C0FFC
:1023000006D04FF08040006800F01C00082815D16E
:1023100000BF00BF00BF00BF00BF00BF00BF00BFC5
:1023200000BF00BF00BF00BF00BF00BF00BF00BFB5
:1023300000BF00BF00BF00BF36E000BF44F6206012
:1023400000BF00BF00BF00BF00BF00BF00BF00BF95
:1023500000BF00BF00BF00BF00BF00BF00BF00BF85
:1023600000BF00BF00BF00BF00BF00BF00BF00BF75
:1023700000BF00BF00BF00BF00BF00BF00BF00BF65
:1023800000BF00BF00BF00BF00BF00BF00BF00BF55
:1023900000BF00BF00BF00BF00BF00BF00BF00BF45
:1023A00000BF323800BFCBD14FF0804738680025DE
:1023B00040F00100C4F20A053860284603210F22CC
:1023C000002301F083F9284604210F22002301F0A5
:1023D0007DF9306840F4702040F0220030603868A9
:1023E000C0071FD1386810F01C0F06D04FF0804096
:1023F000006800F01C00082814D100BF00BF00BF17
:1024000000BF00BF00BF00BF00BF00BF00BF00BFD4
:1024100000BF00BF00BF00BF00BF00BF00BF00BFC4
:1024200000BF35E044F6206000BF00BF00BF00BF22
:1024300000BF00BF00BF00BF00BF00BF00BF00BFA4
:1024400000BF00BF00BF00BF00BF00BF00BF00BF94
:1024500000BF00BF00BF00BF00BF00BF00BF00BF84
:1024600000BF00BF00BF00BF00BF00BF00BF00BF74
:1024700000BF00BF00BF00BF00BF00BF00BF00BF64
:1024800000BF00BF00BF00BF00BF323800BFCBD1CC
:102490004FF080400168C90720D1006810F01C0F80
:1024A00006D04FF08040006800F01C00082815D1CD
:1024B00000BF00BF00BF00BF00BF00BF00BF00BF24
:1024C00000BF00BF00BF00BF00BF00BF00BF00BF14
:1024D00000BF00BF00BF00BF36E000BF44F6206071
:1024E00000BF00BF00BF00BF00BF00BF00BF00BFF4
:1024F00000BF00BF00BF00BF00BF00BF00BF00BFE4
:1025000000BF00BF00BF00BF00BF00BF00BF00BFD3
:1025100000BF00BF00BF00BF00BF00BF00BF00BFC3
:1025200000BF00BF00BF00BF00BF00BF00BF00BFB3
:1025300000BF00BF00BF00BF00BF00BF00BF00BFA3
:1025400000BF323800BFCBD10420C4F2000001210B
:1025500001604FF080400168002C21F01C010160F7
:10256000016841F00C010160016821F0020118BF0F
:1025700002310160016821F00101016001B0F0BD8C
:10258000B0B50024C4F20A044AF2400520460321F3
:102590000F220023C4F20A0501F098F82046042116
:1025A0000F22002301F092F855F8200C40F470201F
:1025B00040F0220045F8200C4FF080400168C90728
:1025C00020D1006810F01C0F06D04FF0804000684A
:1025D00000F01C00082815D100BF00BF00BF00BFDD
:1025E00000BF00BF00BF00BF00BF00BF00BF00BFF3
:1025F00000BF00BF00BF00BF00BF00BF00BF00BFE3
:1026000036E000BF44F6206000BF00BF00BF00BF3F
:1026100000BF00BF00BF00BF00BF00BF00BF00BFC2
:1026200000BF00BF00BF00BF00BF00BF00BF00BFB2
:1026300000BF00BF00BF00BF00BF00BF00BF00BFA2
:1026400000BF00BF00BF00BF00BF00BF00BF00BF92
:1026500000BF00BF00BF00BF00BF00BF00BF00BF82
:1026600000BF00BF00BF00BF00BF323800BFCBD1EA
:102670004FF080400168C90720D1006810F01C0F9E
:1026800006D04FF08040006800F01C00082815D1EB
:1026900000BF00BF00BF00BF00BF00BF00BF00BF42
:1026A00000BF00BF00BF00BF00BF00BF00BF00BF32
:1026B00000BF00BF00BF00BF36E000BF44F620608F
:1026C00000BF00BF00BF00BF00BF00BF00BF00BF12
:1026D00000BF00BF00BF00BF00BF00BF00BF00BF02
:1026E00000BF00BF00BF00BF00BF00BF00BF00BFF2
:1026F00000BF00BF00BF00BF00BF00BF00BF00BFE2
:1027000000BF00BF00BF00BF00BF00BF00BF00BFD1
:1027100000BF00BF00BF00BF00BF00BF00BF00BFC1
:1027200000BF323800BFCBD128684FF6006120F0DF
:10273000020028606868CFF6E04108406860686879
:1027400040F4403040F03C006860286820F004000D
:10275000286000BFE86830B9E86820B9E86810B9B7
:10276000E8680028F6D0286840F001002860B0BD75
:102770004AF20000C4F20A00012101604FF08041DA
:102780000A68D20720D1096811F01C0F06D04FF05B
:102790008041096801F01C01082915D100BF00BF64
:1027A00000BF00BF00BF00BF00BF00BF00BF00BF31
:1027B00000BF00BF00BF00BF00BF00BF00BF00BF21
:1027C00000BF00BF36E000BF44F6206100BF00BF7D
:1027D00000BF00BF00BF00BF00BF00BF00BF00BF01
:1027E00000BF00BF00BF00BF00BF00BF00BF00BFF1
:1027F00000BF00BF00BF00BF00BF00BF00BF00BFE1
:1028000000BF00BF00BF00BF00BF00BF00BF00BFD0
:1028100000BF00BF00BF00BF00BF00BF00BF00BFC0
:1028200000BF00BF00BF00BF00BF00BF00BF323904
:1028300000BFCBD14FF080410A6842F001020A602C
:10284000012202650420C4F200000260086820F042
:102850001C00086008680860086820F00200086032
:102860000868C00720D1086810F01C0F06D04FF090
:102870008040006800F01C00082815D100BF00BF90
:1028800000BF00BF00BF00BF00BF00BF00BF00BF50
:1028900000BF00BF00BF00BF00BF00BF00BF00BF40
:1028A00000BF00BF36E000BF44F6206000BF00BF9D
:1028B00000BF00BF00BF00BF00BF00BF00BF00BF20
:1028C00000BF00BF00BF00BF00BF00BF00BF00BF10
:1028D00000BF00BF00BF00BF00BF00BF00BF00BF00
:1028E00000BF00BF00BF00BF00BF00BF00BF00BFF0
:1028F00000BF00BF00BF00BF00BF00BF00BF00BFE0
:1029000000BF00BF00BF00BF00BF00BF00BF323824
:1029100000BFCBD14FF08040016821F00101016080
:10292000704700BF4AF22000C4F20A00012140F8BB
:10293000201C4FF080410A68D2071FD1096811F0AE
:102940001C0F06D04FF08041096801F01C010829D6
:1029500014D100BF00BF00BF00BF00BF00BF00BF59
:1029600000BF00BF00BF00BF00BF00BF00BF00BF6F
:1029700000BF00BF00BF00BF00BF35E044F62061CC
:1029800000BF00BF00BF00BF00BF00BF00BF00BF4F
:1029900000BF00BF00BF00BF00BF00BF00BF00BF3F
:1029A00000BF00BF00BF00BF00BF00BF00BF00BF2F
:1029B00000BF00BF00BF00BF00BF00BF00BF00BF1F
:1029C00000BF00BF00BF00BF00BF00BF00BF00BF0F
:1029D00000BF00BF00BF00BF00BF00BF00BF00BFFF
:1029E00000BF323900BFCBD14FF080410A6842F0BE
:1029F00001020A60016840F21172114301604FF454
:102A00007A7000BF00BF00BF00BF00BF00BF00BFA3
:102A100000BF00BF00BF00BF00BF00BF00BF00BFBE
:102A200000BF00BF00BF00BF00BF00BF00BF00BFAE
:102A300000BF00BF00BF00BF00BF00BF00BF00BF9E
:102A400000BF00BF00BF00BF00BF00BF00BF00BF8E
:102A500000BF00BF00BF00BF00BF00BF00BF00BF7E
:102A600000BF00BF00BF323800BFCBD10420C4F28A
:102A70000000012101604FF08040016821F01C013D
:102A80000160016841F008010160016821F0020164
:102A900001600168C9071FD1006810F01C0F06D043
:102AA0004FF08040006800F01C00082814D100BFDF
:102AB00000BF00BF00BF00BF00BF00BF00BF00BF1E
:102AC00000BF00BF00BF00BF00BF00BF00BF00BF0E
:102AD00000BF00BF00BF35E044F6206000BF00BF6C
:102AE00000BF00BF00BF00BF00BF00BF00BF00BFEE
:102AF00000BF00BF00BF00BF00BF00BF00BF00BFDE
:102B000000BF00BF00BF00BF00BF00BF00BF00BFCD
:102B100000BF00BF00BF00BF00BF00BF00BF00BFBD
:102B200000BF00BF00BF00BF00BF00BF00BF00BFAD
:102B300000BF00BF00BF00BF00BF00BF00BF3238F2
:102B400000BFCBD14FF08040016821F0010101604E
:102B5000704700003348804733480047FEE7FEE7F0
:102B6000FEE7FEE7FEE7FEE7FEE7FEE7FEE7FEE73D
:102B7000FEE7FEE7FEE7FEE7FEE7FEE7FEE7FEE72D
:102B8000FEE7FEE7FEE7FEE7FEE7FEE7FEE7FEE71D
:102B9000FEE7FEE7FEE7FEE7FEE7FEE7FEE7FEE70D
:102BA000FEE7FEE7FEE7FEE7FEE7FEE7FEE7FEE7FD
:102BB000FEE7FEE7FEE7FEE7FEE7FEE7FEE7FEE7ED
:102BC000FEE7FEE7FEE7FEE7FEE7FEE7FEE7FEE7DD
:102BD000FEE7FEE7FEE7FEE7FEE7FEE7FEE7FEE7CD
:102BE000FEE7FEE7FEE7FEE7FEE7FEE7FEE7FEE7BD
:102BF000FEE7FEE7FEE7FEE7FEE7FEE7FEE7FEE7AD
:102C0000FEE7FEE7FEE7FEE7FEE7FEE7FEE7FEE79C
:102C1000FEE7FEE7FEE7FEE7FEE7FEE7FEE7FEE78C
:102C2000FEE70000C91D0200A901020080B54FF0B7
:102C3000010C43690CFA01F18B434361D0F808E0C1
:102C4000D3066FEA010C0BD40EEA0C038360D0F8B4
:102C50000CE0930712D40EEA0C03C36003E000BF3C
:102C60004EEA01038360D207036914BF43EA0102FD
:102C700003EA0C020261016280BD00BF4EEA01025C
:102C8000C260016280BD00BF0122436902FA01F106
:102C900023EA0101416170470122436902FA01F10F
:102CA00019434161704700BFC069C84000F001008E
:102CB000704700BF8069C84000F00100704700BF46
:102CC000012202FA01F101627047000001051CBFF8
:102CD0000220704710B54FF6AC74EFF3108172B656
:102CE000C0F6113440F27142000BC1F200122146CD
:102CF00090474AF20C00C4F20400006840F201421E
:102D000040F48020C1F2001221469047002062B6B4
:102D100010BD00BF10B500F00F0302F00304234301
:102D20001CBF022010BD4FF6AC74EFF3108372B6D7
:102D3000C0F6113440F2C14C9208C1F2001C234687
:102D4000E0474AF20C00C4F20400006840F201427D
:102D500040F48020C1F2001221469047002062B664
:102D600010BD00BF80B54FF6AC72EFF3108172B6A4
:102D70004F28C0F611320FDC1E282FD028281DD175
:102D800040F2314348F6492041F2A941C1F2001313
:102D9000984762B680BD00BF50282BD078280DD14F
:102DA00041F6894040F23143C0F2010043F66B51D5
:102DB000C1F20013984762B680BD00BF41F689405A
:102DC000C0F2010040F2314300F5924044F67441F4
:102DD000C1F20013984762B680BD00BF40F2314394
:102DE00048F6491040F6A171C1F20013984762B647
:102DF00080BD00BF40F231434DF2493042F64A11E6
:102E0000C1F20013984762B680BD00002DE9F0437F
:102E100081B0074640F2FF70C4F2040000249846D7
:102E2000914687420D46C4F20A041BDD41F2FF7051
:102E3000C4F2040087422BDC40F60000C4F2040018
:102E400087423BD041F20000C4F2040087425BD1CC
:102E50000820C4F200000168203441F00401016040
:102E600052E000BFB7F1402F32D044F60000C4F268
:102E70000000874240D00020C4F20400874243D1C2
:102E80000820C4F20000016841F0010101603BE04C
:102E900041F60000C4F20400874223D041F2000052
:102EA000C4F20A0087422FD10820C4F20000416812
:102EB000403441F00101416026E000BF0820C4F227
:102EC00000000168103441F0020101601CE000BF05
:102ED0000820C4F200000168803441F01001016054
:102EE00012E000BF0820C4F200000168303441F055
:102EF0000801016008E000BF0820C4F2000001687A
:102F0000903441F02001016020462946002201232F
:102F1000012600F0DBFB06FA05F07968B9F1010F34
:102F200014BF21EA00000843786001210898A940F5
:102F3000D4F80021B8F1010F14BF22EA01011143B6
:102F40000122C4F80011012802FA05F0D4F8002289
:102F500014BF22EA000010430999C4F800020120BE
:102F6000A8400129D4F800140CBF084321EA00004E
:102F7000C4F8000401B0BDE8F08300BF012203687B
:102F800002FA01F119430160704700BF0122036892
:102F900002FA01F123EA010101607047012203688E
:102FA00002FA01F159400160704700BF006BC84050
:102FB00000F00100704700BFC2F110024FF6FF732E
:102FC00023FA02F2036802FA01F119430160704723
:102FD000C2F110024FF6FF7323FA02F2036802FAFD
:102FE00001F123EA01010160704700BFC2F1100244
:102FF0004FF6FF7323FA02F2036802FA01F1594017
:1030000001607047006BC2F110024FF6FF7323FAA4
:1030100002F2C8401040704700EB810001210164BA
:10302000704700BF00EB810000210164704700BFC2
:1030300000EB8100016CC1F101010164704700BF28
:10304000C2F110024FF6FF7323FA02F2EFF310837E
:1030500072B6036802FA01F11943016062B6704763
:10306000C2F110024FF6FF7323FA02F2EFF310835E
:1030700072B6036802FA01F123EA0101016062B647
:10308000704700BFC2F110024FF6FF7323FA02F23D
:10309000EFF3108372B6036802FA01F15940016040
:1030A00062B670472DE9F04146F2000CC4F20A0CFA
:1030B00046F6000E6045C4F20A0E05D070450BD1ED
:1030C0004FF4803202E000BF4FF400420823C4F204
:1030D00000031C6822431A60026822F001020260A9
:1030E0000B780268012B3BD142F00202026040F2F1
:1030F0000402C2F20002126849F68173C1F25E63F3
:103100004C6844F24026A2FB0323C0F20F06DA0CFF
:103110004FF0FF33B6FBF4F46FF0FF0603EB42050C
:1031200006EB02220026CFF6FF7606EB04442A4384
:103130002243426243618A7BC97B704542EA410374
:10314000836159D060456FD151EA020046D04EF2FA
:103150000010CEF200004FF400410160BDE8F081A4
:1031600022F002020260026B22F001020263056B90
:103170000E7A91F80E803543CC7B0B7C05631022D0
:10318000B6FA86F54F89002E08BF11228E896D0987
:1031900007FA05F506FA02F22A4342634FF0FF32BE
:1031A00048EA4405426145EA0322497C704542EA07
:1031B000412282612CD0604518BFBDE8F08144EA0D
:1031C00008001843084309D04EF20010CEF2000068
:1031D0004FF400410160BDE8F08100BF4EF20010E5
:1031E000CEF200004FF40041C0F88010BFF34F8FC3
:1031F000BFF36F8FBDE8F08151EA02004EF200107C
:10320000CEF2000012D04FF080410160BDE8F081A5
:1032100044EA0800184308434EF20010CEF20000C2
:1032200004D04FF080410160BDE8F0814FF0804153
:10323000C0F88010BFF34F8FBFF36F8FBDE8F081F0
:10324000016821F001010160704700BF016841F091
:1032500001010160704700BF01610521002A016280
:1032600004BF00207047002141F28532036A5B07EA
:103270000DD500BF036A5B0742BF00BF036A5FEA68
:10328000437304D5914201F1030100BFEED9806878
:10329000012121EA50007047006A012121EA9000D3
:1032A000704700BF8068012121EA5000704700BFCD
:1032B00008220029026208BF7047002141F28532CE
:1032C000036A1B070DD500BF036A1B0742BF00BF7F
:1032D000036A5FEA037304D5914201F1030100BF61
:1032E000EED97047006A012121EAD000704700BF83
:1032F00001610421002A016204BF002070470021FF
:1033000041F28532036A5B070DD500BF036A5B0794
:1033100042BF00BF036A5FEA437304D5914201F1E3
:10332000030100BFEED98068012121EA50007047F7
:10333000006A012121EA9000704700BFB1FA81F1D3
:10334000490981600221002A016202BF0020C0B247
:103350007047002141F28532036A9B070DD500BFFB
:10336000036A9B0742BF00BF036A5FEA837304D509
:10337000914201F1030100BFEED9C068C0B27047AD
:10338000006A012121EA5000704700BF82691143A1
:1033900081617047826922EA01018161704700BF43
:1033A000416170474069084018BF01207047000024
:1033B0002DE9F04742F2000CC4F2000C604506D142
:1033C0000823C4F200031A6842F080421A600A78A7
:1033D0000C7F4B78023A42EA841203F0010503F0B5
:1033E000FE064B7F42EA05424FF40054A4EB4334FF
:1033F00042EA064291F806E0224342F4607291F8F4
:103400000A9042610C89CA896FF0FF084F8840F228
:10341000000A08EB0424CFF6FF7A013A0AEB0745CD
:1034200022432A43AEF1010442EA8462604582618C
:103430008A890C8A8E8808EB0222A4F101040AEB27
:10344000064642EA040242EA0602A9F1010442EAFF
:103450008462C2618A69426240F2FF12026445647A
:1034600086644969C164A7F1010101654FF001015A
:10347000016043600AD1002B08BFBDE8F0874EF21F
:103480000810CEF200004FF400710160BDE8F08733
:10349000137800EB811003F580710164B2F802C06B
:1034A00093884CEA03414164D2F806108164D168E4
:1034B000C164A3EB0C01016542F21400C4F20000E8
:1034C000016841F400410160704700BF80B5DDE94B
:1034D00002EC42EA034200EB81104EEA0C414264E6
:1034E000816442F21400C4F20000016841F400411A
:1034F000016080BDC16841F00201C160704700BF3A
:10350000C068C0F34000704701214160704700BFB0
:1035100000214160704700BF01210160704700BF7A
:10352000006800F00100704710B542F20002C4F2DA
:103530000002904209D10822C4F20002136843F04D
:103540008043136000BF00BF00BF4FF48022426180
:10355000026C6FF01F0342F4807202640A7891F8E3
:1035600001E003EB42120023CFF6FF7303EB0E439F
:1035700091F802C043EA0204002391F803E0CFF679
:10358000F0734CF2000203EB0C53CFF6FF7202EB28
:103590008E3223431A430B7949794FF60044CFF614
:1035A000FF74013B04EB81211A431143C0F8001161
:1035B00010BD00BFC0F804110AE000BF00BFC16821
:1035C000890742BF00BFC1685FEA817108D500BFAB
:1035D000C168890742BF00BFC1685FEA8171EDD44D
:1035E000704700BFC0F808110AE000BF00BFC16803
:1035F000890742BF00BFC1685FEA817108D500BF7B
:10360000C168890742BF00BFC1685FEA8171EDD41C
:10361000704700BFC0F80411C168890741BF00BFEF
:10362000C1685FEA817100BF41BFC1685FEA817113
:1036300000BFC16848BF5FEA817101D500BFEBE7F9
:10364000C0F808210AE000BF00BFC168890742BF77
:1036500000BFC1685FEA817108D500BFC1688907F2
:1036600042BF00BFC1685FEA8171EDD4704700BFFF
:10367000C0F804110AE000BF00BFC168890742BF5B
:1036800000BFC1685FEA817108D500BFC1688907C2
:1036900042BF00BFC1685FEA8171EDD4D0F8080174
:1036A00080B27047C0F80C110021CFF6FF7101EB1A
:1036B00002415A1E1143C0F81011C16841F00201C5
:1036C000C1607047C068C0F34000704770B56FF0CC
:1036D0001F0C0CEB810C0446082938BF4FEA810C03
:1036E0004FF00F0E28BF043426680EFA0CF5AE43D7
:1036F0002660266802FA0CF232432260012202FAA6
:1037000001F1002BD0F800230CBF22EA0101114384
:10371000C0F8001370BD000070B540F208010C2520
:10372000C2F200014378C4F200050968027890F8FB
:1037300002C090F803E02E685C1CB1FBF4F146F483
:1037400080562E604FF44846057901FB06F6407915
:10375000354445EA8E1643EAC20346EA80004FF03C
:103760000846306040F20400C2F20000006841F2F6
:103770008046B0FBF4F0C0F2EF3643EA4C03B042AF
:1037800088BF43F004030C20C8F60000032A40F869
:10379000083C05D84FF40063DFE802F00202060897
:1037A0004FF4805302E000BF4FF400534FF47A42CD
:1037B000B2FBF3F2013292B201FB02F140F8041CB9
:1037C000022101600AE000BF00BF0168890742BF13
:1037D00000BF01685FEA817108D500BF01688907F1
:1037E00042BF00BF01685FEA8171EDD470BD00BFC8
:1037F0000C20C8F60000016821F00101016000BF43
:1038000000BF00BF00BF00BF00BF00BF00BF00BFC0
:1038100000BF00BF00BF00BF00BF00BF00BF00BFB0
:1038200000BF00BF00BF00BF00BF00BF00BF00BFA0
:1038300000BF00BF00BF00BF00BF00BF00BF00BF90
:1038400000BF00BF00BF00BF00BF00BF00BF00BF80
:1038500000BF00BF00BF00BF00BF00BF00BF00BF70
:1038600000BF00BF00BF00BF00BF00BF00BF00BF60
:1038700000BF00BF00BF00BF00BF00BF00BF00BF50
:1038800000BF00BF00BF00BF00BF00BF00BF00BF40
:1038900000BF00BF00BF00BF00BF00BF00BF00BF30
:1038A00000BF00BF00BF00BF00BF00BF00BF00BF20
:1038B00000BF00BF00BF00BF00BF00BF00BF00BF10
:1038C00000BF00BF00BF70470C20C8F600000168B1
:1038D00041F00101016000BF00BF00BF00BF00BF99
:1038E00000BF00BF00BF00BF00BF00BF00BF00BFE0
:1038F00000BF00BF00BF00BF00BF00BF00BF00BFD0
:1039000000BF00BF00BF00BF00BF00BF00BF00BFBF
:1039100000BF00BF00BF00BF00BF00BF00BF00BFAF
:1039200000BF00BF00BF00BF00BF00BF00BF00BF9F
:1039300000BF00BF00BF00BF00BF00BF00BF00BF8F
:1039400000BF00BF00BF00BF00BF00BF00BF00BF7F
:1039500000BF00BF00BF00BF00BF00BF00BF00BF6F
:1039600000BF00BF00BF00BF00BF00BF00BF00BF5F
:1039700000BF00BF00BF00BF00BF00BF00BF00BF4F
:1039800000BF00BF00BF00BF00BF00BF00BF00BF3F
:1039900000BF00BF00BF00BF00BF00BF00BF704737
:1039A00080B50C21C4F200010A6842F400520A609A
:1039B0004AF60001C4F204010722C1F8F4230A68A0
:1039C00022F46C620A60837802789B0290F801C04E
:1039D00090F803E043EA821200790B681A4342EA46
:1039E00040204FF6FF720860086840F02000086031
:1039F000086A3FFA80F00862086A40EA0C6040EA10
:103A00000E200862086820F0200008604868904393
:103A1000486040F20800C2F2000000684CF6CD4257
:103A2000CCF6CC424B68A0FB020243EAD20040F441
:103A30007F40486080BD00BF4AF61400C4F2040015
:103A400050F8141C21F00F0140F8141C50F8141CFD
:103A500041F0220140F8141C9F2101610121016005
:103A6000016831B1016821B1016811B10168002913
:103A7000F6D18068704700BF80B54AF60002C4F2F4
:103A8000040290611368013023F00F03136041F2C8
:103A90002700136808BF41F2250040F2080C1843C4
:103AA00010602020506201205061C2F2000CDCF84E
:103AB0000030CBB1002300BF00BFDCF800E0581C91
:103AC000704511D200BFDCF800E0981C70450BD2A5
:103AD00000BFDCF800E0D81C704505D200BFDCF860
:103AE000000004338342E7D3106820F48050106054
:103AF00001B30520012104E0D369DB0708BF80BDC5
:103B000000BF136823F00F031360136843F0210311
:103B100013605062516100BF5369002BECD05369B0
:103B2000002BE9D05369002BE6D05369002BF3D169
:103B3000E2E700BF80BD00BF80B54AF6000EC4F2C8
:103B4000040ECEF81800DEF800C001302CF00F0390
:103B5000CEF8003041F22700DEF8003008BF41F215
:103B6000250040F2080C1843CEF800000120CEF8E2
:103B70002410CEF81400C2F2000CDCF80010C9B119
:103B8000002100BF00BFDCF80030481C984211D271
:103B900000BFDCF800008B1C83420BD200BFDCF8B6
:103BA0000000CB1C834205D200BFDCF800000431CA
:103BB0008142E7D3DEF8000020F48050CEF8000008
:103BC00052B30520012105E0DEF81C20D20708BF12
:103BD00080BD00BFDEF8002022F00F02CEF80020EA
:103BE000DEF8002042F02102CEF80020CEF82400BA
:103BF000CEF81410DEF81420002AE5D0DEF81420E8
:103C0000002AE1D0DEF81420002ADDD0DEF81420EE
:103C1000002AEFD1D8E700BF80BD00BF4AF61400EC
:103C2000C4F2040050F8141C21F00F0140F8141CD9
:103C300050F8141C41F0210140F8141C05210161C9
:103C400001210160016831B1016821B1016811B140
:103C500001680029F6D1806800F00100704700BFBC
:103C60002DE9F04F81B04AF6080EC4F2040E5EF85A
:103C7000083C002A43F480534EF8083C47D0531EBA
:103C8000032B02F00306009102D20022314626E007
:103C900022F0030800F1E04202F1040B01F10804F4
:103CA0000BF1040A0BF1080700234FF0E049002252
:103CB000314600BFE61856F8085C00EB030C4CF8E0
:103CC000095056F8045C04324BF80350E55890450F
:103CD0004AF803507668FE5003F11003EAD1009EC3
:103CE000A9B156F8223000F1E040012940F8223015
:103CF0000DD0531C56F82370022940F8237006D0CB
:103D0000911C56F8212040F8212000E000BFDEF889
:103D10000000C0071EBF00BFDEF800005FEAC070F1
:103D20000AD000BFDEF80000C0071EBF00BFDEF8EB
:103D300000005FEAC070E9D15EF8080C20F4805002
:103D40004EF8080C01B0BDE8F08F00BF2DE9F04738
:103D5000B2B3531E032B02F0030C01D2002223E066
:103D600022F0030E00F1E04202F1040A0AF1040914
:103D700001F108050AF1080600274FF0E04800228B
:103D8000C41954F80840EB1943F8084C5AF8074096
:103D9000043243F8044C59F807409645EC51F45965
:103DA00007F110075C60EBD1BCF1000F08D000F107
:103DB000E04050F82230BCF1010F41F8223001D12F
:103DC000BDE8F087531C50F82370BCF1020F41F896
:103DD000237008BFBDE8F087023250F8220041F896
:103DE0002200BDE8F08700BF4AF61401C4F20401C6
:103DF00051F8142C22F00F0241F8142C51F8142C15
:103E000042F0210241F8142C08610120086000BF33
:103E1000086830B1086820B1086810B10868002847
:103E2000F6D18868C0B270474AF61402C4F20402A0
:103E300052F8143C23F00F0342F8143C52F814CC0F
:103E400041F2260343EA0C0342F8143C10610120BE
:103E50009160106006E000BF1068002808BF70473E
:103E6000106820B1106810B110680028F4D17047B4
:103E70004AF61401C4F2040151F8142C22F00F0286
:103E800041F8142C51F8142C42F0210241F8142C62
:103E900035220A6101220A600A6832B10A6822B139
:103EA0000A6812B10A68002AF6D1D1F808C051F8A0
:103EB000143C23F00F0341F8143C51F8143C43F038
:103EC000210341F8143C05230B6101230B6000BF63
:103ED0000B6833B10A6822B10A6812B10A68002A75
:103EE000F6D14FF47D4202EA0C228B68002818BFFD
:103EF00002F5007251F8140CDBB220F00F0041F80B
:103F0000140C51F8140C1A4441F22603184341F8DA
:103F1000140C012008618A60086005E00868002828
:103F200008BF7047086820B1086810B10868002809
:103F3000F4D170474AF61400C4F2040050F8141C7F
:103F400021F00F0140F8141C50F8141C41F021011D
:103F500040F8141C3521016101210160016831B173
:103F6000016821B1016811B101680029F6D18068AA
:103F7000C0F34000704700002DE9F0410446A0F175
:103F80008040A0F58D204FEAB010DDF8188004289D
:103F900040F208001D4616460F46C4F2000005D840
:103FA000016841F40061016004E000BF416841F430
:103FB00080014160204600F0A3F9A068B8F1000F2D
:103FC00020F00F00A060A06840EA0700A060A6F102
:103FD00001002063A5F1010020604FF00100606145
:103FE0002169404618BF012021F00101084448F62C
:103FF000BF01C4F204018C4220612DDD48F6BF10E0
:10400000C4F2040084424DDD48F63F20C4F20400AF
:10401000844240F3878048F64020C4F20400844282
:1040200000F0F08048F68020C4F20400844200F0E2
:10403000F78048F6C020C4F20400844209D1B8F1E8
:10404000000F06D04EF20810CEF200004FF400012F
:104050000160BDE8F08100BF46F6FF00C4F2040035
:1040600084423FDC46F67F00C4F20400844275DCE3
:1040700046F60000C4F20400844200F0DF8046F6F9
:104080004000C4F204008442E3D1B8F1000FE0D054
:104090004EF20810CEF20000082140F8081CBDE8DE
:1040A000F08100BF48F63F10C4F20400844271DC86
:1040B00048F6C000C4F20400844200F0CD8048F607
:1040C0000010C4F204008442C3D1B8F1000FC0D084
:1040D0004EF20810CEF200004FF480310160BDE8CE
:1040E000F08100BF48F63F00C4F2040084426DDC5A
:1040F00046F60010C4F20400844200F0BB8048F68B
:104100000000C4F204008442A3D1B8F1000FA0D093
:104110004EF20810CEF200004FF4006140F8081C87
:10412000BDE8F08148F6C010C4F20400844200F0FB
:10413000AF8048F60020C4F2040084427FF489AFC7
:10414000B8F1000F3FF485AF4EF20810CEF2000038
:104150004FF480110160BDE8F08100BF46F6800099
:10416000C4F20400844200F0A18046F6C000C4F20C
:10417000040084427FF46DAFB8F1000F3FF469AFE3
:104180004EF20810CEF200004FF4800140F8081CF7
:10419000BDE8F08148F64010C4F20400844200F00B
:1041A000938048F68010C4F2040084427FF451AF3B
:1041B000B8F1000F3FF44DAF4EF20810CEF2000000
:1041C0004FF480210160BDE8F08100BF48F6400057
:1041D000C4F20400844200F0858048F68000C4F2F6
:1041E000040084427FF435AFB8F1000F3FF431AFE3
:1041F0004EF20810CEF200004FF0005140F8081CBB
:10420000BDE8F081B8F1000F3FF423AF4EF2081083
:10421000CEF200004FF400110160BDE8F08100BF54
:10422000B8F1000F08BFBDE8F0814EF20810CEF2E1
:1042300000004FF480010160BDE8F081B8F1000F8B
:104240003FF407AF4EF20810CEF20000042140F810
:10425000081CBDE8F08100BFB8F1000F3FF4F9AED3
:104260004EF20810CEF200004FF0004140F8081C5A
:10427000BDE8F081B8F1000F3FF4EBAE4EF208104C
:10428000CEF200004FF400410160BDE8F08100BFB4
:10429000B8F1000F3FF4DDAE4EF20810CEF2000090
:1042A0004FF400210160BDE8F08100BFB8F1000FBC
:1042B0003FF4CFAE4EF20810CEF200004FF4801162
:1042C00040F8081CBDE8F081B8F1000F3FF4C1AE22
:1042D0004EF20810CEF200004FF400310160BDE84C
:1042E000F08100BFB8F1000F3FF4B3AE4EF20810FA
:1042F000CEF200004FF0806140F8081CBDE8F0816C
:1043000048F6BF01C4F20401884248F64041C4F2B5
:10431000040123DD48F6BF12C4F2040290423DDDE1
:1043200048F63F22C4F20402904263DD48F6402280
:10433000C4F20402904200F09D8048F68022C4F24C
:104340000402904200F09A8048F6C022C4F20402AF
:10435000904240F0B5806FF40060ADE046F6FF0299
:10436000C4F204029042A1F500522DDC46F67F0112
:10437000C4F2040188424DDC46F60001C4F2040197
:10438000884200F07F8046F64001C4F20401884272
:1043900018BF70476FF002008FE000BF48F63F1271
:1043A000C4F20402904245DC48F6C002C4F20402A2
:1043B00090426BD048F60012C4F20402904240F0E2
:1043C0007F806FF0100077E048F63F03C4F20403EB
:1043D00098423FDC46F60013C4F20403984259D0D9
:1043E00048F60002C4F20402904269D16FF0010065
:1043F00062E000BF48F6C012C4F2040290424DD001
:1044000048F60022C4F20402904259D16FF4807041
:1044100052E000BF46F68001C4F20401884241D058
:1044200046F6C001C4F20401884249D16FF0080089
:1044300043E000BF48F64012C4F20402904235D077
:1044400048F68012C4F20402904239D16FF0400065
:1044500032E000BF48F64002C4F20402904229D084
:1044600048F68002C4F20402904229D16FF00400A1
:1044700022E000BF6FF400701EE000BF6FF48060A8
:104480001AE000BF6FF0010017E000BF6FF00800F6
:1044900012E000BF6FF010000FE000BF6FF080006F
:1044A0000AE000BF6FF0040007E000BF6FF02000DB
:1044B00002E000BF6FF002000A4611680840106079
:1044C000704700BF48F6BF01C4F20401884248F6B5
:1044D0004041C4F2040123DD48F6BF12C4F20402D5
:1044E00090423BDD48F63F22C4F2040290425DDD7B
:1044F00048F64022C4F20402904200F0918048F64F
:104500008022C4F20402904200F08E8048F6C0225D
:10451000C4F20402904240F09C804FF4006094E0AA
:1045200046F6FF02C4F204029042A1F5005229DCD3
:1045300046F67F01C4F20401884247DC46F60001DA
:10454000C4F20401884273D046F64001C4F204016B
:10455000884218BF7047022078E000BF48F63F123B
:10456000C4F2040290423FDC48F6C002C4F20402E6
:1045700090425FD048F60012C4F20402904268D123
:10458000102062E048F63F03C4F20403984239DC8D
:1045900046F60013C4F2040398424DD048F60002D8
:1045A000C4F20402904254D101204EE048F6C012F9
:1045B000C4F20402904241D048F60022C4F2040240
:1045C000904246D14FF480703FE000BF46F6800134
:1045D000C4F20401884233D046F6C001C4F204019B
:1045E000884236D1082031E048F64012C4F2040275
:1045F000904227D048F68012C4F20402904228D19B
:10460000402022E048F64002C4F2040290421BD04F
:1046100048F68002C4F2040290421AD1042014E049
:104620004FF4007011E000BF4FF480600DE000BF58
:1046300001200BE0082008E0102007E0802004E0C3
:10464000042003E0202000E002200A46116808430D
:104650001060704701218161704700BF00218161B6
:10466000704700BF40687047016941F00101016176
:10467000704700BF016921F001010161704700BF6F
:1046800001214161704700BF406900F0010070479F
:104690000162C169002B21F0020118BF0231C16122
:1046A00002214161016948F6BF0321F00201002A9D
:1046B00018BF0231C4F204039842016128DD48F6B4
:1046C000BF11C4F20401884246DD48F63F21C4F21E
:1046D000040188427CDD48F64021C4F2040188428E
:1046E00000F0DC8048F68021C4F20401884200F02A
:1046F000E18048F6C021C4F20401884207D132B1FA
:104700004EF20810CEF200004FF400010160704735
:1047100046F6FF01C4F2040188423BDC46F67F0105
:10472000C4F2040188426BDC46F60001C4F20401C5
:10473000884200F0CB8046F64001C4F20401884272
:10474000E5D1002AE3D04EF20810CEF20000082195
:1047500040F8081C704700BF48F63F11C4F204013E
:10476000884267DC48F6C001C4F20401884200F0C8
:10477000B98048F60011C4F204018842C7D1002A6A
:10478000C5D04EF20810CEF200004FF48031016027
:10479000704700BF48F63F01C4F20401884263DC61
:1047A00046F60011C4F20401884200F0A78048F6E2
:1047B0000001C4F204018842A9D1002AA7D04EF218
:1047C0000810CEF200004FF4006140F8081C70475A
:1047D00048F6C011C4F20401884200F09B8048F6FC
:1047E0000021C4F20401884291D1002A8FD04EF2F8
:1047F0000810CEF200004FF480110160704700BF36
:1048000046F68001C4F20401884200F08F8046F62B
:10481000C001C4F2040188427FF479AF002A3FF45A
:1048200076AF4EF20810CEF200004FF4800140F84F
:10483000081C704748F64011C4F20401884200F099
:10484000818048F68011C4F2040188427FF45FAF92
:10485000002A3FF45CAF4EF20810CEF200004FF495
:1048600080210160704700BF48F64001C4F2040196
:10487000884273D048F68001C4F2040188427FF474
:1048800046AF002A3FF443AF4EF20810CEF20000CC
:104890004FF0005140F8081C704700BF002A3FF459
:1048A00036AF4EF20810CEF200004FF40011016056
:1048B000704700BF002A08BF70474EF20810CEF2C2
:1048C00000004FF480010160704700BF002A3FF4F0
:1048D0001EAF4EF20810CEF20000042140F8081C72
:1048E000704700BF002A3FF412AF4EF20810CEF21C
:1048F00000004FF0004140F8081C7047002A3FF4C8
:1049000006AF4EF20810CEF200004FF400410160F5
:10491000704700BF002A3FF4FAAE4EF20810CEF204
:1049200000004FF400210160704700BF002A3FF4EF
:10493000EEAE4EF20810CEF200004FF4801140F8B7
:10494000081C7047002A3FF4E2AE4EF20810CEF287
:1049500000004FF400310160704700BF002A3FF4AF
:10496000D6AE4EF20810CEF200004FF0806140F853
:10497000081C7047C16921F00201C161704700BF86
:10498000C269002922F0010218BF0132C261C16967
:1049900041F00201C161704701627047006A7047CF
:1049A000016941F002010161704700BF016921F016
:1049B00002010161704700BF02214161704700BFE1
:1049C0004069C0F34000704780B518234361036914
:1049D000002923F0100318BF103303610369002A74
:1049E00023F0080EA0F1804318BF0EF1080EA3F5C6
:1049F0008D234FEAB31CBCF1040FC0F810E03ED881
:104A00000FF20400DFE80CF0040E1824300000BFA1
:104A100052EA010033D04EF20010CEF20000042121
:104A2000016080BD52EA010029D04EF20010CEF2A2
:104A300000000821016080BD52EA01001FD04EF243
:104A40000010CEF200004FF48011016080BD00BF65
:104A500052EA010013D04EF20010CEF200004FF4E3
:104A60008001016080BD00BF52EA010008BF80BD27
:104A70004EF20010CEF200004FF40041816080BD84
:104A8000C06A7047806A7047016941F01001016196
:104A9000704700BF016921F010010161704700BF3C
:104AA00010214161704700BF4069C0F3001070479A
:104AB000016941F008010161704700BF016921F0FF
:104AC00008010161704700BF08214161704700BFC4
:104AD0004069C0F3C000704710B5A0F18042A2F554
:104AE00084224FEAF22CBCF1030F0BD840F2080EDF
:104AF00055A2C4F2000E52F82C20DEF800301A4302
:104B0000CEF8002042684CF2000322F400724260AA
:104B10008268C0F6FF731A40826040F20402C2F25B
:104B2000000212680B68BCF1030FB2FBF3F283685A
:104B3000A2F1010243EA32128260426822F47C024E
:104B400042604A790B794FEAC24242EA834E8B793E
:104B5000426842EA0E0242EA83524260C26892B25E
:104B6000C26091F807E04B7AC26842EA0E4242EA1C
:104B7000036240F6FF73C260C26922EA0302C261A7
:104B8000CA7AC36942EA030242F48052C2614268AF
:104B900044F2140322EA030242608A7A0B7A91F803
:104BA0000CE04FEA820141EA0311446841EA040142
:104BB00041EA8E31416088BF10BD0FF20600DFE888
:104BC0000CF003111F2D00BF42EA030050EA0E0053
:104BD0004EF20010CEF200004FF001012CD0016027
:104BE00010BD00BF42EA030050EA0E004EF2001072
:104BF000CEF200004FF002011ED0016010BD00BFD8
:104C000042EA030050EA0E004EF20010CEF200001D
:104C10004FF4807110D0016010BD00BF42EA030064
:104C200050EA0E004EF20010CEF200004FF40011D8
:104C300002D0016010BD00BFC0F88010BFF34F8FDD
:104C4000BFF36F8F10BD00BF400000008000000068
:104C50000001000000020000416821F40071416081
:104C6000704700BF416841F400714160704700BF68
:104C7000016070470268022000EA52206FF35F2251
:104C80000A6070474068012121EA0000704700BFB8
:104C90004068012121EAD000704700BF4068C0F39E
:104CA0004000704782684CF20003C0F6FF731A4060
:104CB000826040F20402C2F200021268B2FBF1F11B
:104CC0008268013942EA31118160704740F2040183
:104CD000C2F20001096882684FF6F073C0F2030364
:104CE00003EA0212806842EA10700130B1FBF0F072
:104CF000704700BF436941EA820123F00503436125
:104D000042691143416170474069C0F3C010704768
:104D1000D0F814C0D2002CF07A0C42EA4101C0F85D
:104D200014C041EA0311426911434161704700BF59
:104D30004069C0F30020704780B5D0F818C06FF00C
:104D40003F0E2CF47F7C0EEB8111C0F818C041EAB5
:104D500083018369194381610169029B21F0050187
:104D6000016142EA830102691143016180BD00BF14
:104D7000016941F010010161704700BF0069C0F393
:104D8000400070470069C0F3C000704721F4807193
:104D9000FD2907DC80290FD0F8290BD14FF02071B5
:104DA00010E000BFFE290BD0FF2903D14FF4000112
:104DB00008E000BFFEE700BF4FF0607102E000BFF7
:104DC0004FF0C071826822F0607282608268114385
:104DD000816070478168090244BF00207047806885
:104DE00040014FF0020058BF012070474268114354
:104DF00041607047426822EA01014160704700BF8C
:104E0000490458BF7047C16941F40051C1617047FE
:104E1000CA0644BF82685FEA422213D44A0444BFF0
:104E200082685FEA82220DD44A0744BF82685FEA43
:104E3000823207D4490652BF00208068C0F3C060A8
:104E4000704700BF0120704740F2080CC4F2000C0C
:104E5000DCF8003043F48063CCF8003083684EF215
:104E6000001C23F0010383608368CEF2000C23F45E
:104E700070638360836843F480638360836849B1AF
:104E800043F00403836001234160C3608023CCF8B6
:104E9000003009E023F0040383608023CCF88030E5
:104EA000BFF34F8FBFF36F8F8368002A23F0020395
:104EB0001CBF02331146836001607047816821F096
:104EC00001018160704700BF816841F0010181608C
:104ED000704700BF55210161704700BF0121C160CB
:104EE000704700BFC068704710B54CF2B414C2F2EE
:104EF000000420461BF0BCFF40F22030C0F2E0105E
:104F0000206040F22120217AC0F20200606001F0AE
:104F1000FC0040F2000220720020C8F218020021BA
:104F20001CF07CF82046BDE810401BF0A7BF000035
:104F3000B0B540F2B804C2F2000420461CF07CFB7D
:104F400040F2E520C0F2020060600120207020469F
:104F50001CF084FB04F1100528461CF06DFB40F2A8
:104F60000930C0F202000321606128462174BDE8C7
:104F7000B0401CF073BB00004CF22810C0F20400DB
:104F800014211CF0D5BB000080B541F6D050C0F212
:104F900005001CF017FD40F2D510C0F20200BDE87C
:104FA00080401CF053BD00002DE9F04389B0044659
:104FB0001CF00EF805461CF00BF8002814BFD0F8C2
:104FC00008804FF000083DB3002C45DD204607F077
:104FD00005F900284CD006464FF0FF30ADF80C0024
:104FE000002035880490D6E90301D6F80490069095
:104FF000307D0791411E4FF6FF770729ADF80E501F
:10500000CDF8149057D80220DFE801F055044A4C3F
:105010004E50525401204EE040F2E52000904DF2F7
:105020000B204DF284214EF650424DF2DC234DF21E
:10503000F226C0F20400C0F20401C0F20402C0F281
:105040000403C0F204064FF6FF77019624F0DEFD5C
:1050500038B209B0BDE8F08307F01EF9002814BF8C
:1050600007884FF6FF7738B209B0BDE8F08300BF7C
:1050700040F2ED2000904DF20B204DF284214EF6CF
:1050800050424DF2DC2360A6C0F20400C0F20401DD
:10509000C0F20402C0F204034FF6FF77A1E000BFA4
:1050A000042008E0032006E0062004E0052002E0DA
:1050B000082000E007208DF8200007F071F8BD42BD
:1050C000044633D0A0B2A8420CD107F057FA00280A
:1050D00008BF07F06BFA07F06FF818B107F05AF83D
:1050E000814605902C46B9F1000F33D007F058F8EF
:1050F00080B2A1B2884202D007F040FA20B103A8E2
:1051000007F062F80028A3D00598804507D0DDE9B4
:1051100006239DF820100127009700F081F8BDF8C4
:105120000E7038B209B0BDE8F08300BF07F026FA70
:10513000002808BF07F03AFAA0B2B8421ED0ADF876
:105140000E4007F039F80028CDD007F023F881464B
:105150000590C8E725B2284606F03EFFB0B180476B
:10516000059050B3054607F097F80028BED0418857
:10517000A2B2914208BF8560B8E700BF7488D6F834
:105180000890ADF80E40CDF81490ACE740F2D9206D
:10519000CDE900054DF23E204DF280214EF6504201
:1051A0004DF28A23C0F20400C0F20401C0F20402EE
:1051B000C0F20403029524F029FD40F2153000905E
:1051C0004DF20B204DF284214EF650424DF2DC237D
:1051D00007A6C0F20400C0F20401C0F20402C0F24B
:1051E0000403019624F012FD38B209B0BDE8F08343
:1051F0006E65775F6974656D2E63757272656E7426
:105200005F73637200000000746172676574000070
:1052100080B51BF0DDFE002814BF8068002080BD33
:105220002DE9F047AAB0984691460F4605461BF077
:10523000CFFE06461BF0CCFE002814BF8468002475
:10524000002E00F09580DDF8C8A01BF00DFF204671
:10525000002C18BF384695F82F10002F08BF38468D
:1052600041F0080185F82F1096F85A1100F00F024E
:1052700001F0F0011144002886F85A115CD0D4E9FD
:105280000710CDE9141016A81CF0A8FD1E98CDF843
:105290008490002800F070804DF2AF22C0F204022A
:1052A0000821D42306F00CFB1E9018B114A9082283
:1052B00006F01CFB46F25510C0F202006F461B9030
:1052C0003846CDF8808018941CF088FD46F2CD1049
:1052D000C0F20200049046F2ED10C0F20200059008
:1052E00016A80321CDE90A8902951CF093FD3846E2
:1052F00003211CF08FFD96F85A0100F00F000138D1
:10530000072800F2CF80DFE800F0055D6F81939FF2
:10531000B1BD00BF46F29520C0F20200199031687D
:10532000BDF95020098823928B18B5F91C202593CC
:105330000390501A92E000BFAC4205D0E869C6F86D
:105340001A0028461BF08CFF1BF042FE002818BFF5
:1053500085603068016806F11A00C6F81E1000F07A
:1053600087FAAC4204D0002C18BFBAF1000F11D15B
:105370002AB0BDE8F08700BF4DF2AF21C0F20401B2
:105380000820D42206F092FA00281E907FF48EAFF7
:1053900090E700BF16AD28461CF020FD46F24110F4
:1053A000C0F202001B902846CDE9208918941CF019
:1053B00069FD0028DCD1204621F014FD2AB0BDE8AB
:1053C000F08700BF46F29520C0F2020019903168C4
:1053D000BDF9502009882392531AB5F91C20259352
:1053E000039050183AE000BF46F29D20C0F2020040
:1053F00019903168BDF95220498823928B18B5F96C
:105400001E2025930390501A46E000BF46F29D20CF
:10541000C0F2020019903168BDF9522049882392E8
:10542000531AB5F91E2025930390501834E000BF9D
:1054300046F29520C0F2020003903068B5F91C20B6
:105440000088101A0AE000BF46F29520C0F2020060
:1054500003903068B5F91C200088104401B20D900B
:1054600028460F9207F01AFC1CE000BF46F29D2070
:10547000C0F2020003903068B5F91E204088101A6F
:105480000AE000BF46F29D20C0F20200039030689F
:10549000B5F91E204088104401B20D9028460F92A5
:1054A00007F038FC68461CF0EDFC16A81CF0EAFC7E
:1054B000BAF1000F3FF45CAF94F82F0040F01000F9
:1054C00084F82F002AB0BDE8F08700BF80B58EB009
:1054D000ADF8080000204FF496718DF80A00CDE970
:1054E000031001208DF8140006A802A900F06AF844
:1054F0009DF834C05FEA8C700DD5069909988142F9
:105500000CD0DDE90A239DF830100CF0010CCDF829
:1055100000C0FFF785FE0EB080BD00BF084600F05A
:1055200057F90EB080BD00BF80B58AB0014602A811
:1055300000F048F89DF824C05FEA8C700DD5029900
:10554000059881420CD0DDE906239DF820100CF06F
:10555000010CCDF800C0FFF763FE0AB080BD00BFAC
:10556000084600F035F90AB080BD00BF80B58EB0A6
:10557000DDF840C0ADF808008DF80A1006A802A9B1
:10558000CDE903238DF814C000F01CF89DF834C059
:105590005FEA8C700DD50699099881420CD0DDE93F
:1055A0000A239DF830100CF0010CCDF800C0FFF775
:1055B00037FE0EB080BD00BF084600F009F90EB0FE
:1055C00080BD00BFF0B585B004464CF25810C0F263
:1055D0000400D0E90452D0E900EC0E46D0E90237CD
:1055E000D0E90610C4E90452254645F804CFC4F8B2
:1055F00000E0C4E90237A161E0615EB31BF0E8FCA2
:10560000002814BF80680020317B206001F0010079
:1056100031882077E180D6E901012061B0786161AD
:10562000207606F0BDFD064603A8294606F08EFF4B
:10563000049898B1BDF90C0006F0D0FD0188A18056
:10564000D0E90110A160217FE06041F001002077E6
:1056500021E000BF5CA740F255307DE006F01CFE63
:10566000C8B107467988207FA180C20704BFBA6805
:10567000A260B2B28A420AD106F09EFD30B1217F0B
:105680000020A06001F0FE00207700E0207FC0072E
:105690001CBF0020B860701C0ED0E088B1B28842F8
:1056A0000AD14FF6FF7706F069FF002808BF06F021
:1056B0007DFF0020A780A060E06848B1284606F082
:1056C00083FDC8B1207F40F00200207705B0F0BD17
:1056D000B4F90670384606F07FFC08B38047E060F6
:1056E000B8B3E188B2B28A4208BF06F04DFD284641
:1056F00006F06AFD0028E5D14DF280214EF65042B9
:105700004DF2103340F28E371EA0C0F20401C0F2F9
:105710000402C0F20403009724F078FA05B0F0BD4B
:1057200040F2D920CDE900074DF23E204DF2802114
:105730004EF650424DF28A23C0F20400C0F204013A
:10574000C0F20402C0F20403029724F05FFA0020C2
:10575000E06017A74FF4627000904DF20B204DF2FD
:1057600084214EF650424DF21033C0F20400C0F2D4
:105770000401C0F20402C0F20403019724F046FAC7
:1057800005B0F0BD5B47545F4552524F5D5B2573DA
:105790005D5B2573257328293A25645D2050757358
:1057A0006820737461636B206661696C65640A00CC
:1057B0006E65775F6974656D5F702D3E637572729B
:1057C000656E745F73637200706172616D000000DA
:1057D000F0B583B005461BF0FBFB80B3846874B35F
:1057E00045B900201BF0F6FB208400201BF004FCD0
:1057F00025466084D5E90767CDE900671BF0E8FB23
:10580000B0B10169A1B1284620F094FD80B1300CFF
:1058100040EA0745204607F04FFB3044ADF8000052
:10582000204607F075FB2844ADF8020004E000BFF5
:10583000284606F063FA10B168461BF029FC03B055
:10584000F0BD00BF80B582B04FF0010C00214FF4D5
:1058500096720023CDF800C0FFF7E2FC02B080BDD5
:1058600010B504461BF0B4FB002818BF846010BDBF
:105870002DE9F04F91B00646002000251BF0AAFB51
:10588000804600201BF0B8FB07461BF0A1FB044636
:105890007068ADF82C80CDE909054FF4F070ADF8D3
:1058A0002E700C95ADF83480ADF83670CDE90E55FC
:1058B0008DF84050ADF84200A06831680028079488
:1058C000089163D02068002800F07A80017A4A07A6
:1058D00000F1CE8341F004010172616807AABDF8AE
:1058E0004200151D0029A4F8268006912085059503
:1058F00000F080804FF4F070ADF82480ADF8260001
:10590000D4F808B00020BBF1000F089000F0AC8084
:1059100094F85A0100F00F01062900F2CE8001220E
:1059200002FA01F111F0660F00F0C7809DF8400007
:1059300040F001008DF84000BBF91C00B4F90C10D8
:10594000401A1DF0ADF8ABF8200020461BF042FBDA
:10595000BBF82010411A0698ADF83410018494F871
:105960005A01BBF8202000F00F03013B052BADF8D6
:105970002C2000F2A280DFE803F0039BA0A0039B91
:10598000ADF828100021ADF8301096E040F27240DA
:1059900000904DF20B204DF284214EF650420FF252
:1059A0007877C0F204000FF28473C0F20401C0F2F1
:1059B0000402019724F02AF911B0BDE8F08F00BF6E
:1059C000522000904DF20B204DF284214EF65042B1
:1059D000C0F204000FF22C73C0F20401C0F2040202
:1059E0004DF23837C0F20407019724F00FF911B0D7
:1059F000BDE8F08FD4F80880404620F005FDB8F1EE
:105A0000000F3BD0D4F81A108246404640F81C1FC5
:105A100029461CF01DFE002800F0228307981BF089
:105A2000D9FA0799044608461BF0E6FABDF8247037
:105A3000BC4240F01382BDF82610884240F00E822E
:105A4000BDF92010002903D489B23944A14202D9FA
:105A50000021ADF82010BDF822100022002918BF47
:105A6000ADF82220A6E200BF40F25A2000904DF28D
:105A70000B20C0F204000FF2606308E04FF42670C0
:105A800000904DF20B20C0F204000FF260634DF263
:105A900084214EF650424DF2F727C0F20401C0F2C5
:105AA0000402C0F20407019724F0B0F8D8E200BF66
:105AB0000021ADF82810ADF8302000F00F010829C2
:105AC00037D8012202FA01F111F4CC7F31D09DF8D0
:105AD0004000A66800F0FE0065688DF84000B6F949
:105AE0001E00B4F90E10401A1CF0DAFF7084204634
:105AF0001BF082FA718C411A698494F85A01728CF5
:105B000000F00F03033B052BADF82E20ADF8361047
:105B10000FD8DFE803F003090E0E0309ADF82A10D1
:105B20000021ADF8321004E00021ADF82A10ADF8E4
:105B30003220218C002900F0938207A901F1140280
:105B4000049201F10C02039201F11C0A002200F000
:105B50000F00411E072909D987E000BF94F85A01B8
:105B600000F00F00411E072900F27F8006980D9D6E
:105B7000B0F826800B98DFE801F005214B5905218C
:105B80004B5900BF606BA9B242461CF0B7FE6800DB
:105B900086B2E08B01250027616B17FA80F0324650
:105BA00001EB400001EB470105F0B4FEE08BB5F5D9
:105BB000EF7F074405F10105EED956E01FFA80F9A1
:105BC000E18B494505D10C9800B21CF069FFE18BCF
:105BD0008146606BA1EB090500EB4900A9B2424682
:105BE0001CF08CFE680086B2E08B0125616B19FA0F
:105BF00080F0324601EB400001EB490105F08AFEDE
:105C0000E08BB5F5EF7F814405F10105EED92CE07D
:105C1000B2EB154F29DA290CE08B02F5F0738B42B9
:105C20001CDD891A01FB00F116E000BFE38BB2EB2B
:105C3000104FC3EB03114FEA41110DDA000C02F5CE
:105C4000F077874211DD821A02FB03F0676B02FBDB
:105C5000131107EB400005E0606B03E0C0EB00119F
:105C6000606B490142461CF049FEDDF8148004993E
:105C7000404652461CF07EFDB0B10698BDF8381083
:105C8000838B079A19445184C38BBDF83A10BDF831
:105C90003E700B449384BDF822301785C91AADF8C5
:105CA0003A1007A900F0D6FB079F97F85A0100F0B9
:105CB0000F00411E072900F27C80BDF92200BBF8CD
:105CC00026400D9B0B9DDFE801F0052D495F052D5A
:105CD000495F00BF9EB2F98BB14205D10A9800B26C
:105CE0001CF0DEFEF98B0646786B8D1B00EB460040
:105CF000A9B222461CF002FE680084B2F88B01258E
:105D0000796B16FA80F0224601EB400001EB460168
:105D100005F000FEF88BB5F5EF7F064405F10105AF
:105D2000EED946E0786BA9B222461CF0E7FD680088
:105D300084B2F88B01250026796B16FA80F0224692
:105D400001EB400001EB460105F0E4FDF88BB5F5F1
:105D5000EF7F064405F10105EED92AE0FA8BB0EB9E
:105D6000134FC2EB02114FEA411119DA1B0C00F577
:105D7000F0769E421DDD1B1A03FB02F07F6B03FBD6
:105D8000121107EB400011E0B0EB154F11DA2A0CAD
:105D9000F98B00F5F073934204DD101A00FB01F15A
:105DA000786B03E0C1EB0111786B490122461CF0CE
:105DB000A5FD0399404652461CF0DCFCC0B1BBF87F
:105DC0001C00BDF83810079A08445084BBF81E0028
:105DD000BDF83A10BDF8223008449084BDF83E006A
:105DE0001085C81AADF83A00584607A900F032FBF2
:105DF00007985246006900F11C0140461CF0BAFCAD
:105E0000C0B19DF84000002240F002008DF8400033
:105E1000DDE907100E92C1F82200BDF842200869A2
:105E20000A8507A900F016FB9DF8400000F0FD0070
:105E30008DF84000079908684A6B436841469847C7
:105E4000BDF84200BDF82210079C084402B2218C24
:105E5000ADF822008A42FFF681AE03E1B8F91C20BA
:105E600002B3BDF92030012A34DB23EAE376002BAC
:105E7000394648BF1944B51ADCBF29440025002B18
:105E800001D4964202DC0F46ADF82410AAB2ADF858
:105E90002050B2FBF4F303FB142212FA81F1A14269
:105EA00036D838E0BDF920103A46B1F1FF3F06DCA4
:105EB0000F44BAB20021ADF82470ADF8201089B2B9
:105EC000B1FBF4F303FB14110A44A24223D9671A6D
:105ED0001FE000BF002B07D493420DDC002B0BDC2E
:105EE000002239460DE000BFB91A5F18B9B200238D
:105EF000ADF8247001E000BF39469B1A1AB2ADF824
:105F0000203092FBF4F303FB14221144A14202DD82
:105F1000A71AADF82470B8F91E20BAB1BDF9223025
:105F2000012A2BDBB3F1FF3F05DCBDF82610194435
:105F30000023ADF82610934222DCBDF826109A1AF1
:105F400011440022ADF826101DE000BFBDF922204B
:105F5000BDF82630B2F1FF3F05DC13440022ADF856
:105F60002630ADF8222091B2B1FBF0F606FB1011FD
:105F700011FA83F686421BD9401A10E0002BDCDDB3
:105F8000BDF826109A1A13B2ADF8222093FBF0F652
:105F900006FB103313FA81F6864205DDC01AADF810
:105FA00026003C4606E000BF3C46084602E000BF33
:105FB0003C461846079983B28A84CC84BDF8427067
:105FC000BB4202EB000384BFADF82670384612B224
:105FD0009DB20885AA4243DAA2B280B21FFA8AF4BF
:105FE00000FB02F94FF6FF7A07AE00BF486B27EAC5
:105FF0000A010F1949463A461CF080FCBDF8200002
:10600000B8F81C10079A08445084BDF82200B8F86C
:106010001E10084490844046314600F01BFADDE92A
:1060200007120869C1F82220314600F013FA0799D7
:1060300008684A6B436805999847BDF84220BDF847
:106040002200831818B2ADF82230291A914203DADF
:10605000079AADF826101185854201DD0799C5E73D
:10606000079C4CB1206818B3017A01F0FB01017262
:1060700011B0BDE8F08F00BF572000904DF20B200B
:106080004DF284214EF650424DF29C234DF2F22700
:10609000C0F20400C0F20401C0F20402C0F2040322
:1060A000C0F20407019723F0B1FD11B0BDE8F08FF5
:1060B000582000904DF20B204DF284214EF65042B4
:1060C0004DF29C23C0F20400C0F20401C0F20402AD
:1060D000C0F20403FFF784BC5F666C7573685F737E
:1060E00063725F62795F616E696D00005F666C75F7
:1060F00073685F7363725F62795F6469726563740A
:10610000000000005F67745F646973705F676574A7
:106110005F73746174650000706172616D2E6469F3
:1061200073702D3E7363725F6163740067745F64A4
:106130006973705F7265665F61726561000000007F
:10614000816891F82F2002F0F70281F82F208068F3
:1061500020F030B980B582B082687AB192F82F1001
:1061600001F0180108291CBF02B080BD016A02F1CC
:106170001C0002B0BDE8804005F030BCD320009088
:106180004DF20B204DF284214EF650420FF21C0CC2
:10619000C0F2040007A3C0F20401C0F20402CDF86B
:1061A00004C023F033FD02B080BD00BF6F6C645F9C
:1061B000736372005F6F6C645F7363725F616E69BB
:1061C0006D5F72656164795F6362000010B50446BB
:1061D0001AF0FEFE01468068A268C1E90102D26998
:1061E0000120CA60BDE8104005F04CB8B0B582B0DF
:1061F00005461AF0EDFE58B30446406850B190F8D9
:106200002F10CA0606D501F0F70180F82F1060683C
:1062100020F0D0F80020A1686060C869C4F81A00B6
:1062200000201AF0D7FEA168088400201AF0E4FECE
:10623000A268A968508408461BF012F8A068FFF70E
:10624000C7FA002002B0BDE8B04005F01BB800BF9F
:10625000DF2000904DF20B204DF284214EF650428B
:106260004DF2F225C0F2040005A3C0F20401C0F211
:106270000402C0F20405019523F0C8FC02B0B0BDD1
:106280005F7363725F616E696D5F72656164795F90
:106290006362000009B206F001BD00BF09B206F05A
:1062A00039BD00BF80B51AF093FE002814BF006905
:1062B000002080BD80B582B01AF08AFE00281EBF83
:1062C0001A3002B080BD4FF4926000904DF20B2066
:1062D0004DF284214EF650424DF2FB234DF22F3CFD
:1062E000C0F20400C0F20401C0F20402C0F20403D0
:1062F000C0F2040CCDF804C023F088FC002002B0EA
:1063000080BD00BF80B582B01AF062FE00281EBFBB
:106310002A3002B080BD40F2974000904DF20B2031
:106320004DF284214EF650424DF242334DF22F3C55
:10633000C0F20400C0F20401C0F20402C0F204037F
:10634000C0F2040CCDF804C023F060FC002002B0C1
:1063500080BD00BF70B582B00C4606461AF038FE0C
:1063600030B100F11A051AF033FE00B32A303AE0DA
:106370004FF4926000904DF20B204DF284214EF6C6
:1063800050424DF2FB234DF22F35C0F20400C0F213
:106390000401C0F20402C0F20403C0F20405019536
:1063A00023F034FC00251AF013FE0028DED140F261
:1063B000974000904DF20B204DF284214EF6504252
:1063C0004DF242334DF22F3CC0F20400C0F2040102
:1063D000C0F20402C0F20403C0F2040CCDF804C001
:1063E00023F014FC0020B0F900102E80B1426C8024
:1063F00002DD298010E000BFA988B0F902208B19C6
:10640000934209DD8A4203DD92B2511AF1E700BFDF
:10641000012E01DB0021ECE7B0F90410A14201DDFF
:1064200069800FE0E988B0F906000A19824209DDA7
:10643000884203DD80B2401A688003E0012CA4BFCB
:10644000002068801AF010FE284602B0BDE87040B7
:106450001AF01EBE2DE9F04F87B00C4609680746BA
:10646000D1F82280D1F8269006F004FE002843D00F
:10647000388D002840D000260DF1140AEB4603E0C9
:10648000388D0136864237D2786850F82650CDE9EB
:106490000589284606F0EEFD0028F1D0206805F1B8
:1064A0001C0122301CF0D4F80028E9D02068416893
:1064B000D0F82220002918BF04F11C01009195F8A2
:1064C0003110D0F8263089060AEAE171406BCDE937
:1064D0000323CDE90110A868C5F810B0016828466B
:1064E0008847288D0028CBD02846214642464B4677
:1064F00000F006F8C4E700BF07B0BDE8F08F00BFAA
:106500002DE9F0438DB00C460546CDE90423CDE9D5
:10651000022307F07BFDD5E907120B1800EB1141B0
:10652000ADF80030ADF80210A2EB4001120CA2EB66
:106530004000ADF80410ADF8060004A8694602AAB0
:106540001CF018F920B9284620F0E0FD072847D1B3
:10655000288D002844D000270DF12C080DF11809D2
:1065600004E000BF288D0137874239D2686850F8AF
:106570002760DDE90201CDE90B01304606F07AFD26
:106580000028EFD0206806F11C0122301CF060F8D2
:106590000028E7D020684168D0F82220002918BFE1
:1065A00004F11C01069196F83110D0F826308906C6
:1065B00008EAE171406BCDE90923CDE90710B06825
:1065C000C6F81090016830468847308D0028C9D041
:1065D000DDE9022330462146FFF792FFC2E700BF04
:1065E0000DB0BDE8F08300002DE9F04F8DB00546F9
:1065F0008868169F0688B0F8048028469B460C469B
:10660000914608F0B1F8B8F1020F1FD2A068B9881E
:106610000288A1EB0801114401802846214608F0B8
:10662000A3F8A068F9884288A1EB080111444180D1
:106630002846214608F098F8A26828462146168088
:106640000DB0BDE8F04F08F08FB800BFA8F1010011
:10665000CDE90067CDE902540C9008F001000490E8
:10666000ABF1030000260A904FEA4800A6EB480C65
:1066700028F0010708F0030A0B90A9F10200434635
:106680004FF0000E0990089705E000BF0B994644B3
:10669000023F0B4478D04EF0010000FB08F2BAF143
:1066A000000F30461AD0541E19F80410BAF1010F29
:1066B00000F101050BF8001012D0941E19F8041017
:1066C000BAF1020F0BF8051000F1020508D0D41E34
:1066D00019F804100BF80510C51C01E01446054616
:1066E0000C99032912D30A994E1909995D1B0A19AD
:1066F0005178043DF17012F8041906F8041F12F8DD
:10670000031E717012F8021EB170F1D10EF1020E6B
:106710000EFB08F5BAF1000F00EB08061AD0691E4F
:1067200019F80120BAF1010F0BF8062006F1010259
:1067300012D0A91E19F80140BAF1020F0BF802405D
:1067400006F1020208D0E91E19F801400BF80240D8
:10675000F21C01E0294632460C9C032C96D30A9C7D
:10676000099D144462440D4469780432E17015F8BF
:106770000419904204F8041F15F8031E617015F8FF
:10678000021EA170F0D181E70499002947D00EF1D3
:10679000010101FB08F2BAF1000F19D0511E19F8DE
:1067A0000130BAF1010F0BF8063006F1010309D0F0
:1067B000911E19F80170BAF1020F0BF8037006F17F
:1067C00002030BD11E460C9A032A28D30FE000BF08
:1067D00011460C9A032A22D309E000BFD11E19F8F2
:1067E000012003360BF803200C9A032A17D308EB79
:1067F000480706EB0B024944D31EF21B023900BFC7
:106800004F780432DF7011F80479904203F8047F66
:1068100011F8037E5F7011F8027E9F70F0D1CDF801
:106820001C900399019A886893880288A3EB080357
:106830001A4402800298C1F80CB007F095FF0020BE
:10684000B8F1010F4FF000092AD1049900290399EA
:1068500000F0E8806FEA0902424402FB08F7BAF14F
:10686000000F00F0BD801BF80720079EBAF1010F52
:10687000325400F1010207F101030AD01BF8033082
:10688000BAF1020FB35400F1020207F1020340F023
:10689000AD801F460C9B032BC0F0C480AEE000BF50
:1068A0000799474603390691A0EB48014FF00009CC
:1068B0000591DDF820E008E00B9902EB080009F1F2
:1068C0000209BEF1020E0F44BFD06FEA0902424432
:1068D00002FB08F2BAF1000F18D01BF8026007990A
:1068E000451C0E54BAF1010F02F1010609D01BF844
:1068F0000660BAF1020F4E5500F1020502F10206E0
:106900000AD132460C9903290ED21FE005460C9994
:10691000032909D21AE000BF1BF8066003324E5566
:10692000C51C0C99032911D306994E190A997D1B90
:106930000A4400BFD478043DF47012F8044F06F8FE
:10694000044F547874709478B470F3D1A8EB0902B2
:10695000023A02FB08FCBAF1000F00EB080219D062
:106960001BF80C400799551C8C54BAF1010F0CF11F
:10697000010409D01BF80440BAF1020F4C5502F192
:1069800002050CF102040BD1A4460C99032993D300
:1069900010E000BF15460C9903290BD28CE700BF0D
:1069A0001BF804400CF1030C4C55D51C0C99032921
:1069B000FFF482AF06994C1905990D440A9901EB31
:1069C0000C0600BFF3780435E37016F8043FA842C4
:1069D00004F8043F73786370B378A370F2D16BE767
:1069E00002460C9B032B1DD308E000BF1BF80330AD
:1069F0000337B354C21C0C9B032B13D3079B404497
:106A00001344801A07EB0B02033BD71EFA780438B5
:106A1000DA7017F8042F03F8042F7A785A70BA78CE
:106A20009A70F3D1019A8868D3884288A3EB08034F
:106A30001A444280DDF81C900298C1F80C9007F0CF
:106A400093FE0020B8F1010F4FF0000E2CD10499F5
:106A5000039C002900F0C8800EF1010101FB08F33E
:106A6000BAF1000F00F0A680591E19F80120BAF102
:106A7000010F0BF8002000F1010210D0991E19F847
:106A80000170BAF1020F0BF8027000F1020205D09A
:106A9000D91E19F801300BF80230C21C039C0C9B64
:106AA000032B80F08C809FE0A0EB480C089F4346AE
:106AB0004FF0000E06E000BF0B9906EB0800023F06
:106AC0000B44C4D04EF0010101FB08F2BAF1000FF3
:106AD0001AD0541E19F80410BAF1010F00F1010583
:106AE0000BF8001012D0941E19F80410BAF1020F1E
:106AF0000BF8051000F1020508D0D41E19F8041097
:106B00000BF80510C51C01E0144605460C99032935
:106B100012D30A994E1909995D1B0A195178043D3F
:106B2000F17012F8041906F8041F12F8031E7170B0
:106B300012F8021EB170F1D10EF1020E0EFB08F533
:106B4000BAF1000F00EB08061AD0691E19F80120EF
:106B5000BAF1010F0BF8062006F1010212D0A91EAE
:106B600019F80140BAF1020F0BF8024006F10202D7
:106B700008D0E91E19F801400BF80240F21C01E0B0
:106B8000294632460C9C032C96D30A9C099D14443A
:106B900062440D4469780432E17015F8041990429A
:106BA00004F8041F15F8031E617015F8021EA17089
:106BB000F0D181E7194602460C9B032B14D302EB5C
:106BC0000B0340444944033B801A02394A78043895
:106BD000DA7011F8042903F8042F11F8032E5A7003
:106BE00011F8022E9A70F1D1A0680099C4F80CB087
:106BF00001800298214607F0B7FDB8F1010F4FF070
:106C0000000007D14FF0FF31049A002A00F0EE8017
:106C1000A9E000BFA0EB480CA9F1030E43460021F8
:106C20000AE000BF02EB0800089AB91C023A089279
:106C30000B9A134400F090800F46C943414401FB76
:106C400008F2BAF1000F1BD01BF80210BAF1010FC5
:106C500009F8001000F1010102F101040AD01BF84B
:106C60000440BAF1020F09F8014000F1020102F1FB
:106C700002040BD122460C9C032C11D222E000BF4F
:106C800001460C9C032C0BD21CE000BF1BF80440F7
:106C9000033209F80140C11C0C9C032C12D300BF25
:106CA0000A9D0EEB0104591A2A4400BFD578043915
:106CB000E57012F8045F04F8045F55786570957804
:106CC000A570F3D1A8EB0701023901FB08F1BAF175
:106CD000000F00EB08021BD01BF80140551C09F8FF
:106CE0000240BAF1010F01F101040AD01BF804407F
:106CF000BAF1020F09F8054002F1020501F10204A0
:106D00000CD121460C9C032CFFF48CAF10E000BF8B
:106D100015460C9C032C0BD284E700BF1BF80440E3
:106D2000033109F80540D51C0C9C032CFFF47AAF05
:106D30000A9E0EEB05046544314400BFCE7804354D
:106D4000E67011F8046FA84204F8046F4E7866707C
:106D50008E78A670F2D165E76FF00201039CC91B23
:106D6000049A002A42D0414401FB08F1BAF1000F15
:106D70001AD01BF80120BAF1010F09F8002000F128
:106D8000010201F101030AD01BF80330BAF1020F2E
:106D900009F8023000F1020201F102030AD119469A
:106DA0000C9B032B22D30EE002460C9B032B1DD31E
:106DB00009E000BF1BF80330033109F80230C21CA0
:106DC0000C9B032B12D302EB090340445944033BB1
:106DD000801A0339CA780438DA7011F8042F03F8DE
:106DE000042F4A785A708A789A70F3D1C4F80C90BC
:106DF0000DB0BDE8F08F00BF2DE9F04F89B00793CB
:106E00009146B0F906B0B0F90A20038986891CB210
:106E100030B2B2EB0B05069148BF6D424FF0FF3127
:106E20005A45C8BF01210591B0EB040C4FF0FF316A
:106E3000089148BFCCF1000CA0420899C8BF0121BD
:106E4000B342089108BF934532D00023A3EB0C4115
:106E500080B22BB24FEA214A039090B20AEB0506AA
:106E600004930290700000B2DDE912378245D8BF6A
:106E700056440599D8BF8B44049981420898A8BF0D
:106E80000444D9F80800A8BF2E44079AA0F800B01F
:106E90004480069849461FFA84F80097FFF7A4FB40
:106EA00003988045DED11FFA8BF002998842D9D130
:106EB00009B0BDE8F08F00BF2DE9F04FA1B00D463D
:106EC00091F821100429C0F0F98282460C30114655
:106ED00017461BF0BDFB002800F0F082288B002431
:106EE000CDE91F44CDE91D44ADF87800287D95F823
:106EF00021100028CDE91B441A948DF8801000F071
:106F0000F58055F8100F002800F0D882B888F9886D
:106F100040F2ED7201FB00F84DF2EE51C0F20401B7
:106F2000404604F0C3FC002800F0C8820DF1380987
:106F30000646002448463946CDE90E4404F04EFD8D
:106F4000B4EBD80F1D96CDF86890CDF8709000F096
:106F5000BC804FEAD80101294FF0000076D04FF6EF
:106F6000FE70C0F6FF70014000206FF00F0200BFFE
:106F70002B681B56DF09B3181F742F6810323F5C53
:106F80007F007CB206EBC007E4097C702C68245CAF
:106F9000A40064B2E409BC702C68245CE40064B210
:106FA000E409FC702C68245C240164B2E4093C719F
:106FB0002C68245C640164B2E4097C712C68245C54
:106FC000A40164B2E409BC712C68245C04F00104DF
:106FD0006442FC712C68044494F90140E4093C7259
:106FE0002C6804446478640064B2E4097C722C6800
:106FF00004446478A40064B2E409BC722C680444BC
:107000006478E40064B2E409FC722C680444647897
:10701000240164B2E4093C732C680444647864017C
:1070200064B2E4097C732C6804446478A40164B2FB
:10703000E409BC732F6807447F78023007F001072A
:107040007F428142DF7793D102F110045FEA087139
:107050003BD5296844F001020956C9093155296810
:10706000095C490049B2C909B154296844F00202D7
:10707000095C890049B2C909B154296844F0030286
:10708000095CC90049B2C909B154296844F0040235
:10709000095C090149B2C909B154296844F00502E3
:1070A000095C490149B2C909B154296844F0060292
:1070B000095C890149B2C909B1542968085C44F0E6
:1070C000070100F00100404270541AA9504607F031
:1070D0004BFB4DF2EE51C0F20401304640F609027E
:1070E00004F0FAFB21B0BDE8F08F00BF18A83946C4
:1070F000CDE9184404F072FCBDF86400BDF86610D8
:107100004008B5F91E20B0EB510F88BF48089042E7
:10711000A8BF1046DDE918122B7F95F823C001EBBC
:10712000030E03EB1141170CA2EB4302A7EB43073D
:107130001FFA82F8CEEA01411FFA80FEBEB2C2EA0F
:107140000742BEEB03004FEA580938BF2046B9EBAF
:10715000560F179288BF4FEA56094845D8BF814657
:107160005FEACC70169100F0E580B9F1000F00F0F5
:1071700093801FFA89F30EAF00263846CDF80CE055
:107180001496CDE91266CDE91066CDE90E6600963B
:1071900000F0CEFA002800F08980E8680D96CDE96D
:1071A0000B66CDE9096608960796F8B18188C28812
:1071B000B846B5F91E704B08B3EB520F194688BF9D
:1071C00051088F4203DD5708BB4298BF1F46BEB22D
:1071D000016842684FF0000C07A83346CDF800C0A4
:1071E00000F0A6FA0028474600F0B681BDF85C0022
:1071F0004DF2EE51C0F2040140F62C0204F056FBB1
:10720000002800F0138280460020BDF8581004903A
:107210004FF480300590ADF81010BDF85E10BDF849
:107220005C00002904A9ADF814001A91CDE91C18DE
:1072300044D000260DF1680B82B24046FF2104F0D5
:1072400075FBBDF85A00BDF910103044BDF814307C
:1072500002B2ADF812004046009700F019FDE86850
:1072600060B1BDF91010BDF91220BDF814304046D0
:107270003C4607AF0097274600F00AFD50465946A6
:1072800007F072FA013630B2BDF85E10884215DAA6
:10729000BDF85C00D0E700BF16A81A901AA95046A6
:1072A000744607F061FAA64644E000BF40F61E00AF
:1072B00000904DF2A850C0F204000AE1E868B0B1B5
:1072C000079858B1BDF83410112907D34DF2EE518B
:1072D000C0F204014FF4037204F0FEFA0020ADF88E
:1072E0003400CDE90B00CDE90900CDE907000E9887
:1072F00058B1BDF85010112907D34DF2EE51C0F22C
:1073000004014FF4037204F0E7FA4DF2EE51002647
:10731000C0F20401404640F64D02ADF85060CDE9A0
:107320001266CDE91066CDE90E6604F0D5FADDF8F7
:107330000CE01D96287F002800F0C080698B0DF1BD
:10734000100BBEF1000FCDF868B0ADF8781077D013
:10735000DDE916121FFA89F30EAF00250126384623
:107360007446CDE91355CDE91155CDE90F550E956C
:10737000009600F0DDF9002800F0A480DDE9181285
:107380000DF11C0840462346CDE90C55CDE90A55C0
:10739000CDE908550795009500F0CAF9002800F0DE
:1073A000AB80BDF864004DF2EE51C0F2040140F62E
:1073B0006F0204F07BFA002800F07281BDF86010C3
:1073C0000546ADF810100121ADF81610BDF8661095
:1073D000BDF864000029ADF814001D95CDF870B01B
:1073E00000F0EA8000241AAE82B22846FF2104F0A1
:1073F0009DFABDF86200BDF910102044BDF864305C
:1074000002B2ADF812002846009700F041FCBDF929
:107410001010BDF91220BDF814302846CDF80080B8
:1074200000F036FC5046314607F09EF9013420B298
:10743000BDF86610884280F2BF80BDF86400D3E7D3
:10744000BDF86010DDF862201AAEADF81010ADF88E
:10745000160050463146CDF8122007F085F9BDF8E8
:107460006200BDF866102A7F0844801AADF8120049
:107470005046314607F078F9BDF86000BDF862105B
:107480002A7FADF810008818ADF81200BDF866002C
:107490003146801AADF816005046ADF8142007F0BA
:1074A00063F9BDF86000BDF864102A7F0844801AB3
:1074B000ADF810005046314607F056F921B0BDE84E
:1074C000F08F00BF40F6640000904DF26350C0F2B0
:1074D00004004DF280214EF650424DF23D63C0F261
:1074E0000401C0F20402C0F20403CDF8049022F0BB
:1074F0008DFB21B0BDE8F08F0E9858B1BDF850104B
:10750000112907D34DF2EE51C0F204014FF403727A
:1075100004F0E2F90020ADF85000CDE91200CDE909
:107520001000CDE90E0040F66B0000904DF2635064
:107530004DF280214EF650424DF23D63C0F2040000
:10754000C0F20401C0F20402C0F20403019422F06C
:107550005DFB21B0BDE8F08F0E9858B1BDF850101A
:10756000112907D34DF2EE51C0F204014FF403721A
:1075700004F0B2F90020ADF85000CDE91200CDE9D9
:107580001000CDE90E0040F6270000904DF21C508F
:107590004DF280214EF650424DF23D63C0F20400A0
:1075A000C0F20401C0F20402C0F20403019622F00A
:1075B0002DFB21B0BDE8F08F0E9858B1BDF85010EA
:1075C000112907D34DF2EE51C0F204014FF40372BA
:1075D00004F082F907980024ADF85040CDE9124438
:1075E000CDE910440F940E9458B1BDF83410112910
:1075F00007D34DF2EE51C0F204014FF4037204F0D0
:107600006BF94DF2EE51C0F20401284640F68702B4
:10761000ADF83440CDE90B44CDE90944CDE9074448
:1076200004F05AF91D9421B0BDE8F08FE868B0B1BC
:10763000079858B1BDF83410112907D34DF2EE5117
:10764000C0F204014FF4037204F046F90020ADF8D3
:107650003400CDE90B00CDE90900CDE907000E9813
:1076600058B1BDF85010112907D34DF2EE51C0F2B8
:1076700004014FF4037204F02FF90020ADF850001C
:107680001390CDE91100CDE90F000E9040F63200C5
:10769000BDF85C7000904DF2D440C0F2040035E0BB
:1076A0000E9858B1BDF85010112907D34DF2EE5184
:1076B000C0F204014FF4037204F00EF9079800249D
:1076C000ADF85040CDE91244CDE910440F940E942A
:1076D00058B1BDF83410112907D34DF2EE51C0F264
:1076E00004014FF4037204F0F7F840F67300BDF89C
:1076F000647000904DF28940C0F20400ADF834404F
:107700000C94CDE90A44CDE9084407944DF2EA51BE
:107710004EF650424DF23D63C0F20401C0F2040245
:10772000C0F20403019722F071FA21B0BDE8F08F96
:107730002DE9F04F8BB009910A9228B30546149CAD
:10774000103009A91F4604F049F9A87E00F0FE0098
:107750002044A8762F83EFB1022000EB4706102FBC
:107760001ED84CF61440C0F2040050F827004FF029
:10777000010B00EB46028119C5E90000C5E90212C0
:1077800058460BB0BDE8F08F4FF0000B58460BB0D9
:10779000BDE8F08F4FF0010B58460BB0BDE8F08FFD
:1077A000286840B14DF2EE51C0F20401A32204F06A
:1077B00093F80020286006EB46044DF2EE51C0F22B
:1077C00004012046A72204F071F80028286000F088
:1077D0001181214604F0A4F828682B1D81197C1C16
:1077E00000EB460207C3E6004DF2EE51C0F2040181
:1077F0003046BD2204F05AF88346002800F012817A
:10780000B80000B20BEB84090028CDF81C90049757
:1078100000F126818446C0F1010600214FF0000AE4
:1078200000271BE0DDE9079ABC4627460CB208EBAF
:107830000E031A442BF8146029F814A017440122EF
:107840006B68069E1F556B6811441F5D0AF1010AA3
:107850003F011F55059F874200F3068130B2002883
:1078600008DDA7EB0C0006EB4000ACF1010E421D59
:1078700004E000BF06EB4700E646C21C47F00100EB
:1078800000B20FFA8EF6B04200F3EE8013B2012B75
:107890000CDBA0EB0E0302EB4302541DAEF1010220
:1078A0000FFA82FC60450ADBDEE000BF02EB40021B
:1078B000D41C72460FFA82FC604580F2D58023B258
:1078C0000130012B06DB801A04EB4000541E431DDF
:1078D00005E000BF032343EA40000319144647F0C4
:1078E000030000B20FFA84F9484500F3BB80CDF8DD
:1078F00020A0BA461FB2012F06DB071B03EB47038C
:10790000671E053304E000BF03EB40032746033343
:107910000693013003B238B2834200F3A3800AF128
:107920000403B6101BB2B6EBA00F0EF0030E02F06C
:10793000030804F0030207F0030405933FF472AF59
:107940004FEAAC039E4223D103924FEAA902DDE93C
:10795000079A0BB2BC46964208EB0E072BF8136051
:1079600029F813A032D1039AD5F804E017440EF891
:1079700003706A68D75C3F01D7544A1C234614B28F
:10798000721E03F10C072BF8142029F814A02FE025
:10799000DDE9079ABC460BB227466C682BF81360EA
:1079A00029F813A004F803E06C689646E25C120123
:1079B000E2544A1C14B2721E2BF814200EEB08027B
:1079C0003A4429F814A0171D12E000BF6A68D75482
:1079D0006A68D75C3F01D7544A1C234614B2721E12
:1079E0002BF81420039A29F814A01A4402F108076E
:1079F000022225E7A9204DF2EA514EF650424DF2FF
:107A00004563009093A0C0F20401C0F20402C0F2EA
:107A10000403019422F0FAF84FF0000B58460BB023
:107A2000BDE8F08FBF204DF2EA514EF650424DF2C4
:107A30004563009077A0C0F20401C0F20402C0F2D6
:107A40000403019622F0E2F828684DF2EE51C0F2EC
:107A50000401C02203F040FF00202860D1E000BFF5
:107A6000002101E0DDF81C900FFA81F8049C40F23F
:107A7000D320A8F1010204FB00F33BF91200B0EBA4
:107A8000932F4FEA932003D139F91220904220D04E
:107A90006FF39F23B3F5007F04D803FB03F2D20BEF
:107AA00007E000BFC3F5806202FB02F20F23A3EBE5
:107AB000D2326B682BF8180029F8180003F8082058
:107AC0006868013110F80820120100F808200FFA48
:107AD00081F808B202281BDB0BEB8400ABF1040336
:107AE00030F818200FB26E682BF8172033F81820E2
:107AF000013129F8172006EB080212F8022CF25582
:107B0000A8F10202A8F10108002AE9DC0FFA81F8C5
:107B100008B2AA680021012810460892118067DB8C
:107B2000D5F80CE00BEB840A4FF00009002705E0C4
:107B30003D4609F1010945452F4659DA0FFA89F00A
:107B40000899474521F810703BF817302EF810308F
:107B5000EEDA07991FFA89F431F81720A242E7D12B
:107B6000062101EB470600BF9AB23BF91750AA4223
:107B7000C8BF2B467D1C45452EF81030D9DA3AF89F
:107B80000620A242D5D10BEB06029DB232F9041CAD
:107B90008D42C8BF0B46BD1C45452EF81030C8DAD3
:107BA0000AEB060CBCF80210A142C2D199B232F91C
:107BB000022CFD1C9142C8BF134645452EF81030DB
:107BC000B7DABCF80410A142B3D199B23BF9062050
:107BD0003D1D9142C8BF134645452EF81030A8DA26
:107BE0000AEB4701083689892F46A142BCD0A0E79D
:107BF0004DF2EE51C0F20401584640F23D1203F03E
:107C00006BFEBBF1000F18BF4FF0010B58460BB0D5
:107C1000BDE8F08F5B47545F4552524F5D5B257363
:107C20005D5B2573257328293A25645D20726164A4
:107C3000697573206369725F78206D616C6C6F6326
:107C4000206661696C2121212073697A653A2025BB
:107C5000640A00005B47545F4552524F5D5B2573D9
:107C60005D5B2573257328293A25645D2072616464
:107C7000697573206D616C6C6F63206661696C213E
:107C800021212073697A653A2025640A00000000EA
:107C90002DE9F04F83B0002800F0A9800C9F002F41
:107CA00000F0A5808046B87E0E46B7F9121010F09D
:107CB000010E1D46914200F39A80FC8A60189042A2
:107CC00040F39580B7F910C03B8B03EB0C00B0423A
:107CD00008DCB7F814A0D843604405EB060950440B
:107CE00081455DDDC818904204DCD8430844204437
:107CF000904255DA002B7AD0511A0AB2C84319447F
:107D0000091B1FFA8CFC9342C8BF1918B8688AB2C5
:107D1000ACEB060400EB420630F812C07688F86837
:107D2000A6EB0C0630F81220D7F804900FFA86FB69
:107D3000B88AE61A16442344D24309EB0C013044B6
:107D4000BEF1000F1A4455D10FFA80FA14B2BBF1FC
:107D5000010FC0F218824FF0FF3010FA8BF0029141
:107D600003280BF00300CDE9000B80F08980A446C6
:107D70000023DDE901B7009E6446002E00F0038277
:107D8000D8435844385C03EB0A01A942C0F0808113
:107D9000E11AA942C0F08781012E00F0F4818BE145
:107DA000BEF1000FACEB060116D1A9421FDC002981
:107DB00005D4404603F0B4FDB7F91000811BB88A22
:107DC0000144A94213D208EB0100691A03B0BDE8CF
:107DD000F04F03F0A5BD00BF21EAE170A84206DC28
:107DE000BA8A1144A942C8BF2946091A42D503B02C
:107DF000BDE8F08FBBF1000F2ADD02911FFA8BF472
:107E000059460FFA80FB4FF0FF3010FA81F013B2A1
:107E1000032801F00300CDE9004080F0C180002775
:107E20009C46019CC4B1009BF84302991844085C2D
:107E300007EB0B01A94280F0FF00C0F04F81ACEBD3
:107E40000701A942C0F05681012C05D05CE100BFBA
:107E50000FFA82FC0FFA80FB2846AC45B8BF0CF144
:107E6000010020EAE070AB45C8BFAB46ABEB0001B8
:107E700021EAE171404403B0BDE8F04F03F050BD8A
:107E80001FFA8BF0264620F0030E584600EB0C0339
:107E900003EB090108EB0A0B8F1E0023A44606E042
:107EA0000433043E9E45A7F104073FF462AF7C789B
:107EB0000AEB0301A94219D3AE4220D33C78481CF7
:107EC000A84227D3701EA8422ED317F8014C881C55
:107ED000A84237D3B01EA8423ED317F8024CC81CA4
:107EE000A84247D3F01EA842DAD24EE01BF80300A6
:107EF000844298BF20460BF80300AE42DED218F849
:107F00000600844288BF044608F806403C78481CB6
:107F1000A842D7D20BEB03004278944298BF224686
:107F20004270701EA842D0D208EB060010F8012C57
:107F3000944288BF144600F8014C17F8014C881C85
:107F4000A842C7D20BEB03008278944298BF224626
:107F50008270B01EA842C0D208EB060010F8022CB6
:107F6000944288BF144600F8024C17F8024CC81C13
:107F7000A842B7D20BEB0300C1788C4298BF2146D0
:107F8000C170F01EA842BFF48BAF08EB060010F8DA
:107F9000031C8C4288BF0C4600F8034C80E700BFEE
:107FA0000CEB0400484424F0030A08EB0B0E0238E3
:107FB00000271A469C4606E00437043ABA45A0F169
:107FC00004003FF42EAF44780BEB0701A94284F084
:107FD000FF0406D21EF80760A64228BF26460EF808
:107FE0000760AA4206D218F80260A64238BF34469B
:107FF00008F8024006784C1CAC4286F0FF0406D21A
:108000000EEB07067378A34228BF23467370531EF6
:10801000AB4208D208EB020313F8016CA64238BF4A
:10802000344603F8014C10F8013C8E1CAE4283F03C
:10803000FF0406D20EEB07039E78A64228BF264611
:108040009E70931EAB4208D208EB020313F8026C39
:10805000A64238BF344603F8024C10F8023C033104
:10806000A94283F0FF0106D20EEB0703DE788E42B1
:1080700028BF0E46DE70D31EAB429DD208EB020332
:1080800013F8036C8E4238BF314603F8031C93E7A4
:1080900018F80120904298BF024608F80120E11A22
:1080A000A942BFF479AE18F80120904288BF10466B
:1080B00008F80100012E66D0ABEB03005A1C00EB60
:1080C000070C1CF8021C02EB0A07AF4230D3A21ABD
:1080D000AA4237D3022E56D03DE000BF18F8012047
:1080E000824228BF024608F80120ACEB0701A942F2
:1080F000BFF4AAAE18F80120824238BF104608F833
:108100000100012C3FF4A8AE0299D81B08447A1C48
:1081100010F8021C02EB0B03AB4281F0FF014FD3BE
:10812000ACEB0202AA4256D3022C3FF495AE5CE0BF
:1081300018F80700814298BF084608F80700A21AFD
:10814000AA42C7D218F80270B94288BF394608F867
:108150000210022E17D0991C1CF8030C01EB0A0226
:10816000AA4206D218F80230984298BF034608F88F
:108170000230611AA94206D218F80120904288BF45
:10818000104608F801000AEB0B00A842C8BF2846B9
:1081900001B2002848BF002108EB0100691A03F072
:1081A000BFFBA4EB0B00A842B8BF451C25EAE57055
:1081B00001B2404603B0BDE8F04F03F0B1BB00BFD1
:1081C00018F803608E4228BF0E4608F80360ACEB37
:1081D0000202AA42A8D218F802308B4238BF1946D0
:1081E00008F80210022C3FF437AEB91C10F8030C4B
:1081F00001EB0B02AA4280F0FF0006D218F8023011
:10820000834228BF034608F80230ACEB0101A942C3
:10821000BFF422AE18F80120824238BF104608F899
:10822000010019E62DE9F04FC3B09346927D8946CF
:10823000110780464FF000061F9300F1A1805D46B4
:10824000DBF8002035F8060F1389ADF8F800BBF80D
:108250000800117D002BC8F80860C8F80460C8F851
:108260000060ADF8FA00ADF8FC10ADF8FE1000F0BB
:108270002781D2F80A10D2F80E70D2F81240106896
:10828000CDF8E610CDF8EA70CDF8EE40CDE937062E
:10829000D2F81600B9B2CDF8F200BDF8E80037AA5E
:1082A000CDE91159ADF8E43002F10A0416F042FCB0
:1082B000DBF800108246C97D35A8002908BF0121DE
:1082C0009DF8F0508DF8F31021460222002300960D
:1082D00017F024F8BDF8DA404DF2EE51C0F2040177
:1082E000204640F27A4203F0E1FA0028389000F08C
:1082F00023819DF8F0004DF2EE514000C0F20401E0
:1083000040F27F421B9403F0D1FA81469DF8F000C1
:10831000B9F1000F4FEA400400F02C814846FF21DC
:108320002246169503F002FBDBF800000168008A84
:10833000179118F055F88DF8D300053801284FF043
:10834000000400F2A581DBF800004DF2EE51008937
:10835000C0F2040140F2894203F0A8FA002800F0BC
:10836000F58207469DF8D32037A83946CDF83880E6
:1083700018F07EF80028179818BF384617908AE141
:108380005D46DBF8002035F8060F1389ADF8F800DC
:10839000BBF80800117D002BC8F80860C8F804601D
:1083A000C8F80060ADF8FA00ADF8FC10ADF8FE10AA
:1083B00000F0A080D2F80A10D2F80E70D2F8124065
:1083C0001068CDF8E610CDF8EA70CDF8EE40CDE9B2
:1083D0003706D2F81600B9B2CDF8F200BDF8E800C1
:1083E00037AAADF8E43002F10A0416F0A3FBDBF87B
:1083F00000100746C97D0222002908BF01219DF80F
:10840000F0008DF8F3101B9035A82146002300964C
:1084100016F084FFBDF8DA404DF2EE51C0F20401CF
:10842000204640F2036203F041FA0028389000F041
:108430008B809DF8F0004DF2EE514000C0F2040137
:108440004FF4C162CDE9177403F030FA82469DF80B
:10845000F000BAF1000F4FEA400600F0CF8050461E
:10846000FF213246109503F061FADBF80000016845
:10847000008A1E9117F0B4FF8DF88C000538012892
:108480004FF0000400F2B481DBF800004DF2EE5131
:108490000089C0F2040140F2126203F007FA0028DA
:1084A00000F0708206469DF88C2037A8314617F000
:1084B000DFFF00281E98159618BF30461E9099E1E0
:1084C0009BF8142002F07F02082A00F2D8800123D2
:1084D00003FA02F212F4927F00F0D180BBF80C2074
:1084E0008A4240F2CC80511A00EB5100ADF8FA00FC
:1084F000C5E000BF9BF8142002F07F02082A0ED8C6
:10850000012303FA02F212F4927F08D0BBF80C2088
:108510008A4204D9511A00EB5100ADF8FA00DDE9A6
:108520003E10C8F80010C8F804004FF6FF70C8F8F5
:10853000080043B0BDE8F08F40F27C4000904DF25F
:108540008D30C0F204001CE040F2056000904DF256
:108550008D304DF280214EF650424DF20F63C0F245
:108560000400C0F20401C0F20402C0F2040301944A
:1085700058E000BF40F2814000904DF2CA30C0F296
:1085800004004DF280214EF650424DF22563C0F2B8
:108590000401C0F20402C0F20403019421F036FB8E
:1085A0004FF0000900274DF2EE51C0F2040140F2F5
:1085B000B25203F091F947B14DF2EE51C0F204010D
:1085C000384640F2B65203F087F9B9F1000F08D0EF
:1085D0004DF2EE51C0F20401484640F2BA5203F0A7
:1085E0007BF9389800284AD04DF2EE51C0F20401D0
:1085F00040F2BE5203F070F941E000BF40F20A6061
:1086000000904DF2CA304DF280214EF650424DF2AC
:108610000F63C0F20400C0F20401C0F20402C0F211
:108620000403019621F0F2FA4FF0000A00244DF203
:10863000EE51C0F2040140F21B7203F04DF944B157
:108640004DF2EE51C0F20401204640F21F7203F0D9
:1086500043F9BAF1000F08D04DF2EE51C0F2040117
:10866000504640F2237203F037F9389838B14DF292
:10867000EE51C0F2040140F2277203F02DF9DDE95A
:108680003E10C8F80400C8F8001043B0BDE8F08FF1
:10869000CDF838800027BBF804101F9BADF8C4103C
:1086A0009BF815103EA8CDE92D042F9430943293F9
:1086B0008DF8CC10CDE926043398319A9DF8F060FE
:1086C000CDE92B309BF816002A923209CDE92844D7
:1086D000ADF8A840CDF8A4901C90B4EB161F08BFCD
:1086E0000122DBF8001000F00600002808BF024657
:1086F000087D14921D909BF813009BF812801A902D
:10870000BBF80A0040F2AF421E9008894DF2EE51CC
:108710001990C0F204010620CDE9244423940624D4
:1087200003F0C4F8002800F0D9801590DBF80000B1
:10873000079707899BF81600CDF82CA0C007BBF857
:108740000AA09BF814004FF00001209142918DF88F
:10875000071107D0BBF80E10BBF80620AAEB0101E9
:1087600001EB020A08EB560100F07F00072800F237
:10877000DF844FF0010808FA00F010F0930F00F0CA
:10878000D7841E989DF8F0309BF81320B0FBF1FCC5
:108790009BF816101F090026B6EB131F4FEA470778
:1087A0001A4408BF022711F0060F18BF3A4402FB13
:1087B00008F3BBF80C709EB2BBF80820BE4280F0F4
:1087C000BF809BF81440DDE91C8E04F07F041A9DE5
:1087D000092C00F2F680012000FA04F414F4927FD0
:1087E00040F0EC8014F4127F1CBFB818C21AE8E005
:1087F00000201590BBF804101F9BADF8C4109BF827
:1088000015103EA8CDE92D042F94309432938DF8A5
:10881000CC10CDE926043398319ACDE92B309DF860
:10882000F0009BF81650B4EB101F4FEA10102A927C
:10883000CDE92844ADF8A840CDF8A4A008BF012098
:1088400005F00601002908BF08461690BBF80A008B
:108850004DF2EE511C90DBF80000C0F204010089DB
:1088600040F235621D9006204294259424940624FB
:1088700003F01CF800284BD09DF8F06014909BF892
:108880001370BBF908C09BF8160034090022BBF82E
:108890000C30B2EB161F4FEA44021FFA8CF108BFEE
:1088A0000222374410F0060F18BF17449F424BD2E4
:1088B0009BF814201F9C02F07F06092E00F2F5831E
:1088C000012202FA06F616F4927F40F0EB8316F4CA
:1088D000127F1CBF1944C91BE7E300BF40F2B2403E
:1088E00000904DF20C404DF280214EF650424DF278
:1088F0002563C0F20400C0F20401C0F20402C0F219
:108900000403019421F082F9DDF8388053E600BFBA
:1089100040F2376000904DF20C404DF280214EF64F
:1089200050424DF20F63C0F20400C0F20401C0F2E5
:108930000402C0F20403019421F068F9159C7EE65C
:108940001A9DDDE91C8E3CE01F9CAEE3DBF80000C5
:108950004DF28021078940F28B4000904DF2494052
:108960004EF650424DF22563C0F20400C0F20401FD
:10897000C0F20402C0F20403019721F047F9002776
:1089800011E600BFDBF800004DF28021078940F2BC
:10899000146000904DF249404EF650424DF20F6384
:1089A000C0F20400C0F20401C0F20402C0F20403E9
:1089B000019721F02BF9002439E600BFB81B02EB28
:1089C0005002ACF10100ADF8FA20C907199E1CBF96
:1089D000BBF81010ADF8FA1020F001000C901498BC
:1089E00008F001034FEA4000CDF820900D9043B10C
:1089F000BBF80A00BBF80E10BBF80620401A104462
:108A00001E90002B18BF01230D9905EB0E000844A2
:108A10001A901B984FF0000940080A90701E0690AB
:108A200001201390179810931C900020189000209C
:108A30000F901DE0BDF8FE000D9A9BF81310104436
:108A4000BDF8FA2008441044179AADF8FA00BBF8B4
:108A50000A001E9000200F909DF8F00012FA89F194
:108A6000ADF8FE001690ADF8FC0000201C911090AF
:108A700000274FF0000826E0013188B21391400032
:108A800010FA81F04DF2EE5241001598C0F2040246
:108A90004FF49C6302F014FF06EB4602159000EBC6
:108AA000420120F812709DF8D300199E08F10108C8
:108AB000A1F802A00871D1441FFA89F05744B042CE
:108AC0001E9480F084801FFA89F0864240F2E08292
:108AD000BDF9FA10149ABDF8FE30BBF90860BBF876
:108AE0000C400A441344A219199E934206DD89B230
:108AF000511A09B202291691C0F2CA82179A115C62
:108B00000A2945D010441E993790A6EB09000CB2F3
:108B1000ADF8E40024A8BBF80A209BF812300090BE
:108B20000DF1D300019037A8214623AD029516F030
:108B3000A3FE824680B2249950EA010202D00022AC
:108B4000189209E0BBF80A2094424FF0010208BFD6
:108B50000222189B134418931E9A0028A2EB0104CA
:108B6000214608BF11460AB29DF8F0309A4225DD31
:108B700060B39DF9D30016F0C3F900289BD0139978
:108B80001FFA88F688B2B0427FF676AF159883E771
:108B900009F101094FF0000A9DF9D30016F0B0F970
:108BA000E0B91898109DC0B2012809D81FFA89F0C1
:108BB000B04238BF57441D9752E000BF0C4606E054
:108BC00000201E900C981D904AE000BF1E9C1E9431
:108BD0009DF9D30016F094F90028E2D013991FFAFA
:108BE00088F488B2A04201D915980FE0013188B20B
:108BF0001391400010FA81F04DF2EE5241001598A9
:108C0000C0F2040240F2F34302F05AFE04EB4403C4
:108C10009DF8D32000EB4301159020F813701898AD
:108C20000A71C0B21FFA89F202284FF0000038BF63
:108C30000120B2424FF0000238BF0122BDF88C3053
:108C400010401A4618BF07EB0A021D9218BF534680
:108C50001E9A08BF0246109D1E924B8008F1010823
:108C60000F98169FC0071DD19BF91410BBF8060082
:108C700001F07F02131F032BC0F0DC81073A022AA8
:108C800000F2EC811E9A92B200EB5202B1F1FF3F6A
:108C9000ADF8F82006DCBBF80A10C2EB400008442F
:108CA000ADF8F800E8071CBFBBF80E00ADF8F800FF
:108CB0001D98ADF8FE70000400F0708138B21FFA04
:108CC00088F6109018980025C0B201284FF00000D7
:108CD0004FF0000488BF01200027099005EB4500F4
:108CE000159901EB40001690B54205D21698B9B21D
:108CF0000088814200F0308138981B9A002102F0F0
:108D000015FEDBF800009DF8F420007D25A98DF804
:108D1000F0001C982044379015F00EFF2599ADF80F
:108D2000E400084637A916F097FB9BF9141080461B
:108D3000B1F1FF3F05DCBDF8F800A0EB0800ADF88D
:108D4000F8001F9BBDF9FA001A9AB3F90210024409
:108D50008A42C0F2C980DA8811448142C0F2C480DC
:108D6000BDF9F800B3F9001000EB08028A42C0F226
:108D7000BB809A8811448142C0F2B680259818F0D1
:108D800031F898B125989DF8F01018F03BF80028BC
:108D900000F0C2809DF8F01030901298ADF8FC10F1
:108DA0002DA905F0E1FC0020309057E038980A9A90
:108DB0000021104402F0BAFD259937A816F0E4F816
:108DC0004CF6CD41C3B2CCF6CC41A3FB0112D10885
:108DD00001EB81043C9AA0EB44000A2B38BF01212F
:108DE00000F00F00032800F09F80022812BF08F156
:108DF0000700072050FA82F0C008CAB200FB02F058
:108E0000C0B2CCB20F90B0FBF4F09DF8F410C200E9
:108E10002598ADF8FC2016F029F8012805D1BDF8F9
:108E2000FA000B990844ADF8FA009DF8F020DDF83F
:108E3000E0C012980F9B2DA90094CDF804C005F056
:108E40008FFD25989DF8F41016F010F8012805D133
:108E5000BDF8FA000B99401AADF8FA009BF816001D
:108E600000F0060102291CD19DF8F010109A8A42E8
:108E700017D13E98BBF8042001EB10412090481C0C
:108E8000ADF88200149826A9ADF8860020A8269097
:108E90001298ADF88480ADF8A82005F065FC9BF829
:108EA000160000F0060004281ED19DF8F0000D9970
:108EB000109A01EB5001914216DA3E99400800EBFE
:108EC00011402091ADF882001498BBF80420ADF851
:108ED000860020A82690129826A9ADF88480ADF8C7
:108EE000A82005F041FC00BF9BF91400BDF8F81064
:108EF000B0F1FF3F9BF81200C6BF40440844081A77
:108F0000BDF8E410ADF8F8000F441D99BCB289B269
:108F10008C42FFF4E9AE41E09BF81200BDF8F81076
:108F200040440844ECE700BF110E0129D0B205D13E
:108F30000F303E2101EAD000012161E70F2210FB32
:108F400001204FF6F0721040B0FBF1F00730C0087E
:108F500000FB01F054E700BF1C981699204437909D
:108F60004888129BADF8E4002DA80A79CDE9000BE2
:108F70001098099C029026A80390119837A9049094
:108F800020A8059400F0B8FDBDF8E40001350744C1
:108F90001D98BCB280B28442FFF4A0AE9DF9D3000C
:108FA00015F0AEFF1899C9B2022911D380B19BF90F
:108FB0001400199EB0F1FF3F1D98814444DDBBF8B9
:108FC0000A00BDF8F810BBF80620401A104440E033
:108FD00002290C9828BF8246D1441FFA89F0199EB5
:108FE000B042FFF427AD179A0698105C0A287FF468
:108FF0002EADBDF8FE000D9A9BF813101044BDF87D
:10900000FA2008449BF914100244BBF80600B1F1A1
:10901000FF3FADF8FA2029DD01F07F010A1F032A86
:1090200030D30739179A02292FD81E9989B200EB3D
:1090300051002AE01E9A0244B1F1FF3FADF8F8203A
:109040003FF730AE27E600BF1199BDF8F800098858
:10905000401A1E900120179AFDE400BF0246B1F1AC
:10906000FF3FADF8F8203FF71DAE14E6BBF80A103D
:10907000BDF8F82001EB4000801A179AADF8F8000F
:10908000E5E400BF1E99179A0844ADF8F800DEE445
:10909000DDE907791598DDF8388000287FF483AA88
:1090A000FFF789BADA1B01EB5201ADF8FA10C207DB
:1090B0001CBFBBF81010ADF8FA10169ABDF8FE7080
:1090C00002FA81F2174403EB0C02974205DD511AB4
:1090D00009B202291B91C0F26D83C0064FF0000057
:1090E00004D400200C9000201A908CE020904CF2C8
:1090F0003C109DF8F420C0F2040020A9379015F030
:109100001BFD209AADF8E40037A9104616F0A4F92B
:10911000002853D000EB40069DF8F0004CF23C11C3
:10912000C0F20401864238BF06460C9103215FE07D
:10913000002F00F0F78200264FF0010837AD18919C
:10914000B0B21799085C0A2826D011FA86F00FFAF7
:109150008AF13790B81BADF8E40020A8BBF80A20CC
:109160009BF8123000900DF207100190284642AC97
:10917000029416F081FB20990204304410D0AAEB2F
:1091800001020FFA82FABAF1000F09DD81B2064638
:109190008F42D5D8C2E200BFBBF80AA0013604E076
:1091A000BBF80AA0514528BF0646B0B218998742BD
:1091B00008F10108C4D8FFF7E4BA00BF4CF23F1031
:1091C0009DF8F420C0F2040020A937900C9015F00F
:1091D000B3FC209AADF8E40037A9104616F03CF92C
:1091E00000EB40069DF8F0000921864238BF064694
:1091F0001A911C99891B1C9109B2B1EB500F03DA2B
:10920000BBF80A001C9000261D98CDF834A0002859
:10921000CDE91295CDF8388000F0828000201190C1
:1092200001201C990B9023AD25AF0DF1DC094FF007
:10923000000A002019960F960CB21FFA80F81C91B4
:1092400005E000BF1D9808F10108804564D21E9812
:1092500010F808000A28F5D01E98BBF80A204044F0
:1092600037901D989BF81230A0EB0800ADF8E40091
:109270004846214624AECDE90075029616F0FCFA68
:1092800006460004DED025990029DBD09BF8162085
:10929000D20604D5A1423FD21C9A521A1C92002831
:1092A0009DF98C00199A18BF0A44199215F028FEEE
:1092B00030B311980B9984B288B2A04202D91498A5
:1092C00010E000BF013188B20B91400010FA81F02C
:1092D0004DF2EE5241001498C0F2040240F26B636A
:1092E00002F0EEFA04EB4402149000EB420120F885
:1092F00012A04E809DF88C000871119801301190D9
:1093000006EB080081B21D9AB244DDE90E861F9C6F
:109310008A421C9990D808E01F9CDDE90E8604E083
:1093200000204FF0000A19961190199DA28828B2CA
:10933000A8F80850904207DDBBF806009BF814100F
:10934000139E189D16E000BF9BF81410208801F0B2
:109350007F073B1F032BA5EB0603139E189D07D326
:10936000073F022F9EBF9BB2D21A00EB520001E0D2
:10937000D21A10444AB206F00101B2F1FF3FADF833
:10938000F80008DCBBF80A20BBF80630101A00EB26
:109390004300ADF8F80000291CBFBBF80E00ADF883
:1093A000F8001FFA8AFA1B98BAF1000FADF8FE0018
:1093B00000F0658168081390169837AF40000F9051
:1093C00011984FF0000886B200201C9000201196E2
:1093D0001C99149A01EB410102EB4101199114E02F
:1093E0009BF914109BF81200B1F1FF3F5EDDBDF850
:1093F000F81048440144BDF8E400ADF8F8104044CA
:109400001FFA80F8D04580F03A811C99B14205D20C
:10941000199980B20988814200F00C8138980021A6
:109420002A4602F083FADBF800009DF8F420007D64
:1094300042A98DF8F0001E984044379015F07CFB4F
:109440004299ADF8E4000846394616F005F89BF954
:1094500014108146BDF8F800002944BFA0EB0900B4
:10946000ADF8F80009FA80F2B4F900108A42B7DBCF
:10947000A28800B211448142B2DB429817F0B2FCDC
:10948000C0B142989DF8F01017F0BCFC0028309055
:1094900000F0B4809DF8F0002DA9ADF8FC00129802
:1094A00005F062F9002030905CE000BFBDF8F810D4
:1094B000091AA0E73898139A0021104402F036FAEE
:1094C0004299384615F060FD4CF6CD41C3B2CCF65A
:1094D000CC41A3FB0112D10801EB81063C9AA0EB21
:1094E00046000A2B38BF012100F00F00032800F0CE
:1094F0008980022812BF09F10700072050FA82F084
:10950000C008CAB200FB02F0C4B2CEB2B4FBF6F09F
:109510009DF8F410C2004298ADF8FC2015F0A6FCAE
:10952000012805D1BDF8FA0017990844ADF8FA00F2
:109530009DF8F020389F12982DA923460096019798
:1095400005F00EFA42989DF8F41015F08FFC1F9C60
:10955000119E012837AF05D1BDF8FA001799401ABE
:10956000ADF8FA009BF8160000F0060102291FD1A1
:109570009DF8F0101B9A189D8A421AD13E98BBF8AC
:10958000042001EB10412090481CADF88200169891
:1095900026A9ADF8860020A826901298ADF88490F0
:1095A000ADF8A82005F0E0F89BF8160001E000BF38
:1095B000189D00F0060004287FF412AF9DF8F0001B
:1095C0000F991B9A01EB50019142BFF609AF3E99EA
:1095D000400800EB11402091ADF882001698BBF8CE
:1095E0000420ADF8860020A82690129826A9ADF890
:1095F0008490ADF8A82005F0B7F8F1E69BF81200CA
:10960000F5E600BF110E0129D0B205D10F303E2181
:1096100001EAD000012177E70F2210FB01204FF66D
:10962000F0721040B0FBF1F00730C00800FB01F011
:109630006AE700BF1E981999404437904888129BEA
:10964000ADF8E4002DA80A79CDE9000B1B98394646
:10965000029026A803901098A446049020A8002405
:109660000594644600F048FABDF8E4001C994044B3
:109670001FFA80F80131D0451C91FFF4A9AE1D9866
:10968000129D824580F08E809BF8160010F010002D
:1096900000F088809DF8F4200C9842A9379015F0CE
:1096A0004BFA429937ACADF8E4000846214615F074
:1096B000D3FEDBF800108046087D42998DF8F0005B
:1096C000204615F061FC4CF6CD41C3B2CCF6CC413E
:1096D000A3FB0112D20802EB82073C99A0EB4700E2
:1096E0000A2B38BF012200F00F0003280CD00228FB
:1096F00012BF08F10700072050FA81F0C008D3B26A
:1097000000FB03F01EE000BF0A0E012AC8B20DD113
:109710000F303E2202EAD000012213E01899FFF731
:1097200030B800BF4FF00108FFF72BB80F2310FB34
:1097300002304FF6F0731840B0FBF2F00730C0086B
:1097400000FB02F05FFA80FAD6B2BAFBF6F01A9A82
:10975000C000ADF8FC002AB300240DF1B40900BF2D
:10976000389FCAB22846494653460096019705F0ED
:10977000F7F89BF914109BF81200B1F1FF3FBDF808
:10978000F810C6BF40440844081ABDF8E410ADF80C
:10979000F80021448CB21A998C4203D29DF8F01043
:1097A000DEE700BFDDE90DA89DF8F000ADF8FC0094
:1097B000ADF8FE001498159C00287EF438AFFEF733
:1097C0003EBF00BF2DE9F04F99B00D4691F8211032
:1097D00003290ED30DF14008834640462421174645
:1097E0001FF046FE296839B110A801F085F8013054
:1097F00016D119B0BDE8F08F686888B1D0E900C211
:10980000D0E90234D0E90416CDE910C2CDE9123412
:10981000CDE91416026AD0E906101892CDE91610A7
:109820009DF85700BDF8551041EA00406FF31F3115
:10983000000BB980F8803846012117F0CFFC78681A
:109840003968CDE90E10CDE90C100EA80590002066
:109850000CA9CDE907109DF858100690ADF824002A
:109860000A9095F8210003298DF82C0005D00229D3
:1098700008F1150010D001294CD11399189800292E
:109880000890069100F0FA8005A9584604F06CFF94
:10989000002006900890F1E08178008840F267325D
:1098A00040EA014441F6FE7101EA440A01204DF20A
:1098B000EE51ADF83E00C0F20401504601F0F6FF53
:1098C0000028069000F0DA80270B00F08E800599C2
:1098D0000BF10C0600240DF140080DF1140907E00E
:1098E000059901344888A2B20130974248807BD95B
:1098F000304618F0ADFE0028F2D0069D22B2404658
:1099000000215346009501F03FF85846494604F0BF
:109910002BFFE5E711990029049100F0AF808178D1
:10992000008840F2D23240EA0146012034466FF30B
:109930001F344FEA440A4DF2EE51ADF83E00C0F23A
:109940000401504601F0B2FF0028069000F0968016
:109950000498360B057D012D4ED14DF2EE51C0F22B
:109960000401204640F2DA3201F0A0FF00280890FE
:1099700078D0002E6CD002950AFB06F505990BF104
:109980000C0800274FF00009CDF80CB011E000BF23
:10999000059909F101094888079A013048801FFAA2
:1099A00089F0574486425088254400F101005080D8
:1099B0004AD9404618F04CFE0028E9D0A346049C42
:1099C000069920463A46534600F08EFD08992046F7
:1099D0005C46DDF80CB02A46234600F085FD58466B
:1099E00005A904F0C1FED3E706984DF2EE51C0F28E
:1099F000040140F276323DE0A6B3059902950BF1E1
:109A00000C0500270DF1140900240DE00599079AB3
:109A10004888013401304880A3B250889E425744A0
:109A200000F1010050800FD9284618F011FE0028DF
:109A3000ECD0069904983A46534600F055FD584636
:109A4000494604F091FEE1E7029801280AD10898FE
:109A50004DF2EE51C0F2040140F2F33201F03CFF4E
:109A600000200890069848B14DF2EE51C0F2040172
:109A70004FF47E7201F030FF00200690109800280D
:109A80001CBF0DF1400000F0E7FF19B0BDE8F08FFA
:109A9000002908BF7047B0B58AB0044601A80D463A
:109AA00000F0F6FD94F82D00ADF822508DF8250059
:109AB0009DF8270000F0FE008DF8270001208DF8AA
:109AC000200018F053FFADF81C0018F04FFF94F879
:109AD0002F10ADF81E00890609D594F83000C00794
:109AE00005D1206904F11C0201A9FDF7E5F90AB0CE
:109AF000BDE8B040704700BF2DE9F04FA1B000268F
:109B000081460660466008890C464DF2EE510B9284
:109B10002A9D4000C0F2040140F2B72209931E962C
:109B2000C9F8086001F0C2FE00283FD0D4F80A103E
:109B3000278982462068D4F80E20D4F8123017AD59
:109B4000CDF86610D4F8161005F10A08002F17900A
:109B50001896ADF86470CDF86A20CDF86E30CDF867
:109B600072103ED09DF874201EA914F0E5FF1E99D6
:109B7000AAF80010BDF86410814231D904460126CC
:109B80001EAF00BF17989DF874202044394614F08A
:109B9000D3FF1E9904442AF81610BDF86410701CF7
:109BA0008C420646EED386B21BE000BF20894DF200
:109BB0008021470040F2B92000904DF257304EF618
:109BC00050424DF25963C0F20400C0F20401C0F2E9
:109BD0000402C0F20403019720F018F80CE200BF61
:109BE0000126BDF86C0015F07DFB04460B9B15A803
:109BF00041462246009615F091FB15984DF2EE5124
:109C0000C0F204014FF4337201F050FE159F00289A
:109C100000F0D281DDF8ACB039460546CDF8209091
:109C200001F07EFE9DF870209BF816004FF0000CAE
:109C30004FEA12199BF8141000F006009DF87130DD
:109C40009DF87370BCEB121F08BF4FF0010900288C
:109C500008BF8146BDF86C00CDF81CA0ADF83600F9
:109C600081F0FF00C0098DF84000E01EB0FA80F0DE
:109C70004FEA50108DF841001598CDF830A0CDE98D
:109C800011604CF6CD46CCF6CC46ADF834208DF8BC
:109C900038708DF839300F95CDE913CC07D0A4FB7F
:109CA0000601C8080A2C38BF01208DF838000CA81E
:109CB00015F01AFB1599BDF85A200695891A82B23B
:109CC00068182A9D002A0A92189000F06881E0B274
:109CD000A0FB0601C90801EB81002C9EA4EB40000B
:109CE0000A2C38BF012103914FEA4901002400F0FA
:109CF0000F004FF0000A059104900AE028689BF8D5
:109D000012100288511A01800A985444844280F04B
:109D100046810B990F98082922D1BDF85A101822B4
:109D200004FB0100102101234FF0010A15F000FD92
:109D30002E9F80469BF91400B0F1FF3F3ADD2F992A
:109D4000286800295CD0B0F90020B7F90010BB8862
:109D500052FA88F20B449A4252DD89B23AE000BFCF
:109D6000159901F0DDFD0C9830F8140020280BD176
:109D7000BDF834004FEA50082E9F9BF91400B0F153
:109D8000FF3FDCDC16E000BF0CA8214615F0C4FA4A
:109D90000F9FBDF85810BDF834209DF8383082462A
:109DA000384615F0C5FC80462E9F9BF91400B0F193
:109DB000FF3FC4DC28682F9B02885FFA88F1521AA3
:109DC0000280EBB113B2B7F90020934218DABB88D6
:109DD000511A1944C28843880180991841804A4425
:109DE000B7F90230FF8802FA81F5FA18954205DDCD
:109DF000511A0EB22A9D022E02DAD0E02A9D00BF2F
:109E0000C6806969B0F9022019FA86F7B1F9023003
:109E100017449F42C0F2B080CF883B449342C0F2C7
:109E2000AB80B0F90020B1F9003052FA88F79F42B8
:109E3000C0F2A280898819449142C0F29D800B999A
:109E400008290FD1102181800F98BDF85A109DF874
:109E5000702004FB01070120009009982946022385
:109E60003FE000BF0C9817A930F8140015F0F4FA81
:109E7000049A1C99032A05D0022A0FD1072050FA10
:109E800081F00FE0080E0128CAB211D102F10F00D3
:109E90003E2202EAD003012016E000BF073007226D
:109EA00002EBD000039AC00800FB02F310460BE05F
:109EB0000F2312FB00324FF6F0731A40B2FBF0F2A0
:109EC0000732D20802FB00F34FF4FF6202EAC3023A
:109ED0002F68C0B2BA800F9F00900998CAB2DBB257
:109EE0002946019704F03CFD9BF8160000F006019E
:109EF00002291DD132B29DF870108A4218D128680B
:109F0000BBF8043000685FFA88F201EB10411F9043
:109F1000481C2D99ADF87E001FA808600998ADF87F
:109F20008020ADF882900B8204F01EFC9BF8160096
:109F300000F0060004281FD19DF87000059A31B288
:109F400002EB50028A4217DA296840080968BBF818
:109F5000043000EB11401F912D99ADF87E001FA831
:109F6000086009985FFA88F2ADF88020ADF8829019
:109F70000B8204F0F9FB00BF9BF91400B0F1FF3F26
:109F80007FF7BCAE9BF81200296850FA88F00A8867
:109F9000104408800A9854448442FFF4BAAE4DF24B
:109FA000EE510698C0F2040140F2523201F094FCE6
:109FB000DDE907A917E000BF40F2CE2000904DF286
:109FC00057304DF280214EF650424DF25963C0F2A7
:109FD0000400C0F20401C0F20402C0F204030197BD
:109FE0001FF014FE2A9D4DF2EE51C0F204015046BE
:109FF00040F2563201F070FC286841680068C9F8E8
:10A000000410C9F8000021B0BDE8F08F2DE9F0413F
:10A0100082B000281CBF0F46002903D102B0BDE862
:10A02000F08100BF90F82C100546C068984616468F
:10A0300061B301EB41020B4600EB8202303A05E0CE
:10A04000043B1C1D042CA2F1300220DD546ABC42EA
:10A0500002D1948DB442E1D0012B18DD9469BC4249
:10A0600002D1148CB442D9D0032B10DBD468BC428B
:10A0700002D1948AB442D1D0042B08DB1468BC42CC
:10A08000DED11489B442DBD1C8E700BF00B301EBD5
:10A0900041010C2202EB81014DF28F62C0F20402F9
:10A0A000822305F10C0401F00BFC2060F0B195F85F
:10A0B0002C1001EB410200EB820340F82270481C97
:10A0C0001E81C3F8048085F82C0002B0BDE8F08141
:10A0D0004DF28F61C0F204010C207F2201F0E6FBFB
:10A0E0000021E86085F82C100028E0D18420009041
:10A0F0004DF20B204DF284214EF6504206A7C0F2DD
:10A10000040009A3C0F20401C0F2040201971FF089
:10A110007DFD02B0BDE8F0816F626A2D3E65766517
:10A120006E745F617474720067745F6F626A5F61FE
:10A1300064645F6576656E745F6362002DE9F0416B
:10A1400088B0002846D040F25408C2F20008054604
:10A15000D8F81800ADF81C10029002A8C8F8180032
:10A16000A86806920395049588B302AC8268002A19
:10A170004ED0284621469047039890F82C50D5B1F0
:10A18000C7680020002603E0013630B2A84211DA89
:10A1900000EB400057F820100029F5D007EB8000B5
:10A1A000BDF81C2003899A42EED1406805902046F4
:10A1B0008847E9E703981CF019F838B30546039877
:10A1C00003F0C0FE10B3A86803950028CED124A7E1
:10A1D00047201FE08D2000904DF20B204DF284218E
:10A1E0004EF650424DF2B167C0F204001EA3C0F219
:10A1F0000401C0F20402C0F2040701971FF006FD3B
:10A20000FF2040B208B0BDE8F08100BF002016E09A
:10A210000EA7482000904DF20B204DF284214EF6FF
:10A2200050424DF27463C0F20400C0F20401C0F267
:10A230000402C0F2040301971FF0E8FCFF2002991A
:10A24000C8F8181040B208B0BDE8F081636C6173C3
:10A25000732D3E5F6576656E745F6362000000007B
:10A26000636C61737300000067745F6576656E747C
:10A270005F73656E64000000F0B583B0B0B1078D08
:10A28000144605460E4600BF781E07B2002F27D49D
:10A29000B8B26968224651F820003146FFF74EFFF8
:10A2A0000028F1D040B203B0F0BD00BFA020009064
:10A2B0004DF20B204DF284214EF650424DF2B16723
:10A2C000C0F2040008A3C0F20401C0F20402C0F20C
:10A2D000040701971FF09AFCFF2040B203B0F0BDC5
:10A2E000002040B203B0F0BD67745F6576656E74A0
:10A2F0005F73656E645F746F5F6368696C6473003D
:10A30000B0B51446421C04BF4FF0FF30B0BD0D463F
:10A310001BF09AFF29462246BDE8B040FFF70EBF6A
:10A32000808A7047B0B505461FF0ADF8002845D0CB
:10A3300001464EF650406A1EC0F2040053185C7885
:10A34000392C05DC2E2C44D02F2C05D143E000BF46
:10A350003A2C18BF5C2C3ED001293CD0545C392CDF
:10A3600004DC2E2C30D02F2C04D134E03A2C18BF32
:10A370005C2C30D002292ED013F8014C392C05DC8E
:10A380002E2C23D02F2C05D125E000BF3A2C18BF4E
:10A390005C2C20D003291ED013F8023C392B05DC9D
:10A3A0002E2B15D02F2B05D115E000BF3A2B18BF4F
:10A3B0005C2B10D0043908BFB0BDBFE74EF650404B
:10A3C000C0F20400B0BD00BF013902E0023900E074
:10A3D000033948190130B0BD80B500781FF01BF873
:10A3E000C0B22E2804D066280CD1002001E000BFA6
:10A3F00001204CF29811C0F2040111F8100040B293
:10A4000080BD00BFFF2040B280BD00BFB0B5044694
:10A4100000780D461EF0FFFFC0B22E2804D066283B
:10A420001AD1002001E000BF01204CF29811C0F2C7
:10A43000040111F81000012804D068B917F018FBC6
:10A4400018B909E017F0B0F930B1836823B121469B
:10A450002A46BDE8B04018470020B0BD10B582B014
:10A460008646C06904694CB19C4613460A4671464B
:10A47000CDF800C0A04702B010BD00BF4FF0FF30C4
:10A4800002B010BD80B50346C069D0F818C0BCF159
:10A49000000F04BF4FF0FF3080BD96460A461946B4
:10A4A0007346BDE8804060470246C069C369002B1F
:10A4B00004BF4FF0FF3070478C4611466246184784
:10A4C00010B582B08646C06944694CB19C461346BB
:10A4D0000A467146CDF800C0A04702B010BD00BFCB
:10A4E0004FF0FF3002B010BD2DE9F04383B0C769D3
:10A4F0000546BE6900200290B6B13869A0B1984601
:10A5000089463846294600230024B0473E690DF1AC
:10A51000080C384629464A464346CDF800C0B047A5
:10A5200060B203B0BDE8F083FF2460B203B0BDE8C1
:10A53000F08300BF70B588B30646007814460D4618
:10A540001EF069FFC0B22E2804D0662826D1002054
:10A5500001E000BF01204CF29811C0F2040111F893
:10A560001000012804D0C8B917F082FA18B915E014
:10A5700017F01AF990B1836883B1314600229847E9
:10A5800060B10146028AC0692A80C2684B8A002AEB
:10A59000238018BF9047002040B270BDFF2040B21A
:10A5A00070BD00BF80B582B050B10146C069C268BD
:10A5B000002A04BF02B080BD02B0BDE88040104751
:10A5C00040F207104EF650420FF2180C009006A011
:10A5D00012A114A3C0F20402CDF804C01FF016FBB0
:10A5E00002B080BD667000005B47545F4552524F19
:10A5F0005D5B25735D5B2573257328293A25645DB2
:10A60000205B25735D2076616C75652063686563EA
:10A610006B206661696C6564210A0000434845430C
:10A620004B00000067745F66735F636C6F73650057
:10A63000F0B5C2F3C42CC1F3C42E059FACEB0E04DD
:10A64000C2F34515C1F3451602F01F0201F01F01C8
:10A6500004FB07F4521A02FB07F294FBF3F4AD1B60
:10A6600005FB07F592FBF3F2744404F0F80795FB41
:10A67000F3F51144C9B23A02AB1942EAD10103F031
:10A68000FC0241EAC201024608461180F0BD00BF4B
:10A69000B0B5002124220446002501F047F94FF609
:10A6A000FF70A561A4F82100B0BD00BF00210E22FB
:10A6B00001F03CB900210C2201F038B900210A2236
:10A6C00001F034B910B540F2AA14C2F200042078A7
:10A6D000002818BF10BD01F0CFF803F0A5FD17F05A
:10A6E000A5FC00F019F804F037F801202070FAF703
:10A6F000FBFBFAF71DFCFAF747FCBDE81040FAF740
:10A700003BBC00BF40F2AA10C2F200000078012852
:10A7100008BF03F0EDBE7047B0B540F25405C2F279
:10A72000000505F110004DF2B861C5E90400C0F262
:10A7300004011820A02201F0B9F838B10021182234
:10A74000044601F0F3F8C4E9004400E000244AF2B2
:10A75000B570C0F20200A0604AF2F570C0F20200CB
:10A76000E0604AF6350055F8101FC0F20200206183
:10A770004AF69100C0F2020060614C60C4E9001525
:10A780002C60B0BD10B54DF2B861C0F204011820C4
:10A79000A02201F08BF8002804BF002010BD00218A
:10A7A0001822044601F0C2F82046C4E9004410BD56
:10A7B0008160704710B5084600211446FFF726FE59
:10A7C000002804BF012010BD018A34F8012F6FF367
:10A7D0001F3102F470420A442280428A41EA023167
:10A7E0001209A2702180FFF7DDFE002010BD00BF1E
:10A7F000C160704710B588680C460021FFF706FE5F
:10A80000002804BF012010BD34F8151F01F4704169
:10A8100044F8110C028A6FF31F3211442180408AE0
:10A8200042EA00310009A0700020218010BD00BF65
:10A830000161704770B582B044689CB1B0F81500F2
:10A8400000266FF31F3000FB02F5002211FA85F09D
:10A8500041002046FFF716FE40B1FF2040B202B093
:10A8600070BD00BF012040B202B070BDA8B2069911
:10A87000420001AB20460196FFF7F0FD002818BF0B
:10A880004FF0FF3040B202B070BD00BF4161704771
:10A8900080B54068FFF786FE002080BD40F254017D
:10A8A000C2F2000151F8102F5060C0E90021086089
:10A8B000704700BF00797047F0B581B040F2540294
:10A8C000C2F20002134653F8104F9C4210D00D46BE
:10A8D000064602F1100702E02468BC4208D0A368D3
:10A8E000002BF9D0204631462A4698470028F3D15C
:10A8F000002001B0F0BD00BF2DE9F04381B04FF062
:10A9000000088146C0F80080C0F8088040F254007A
:10A91000C2F20000024652F8105F95422AD00F465C
:10A9200009F1140400F1100608E000BF20460021E0
:10A93000082200F0FBFF2D68B54217D0E868002818
:10A94000F9D0AB68002BF6D0284639462246984706
:10A950000028EBD1EA6828464946C9F808709047B4
:10A960000028E8D1C9F8005005E000BFD9F8005030
:10A9700001E000BF0025002D08BF4FF0FF38404622
:10A9800001B0BDE8F08300BF80B582B0A0B1D0F8BF
:10A9900000C0BCF1000F1DD0DCF810C0BCF1000FEE
:10A9A00026D0DDF810E0CDF800E0E047002818BF21
:10A9B000012002B080BD00BFE82000904DF20B20C6
:10A9C0004DF284214EF650424DF2E0630FF2840CBA
:10A9D0001AE000BFE92000904DF20B204DF28421D7
:10A9E0004EF650424DF2E0630FF2580C0CE000BFFF
:10A9F000EA2000904DF20B204DF284214EF6504299
:10AA00004DF2E0630FF2200CC0F20400C0F204012A
:10AA1000C0F20402C0F20403CDF804C01FF0F6F83F
:10AA2000012002B080BD00BF6473632D3E64656386
:10AA30006F6465722D3E726561645F6C696E655FFF
:10AA4000636200006473632D3E6465636F646572C6
:10AA5000000000006473630080B582B0016849693A
:10AA600021B102B0BDE88040084700BFF52000904A
:10AA70004DF20B204DF284214EF650420FF21C0C89
:10AA8000C0F204000BA3C0F20401C0F20402CDF82E
:10AA900004C01FF0BBF8002002B080BD6473632DBA
:10AAA0003E6465636F6465722D3E636C6F73655FB2
:10AAB0006362000067745F696D675F6465636F64FC
:10AAC00065725F636C6F73650000000040F2D80030
:10AAD000C2F200008068704740F2D800C2F2000065
:10AAE00080687047028A0A80408A4880704700BFA9
:10AAF000828A0A80C08A4880704700BF008F00F0B9
:10AB0000070070472DE9F04F9BB040F2D809C2F220
:10AB1000000999F80C00C00740F0948316F002FE7B
:10AB2000002800F08F83044600260DF11C0A4FF028
:10AB3000000B21E040F2062000904DF20B204DF278
:10AB400084214EF650424DF2F963C0F20400C0F287
:10AB50000401C0F20402C0F204030FF2F066019691
:10AB60001FF054F87869B86100260BF1010B5FFA09
:10AB70008BF0A04280F066835FFA8BF016F0C6FD82
:10AB8000074600680078032800F09280022800F051
:10AB9000C7800128E9D1B84658F8140F0596CDE9C9
:10ABA00003064FF400300690386803A942689047C6
:10ABB0009DF81A000228D8D0BDF90C10B1F5487FD5
:10ABC000D3DCBDF90E20B2F5F07FCEDC002838735F
:10ABD000A9F80810A9F80A20B982FA8200F02E819B
:10ABE000F86A002800F07681786B002818BF7E6232
:10ABF000FAF70EFB0646FBF755FB018D19B14146EE
:10AC000000F0F2FE18B93046414600F0EDFEF96A58
:10AC1000B86288421AD141465246554601F098F82A
:10AC2000F86A514601F090F916F09CFE3968BA684E
:10AC3000B1F90810801A884208D316F093FEF96A19
:10AC4000B860084602210022FFF778FAF86A90F807
:10AC50003010890740F19C81796B002900F09881C0
:10AC6000814240F095810068002800F08F8190F8C3
:10AC70003010890740F18B810068002800F0868140
:10AC800090F83010890740F182810068002800F0B8
:10AC90007D8190F83010890740F1798100680028A3
:10ACA00000F0748190F830108907DCD46FE100BFA8
:10ACB000388A0796CDE908604FF400300A9038686A
:10ACC0005146426890479DF82A0002283FF44DAF54
:10ACD0000128387340F0808099F8000040B90120C5
:10ACE00089F8000016F03EFE0999C9F8040039827F
:10ACF000788A013081B2788281427FF436AF16F0D3
:10AD000031FE3968D9F80420B1F90810801AB0FB77
:10AD1000F1F202FB1100002808BF7E8225E700BF88
:10AD20004CF24813C0F20403DA680BCB0A9207AA6C
:10AD30000BC2FAF76DFA396806464A68084651466A
:10AD400090479DF82A0002283FF40EAF3873304632
:10AD500000F012FF397BB861002941D040F2900128
:10AD6000C2F200010A6808996FF070439A4253D00A
:10AD70008A4251D1796901311E297961FFF4F4AE1B
:10AD800039690B2900F09A80092952D04A4642F8C5
:10AD9000081F0921FFF7D2F978694EF6EF61CEF668
:10ADA000EE6100FB01F048F688014FEA7000C0F642
:10ADB000880188423FF6D8AE38690A287FF4D4AEBD
:10ADC000B86903F0F1F800287FF4CEAEB86909F154
:10ADD000080202217AE000BF89F800607E82C4E6A2
:10ADE0007969002671B139690A290BD10A21C9F89C
:10ADF000081003F0D9F828B9B86909F1080201214F
:10AE0000FFF79CF940F290016FF07040C2F2000130
:10AE10007E610860A8E600BF40F29002C2F2000224
:10AE200011600B294FF0000239617A6146D009297F
:10AE300070D100F0A9FE4A46092043E0FE6A002EC8
:10AE40003FF490AEBD6A304603F0AEF878B9F86AC8
:10AE500005210022B54208BF0121FFF76FF9D7E9AC
:10AE60000B10884203D005210022FFF767F9786BA9
:10AE70000026BE62F8B116F075FD7968401AB0F58B
:10AE8000FA7F5DD95046554616F0A8FF4FF4806012
:10AE9000169012904BF2E920C0F202000A904BF299
:10AEA0005D50C0F20200CDE90C005046099714969F
:10AEB00016F0E8FFF863C7E90B6653E600F0A8FE5A
:10AEC0004A460B2042F8080FB8690A21FFF736F905
:10AED0004AE600BF16F046FDC7E90100388F3E6222
:10AEE00020F007004FF00009FE613887FAF790F96B
:10AEF0000546FBF7D7F90646008D002800F0C48010
:10AF00003046414600F070FD002800F0B380B86282
:10AF1000C0E000BF4A4642F8081F0921FFF70EF9BA
:10AF200038690A287FF420AEB86903F03DF800289C
:10AF30007FF41AAEB86909F108020321C6E700BF21
:10AF4000FAF766F9398F804611F0070140F03A812F
:10AF5000B7F9200017F0A4FDB7F9221006460846FD
:10AF600017F09EFD398C864240F31A8138680AB288
:10AF7000807B002641428A424FF00001B8BF032186
:10AF80008242C8BF0421FE841CE100BF0020F86299
:10AF9000B98A3A8B7B8B891AFA8AB7F92660D21A5A
:10AFA000B7F9243006FA82F603FA81F300284FEA53
:10AFB0005303BB844FEA5603B983FA83FB843FF4FF
:10AFC000B9AD388C7B8C0844398F1A4411F00701D5
:10AFD00038847A841AD0388F20F00700421822F083
:10AFE0000702F86A53184A1E032A78633B8700F267
:10AFF000A480DFE802F00391959D00BFB7F91230FD
:10B00000B3F5EB7FBFF6AEAD97E000BF00B217F02F
:10B0100047FDB7F922100646084617F041FD398C66
:10B02000864211DD38680AB2807B41428A424FF085
:10B030000001B8BF032182424FF00000F88440F3C2
:10B040009F800421C7E700BFB7F922000023014316
:10B05000090400F09F8039688A7B514288424FF092
:10B060000001B8BF01219042BB8440F389800221D6
:10B07000B1E700BF304616F043FA19F03FFE18B1B1
:10B08000C7F828902CE000BF2846414600F0ACFCF1
:10B09000B86228B302F088FF40F2D8090028C2F253
:10B0A00000097FF45FADB86A41465246C7E90B001C
:10B0B000554600F04DFEB88AF98A38823883B86A5E
:10B0C00079827983514600F03FFFB86A032100225C
:10B0D000FFF734F8F86A002600287FF485AD87E58D
:10B0E0004FF4EC7000904DF20B204DF284214EF69F
:10B0F00050424DF2F963C0F20400C0F20401C0F204
:10B100000402C0F2040356A601961EF07FFD40F231
:10B11000D809C2F2000925E5B7F912300AE000BFEC
:10B12000B7F9103040F21536B3423FF71BAD04E0DB
:10B13000B7F910300B2BFFF615ADD2B2012A0BD8A0
:10B140000239B1FA81F1B7F81E8000264909BE84A0
:10B1500002F08CFE0BE000BF0439B1FA81F1BE8B26
:10B160004FF000084909A7F8268002F067FE786BC7
:10B1700031B20FFA88F2002300F004FEF2E400BFBF
:10B18000388F002920F0070000EB01023A877FF496
:10B1900026AFE7E4388F20F007003887E2E400BFED
:10B1A000B7F9220000260143090445D039688A7B9B
:10B1B000514288424FF00001B8BF01219042C8BF00
:10B1C0000221BE84388F20F007004218481E032851
:10B1D0003A873FF657AEDFE800F0030B131D00BFC0
:10B1E000B7F91200B0F5EB7FFFF64CAE112117E076
:10B1F000B7F912000B28BFF645AE102110E000BFD2
:10B20000B7F9100040F2153188427FF73BAE1321A9
:10B2100006E000BFB7F910000A283FF733AE12214D
:10B2200040460022FEF78AFFF86B002818BFC6626E
:10B23000FE637E623FE600BF388F20F0070038874C
:10B2400020E600BF1BB0BDE8F08F00BF706F696ED5
:10B25000745F702D3E6F626A5F746172676574001F
:10B26000706F696E745F702D3E6F626A5F616374A8
:10B270000000000040F2D800C2F20000007B00F0A5
:10B280000100704740F2D801C2F200010A7B02F0CF
:10B29000FE021044087370472DE9F041044616F091
:10B2A00041FA4FF00008C8B105460027002607E024
:10B2B0000136F0B2A84224BF07F00100BDE8F081DA
:10B2C000F0B216F023FAC16AA142F1D194F82F101E
:10B2D000C90644BFC0F82C800127E9E7002707F022
:10B2E0000100BDE8F08100BF2DE9F04182B00446C5
:10B2F000008F10F0070000F08F80218F21F00701F0
:10B3000001442187656B0138C0B204F110080021A7
:10B3100001282846ADF80610ADF804103ED802F01A
:10B32000D5FDE38C002800F0A380002B00F0D68030
:10B33000206848F21F52C07BC5F2EB12C0F16401D5
:10B34000002000BF11FB03F6184456FB02F67711EC
:10B3500007EBD676370400F0C28011FB06F33044C9
:10B3600053FB02F35F1107EBD3731F0400F0B780A8
:10B3700011FB03F7184457FB02F77E1106EBD77653
:10B38000370400F0AC8011FB06F3304453FB02F3AA
:10B390005F1107EBD3731F04D4D1A0E002F092FD3C
:10B3A000A38C00287AD0002B00F0A080206848F2FF
:10B3B0001F52C07BC5F2EB12C0F16401002000BF38
:10B3C00011FB03F7184457FB02F77E1106EBD77603
:10B3D000370400F08C8011FB06F3304453FB02F37A
:10B3E0005F1107EBD3731F0400F0818011FB03F79B
:10B3F000184457FB02F77E1106EBD776370476D058
:10B4000011FB06F3304453FB02F35F1107EBD373D8
:10B410001F04D5D16BE000BFB4F9200017F040FB4A
:10B42000B4F922100546084617F03AFB228C8542F3
:10B430000CDD206812B2817B00204B429A42E084EE
:10B44000B8BF03208A423FDD042056E7B4F922103A
:10B4500042EA010000046BD02068827B0020534246
:10B460009942A084B8BF012091422DDD022044E71B
:10B47000206819B2C07B0023C0F1640000FB01F01A
:10B4800048F21F51C5F2EB1150FB01F0411101EBE5
:10B49000D070002102B2E08428463EE0206819B254
:10B4A000C07B0022C0F1640000FB01F048F21F5194
:10B4B000C5F2EB1150FB01F00023411101EBD070FC
:10B4C00001B2A084284628E0218F002821F007013E
:10B4D000014421877FF416AF22E000BF002095F8D9
:10B4E0003110ADF80400490707D410E0002095F8AA
:10B4F0003110ADF80600490709D50DF1060201AB80
:10B500002846414600F030F8E06B0021C162BDF9E9
:10B510000610BDF904202846012300F033FC218FDA
:10B5200048070BD0A08C78B102B0BDE8F08100BF15
:10B53000208F20F0070121874807F3D1E06B00211D
:10B54000C162A08C0028EFD1E08C0028ECD1E06B28
:10B550000021C16202B0BDE8F08100BF8068002117
:10B56000C1634162704700BF70B590F83150D0F8A8
:10B5700000C02C070AD4838B1488E5180FFA85FEC7
:10B58000BEF1010F0EDB5842108070BDC28B1C88CB
:10B59000A6180FFA86FEBEF1010F0FDB504218808D
:10B5A00070BD00BF058C05EB0E06B6F5487F11DABD
:10B5B0005819C0F54870108070BD00BF408C00EB7A
:10B5C0000E06B6F5F07F1DDA1044C0F5F070188055
:10B5D00070BD00BF90F83000402857D3BCF8200061
:10B5E000D4B3098D01F00701042951D003294DD1AD
:10B5F000AEEB000191FBF0F101FB00F0C01A1080EE
:10B6000070BD00BFA80741D094B1098DBCF82200DD
:10B6100001F00701022931D0012918BF70BDAEEB3E
:10B62000000191FBF0F101FB00F0801A188070BD61
:10B63000BCF91E009EFBF0F101FB00F0A0EB0E0137
:10B64000198008B2BCF91E10B0EB610F1EDD89B283
:10B65000401A188070BD00BF9EFBF0F101FB00F1A5
:10B66000A1EB0E010BB2118093FBF0F606FB103339
:10B67000B3EB500F0ADD081A108070BD9EFBF0F18D
:10B6800001FB00F0A0EB0E002044188070BD00BF4D
:10B690009EFBF0F101FB00F0A0EB0E0020441080B7
:10B6A00070BD0000B0B584B0A0B1044690F832007F
:10B6B000C1060DD5218D59B1A58BE18B8006ADF862
:10B6C0000C50ADF80E1015D403A9204600F08EF8EA
:10B6D00004B0B0BD5D204EF650420CA500900CA009
:10B6E00018A11AA3C0F2040201951EF08FFA04B04B
:10B6F000B0BD00BF204601F037FC2844ADF80C0077
:10B7000003A9204600F02CF804B0B0BD6F626A00B7
:10B710005B47545F4552524F5D5B25735D5B2573FC
:10B72000257328293A25645D205B25735D207661A9
:10B730006C756520636865636B206661696C656420
:10B74000210A0000434845434B00000067745F6CCA
:10B7500061796F75745F726F775F67726F770000E2
:10B760002DE9F0478146B0F928008A46012839DBE7
:10B770001FFA80F800240FE0304601F0F5FBBAF81C
:10B7800000103AB2081A01B2AAF80000304601F0DF
:10B7900011F90134A04525D0D9F8040050F82460EF
:10B7A000304601F067FC0028F3D0304601F096F9EE
:10B7B00030B130465146FFF7D3FFAAF80000E8E762
:10B7C000304601F0A5FBBAF90270B842D4DB054659
:10B7D000484601F0F1FB38442F46A842B8BFBAF8FA
:10B7E0000270C9E7BAF90000BDE8F0872DE9F0471B
:10B7F0008146B0F928008A46012839DB1FFA80F813
:10B80000002410E0BAF900103AB2304601F0D2F844
:10B81000304601F0A9FBBAF800100844AAF800006D
:10B820000134A04524D0D9F8040050F824603046F3
:10B8300001F020FC0028F3D0304601F04FF928B188
:10B8400030465146FFF7D2FFE8E700BF304601F02F
:10B850005FFBBAF90270B842D4DB0546484601F0F6
:10B86000ABFB38442F46A842B8BFBAF80270C9E70C
:10B87000BAF90000BDE8F08780B540F2B010C2F21E
:10B8800000004FF4404117F0E9FB40F2E801C2F23A
:10B890000001886001200870087180BD40F2E80056
:10B8A000C2F20000806817F03DBC00BF40F2E80122
:10B8B000C2F20001896802460846114617F038BCFA
:10B8C0000A4640F2E801C2F20001896803460846D0
:10B8D000194617F0A5BE00BF40F2E801C2F2000110
:10B8E000896802460846114617F0D2BD10B50446D5
:10B8F00000284FF0000018BF002901D110BD00BF83
:10B90000002A04BF204610BD20461DF08AFD2046B7
:10B9100010BD00BF10B504461DF083FD204610BDCC
:10B9200010B504461DF0A4FD204610BD10B50B4611
:10B9300011461A4604461DF094FD204610BD00BF76
:10B940001DF0B6BD2DE9F04381B040F2E808C2F227
:10B950000008D8F808004FF4806117F0E9FB0028D0
:10B9600004BF01B0BDE8F08398F8007040F2B01950
:10B97000044698F80460C2F20009002F18BF4F4631
:10B98000C01B1DF0A3FF0546002E18BF09F5404659
:10B99000F01B1DF09BFF014628461DF0D1FDD8F895
:10B9A000081005460846214617F072FD0021C4F232
:10B9B000C82128461DF092FD1DF0ABFF024603A0F2
:10B9C0000B4601B0BDE8F0431EF020B97573656405
:10B9D0003A252E326625250A000000000A684968CB
:10B9E00002604160704700BF80B584B0034608889C
:10B9F0009A8B49881044DA8BADF80C005018ADF8DA
:10BA00000E0001A803AA194600F004F8019804B03A
:10BA100080BD00BF2DE9F04F85B00D461646B2F946
:10BA20000010B5F91C200446914225DB288C1044F7
:10BA3000884221DBB6F90200B5F91E1088421BDBF3
:10BA40006A8C1144814217DBB5F82880284601F042
:10BA500011FB88B1284601F041F807464FF0020A71
:10BA6000002818BF4FF0010A19D1284602F0D0F87B
:10BA700090B10020206052E00020206020714CF244
:10BA80009C10C0F20400B0F80510C079A4F80510AD
:10BA9000E07105B0BDE8F08F288D00283ED0A8F1F8
:10BAA0000100019707B2002F34D40DF1080909F104
:10BAB000050803E038B2013F00282BDDB8B2696801
:10BAC000324651F820104846FFF7A4FFB8F800109E
:10BAD000DDF808B09DF80C00ADF8101098F80210D1
:10BAE000BBF1000F8DF81210E4D00228E2D15846C5
:10BAF00001F0C0FA0128DDD102202071BDF810004C
:10BB00009DF81210C4F800B0A4F80500E17105B06A
:10BB1000BDE8F08F0198002818BF0025256084F843
:10BB200004A0ACE72DE9F041068D0EB3D0F80480F7
:10BB30000024002706E000BF0137B74224BF20469B
:10BB4000BDE8F08158F82750288D30B12846FFF71E
:10BB5000E9FF002818BFBDE8F08195F83000C00764
:10BB6000EAD195F82F00800648BF2C46E4E700BFD5
:10BB70000020BDE8F08100BF10B50446FFF7D2FFFA
:10BB8000002808BF204610BD002808BF704770B5C8
:10BB90000446F9F73DFB21460022054600F00EF869
:10BBA0000646002808BF2E462046002101F000FB73
:10BBB00030460121BDE8704001F0FABA10B5B0F886
:10BBC00028C0BCF1000F21D0421AB2FA82F2D0F89C
:10BBD00004E0540900220DE090F83040E40708BF6B
:10BBE00010BD441AB4FA84F464090132624544EA8F
:10BBF000030405D25EF822002346E407ECD1F0E707
:10BC000003F00102BDE81040D8E700BF002010BDDE
:10BC1000002808BF70472DE9F0410446F9F7F8FA0B
:10BC20008046A04220D0206830B3214603E000BF08
:10BC30000868002860D0038D45680A460146002642
:10BC400009E000BF801AB0FA80F040090643002BDB
:10BC5000A3F10103ECDD55F82300F707F2D090F8CB
:10BC60003070FF07EED108E0218D0029DBD00129DB
:10BC700010D1002001E000BF0020002818BF80463E
:10BC80002046002101F094FA40460121BDE8F04130
:10BC900001F08EBA606800EB810252F8040C90F853
:10BCA0003030DB07E9D0032924D352F808CCDCF884
:10BCB000001031B90020E0E7DCF800100020002976
:10BCC000DBD062468C460B8D4968002509E000BF39
:10BCD000801AB0FA80F040090543002BA3F101035C
:10BCE000EADD51F82300EE07F2D090F83060F60755
:10BCF000EED1C2E70020C0E70020BEE7B0B50546A0
:10BD0000F9F786FA044618B1AC420DD101200AE0D9
:10BD100028461BF0FBF90146002D4FF0010018BF2B
:10BD200011F1010100D1B0BD296800BF0A680846C1
:10BD30004AB11168104631B10A6808461AB1116853
:10BD400010460029F2D1201AB0FA80F04009B0BDA7
:10BD5000F0B581B00E884F8814460546FAF7AAFA66
:10BD60000188AA8B40883144891AEA8B3844801AAA
:10BD70002180608001B0F0BD806808210022FEF7BC
:10BD8000DDB900BFF0B597B000285FD01546044676
:10BD90000E4652EA010057D0012B67D103AF384657
:10BDA00016F01CF84BF67950C0F2020008903846A5
:10BDB0000221059416F02EF816B3002015F00AF9AA
:10BDC00040080021324615F089FFC828D8BFC82096
:10BDD000B0F5C87FA8BF4FF4C870B4F918100E9022
:10BDE000881912904BF60D70C0F202001091069067
:10BDF000204606210022FEF7A1F903A816F042F81A
:10BE000015B3002015F0F8F8400800212A4615F077
:10BE100065FFC828D8BFC820B0F5C87FA8BF4FF4B9
:10BE2000C870B4F91A100E90481912904BF6197098
:10BE3000C0F2020010910690204606210022FEF773
:10BE40007DF903A816F01EF817B0F0BD3C204EF6A1
:10BE5000504219A7009019A025A127A3C0F20402FF
:10BE600001971DF0D3FE17B0F0BD00BF4BF60D716A
:10BE7000C0F20201204616F0F3F94BF61971C0F238
:10BE80000201204616F0ECF9204606210022FEF7BA
:10BE900055F9208B618B30442083481960832046FC
:10BEA00007210022FEF74AF920460821002217B098
:10BEB000BDE8F040FEF742B96F626A005B47545F2D
:10BEC0004552524F5D5B25735D5B257325732829B1
:10BED0003A25645D205B25735D2076616C75652075
:10BEE000636865636B206661696C6564210A0000A4
:10BEF000434845434B00000067745F6F626A5F739D
:10BF000063726F6C6C5F746F000000000B4607215A
:10BF100000220383FEF712B90B4607210022438358
:10BF2000FEF70CB913460022FFF72CBF13460A4652
:10BF30000021FFF727BF00BFB0F91800704700BF0E
:10BF4000B0F91A00704700BF09684161704700BF2F
:10BF5000038B1944438B0183991841837047000078
:10BF600010B582B015F034F890B1044615F0F4F82D
:10BF7000002804BF02B010BD204615F0F5F858B1F6
:10BF8000F9F776FC204602B0BDE8104015F05EB827
:10BF90000FA4352002E000BF0BA43B2000904DF21F
:10BFA0000B204DF284214EF650424DF20F73C0F239
:10BFB0000400C0F20401C0F20402C0F204030194C0
:10BFC0001DF024FE02B010BD61726561000000002A
:10BFD0006469737000000000F0B581B0044616F08B
:10BFE000EBFC028B11B2012924DBA3B24069C2F140
:10BFF000000CA2F1010E00211824051935F8185C77
:10C000009D421CD08E4515D000EBC1052E899E4265
:10C0100014D00CEB0106B71C0CD02D8A9D4213D016
:10C02000F51C07D0055B9D4214D004318A4204F10F
:10C030002004E2D1002001B0F0BD00BF013100EBCF
:10C04000C100406801B0F0BD023100EBC1004068A2
:10C0500001B0F0BD033100EBC100406801B0F0BD9C
:10C06000F0B583B000284FF000041CBF0E46002935
:10C0700002D1204603B0F0BD1546074616F09CFCE1
:10C08000012D476106832FDB16F096FC06460068FB
:10C0900018B117F03DFE002030602846182117F037
:10C0A00015FC04463060C0B97D2000904DF20B2095
:10C0B0004DF284214EF650424DF21D734DF234770D
:10C0C000C0F20400C0F20401C0F20402C0F2040392
:10C0D000C0F2040701971DF099FD002C18BF012440
:10C0E000204603B0F0BD00BF0024204603B0F0BDE1
:10C0F000B0B582B001282FDB044616F05DFC054682
:10C10000006818B117F004FE0020286020461821AE
:10C1100017F0DCFB04462860C0B97D2000904DF28A
:10C120000B204DF284214EF650424DF21D734DF21C
:10C130003475C0F20400C0F20401C0F20402C0F27F
:10C140000403C0F2040501951DF060FD002C18BF2A
:10C150000124204602B0B0BD0024204602B0B0BD8C
:10C16000B0B50446B0F1FF3F08DB0D4616F024FCE5
:10C17000017C848001F0FE0129440174002014F147
:10C18000020FC8BF0120B0BD10B5044616F014FC64
:10C19000846010BD80B516F00FFC806880BD00BFC4
:10C1A00080B516F009FCB0F90400B0F1FF3FD8BF2C
:10C1B0004FF0FF3080BD00BF80B516F0FDFB007C66
:10C1C00000F0010080BD00BF10B5044616F0F4FB7E
:10C1D00000682146BDE8104017F0E6BB2DE9F043AA
:10C1E00081B0054616F0E8FB814616F0E5FBB0F994
:10C1F00004004FF6FF76B0F1FF3FC8BF86B2002DB6
:10C2000044D4D9F8000017F0B1FCA84204DAD9F8F8
:10C21000000017F0ABFC0546C5B3D9F8000017F0D5
:10C2200011FC691E0FB20546012F2ADB4FF00008F2
:10C23000002405E0C5F80880601C04B2A74220DD98
:10C2400065B1686850B190F82F1001F0F70180F8DF
:10C250002F1068681AF0C6FDC5F80480D9F80000F0
:10C2600017F0F0FB054640888642E3D116F0A4FBA8
:10C27000007CC00708BFC5F80880601C04B2A74254
:10C28000DEDC284601B0BDE8F08300BF002528466B
:10C2900001B0BDE8F08300BF80B516F08DFB0068EB
:10C2A000BDE8804017F0F8BBB0B582B016F084FB53
:10C2B000006817F0F1FBA8B10588044616F07CFB76
:10C2C000B0F904004FF6FF71B0F1FF3FC8BF81B273
:10C2D0008D4204D116F070FB007CC0071CD1606851
:10C2E00002B0B0BDBA2000904DF20B204DF2842177
:10C2F0004EF650424DF24474C0F2040009A3C0F25D
:10C300000401C0F20402C0F2040401941DF07EFC9A
:10C31000002002B0B0BD00BF16F04EFB806802B036
:10C32000B0BD00BF67745F7363725F737461636BEA
:10C330005F6765745F707265765F7363720000009B
:10C3400010B582B0044616F037FB006817F0A4FB66
:10C3500040B10088A1B2401AB0FA80F0400902B0A2
:10C3600010BD00BFC62000904DF20B204DF284217D
:10C370004EF650424DF24474C0F2040006A3C0F2DF
:10C380000401C0F20402C0F2040401941DF03EFC5A
:10C39000002002B010BD00BF67745F7363725F73EB
:10C3A0007461636B5F69735F707265760000000093
:10C3B00010B582B0044616F0FFFA006817F06CFB67
:10C3C00040B14088A1B2401AB0FA80F0400902B0F2
:10C3D00010BD00BFCF2000904DF20B204DF2842104
:10C3E0004EF650424DF24474C0F2040006A3C0F26F
:10C3F0000401C0F20402C0F2040401941DF006FC22
:10C40000002002B010BD00BF67745F7363725F737A
:10C410007461636B5F69735F63757272656E7400DC
:10C4200080B582B016F0C8FA006817F035FB18B175
:10C43000008800B202B080BDD82000904DF20B20E1
:10C440004DF284214EF650424DF2447CC0F204007D
:10C4500007A3C0F20401C0F20402C0F2040CCDF83C
:10C4600004C01DF0D3FB4FF6FF7000B202B080BDD8
:10C4700067745F7363725F737461636B5F67657426
:10C480005F707265765F69640000000010B5044655
:10C4900016F092FA0068214617F01AFB002814BF24
:10C4A00040884FF6FF7000B210BD00BFB0B582B03B
:10C4B000044616F081FA0068214617F009FBA8B17E
:10C4C0004588044616F078FAB0F904004FF6FF717B
:10C4D000B0F1FF3FC8BF81B28D4204D116F06CFAB3
:10C4E000007CC0071CD1A06802B0B0BDE82000905D
:10C4F0004DF20B204DF284214EF650424DF2447421
:10C50000C0F2040009A3C0F20401C0F20402C0F2A8
:10C51000040401941DF07AFB002002B0B0BD00BFFE
:10C5200016F04AFA806802B0B0BD00BF67745F734E
:10C5300063725F737461636B5F6765745F7072656C
:10C54000765F7363725F627900000000B0B50C46DD
:10C55000054616F031FA01684CF26D522846C0F2D9
:10C560000202234617F052FBB0BD00BF4088498845
:10C57000401AB0FA80F04009704700BF80B516F04D
:10C580001BFA0068BDE8804017F0C2BA80B516F00B
:10C5900013FA0068BDE8804017F0C2BA80B516F003
:10C5A0000BFA0068BDE8804017F0E0BA10B516F04D
:10C5B00003FA044600684CF2D151221DC0F2020178
:10C5C00017F066FB2068BDE8104017F0B5BA00BF51
:10C5D00010B582B00C4648685168884202D1117B80
:10C5E000C90704D130B11AF0FDFB002060600120C2
:10C5F00002B010BD4FF48A7000904DF20B204DF246
:10C6000084214EF6504207A4C0F204000AA3C0F2EF
:10C610000401C0F2040201941DF0F8FA012002B0F6
:10C6200010BD00BF702D3E707265765F7363725FE0
:10C63000616C6976650000005F667265655F616CBC
:10C640006976655F7363725F6F626A6563745F6367
:10C65000620000002DE9F04186B00291039258B1CA
:10C6600016460D46044600F06DF808B3002040B2AF
:10C6700006B0BDE8F08100BF562000904DF20B20BF
:10C680004DF284214EF650424DF2CE76C0F20400B7
:10C6900028A3C0F20401C0F20402C0F2040601960D
:10C6A0001DF0B4FAFF2040B206B0BDE8F08100BF33
:10C6B000280CB4F91C302FB2310C0FFA80F8B4F802
:10C6C00022E0B4F91E20B4F820C0BB4201EB2541A2
:10C6D000B8BF1D46ADF810504245B8BF1046724471
:10C6E00017FA86F7ADF8120063448A42C8BF1146B4
:10C6F000081AADF81600BB42C8BF1F46781BADF83C
:10C700001400DDE90201C4E9070104A814F0C0FC2B
:10C7100094F8310010F0700102A818BF012114F044
:10C720005DFD204617210022FDF708FD40B206B04E
:10C73000BDE8F08167745F6F626A5F7365745F6103
:10C74000726561002DE9F04186B00291039218B341
:10C7500015460E46074614F03BFC0069B8B1018D42
:10C76000A9B132464FEA164C4FEA15483C4600BF85
:10C770002168234649B10C680B4634B12168234631
:10C7800019B10C680B46002CF2D183421ED0002058
:10C7900006B0BDE8F08100BF302000904DF20B20C4
:10C7A0004DF284214EF650424DF2CE77C0F2040095
:10C7B00037A3C0F20401C0F20402C0F204070197DB
:10C7C0001DF024FA002006B0BDE8F08131B2038CE0
:10C7D0009942C4BF91FBF3F202FB1312418CB1EBFF
:10C7E000264F04DA331493FBF1F606FB113C818BE0
:10C7F000C08B8E1800EB0C04B88BF98B301A621AC0
:10C8000001B212B23846ADF80860ADF80A4000F047
:10C810001BF9B7F91C2033B2B7F91E0021B2B7F8E3
:10C8200022E09342B7F820C0C8BF1646814208FAFA
:10C8300084F1ADF81060C8BF0446704413FA85F364
:10C84000ADF8124062448842C8BF0146081BADF8EB
:10C8500016009A42C8BF1346981BADF81400DDE9D4
:10C860000201C7E9070104A814F012FC97F831008F
:10C8700010F0700102A818BF012114F0AFFC384677
:10C8800017210022FDF75AFC012006B0BDE8F08117
:10C890005F7570646174655F6C617965725F746FF8
:10C8A000705F7769646765745F617265610000003D
:10C8B000F0B585B090B300294ED0B0F91C20B1F985
:10C8C00000408E88B0F820C0B0F822E0B0F91E30E9
:10C8D000B1F9025094422644C8BF1446CF88ADF83F
:10C8E0000C409D422F44C8BF1D467344ADF80E5006
:10C8F0006244BB42C8BF1F467B1BADF81230B24238
:10C90000C8BF1646321BADF810200A684968C0E956
:10C91000072103A814F0BCFB05B0F0BD4FF49F70D5
:10C9200000904DF20B204DF284214EF650424DF214
:10C93000A9734DF2CE7CC0F20400C0F20401C0F233
:10C940000402C0F20403C0F2040CCDF804C01DF0D0
:10C950005DF905B0F0BD00BF40F23F1000904DF210
:10C960000B204DF284214EF650424DF2A9730FF286
:10C97000200CC0F20400C0F20401C0F20402C0F2B4
:10C980000403CDF804C01DF041F905B0F0BD00BFAF
:10C99000617265615F6E657700000000002804BF6A
:10C9A0000120704790F8310010F0700018BF01208E
:10C9B000704700BF2DE9F04182B018B31646C1EAB6
:10C9C0000645026A0F4629460446FFF7BBFEA8B992
:10C9D000D4E90708391AA6EB104009B202B2204682
:10C9E00000F032F894F83100400607D4204629467A
:10C9F000424602B0BDE8F041FFF72CBE02B0BDE8F0
:10CA0000F08100BF632000904DF20B204DF2842195
:10CA10004EF650424DF2CE77C0F2040006A3C0F2AB
:10CA20000401C0F20402C0F2040701971DF0EEF801
:10CA300002B0BDE8F08100BF67745F6F626A5F7328
:10CA400065745F706F7300002DE9F04182B0F8B13A
:10CA5000144605460E4652EA010015D0B5F8288066
:10CA6000B8F1000F10D00027686850F82700818BBC
:10CA7000C28B314481831119C18331462246FFF7AD
:10CA8000E3FF0137B845EFD102B0BDE8F08100BF48
:10CA9000792000904DF20B204DF284214EF6504249
:10CAA0004DF2CE77C0F2040006A3C0F20401C0F23A
:10CAB0000402C0F2040701971DF0A8F802B0BDE817
:10CAC000F08100BF5F67745F6F626A5F6D6F76654C
:10CAD0005F6368696C645F627900000080B582B052
:10CAE00030B190F83100C0F3801002B080BD00BFBB
:10CAF00040F2032000904DF20B204DF284214EF6BF
:10CB000050424DF2CE7CC0F2040007A3C0F20401F3
:10CB1000C0F20402C0F2040CCDF804C01DF076F897
:10CB2000002002B080BD00BF67745F6F626A5F67FC
:10CB300065745F7669727475616C000070B586B05B
:10CB4000E0B3044690F83100400635D4D4E9076CD0
:10CB5000B4F91EE0350C208C45EA0C45CDE9026C99
:10CB60000FFA85FC638CE645ADF80C10ADF80E208D
:10CB7000ADF81060B8BF7546ADF81250884238BFA6
:10CB80000846ADF81400934238BF13460398ADF839
:10CB90001630C4E9076004A814F07AFA94F831005A
:10CBA00010F0700102A818BF012114F017FB2046F5
:10CBB00017210022FDF7C2FA06B070BD8820009050
:10CBC0004DF20B204DF284214EF650424DF2CE74C0
:10CBD000C0F2040005A3C0F20401C0F20402C0F2D6
:10CBE000040401941DF012F806B070BD67745F6F05
:10CBF000626A5F7365745F73697A6500B0B584B00B
:10CC000040B3B0F91CE0B1F90040B0F91EC0B1F971
:10CC10000250038C428C7445C8BF7446ADF808407E
:10CC20006545C8BF65468C88ADF80A509C4288BFF0
:10CC30002346CD88ADF80C30954288BF2A46ADF822
:10CC40000E200A684968C0E9072102A814F020FAFA
:10CC500004B0B0BD4FF48E7000904DF20B204DF239
:10CC600084214EF650424DF2CE7CC0F2040006A361
:10CC7000C0F20401C0F20402C0F2040CCDF804C0FA
:10CC80001CF0C4FF04B0B0BD67745F6F626A5F736D
:10CC9000697A655F6368616E6765000070B582B030
:10CCA000C0B10446C08B256AC1EA00462046314621
:10CCB0002A46FFF747FD58B994F83100400607D4DB
:10CCC000204631462A4602B0BDE87040FFF7C2BC9C
:10CCD00002B070BD962000904DF20B204DF28421E1
:10CCE0004EF650424DF2CE76C0F2040005A3C0F2DB
:10CCF0000401C0F20402C0F2040601961CF086FF93
:10CD000002B070BD67745F6F626A5F7365745F784D
:10CD10000000000070B582B0C0B10446808B256A67
:10CD200040EA0146204631462A46FFF70BFD58B936
:10CD300094F83100400607D4204631462A4602B016
:10CD4000BDE87040FFF786BC02B070BDA520009022
:10CD50004DF20B204DF284214EF650424DF2CE762C
:10CD6000C0F2040005A3C0F20401C0F20402C0F244
:10CD7000040601961CF04AFF02B070BD67745F6F35
:10CD8000626A5F7365745F790000000080B582B0ED
:10CD900080B190F83120520644BF02B080BD428C71
:10CDA000C36941EA0242194602B0BDE88040FFF77C
:10CDB00051BC00BFB42000904DF20B204DF28421F5
:10CDC0004EF650424DF2CE7CC0F2040006A3C0F2F3
:10CDD0000401C0F20402C0F2040CCDF804C01CF03F
:10CDE00015FF02B080BD00BF67745F6F626A5F733A
:10CDF00065745F770000000080B582B080B190F864
:10CE00003120520644BF02B080BD028CC36942EAA1
:10CE10000142194602B0BDE88040FFF71BBC00BFCD
:10CE2000BE2000904DF20B204DF284214EF6504270
:10CE30004DF2CE7CC0F2040006A3C0F20401C0F2A1
:10CE40000402C0F2040CCDF804C01CF0DFFE02B0F6
:10CE500080BD00BF67745F6F626A5F7365745F68EF
:10CE60000000000080B582B050B10B4618210022AE
:10CE700080F82D3002B0BDE88040FDF75FB900BFFB
:10CE8000C82000904DF20B204DF284214EF6504206
:10CE90004DF249734DF2CE7CC0F20400C0F20401A1
:10CEA000C0F20402C0F20403C0F2040CCDF804C0C6
:10CEB0001CF0ACFE02B080BD80B582B020B1808B8A
:10CEC00000B202B080BD00BFCE2000904DF20B201A
:10CED0004DF284214EF650424DF2CE7CC0F2040059
:10CEE00007A3C0F20401C0F20402C0F2040CCDF8A2
:10CEF00004C01CF08BFE002000B202B080BD00BF59
:10CF000067745F6F626A5F6765745F780000000036
:10CF100080B582B020B1C08B00B202B080BD00BF2E
:10CF2000D22000904DF20B204DF284214EF650425B
:10CF30004DF2CE7CC0F2040007A3C0F20401C0F29F
:10CF40000402C0F2040CCDF804C01CF05FFE002007
:10CF500000B202B080BD00BF67745F6F626A5F6736
:10CF600065745F790000000080B582B010B1008C5C
:10CF700002B080BDD62000904DF20B204DF28421EE
:10CF80004EF650424DF2CE7CC0F2040006A3C0F231
:10CF90000401C0F20402C0F2040CCDF804C01CF07D
:10CFA00035FE002002B080BD67745F6F626A5F6704
:10CFB00065745F770000000080B582B010B1408CCE
:10CFC00002B080BDDA2000904DF20B204DF284219A
:10CFD0004EF650424DF2CE7CC0F2040006A3C0F2E1
:10CFE0000401C0F20402C0F2040CCDF804C01CF02D
:10CFF0000DFE002002B080BD67745F6F626A5F67DC
:10D0000065745F680000000010B582B0B0B10446DE
:10D0100090F82F0001F0010100F0BF0040EA8110FC
:10D0200084F82F002046F8F7D3FB20461821002271
:10D0300002B0BDE81040FDF781B800BFE0200090CD
:10D040004DF20B204DF284214EF650424DF2BB734F
:10D050004DF2CE74C0F20400C0F20401C0F204022A
:10D06000C0F20403C0F2040401941CF0CFFD02B02E
:10D0700010BD00BF80B582B030B190F82F00C0F372
:10D08000801002B080BD00BFE82000904DF20B2060
:10D090004DF284214EF650424DF2CE7CC0F2040097
:10D0A00006A3C0F20401C0F20402C0F2040CCDF8E1
:10D0B00004C01CF0ABFD002002B080BD67745F6F40
:10D0C000626A5F6765745F76697369626C650000A8
:10D0D00010B582B000B3044694F82F20084600290A
:10D0E00018BF012002F07F0242EAC010002984F834
:10D0F0002F006FF0660008BF4FF0FF3084F82D005E
:10D100002046F8F765FB20461821002202B0BDE852
:10D110001040FDF713B800BFEE2000904DF20B2039
:10D120004DF284214EF650424DF272734DF2CE74A0
:10D13000C0F20400C0F20401C0F20402C0F2040311
:10D14000C0F2040401941CF061FD02B010BD00BFE8
:10D1500080B582B040B190F92F100020002948BF5F
:10D16000012002B080BD00BFF72000904DF20B20DF
:10D170004DF284214EF650424DF2CE7CC0F20400B6
:10D1800006A3C0F20401C0F20402C0F2040CCDF800
:10D1900004C01CF03BFD002002B080BD67745F6FCF
:10D1A000626A5F69735F64697361626C65640000E1
:10D1B00010B582B0A0B1044690F82F0000F0DF0057
:10D1C00061F3451084F82F002046F8F701FB204654
:10D1D0001821002202B0BDE81040FCF7AFBF00BF2D
:10D1E000FD2000904DF20B204DF284214EF650426E
:10D1F0004DF2D2734DF2CE74C0F20400C0F20401BD
:10D20000C0F20402C0F20403C0F2040401941CF052
:10D21000FDFC02B010BD00BF80B582B030B190F807
:10D220002F00C0F3401002B080BD00BF40F20510D7
:10D2300000904DF20B204DF284214EF650424DF2FB
:10D24000CE7CC0F2040007A3C0F20401C0F20402C5
:10D25000C0F2040CCDF804C01CF0D8FC002002B0D1
:10D2600080BD00BF67745F6F626A5F69735F666FDE
:10D270006375730010B582B0D0B1044694F83020C5
:10D280000846002918BF012002F0FE0210440029C0
:10D2900084F8300004BF02B010BD2046F8F798FAB9
:10D2A00020461821002202B0BDE81040FCF746BF1E
:10D2B00040F20B1000904DF20B204DF284214EF6FF
:10D2C00050424DF258734DF2CE74C0F20400C0F2D9
:10D2D0000401C0F20402C0F20403C0F20404019489
:10D2E0001CF094FC02B010BD80B582B030B190F853
:10D2F000300000F0010002B080BD00BF4FF48B7021
:10D3000000904DF20B204DF284214EF650424DF22A
:10D31000CE7CC0F2040007A3C0F20401C0F20402F4
:10D32000C0F2040CCDF804C01CF070FC002002B068
:10D3300080BD00BF67745F6F626A5F69735F666F0D
:10D340006375735F64697361626C656400000000FB
:10D350002DE9F04F8BB0002800F09281B0F828A0A2
:10D360000546BAF1000F00F087819046002A18BFE9
:10D370004FF001084FEAC80008904FEA48100A90A1
:10D380004FEA081007904FEA480006901046002A1E
:10D3900018BF6FF07F0005906FF0660008BF4FF078
:10D3A000FF300490102000EA02101446099040203B
:10D3B00000EA82100E464FF00009039005E000BF1E
:10D3C00009F10109CA4500F057816868092E50F833
:10D3D00029B000F24681DFE806F0050F192735492C
:10D3E00057616F7BBBF1000F00F080809BF82F002E
:10D3F000039900F0BF0012E09BF82F00099900F09C
:10D40000EF0008438BF82F002BE100BFBBF1000FAA
:10D4100000F080809BF82F000A9900F0DF0008439D
:10D420008BF82F001DE000BFBBF1000F00F08680DD
:10D430009BF8300000F0FE0040448BF8300084B9C7
:10D440000FE100BFBBF1000F00F08C809BF82F00B4
:10D45000059900F07F0008438BF82F0004988BF8A3
:10D460002D005846F8F7B4F92CE000BFBBF1000FCF
:10D4700000F08C809BF83000069900F0FD00084316
:10D480008BF83000EDE000BFBBF1000F00F09280A0
:10D490009BF83100079900F0EF0008E0BBF1000FA6
:10D4A00000F09C809BF831000A9900F0DF000843EF
:10D4B0008BF83100D5E000BFBBF1000F00F0A28077
:10D4C0008BF82D40584618210022FCF737FEC8E0A3
:10D4D000BBF1000F00F0AA809BF83200089900F021
:10D4E000F70008438BF83200BBE000BFE02000905B
:10D4F0004DF20B204DF284214EF650424DF2BB739B
:10D50000C0F20400C0F20401C0F20402C0F204033D
:10D51000A0E000BFFD2000904DF20B204DF28421D1
:10D520004EF650424DF2D273C0F20400C0F2040134
:10D53000C0F20402C0F204038CE000BF40F20B1002
:10D5400000904DF20B204DF284214EF650424DF2E8
:10D550005873C0F20400C0F20401C0F20402C0F229
:10D56000040377E0EE2000904DF20B204DF2842171
:10D570004EF650424DF27273C0F20400C0F2040144
:10D58000C0F20402C0F2040364E000BF40F2A9103C
:10D5900000904DF20B204DF284214EF650424DF298
:10D5A0008673C0F20400C0F20401C0F20402C0F2AB
:10D5B00004034FE040F2B51000904DF20B204DF205
:10D5C00084214EF650424DF2E373C0F20400C0F2E3
:10D5D0000401C0F20402C0F204033BE040F2C110B7
:10D5E00000904DF20B204DF284214EF650424DF248
:10D5F0009773C0F20400C0F20401C0F20402C0F24A
:10D60000040327E0C82000904DF20B204DF2842146
:10D610004EF650424DF24973C0F20400C0F20401CC
:10D62000C0F20402C0F2040314E000BF40F266201E
:10D6300000904DF20B204DF284214EF650424DF2F7
:10D64000F773C0F20400C0F20401C0F20402C0F299
:10D65000040300BF4DF2CE77C0F2040701971CF01F
:10D66000D5FABBF8280000283FF4AAAE5846314648
:10D670002246FFF76DFEA3E60BB0BDE8F08F00BFBA
:10D680004FF4B27000904DF20B204DF284214EF613
:10D6900050424DF2CE77C0F2040006A3C0F204015E
:10D6A000C0F20402C0F2040701971CF0AFFA0BB0FD
:10D6B000BDE8F08F67745F6F626A5F6368696C646E
:10D6C0005F7365745F70726F7000000080B582B028
:10D6D00050B190F8302002F0FD0261F3410280F871
:10D6E000302002B080BD00BF40F2A91000904DF282
:10D6F0000B204DF284214EF650424DF286734DF2CE
:10D70000CE7CC0F20400C0F20401C0F20402C0F2F8
:10D710000403C0F2040CCDF804C01CF077FA02B088
:10D7200080BD00BF80B582B050B190F8312002F0CA
:10D73000EF0261F3041280F8312002B080BD00BF17
:10D7400040F2B51000904DF20B204DF284214EF6C0
:10D7500050424DF2E3734DF2CE7CC0F20400C0F2B1
:10D760000401C0F20402C0F20403C0F2040CCDF8BC
:10D7700004C01CF04BFA02B080BD00BF80B582B07F
:10D7800050B190F8312002F0DF0261F3451280F8C9
:10D79000312002B080BD00BF40F2C11000904DF2B8
:10D7A0000B204DF284214EF650424DF297734DF20C
:10D7B000CE7CC0F20400C0F20401C0F20402C0F248
:10D7C0000403C0F2040CCDF804C01CF01FFA02B030
:10D7D00080BD00BF80B582B050B190F8322002F019
:10D7E000F70261F3C30280F8322002B080BD00BFAF
:10D7F00040F2662000904DF20B204DF284214EF64F
:10D8000050424DF2F7734DF2CE7CC0F20400C0F2EC
:10D810000401C0F20402C0F20403C0F2040CCDF80B
:10D8200004C01CF0F3F902B080BD00BF80B582B027
:10D8300050B190F82F2001F0030102F0FC021144D6
:10D8400080F82F1002B080BD40F29D1000904DF284
:10D850000B204DF284214EF650424DF2CE7CC0F2A8
:10D86000040006A3C0F20401C0F20402C0F2040CDA
:10D87000CDF804C01CF0CAF902B080BD67745F6FB8
:10D88000626A5F7365745F737461746500000000A1
:10D8900080B582B030B190F82F0000F0030002B0E4
:10D8A00080BD00BF40F2A31000904DF20B204DF25E
:10D8B00084214EF650424DF2CE7CC0F2040007A304
:10D8C000C0F20401C0F20402C0F2040CCDF804C09E
:10D8D0001CF09CF9002002B080BD00BF67745F6F30
:10D8E000626A5F6765745F7374617465000000004D
:10D8F00080B582B030B190F83000C0F3400002B083
:10D9000080BD00BF40F2AF1000904DF20B204DF2F1
:10D9100084214EF650424DF2CE7CC0F2040007A3A3
:10D92000C0F20401C0F20402C0F2040CCDF804C03D
:10D930001CF06CF9002002B080BD00BF67745F6FFF
:10D94000626A5F6765745F666978656400000000FD
:10D9500080B582B030B190F83100C0F3001002B051
:10D9600080BD00BF40F2BB1000904DF20B204DF285
:10D9700084214EF650424DF2CE7CC0F2040007A343
:10D98000C0F20401C0F20402C0F2040CCDF804C0DD
:10D990001CF03CF9002002B080BD00BF67745F6FCF
:10D9A000626A5F6765745F6F766572666C6F770039
:10D9B00080B582B030B190F83100C0F3401002B0B1
:10D9C00080BD00BF40F2C71000904DF20B204DF219
:10D9D00084214EF650424DF2CE7CC0F2040007A3E3
:10D9E000C0F20401C0F20402C0F2040CCDF804C07D
:10D9F0001CF00CF9002002B080BD00BF67745F6F9F
:10DA0000626A5F6765745F696E73696465000000D0
:10DA100080B582B050B190F8312002F07F0261F3FE
:10DA2000C71280F8312002B080BD00BF40F2CD1097
:10DA300000904DF20B204DF284214EF650424DF2F3
:10DA4000CE7CC0F2040006A3C0F20401C0F20402BE
:10DA5000C0F2040CCDF804C01CF0D8F802B080BDB0
:10DA600067745F6F626A5F7365745F73657074611A
:10DA70006C5F6C696E65000080B582B040B190F952
:10DA800031100020002948BF012002B080BD00BF36
:10DA900040F2D31000904DF20B204DF284214EF64F
:10DAA00050424DF2CE7CC0F2040007A3C0F2040144
:10DAB000C0F20402C0F2040CCDF804C01CF0A6F8B9
:10DAC000002002B080BD00BF67745F6F626A5F674D
:10DAD00065745F73657074616C5F6C696E6500007E
:10DAE00080B582B040B190F8322002F0FE021144BD
:10DAF00080F8321002B080BD40F2D91000904DF293
:10DB00000B204DF284214EF650424DF2CE7CC0F2F5
:10DB1000040006A3C0F20401C0F20402C0F2040C27
:10DB2000CDF804C01CF072F802B080BD67745F6F5E
:10DB3000626A5F7365745F6D61736B5F656666656E
:10DB40006374000080B582B030B190F8320000F00C
:10DB5000010002B080BD00BF40F2DF1000904DF226
:10DB60000B204DF284214EF650424DF2CE7CC0F295
:10DB7000040007A3C0F20401C0F20402C0F2040CC6
:10DB8000CDF804C01CF042F8002002B080BD00BFF8
:10DB900067745F6F626A5F6765745F6D61736B5F07
:10DBA000656666656374000080B582B050B190F818
:10DBB0002F2002F0FB0261F3820280F82F2002B0D6
:10DBC00080BD00BF40F2E51000904DF20B204DF2F9
:10DBD00084214EF650424DF2CE7CC0F2040006A3E2
:10DBE000C0F20401C0F20402C0F2040CCDF804C07B
:10DBF0001CF00CF802B080BD67745F6F626A5F73DF
:10DC000065745F746F7563685F706172656E7400D0
:10DC100080B582B030B190F82F00C0F3800002B020
:10DC200080BD00BF40F2EB1000904DF20B204DF292
:10DC300084214EF650424DF2CE7CC0F2040007A380
:10DC4000C0F20401C0F20402C0F2040CCDF804C01A
:10DC50001BF0DCFF002002B080BD00BF67745F6F67
:10DC6000626A5F6765745F746F7563685F70617225
:10DC7000656E740080B582B060B190F8322001F01A
:10DC8000010102F0FD0242EA410180F8321002B0C7
:10DC900080BD00BF40F2F11000904DF20B204DF21C
:10DCA00084214EF650424DF2CE7CC0F2040006A311
:10DCB000C0F20401C0F20402C0F2040CCDF804C0AA
:10DCC0001BF0A4FF02B080BD67745F6F626A5F7370
:10DCD00065745F747269676765725F6D6F64650014
:10DCE00080B582B030B190F83200C0F3400002B08D
:10DCF00080BD00BF40F2F71000904DF20B204DF2B6
:10DD000084214EF650424DF2CE7CC0F2040007A3AF
:10DD1000C0F20401C0F20402C0F2040CCDF804C049
:10DD20001BF074FF002002B080BD00BF67745F6FFE
:10DD3000626A5F6765745F747269676765725F6D59
:10DD40006F64650080B582B050B190F8312002F068
:10DD5000BF0261F3861280F8312002B080BD00BF9F
:10DD600040F2FD1000904DF20B204DF284214EF652
:10DD700050424DF2CE7CC0F2040006A3C0F2040172
:10DD8000C0F20402C0F2040CCDF804C01BF03EFF48
:10DD900002B080BD67745F6F626A5F7365745F769F
:10DDA00069727475616C000080B582B080B190F8C2
:10DDB000302004292FBF42F00C0101F0030102F0D2
:10DDC000F30242EA810180F8301002B080BD00BF4A
:10DDD00040F2092000904DF20B204DF284214EF6C6
:10DDE00050424DF2CE7CC0F2040006A3C0F2040102
:10DDF000C0F20402C0F2040CCDF804C01BF006FF10
:10DE000002B080BD67745F6F626A5F7365745F7331
:10DE100063726F6C6C5F64697200000090F8300090
:10DE2000C0F38100704700BF90F8300001EA900015
:10DE300010F0030018BF0120704700BF90F8302099
:10DE400002F0EF0261F3041280F83020704700BF47
:10DE500090F83000012100F0100081EA10107047A6
:10DE600090F83000C0F30010704700BF90F83020E9
:10DE700002F0DF0261F3451280F83020704700BFE6
:10DE800090F83000012100F0200081EA5010704726
:10DE900090F83000C0F34010704700BF90F8302079
:10DEA00002F03F0242EA811180F83010704700BF53
:10DEB00090F8312001F0030102F0FC02114480F8D7
:10DEC0003110704790F830008009704790F83100A9
:10DED00000F00300704700BF80B582B050B190F8E9
:10DEE000322002F0FB0261F3820280F8322002B09D
:10DEF00080BD00BF40F25A2000904DF20B204DF241
:10DF000084214EF650424DF2CE7CC0F2040006A3AE
:10DF1000C0F20401C0F20402C0F2040CCDF804C047
:10DF20001BF074FE02B080BD67745F6F626A5F733E
:10DF300065745F627562626C655F6E6F7469667945
:10DF40000000000080B582B030B190F83200C0F31C
:10DF5000800002B080BD00BF4FF4187000904DF2F9
:10DF60000B204DF284214EF650424DF2CE7CC0F291
:10DF7000040007A3C0F20401C0F20402C0F2040CC2
:10DF8000CDF804C01BF042FE002002B080BD00BFEF
:10DF900067745F6F626A5F69735F627562626C6506
:10DFA0005F6E6F746966790090F83200C0F3C0004C
:10DFB000704700BF80B582B020B180F82E1002B04B
:10DFC00080BD00BF40F2712000904DF20B204DF259
:10DFD00084214EF650424DF2CE7CC0F2040006A3DE
:10DFE000C0F20401C0F20402C0F2040CCDF804C077
:10DFF0001BF00CFE02B080BD67745F6F626A5F73D6
:10E0000065745F72656475636500000080B582B0F9
:10E0100020B190F82E0002B080BD00BF40F2772002
:10E0200000904DF20B204DF284214EF650424DF2FD
:10E03000CE7CC0F2040007A3C0F20401C0F20402C7
:10E04000C0F2040CCDF804C01BF0E0FD002002B0CB
:10E0500080BD00BF67745F6F626A5F6765745F72DF
:10E06000656475636500000080B582B010B14185BC
:10E0700002B080BD40F27D2000904DF20B204DF2A9
:10E0800084214EF650424DF2CE7CC0F2040006A32D
:10E09000C0F20401C0F20402C0F2040CCDF804C0C6
:10E0A0001BF0B4FD02B080BD67745F6F626A5F737E
:10E0B00065745F72616469757300000080B582B039
:10E0C00010B1408D02B080BD40F2832000904DF22F
:10E0D0000B204DF284214EF650424DF2CE7CC0F220
:10E0E000040007A3C0F20401C0F20402C0F2040C51
:10E0F000CDF804C01BF08AFD002002B080BD00BF37
:10E1000067745F6F626A5F6765745F726164697587
:10E110007300000080B582B0C0B190F8322079B3AE
:10E1200042F0100180F83210018D90F83020002963
:10E1300002F0F30101F1040180F8301004BF02B0D5
:10E1400080BD02B0BDE88040FDF7ACBA40F2892046
:10E1500000904DF20B204DF284214EF650424DF2CC
:10E16000CE7CC0F204000CA3C0F20401C0F2040291
:10E17000C0F2040CCDF804C01BF048FD02B080BD15
:10E1800002F0EF0190F8302080F8321042F00C01DC
:10E1900080F8301002B080BD67745F6F626A5F7391
:10E1A00065745F726F775F6C61796F7574000000E2
:10E1B00080B582B090B190F83220038D02F0DF027A
:10E1C00061F34512002B80F8322004BF02B080BDFD
:10E1D00002B0BDE88040FDF765BA00BF40F29A206A
:10E1E00000904DF20B204DF284214EF650424DF23C
:10E1F000CE7CC0F2040006A3C0F20401C0F2040207
:10E20000C0F2040CCDF804C01BF000FD02B080BDCC
:10E2100067745F6F626A5F7365745F67726F775F61
:10E22000696E76657274000040F25400C2F200001C
:10E2300000F10801C0E90211704700BFF0B583B0DA
:10E2400070B30F464DF6110115460646C0F20401A3
:10E2500020207B22FDF72AFB044600284FF0000017
:10E260001CD06FF00041C4E90044A760C4E9040673
:10E27000C4E9065113F076FB40F25401C2F20001EA
:10E2800051F8082FE06040F2AC105460C4E900215E
:10E290000C60C2F2000001210170204603B0F0BD05
:10E2A0007A2000904DF20B204DF284214EF6504220
:10E2B00006A7C0F2040008A3C0F20401C0F20402E1
:10E2C00001971BF0A3FC002003B0F0BD63616C6CF0
:10E2D0006261636B000000005F67745F74696D6565
:10E2E000725F6372656174650000000080B582B082
:10E2F00010B1416102B080BD912000904DF20B2021
:10E300004DF284214EF650424DF2177CC0F20400CB
:10E3100006A3C0F20401C0F20402C0F2040CCDF85E
:10E3200004C01BF073FC02B080BD00BF5F67745F68
:10E3300074696D65725F7365745F63616C6C626153
:10E34000636B000010B582B090B1044613F00AFB75
:10E35000D4E90221401A904288BF00204FF00041CA
:10E360000022C4E90402C4E9062102B010BD00BFC6
:10E37000972000904DF20B204DF284214EF6504232
:10E380004DF21774C0F2040005A3C0F20401C0F2FC
:10E390000402C0F2040401941BF038FC02B010BD6A
:10E3A0005F67745F74696D65725F64656C0000001F
:10E3B000B0B582B070B104460D4613F0D3FA0DB378
:10E3C000D4E90221401A904288BF002020614FF01A
:10E3D00000401CE0D62000904DF20B204DF284212D
:10E3E0004EF650424DF21775C0F204000BA3C0F276
:10E3F0000401C0F20402C0F2040501951BF006FC02
:10E4000002B0B0BD2169411A0020C4E90310E169DE
:10E4100021F000410843E06102B0B0BD5F67745F66
:10E4200074696D65725F7365745F7061757365643F
:10E430000000000080B582B030B1C26961F31E02F5
:10E44000C26102B080BD00BFBE2000904DF20B2023
:10E450004DF284214EF650424DF2177CC0F204007A
:10E4600006A3C0F20401C0F20402C0F2040CCDF80D
:10E4700004C01BF0CBFB02B080BD00BF5F67745FC0
:10E4800074696D65725F7365745F726570656174E0
:10E490005F636F756E74000080B582B010B18161EA
:10E4A00002B080BDED2000904DF20B204DF2842192
:10E4B0004EF650424DF2177CC0F2040006A3C0F2A3
:10E4C0000401C0F20402C0F2040CCDF804C01BF039
:10E4D0009DFB02B080BD00BF5F67745F74696D65AE
:10E4E000725F7365745F757365725F6461746100F8
:10E4F000F0B581B040F2AC10C2F200000078012803
:10E5000040D113F02FFA40F25400C2F2000001464D
:10E5100051F8086F8E4235D04DF6110400F108070E
:10E52000C0F2040430460CE069683E2271600E605F
:10E53000C5E9000028462146FDF7CEF9BE42304627
:10E5400020D0F169354636684A00EDD00029F5D46F
:10E5500013F008FAD5E90221401A9042EED3696916
:10E560000029EBD0E8694200012A04DB421EC00FFB
:10E5700060F3DF72EA612846884713F0F3F9E86038
:10E58000DCE700BF01B0F0BD40F25400C2F2000071
:10E590008068704780B582B020B1C06940F31E002A
:10E5A00002B080BDC42000904DF20B204DF28421BA
:10E5B0004EF650424DF2177CC0F2040006A3C0F2A2
:10E5C0000401C0F20402C0F2040CCDF804C01BF038
:10E5D0001DFB002002B080BD5F67745F74696D65CC
:10E5E000725F6765745F7265706561745F636F7594
:10E5F0006E74000080B582B010B1816002B080BD41
:10E60000CA2000904DF20B204DF284214EF650426C
:10E610004DF2177CC0F2040006A3C0F20401C0F260
:10E620000402C0F2040CCDF804C01BF0EFFA02B0F3
:10E6300080BD00BF5F67745F74696D65725F7365ED
:10E64000745F706572696F640000000080B582B00D
:10E6500010B1806802B080BDD02000904DF20B2038
:10E660004DF284214EF650424DF2177CC0F2040068
:10E6700006A3C0F20401C0F20402C0F2040CCDF8FB
:10E6800004C01BF0C3FA002002B080BD5F67745F56
:10E6900074696D65725F6765745F706572696F64D8
:10E6A0000000000080B582B020B1C069C00F02B088
:10E6B00080BD00BFE72000904DF20B204DF2842179
:10E6C0004EF650424DF2177CC0F2040006A3C0F291
:10E6D0000401C0F20402C0F2040CCDF804C01BF027
:10E6E00095FA012002B080BD5F67745F74696D6543
:10E6F000725F6765745F7061757365640000000028
:10E7000080B582B010B1806902B080BDF320009066
:10E710004DF20B204DF284214EF650424DF2177C03
:10E72000C0F2040006A3C0F20401C0F20402C0F269
:10E73000040CCDF804C01BF069FA002002B080BDC3
:10E740005F67745F74696D65725F6765745F757329
:10E7500065725F646174610080B505F081F8BDE8A1
:10E76000804001F0F1BB00002DE9F0478CB00C4671
:10E77000097E0329C0F0F180228A80460020CDE97D
:10E780000A00CDE90800CDE906000590ADF8282083
:10E79000D8E9030226688DF82E106769CDE90202D8
:10E7A00071683068CDE90001ADF82A10ADF82C2071
:10E7B00037B3D8F80400002840D005A901F10C05B2
:10E7C00039462A4613F0D6FF26686A46284631465F
:10E7D00013F0D0FFBDF92010BDF800008AB28242CC
:10E7E00024D1B6F90020914220DD91B2411A8AB2BB
:10E7F000BDF82230BDF802108B423FD048E000BF88
:10E80000D8F80470002F00F09D806A4638463146E3
:10E8100013F0B0FFB7F90010BDF800008AB28242D1
:10E8200026D1B6F90020914222DD17E00022BDF882
:10E830002230BDF802108B422AD11FE06A463846CA
:10E84000314613F097FFB7F90010BDF800008AB207
:10E8500082420DD1B6F90020914209DD91B2411AF0
:10E860008AB27B88BDF802108B4207D010E000BF4F
:10E8700000227B88BDF802108B4209D11FB2B6F985
:10E8800002309F4204DD9BB2CB1A4FEA034A01E0FB
:10E890004FF0000A4AEA0209BDF9083002B2BDF998
:10E8A0000A50C71A08B29A42B8BF0027A842D8F83F
:10E8B00000004FF00006C8BF4E1B58B1017A8A070E
:10E8C00008D4C9071CBF8188ADF80C1001884088A6
:10E8D0000F44064405A800F10C0202A8694613F093
:10E8E000E3FED0B3BDF82400B8B3BDF82600A0B352
:10E8F000BDF82200BDF8201000EB1A4001EB090220
:10E90000D8F8083000B2BDF82A1012B243B136B2BE
:10E91000BDF82C503FB205FB067703EB4703059388
:10E92000636801FB0020002B1CBF03EB4001069134
:10E93000E16879B10844079005A800F0E5FA0CB049
:10E94000BDE8F087020C42EA01414FF0000A4FF0A7
:10E950000009A1E705A800F081FF0CB0BDE8F08731
:10E960002DE9F04F8DB0002804931CBF0D460029FF
:10E9700002D10DB0BDE8F08F074617980028F8D0F7
:10E98000287E0328F5D30020CDE90A00D7E9030348
:10E99000D5F800906C699346CDE90803D9F80410C6
:10E9A000D9F80000079106900595039314B3786891
:10E9B00020B30DF1280921464A4613F0DBFE2C68EE
:10E9C00006AA4846214613F0D5FEBDF92810BDF829
:10E9D00018008AB2824231D1B4F9002091422DDD73
:10E9E00091B2411A8AB2BDF82A30BDF81A108B4292
:10E9F0002BD033E07C68002C00F07E8006AA2046F5
:10EA0000494613F0B7FEB4F90010BDF818008AB2F9
:10EA1000824207D1B9F90020914203DD91B2411A37
:10EA20008AB200E000226388BDF81A108B4215D12B
:10EA30001EB2B9F902309E4210DD0BE00022BDF893
:10EA40002A30BDF81A108B4208D11EB2B4F9023038
:10EA50009E4203DD9BB2CB1A1C0400E0002444EA72
:10EA60000209BDF9203002B2BDF92260C51A08B210
:10EA70009A42B8BF0025B04238684FF00008C8BFBE
:10EA8000A1EB060858B1017A8A0708D4C9071CBF50
:10EA90008188ADF82410018840880D44804408A87E
:10EAA00006A90AAA13F000FE00283FF462AFBDF8E1
:10EAB0002C0000283FF45DAFBDF82E0000283FF485
:10EAC00058AFBDF82A20039E02EB1442B4B212B232
:10EAD000049EBB68BDF82870169902FB06F24F44ED
:10EAE000CDE9024783B10FFA88F72EB204FB07671E
:10EAF00003EB470409E000BF020C42EA0141002495
:10EB00004FF00009ADE700BF0024179B059EDA46D1
:10EB1000022903EB020700F08380042900F0E08063
:10EB2000032940F03B8103990FFA81F8D04580F228
:10EB30008B8144F625150023C2F292450DE000BFFB
:10EB4000019BBDF82E10013318B2029A8842049836
:10EB500004EB42040744BFF60CAFDDF80CB04FF0F5
:10EB600000094246019309E00BF1010B0FFA8BF209
:10EB700009F10109524524F81010E1DABDF82C0022
:10EB800040449042DCDD0BEB4B0081B200F007000B
:10EB9000CA08B95C062805D2C0F1050021FA00F0C8
:10EBA00009E000BF3A4452788140C0F1080022FADF
:10EBB00000F00843400900F00700C0EB0020A0FB74
:10EBC0000512801A02EB5000C0F3870013F06CFFAF
:10EBD000317E328A00FB01F11FFA89F0C1F3C7339D
:10EBE0001146FC2BC0D834F81010032BBCD342EADA
:10EBF000024241EA01412E464FF61F05C0F2E07580
:10EC000004332A402940DB08521A02FB03F201EBCD
:10EC1000521129403546059E41EA1141A4E700BF43
:10EC200003990FFA81FBD34580F2268100235525F5
:10EC30000DE000BF019BBDF82E10013318B2029AFF
:10EC40008842049804EB42040744BFF692AEDDF814
:10EC50000C904FF000085A46019309E009F10109B0
:10EC60000FFA89F208F10108524524F81010E1DA90
:10EC7000BDF82C0058449042DCDD90100621385C31
:10EC800021EA4901C84000F0030000FB05F0C0B2D2
:10EC900013F00AFF317E328A00FB01F11FFA88F07F
:10ECA000C1F3C7331146FC2BD8D834F81010032B0E
:10ECB000D4D342EA024241EA01414FF61F05C0F2B5
:10ECC000E07504332A402940DB08521A02FB03F2A4
:10ECD00001EB5211294041EA11415525BEE700BF21
:10ECE00003990FFA81FBD34580F2DE8000230425CF
:10ECF0000DE000BF019BBDF82E10013318B2029A3F
:10ED00008842049804EB42040744BFF632AEDDF8B3
:10ED10000C804FF000095A46019309E008F1010800
:10ED20000FFA88F209F10109524524F81010E1DACE
:10ED3000BDF82C0058449042DCDD5010385C25EAC8
:10ED40008801C84000F00F0040EA001013F0ACFE4C
:10ED5000317E328A00FB01F11FFA89F0C1F3C7331B
:10ED60001146FC2BDAD834F81010032BD6D342EA24
:10ED7000024241EA01414FF61F05C0F2E07504333B
:10ED80002A402940DB08521A02FB03F201EB521120
:10ED9000294041EA11410425C0E700BF03990FFA59
:10EDA00081F9D14580F298804FF61F0C4FF0000E8C
:10EDB000C0F2E07C4FF007080EE000BF0EF1010E3C
:10EDC0000FFA8EF0BDF82E10029A8842049804EBD8
:10EDD00042040744BFF6CDAD039A0025484608E03B
:10EDE000059EDA4624F81030013210B20135504544
:10EDF000E4DABDF82C1049448142DFDDC010385CF4
:10EE000028EA0201C840C007EED03146367E098AA2
:10EE1000A8B2FC2E0B46E3D834F81030032EDFD313
:10EE200041EA014143EA0343043601EA0C0103EAE3
:10EE30000C03F608C91A01FB06F103EB511101EAB4
:10EE40000C0141EA1143CBE7002141F0010212B26B
:10EE50008242BFF68EAD41F0020212B28242BFF68C
:10EE600088AD41F0030212B28242BFF682AD043196
:10EE70000AB28242E9DB7CE5002141F0010212B2D4
:10EE80008242BFF676AD41F0020212B28242BFF674
:10EE900070AD41F0030212B28242BFF66AAD043196
:10EEA0000AB28242E9DB64E5002141F0010212B2BC
:10EEB0008242BFF65EAD41F0020212B28242BFF65C
:10EEC00058AD41F0030212B28242BFF652AD043196
:10EED0000AB28242E9DB4CE5002141F0010212B2A4
:10EEE0008242BFF646AD41F0020212B28242BFF644
:10EEF00040AD41F0030212B28242BFF63AAD043196
:10EF00000AB28242E9DB34E52DE9F04F85B0824652
:10EF1000D0E900758668B0F81090C08ABAF812106F
:10EF20009AF81A400491A0EB0901BAF81800002DD4
:10EF3000A0EB090200F07C81FC2C40F2E9820498ED
:10EF4000002800F087841FFA82FE1FFA81FC4FF62A
:10EF50001F03A9F1020AC0F2E0734FF00008CDE9E7
:10EF600002EC0DE0174606462546049807EB4E07CF
:10EF700005EB4C0508F101088045664480F06A8481
:10EF8000F80703D100218A4557DC1EE03278298832
:10EF9000FC2A084612D83888032A0FD341EA0141D7
:10EFA00040EA0040043219401840D208091A01FB17
:10EFB00002F100EB5110184040EA104027F8020B14
:10EFC0000235013601218A4537DC88B28145CCD92A
:10EFD000A9EB0100CA4310F0030C09EB020B5FD050
:10EFE00034782A88FC2C104612D83888032C0FD38A
:10EFF00042EA024240EA004004341A401840E40861
:10F00000121A02FB04F200EB5210184040EA1040C2
:10F010003A4622F8020BAC1CBCF1010F06F10100CC
:10F0200042D101318CE000BF0231788088B20437D0
:10F030000435824506F10206C7DD34782A88FC2CA7
:10F04000104612D83888032C0FD342EA024240EA15
:10F05000004004341A401840E408121A02FB04F27B
:10F0600000EB5210184040EA1040388074786A88EB
:10F07000FC2C1046D8D87888032CD5D342EA02421B
:10F0800040EA004004341A401840E408121A02FB17
:10F0900004F200EB5210184040EA1040C4E700BFF1
:10F0A0002C4630463A464BE090F800E02488BEF10A
:10F0B000FC0F204614D81088BEF1030F10D344EA89
:10F0C000044440EA00400EF104021C401840D208FB
:10F0D000241A04FB02F200EB5210184040EA1040E0
:10F0E00078803A1D2C1DBCF1020F06F1020003D1FD
:10F0F000DDF808E0023123E090F800C02488DDF854
:10F1000008E0BCF1FC0F204614D81088BCF1030FB6
:10F1100010D344EA044440EA00400CF104021C40CD
:10F120001840D208241A04FB02F200EB52101840D7
:10F1300040EA1040B880BA1DAC1DF01C033100BF7E
:10F140001FFA8BF7DDF80CC0032F1746064625463D
:10F150000AD20AE70431D7808FB2083208344F450B
:10F1600000F10400BFF4FEAE05782688FC2D37467A
:10F1700012D81788032D0FD346EA064647EA0747F9
:10F1800004351E401F40ED08F61B06FB05F607EB95
:10F1900056171F4047EA1747178045786688FC2DA9
:10F1A000374612D85788032D0FD346EA064647EA5A
:10F1B000074704351E401F40ED08F61B06FB05F609
:10F1C00007EB56171F4047EA174757808578A688F0
:10F1D000FC2D374612D89788032D0FD346EA0646F2
:10F1E00047EA074704351E401F40ED08F61B06FBA3
:10F1F00005F607EB56171F4047EA17479780C57873
:10F20000E688FC2D3746A5D8D788032DA2D346EA39
:10F21000064647EA074704351E401F40ED08F61B27
:10F2200006FB05F607EB56171F4047EA174791E71D
:10F23000FC2C40F23F820498002800F00B831FFA58
:10F2400082FB1FFA81FE4FF61F03A9F10200C0F2F4
:10F25000E0734FF00008CDF80CE00AE00F461646C8
:10F26000049907EB4B0708F101088845764480F0C4
:10F27000F182F90704D10024A04253DC1EE000BF54
:10F280003478BAF81420FC2C114612D83988032C93
:10F290000FD342EA024241EA0141251D1A401940BA
:10F2A000ED08521A02FB05F201EB5211194041EA36
:10F2B000114127F8021B0124A04233DCA1B2894589
:10F2C000CED9A9EB040111F0030C5FD03578BAF860
:10F2D0001410FC2D0A4612D83A88032D0FD341EAA8
:10F2E000014142EA0242043519401A40ED08891AE8
:10F2F00001FB05F102EB5111194041EA1142394677
:10F3000021F8022BBCF1010F06F1010242D1651C6C
:10F3100084E000BF02347980A1B20437884206F14C
:10F320000206CBDD3578BAF81420FC2D114612D830
:10F330003988032D0FD342EA024241EA01410435E4
:10F340001A401940ED08521A02FB05F201EB521166
:10F35000194041EA114139807578BAF81420FC2D22
:10F360001146D7D87988032DD4D342EA024241EA24
:10F37000014104351A401940ED08521A02FB05F20A
:10F3800001EB5211194041EA1141C3E732463946B7
:10F39000254643E0DE461578BAF814B0FC2D5A46EF
:10F3A00012D80A88032D0FD3291D4BEA0B4542EAD8
:10F3B00002421D401A40C908AD1A05FB01F102EBDB
:10F3C0005111194041EA11427A80391DBCF1020FF6
:10F3D00006F1020202D1A51C1DE000BF1578BAF8A3
:10F3E00014C0FC2D624612D80A88032D0FD3291DA4
:10F3F0004CEA0C4542EA02421D401A40C908AD1AC7
:10F4000005FB01F102EB5111194041EA1142BA80AA
:10F41000B91DF21CE51CF346DDF80CE0E7434F4450
:10F42000BFB21646032F0F4609D219E70435AFB213
:10F43000CC8008314F4502F10402BFF40FAF1778BA
:10F44000BAF81460FC2F344612D80C88032F0FD35F
:10F4500046EA064644EA044404371E401C40FF08BE
:10F46000361B06FB07F704EB57171F4047EA174404
:10F470000C805778BAF81460FC2F344612D84C88A8
:10F48000032F0FD346EA064644EA044404371E40DD
:10F490001C40FF08361B06FB07F704EB57171F40FD
:10F4A00047EA17444C809778BAF81460FC2F34462A
:10F4B00012D88C88032F0FD346EA064644EA044448
:10F4C00004371E401C40FF08361B06FB07F704EB01
:10F4D00057171F4047EA17448C80D778BAF8146052
:10F4E000FC2F3446A2D8CC88032F9FD346EA064689
:10F4F00044EA044404371E401C40FF08361B06FB48
:10F5000007F704EB57171F4047EA17448EE700BF81
:10F510000498002800F09E8190B24FF61F0B0290D5
:10F5200088B2A9F1020AC0F2E07B002201900CE04F
:10F5300002980199039A07EB4007049805EB4105EF
:10F54000013282420E4480F08581F807039205D192
:10F550004FF00008C2453ADC29E000BF307813F0D4
:10F56000A3FA00FB04F02988C0F3C7320846FC2A3E
:10F5700015D83888032A12D341EA014140EA0040F5
:10F58000043201EA0B0100EA0B00D208091A01FB60
:10F5900002F100EB511000EA0B0040EA104027F89E
:10F5A000020B023501364FF00108C2450FDC1FFA8D
:10F5B00088F048455CD3BBE708F1020878801FFA61
:10F5C00088F004370435824506F10206EFDD307815
:10F5D00013F06AFA00FB04F02988C0F3C73208462A
:10F5E000FC2A15D83888032A12D341EA014140EA9F
:10F5F0000040043201EA0B0100EA0B00D208091AAC
:10F6000001FB02F100EB511000EA0B0040EA104050
:10F610003880707813F048FA00FB04F06988C0F372
:10F62000C7320846FC2AC7D87888032AC4D341EADF
:10F63000014140EA0040043201EA0B0100EA0B00FC
:10F64000D208091A01FB02F100EB511000EA0B008D
:10F6500040EA1040B0E700BF08F1010827F8020BAC
:10F660001FFA88F00235484506F10106BFF460AF85
:10F67000307813F019FA00FB04F02988C0F3C73280
:10F680000846FC2AE8D83888032AE5D341EA014134
:10F6900040EA0040043201EA0B0100EA0B00D20804
:10F6A000091A01FB02F100EB511000EA0B0040EADD
:10F6B0001040D1E70498002800F0CC8090B24FF6BB
:10F6C0001F08029088B2A9F10205C0F2E07800217B
:10F6D00001900AE00298039907EB40070498013172
:10F6E00081420198064480F0B580F807039105D166
:10F6F0004FF0000B5D4539DC29E000BF307813F096
:10F70000D3F900FB04F0BAF81410C0F3C73208466E
:10F71000FC2A15D83888032A12D341EA014140EA6D
:10F720000040043201EA080100EA0800D208091A80
:10F7300001FB02F100EB511000EA080040EA104022
:10F7400027F8020B01364FF0010B5D450EDC1FFA66
:10F750008BF048455BD3BDE70BF1020B78801FFAB5
:10F760008BF00437854206F10206F0DD307813F0A5
:10F770009BF900FB04F0BAF81410C0F3C732084636
:10F78000FC2A15D83888032A12D341EA014140EAFD
:10F790000040043201EA080100EA0800D208091A10
:10F7A00001FB02F100EB511000EA080040EA1040B2
:10F7B0003880707813F078F900FB04F0BAF8141070
:10F7C000C0F3C7320846FC2AC6D87888032AC3D3B8
:10F7D00041EA014140EA0040043201EA080100EA3E
:10F7E0000800D208091A01FB02F100EB511000EAEF
:10F7F000080040EA1040AFE70BF1010B1FFA8BF154
:10F8000027F8020B494506F10106BFF463AF3078D3
:10F8100013F04AF900FB04F0BAF81410C0F3C73231
:10F820000846FC2AE8D83888032AE5D341EA014192
:10F8300040EA0040043201EA080100EA0800D20868
:10F84000091A01FB02F100EB511000EA080040EA3E
:10F850001040D1E705B0BDE8F08F00BF2DE9F04FB3
:10F8600083B0817E032903D203B0BDE8F08F00BFCF
:10F87000D0E90037428AB0F810E00292028B002FE4
:10F88000A2EB0E0400F02081C08AFC29A0EB0E023E
:10F8900080F0228202980028E6D0081D1FFA84FC1E
:10F8A0001FFA82F94FF61F06C008AEF10201C0F23E
:10F8B000E0764FF0000A08E0029A03EB4C0307EBF6
:10F8C00049070AF1010A9245CED2DA0704D1002491
:10F8D000A14217DC41E000BF37F8022B1C8842EA46
:10F8E000024244EA044432403440121B02FB00F25C
:10F8F00004EB52120124324042EA124223F8022B56
:10F90000A1422ADD37F8042B1D8842EA024245EA6B
:10F91000054532403540521B02FB00F2023405EB34
:10F920005212324042EA124223F8042B37F8022CDA
:10F9300033F8025C42EA024245EA0545324035406E
:10F94000521B02FB00F205EB5212A5B2324042EA12
:10F950001242A94223F8022CD4DCA2B29645ABD9BC
:10F96000AEEB040212F003081ED03A4632F8025BF6
:10F97000B3F800B045EA05454BEA0B4B35400BEABE
:10F98000060BA5EB0B0505FB00F5B8F1010F0BEB22
:10F9900055159B4605EA060545EA15452BF8025B19
:10F9A00006D1651C5B4631E03A4625462EE000BF95
:10F9B0007A885D8842EA024245EA05453240354090
:10F9C000521B02FB00F2B8F1020F05EB521202EAE1
:10F9D000060242EA12425A8004D104333A1DA51CA1
:10F9E00014E000BFBA889D8842EA024245EA054514
:10F9F00032403540521B02FB00F205EB5212E51C6F
:10FA0000324042EA12429A800633BA1DE4437444FB
:10FA1000A4B21746032CFFF44FAF00BF32F8084BD7
:10FA20001F8844EA044447EA074734403740E41B50
:10FA300004FB00F4043507EB5414344044EA144446
:10FA400023F8084B32F8064C33F8067C44EA0444A9
:10FA500047EA074734403740E41B04FB00F407EB58
:10FA6000541433F8047C344044EA144447EA07470A
:10FA700023F8064C32F8044C374044EA044434403E
:10FA8000E41B04FB00F407EB541433F8027C34400D
:10FA900044EA144447EA074723F8044C32F8024C7E
:10FAA000374044EA04443440E41B04FB00F407EB11
:10FAB0005414AFB2344044EA1444774523F8024C5E
:10FAC000ACD31746F8E600BFFB2900F2B981029AD1
:10FAD000002A3FF4C9AE04311FFA84F84FF61F051F
:10FAE000C908AEF10202C0F2E0754FF0000907E06C
:10FAF000029F03EB480309F10109B945BFF4B4AE15
:10FB0000DF0703D10027BA4216DC3EE0878A1E8851
:10FB100047EA074746EA06462F402E40BF1B07FB31
:10FB200001F706EB57172F4047EA174723F8027BE8
:10FB30000127BA4229DD00BF868A1C8846EA0646AC
:10FB400044EA04442E402C40361B06FB01F60237E3
:10FB500004EB56162E4046EA164623F8046B868AB6
:10FB600033F8024C46EA064644EA04442E402C4050
:10FB7000361B06FB01F604EB5616BCB22E4046EAD5
:10FB80001646A24223F8026CD6DCBEB2B645AFD907
:10FB9000AEEB070616F0030C1AD0868A1C8846EADC
:10FBA000064644EA04442E402C40361B06FB01F670
:10FBB000BCF1010F04EB56141E4604EA050444EAA6
:10FBC000144426F8024B05D17C1C33462EE000BFBE
:10FBD0003C462BE0848A5E8844EA044446EA0646B2
:10FBE0002C402E40A41B04FB01F4BCF1020F06EBD9
:10FBF000541404EA050444EA14445C8002D104333A
:10FC0000BC1C13E0868A9C8846EA064644EA044403
:10FC10002E402C40361B06FB01F604EB5616FC1C4E
:10FC20002E4046EA16469E80063300BFFF437744C7
:10FC3000BFB2032FFFF45CAF878A1E8847EA0747ED
:10FC400046EA06462F402E40BF1B07FB01F704344F
:10FC500006EB57172F4047EA174723F8087B878A98
:10FC600033F8066C47EA074746EA06462F402E401F
:10FC7000BF1B07FB01F706EB571733F8046C2F4047
:10FC800047EA174746EA064623F8067C878A2E404D
:10FC900047EA07472F40BF1B07FB01F706EB571743
:10FCA00033F8026C2F4047EA174746EA064623F826
:10FCB000047C878A2E4047EA07472F40BF1B07FB7B
:10FCC00001F706EB5717A6B22F4047EA17477645CC
:10FCD00023F8027CB0D30BE7029800283FF4C4ADB0
:10FCE0001FFA84FC1FFA82F8AEF1020B4FF0000AF3
:10FCF000CDE9008C0AE000BF029803EB4C0307EB50
:10FD000048070AF1010A8245BFF4AEADD80705D114
:10FD10004FF00009CB4509DC4BE000BF37F8020B80
:10FD20004FF0010923F8020BCB4542DD0022984633
:10FD3000B95ABC18995209F102018DB2B4F802C047
:10FD4000AB4503EB0205A5F802C021DDA188A9801F
:10FD500009F104018EB2E088B345E8801CDD2089FA
:10FD600009F10601288188B2668983456E8119DD13
:10FD7000A08909F10809A881E0891032E8811FFAF9
:10FD800089F005F110088345D2DC174413440EE0D6
:10FD900008F10403271D09E008F1080304F108072E
:10FDA00004E000BF08F10C0304F10C078946DDE90B
:10FDB000008C1FFA89F18E459ED9AEEB090111F036
:10FDC00003040BD03A4632F8025B194621F8025B75
:10FDD000012C07D109F101060B4613E03A464E46C5
:10FDE00010E000BF7888022C588005D104333A1DFA
:10FDF00009F1020606E000BFB888BA1D98800633F4
:10FE000009F103066FEA0900704480B2174603281F
:10FE1000FFF472AF32F8080B043623F8080B32F8FF
:10FE2000060C23F8060C32F8040C23F8040CB0B2CC
:10FE300032F8021C704523F8021CEBD317465BE72F
:10FE4000029900293FF410AD818A1FFA84F841EA33
:10FE50000141AEF10202002507E000BF029F03EB63
:10FE600048030135BD42BFF4FFACDF0706D10026D1
:10FE7000B24209DCB7B2BE45F0D92FE0878A01262D
:10FE800023F8027BB242F5DDB71CBCB21960A24276
:10FE900012DD371DBCB25960A24213DDB71DBCB2E2
:10FEA0009960A24214DD0836B7B2D960BA4203F1B4
:10FEB0001003E9DCDEE700BF04333E46B7B2BE45BF
:10FEC000CCD90BE008333E46B7B2BE45C6D905E0F3
:10FED0000C333E46B7B2BE45C0D900BFAEEB0607F5
:10FEE00017F003070AD0B0F814C01C4624F802CB60
:10FEF000012F05D1771C23460EE000BF37460BE0EB
:10FF0000848A022F5C8003D10433B71C04E000BF55
:10FF1000878A9F800633F71CF6437644B6B2032ED9
:10FF20009CD300BF868A043723F8086B868A23F89F
:10FF3000066C868A23F8046CBEB2848A764523F860
:10FF4000024CEFD38AE7000010B5FAF71BFC4FF61E
:10FF50009171C0F202010446FAF72AFC40F27111D5
:10FF6000C0F203012046FAF743FC40F23D41C0F2E3
:10FF700003012046FAF75CFC40F2D541C0F20301D0
:10FF80002046FAF783FC2046BDE81040FAF786BC0D
:10FF90002DE9F043ADB00E46084600211546FAF7AC
:10FFA00035FA58B304463046FAF7BCF96BA104227F
:10FFB0000646FBF7C5FC68B169A130460522FBF790
:10FFC000BFFC38B168A130460422FBF7B9FC08B188
:10FFD000012591E000202C90ADF8AC002A90CDE9ED
:10FFE0002800CDE92600ADF8960020460221022225
:10FFF000FAF748FA40B101257EE000BF0125284606
:020000040003F7
:100000002DB0BDE8F08300BF0DF196012CAB20466A
:100010000222FAF723FA08B101256DE020460021FB
:100020000022FAF72FFA08B1012565E026A92CABCA
:1000300020461622FAF712FA10B101255CE000BF43
:100040004DF6330126A8C0F204010722FBF778FC25
:10005000B0B32C986FF41C51ADF8141001F58071F9
:100060000228ADF808103FD305A826A90222FBF705
:1000700067FCC8BB02AE0DF1960130460222FBF7C9
:100080005FFC88BB4DF63B01C0F204014FF4805089
:10009000D122FBF70BFCB8B3074620460021002213
:1000A0004FF00009FAF7EEF980B34DF63B01C0F2CC
:1000B00004013846D622FBF70FFC01251CE000BFE7
:1000C0009DF8A6009DF8A7109DF8A8209DF8A930DE
:1000D00040EA012042EA03216FF31F3040EA013079
:1000E0000909E970A5F8010029780220287101F0BA
:1000F000E0000130287000252046FAF753FA284620
:100100002DB0BDE8F08300BF0125F5E70DF114081F
:100110004046802119F0ACF940F2F541C0F20301EC
:1001200040463A464FF480530294ADF80C90CDF817
:100130001090009600F078FA4DF63B010646C0F2AA
:1001400004013846DE22FBF7C7FB0EB10125D3E7D9
:10015000BDF83000BDF83210BEE700BF6A7067001E
:100160006A70656700000000736A70670000000035
:100170002DE9F043ADB088680C4600210026FAF75F
:1001800045F90221022260602C96ADF8AC602A96F7
:10019000CDE92866CDE92666ADF89660FAF772F9E2
:1001A0004FF0000588B960680DF196012CAB022272
:1001B000FAF754F910B1002507E000BF606800218C
:1001C00000220025FAF75EF960B1284600F0B0F988
:1001D00060682661FAF7E6F9666001202DB0BDE897
:1001E000F08300BF606826A92CAB1622FAF736F917
:1001F00000284FF00005E8D12C980A28E5D34DF6E9
:10020000330126A8C0F204010722FBF799FB00285E
:1002100000F080802C986FF41C51ADF8141001F59B
:1002200080710228ADF80810C5D305A826A90222BE
:10023000FBF786FB0028BED102AF0DF196013846D0
:100240000222FBF77DFB0028B5D1256985B94DF663
:100250003B01C0F20401302040F20712FBF726FBFD
:100260000028A8D0002130220546FBF75FFB25615E
:10027000606800210022FAF705F90028A5D14DF6A3
:100280003B01C0F204014FF480504FF4A472FBF71D
:100290000DFB002899D00DF11408814640468021BD
:1002A00019F0E6F8606840F2F54102900020ADF8E0
:1002B0000C000490C0F2030140464A464FF48053BC
:1002C000009700F0B1F94DF63B010746C0F204017A
:1002D000484640F25112FBF7FFFA002F7FF475AF4A
:1002E000BDF830000121A880BDF8320029814DF60B
:1002F0003B01E8806881C0F20401042040F25912F9
:10030000FBF7D4FA002868613FF45FAF0021016079
:1003100056E000BF25698DB94DF63B01C0F20401DE
:10032000302040F20712FBF7C1FA00283FF443AF38
:10033000002130220546FBF7F9FA2561BDF8A60039
:100340004FF49972A880BDF8A800E880BDF9AA0012
:100350002881BDF8AC10800069814DF63B01C0F2E8
:100360000401FBF7A3FA002868613FF42EAFB5F94A
:100370000810162202EB41020229026020DB00274E
:100380000DF198080DF1B0096068414602224B4614
:10039000FAF764F800287FF418AF2C9802287FF44D
:1003A00014AF6869BDF8981050F8272000EB87005B
:1003B00011444160B5F90800B91C01378142E3DB03
:1003C000B5F90410B5F90A206FF41C5001FB02F1D5
:1003D00000F51C50A88148004DF63B01C0F2040115
:1003E0004FF4B272FBF762FA0028A8613FF4EDAE59
:1003F0004DF63B01C0F204014FF480504FF4B4724B
:10040000FBF754FA0028E8613FF4DFAE4DF63B01FC
:10041000C0F2040180204FF4B672FBF747FA0028BF
:1004200028623FF4D2AEA888A9692885E96260688D
:10043000686200202DB0BDE8F08300BF2DE9F043D5
:1004400081B005692F4657F8240FD0B38946B5F916
:100450000A10984692FBF1F4164622B2B5F90C3018
:100460009A4213D196FBF1F0AA6900FB1160B5F92D
:10047000041000FB0191089802EB41014246FBF792
:1004800035FA002001B0BDE8F08300BF696951F87A
:1004900022100022F9F7F6FFD5E9072040F2F541D6
:1004A000C0F203014FF48053009700F0BDF840B94B
:1004B000286A40F2A951C0F20301002201F008F9B4
:1004C00020B1012001B0BDE8F08300BFB5F90A10EA
:1004D000AC81C7E7B0B50446006940B100F028F828
:1004E00060680025256110B1FAF75CF865600020AE
:1004F000B0BD00BF10B582B0C06F58B100681446DF
:10050000019238B151B101AB2246F9F7A7FF019C26
:1005100008E000BF0024204602B010BD21460122A1
:10052000F9F7B0FF002818BF0024204602B010BD24
:10053000002808BF704710B50446006A40B14DF668
:100540003B01C0F204018722FBF7C6F900202062BC
:10055000E06940B14DF63B01C0F204018B22FBF78C
:10056000BBF90020E061A06940B14DF63B01C0F24B
:1005700004018F22FBF7B0F90020A061606940B14F
:100580004DF63B01C0F204019322FBF7A5F90020D0
:1005900060614DF63B01C0F2040120469622BDE8A1
:1005A0001040FBF799B900BF2DE9F04F81B0144618
:1005B000B2F90420E3889A4231DCC06FB4F802B08B
:1005C0002588B0F904900E46D0F80880ABEB050101
:1005D000022312FB095003EB410A08EB400097B2DB
:1005E00031465246FBF782F9013738B2E18888423A
:1005F00015DC4FEA4B01A1EB45018D1C2E4400BFD9
:100600002188524600FB0910314608EB4000FBF7F9
:100610006DF9013738B2E1882E448842F0DD0120BF
:1006200001B0BDE8F08F00002DE9F04F9BB00E4601
:10063000249D70211F469146824618F019FF002024
:10064000B0EB572FCAE91C97CAE91E6504D1CAF856
:10065000080001F01BB800BFA7F5007009F5007194
:10066000B9F1000FCAE91C10CAF8089001F00E8019
:10067000504649460122B047012840F0DF874FF637
:10068000007400264FF00108C0F2FF044FF6D87541
:1006900004EA062099F80010DAF878304618B0B26B
:1006A000A84209D05046494601229847012808F13E
:1006B0000108EDD000F0C2BF5046494604229847D9
:1006C000042840F0BB874AF6FC4B0AF11007C0F241
:1006D000040B1997B9F80200000400BA0328C0F00F
:1006E000B18799F80010FF2940F0AC8799F8011004
:1006F000821E4044C0391D2900F1020800F25686CE
:100700000820DFE811F01F0041074107410775008D
:100710004107410741075306410741074107530677
:100720004107410741075306530653065306530634
:100730005306530653065306410745075D06530605
:10074000250700BFB2F5007F00F22587DAF8783080
:100750005046494614469847A04240F06F87B9F882
:10076000030000BA000CAAF81C00B9F8010000BA96
:10077000000CAAF81E0099F8050040F002010329B8
:100780008AF8130040F06287002101EB410009EB79
:100790000002D37941B1112B40F05887107A032819
:1007A00078541DD900F052BFA3F11106112E4FF05D
:1007B000080000F2E986012505FA06F60125C0F2D7
:1007C00003052E4200F0E08618098AF80E0003F0B7
:1007D0000F008AF80F00107A0328785400F2368749
:1007E0009AF8130001318142CFD300F0C2BE00BF9E
:1007F000B2F5007F00F2CF86DAF8783050464946ED
:10080000144698472246A0424B46CDF8149040F03B
:100810001587112AC0F01687197811F0EE0F40F0F5
:100820001187DAF874001028C0F03087DAF87040C9
:100830001038CAF8740004F11000CAF87000002CD7
:100840004FF0030000F0A086149201F00F020AEBB3
:10085000C2020909129102EB810118940C625F78BF
:100860001791277099786170DA78CDE91071A270CC
:1008700039441F790F92E77011445A790E9722710B
:1008800039449F790D9267711144DA793944A27124
:1008900093F808E00B9284F807E011445A7A0C9719
:1008A00022729F7A71446772DD7A1144A5721E7BB1
:1008B0000897E67239445F7B2944277393F80EC08A
:1008C0003144394484F80DC00992DA7B61441A91AD
:1008D000CDF828E0A273DDF868E0197C0792724435
:1008E000E17306911144159100EB4101DAF874208F
:1008F00021F003018A42C0F04786DAF87040521AAC
:100900006018002CCAF87420CAF8700000F0BE8687
:1009100017981A9404631898CDF804C004781693B5
:100920000495CDE90276139234B1611E03290BD2EE
:10093000002100221FE000BFDDE918471A9E4FF09A
:10094000000E002336E000BF1A9804F0FC06A0F168
:1009500008030021002200BF23F8081F41F0010511
:10096000043241F002005D8041F0030504319642FB
:100970009880DD80F0D114F00300DDE918471A9E5D
:1009800096460B4616D04B1C02F1010E012826F8A4
:1009900012100FD0BC468F1C951C022826F81E3062
:1009A00002D1AE463B4604E0CB1C02F1030E26F812
:1009B0001570674694F801905A00B9F1000F13D0F2
:1009C00019F00303A9F1010610D01A9942F00100B1
:1009D0000EF10105012B21F81E2009D10246AC467B
:1009E000AE46B14618E000BFF4462FE014E000BF69
:1009F000421C0EF1020C022B21F8150004D1A9F1C2
:100A00000209E64608E000BF0EF1030EA9F1030952
:100A100021F81C20821CF446032E1A9E16D306EBE6
:100A20004E0C0020ACF102060CEB4001551C72800C
:100A3000931C4D80D51C8B8026F8085F04308145BF
:100A400002F10402F0D11A9E0EEB000C94F8029011
:100A50005000B9F1000F13D019F00305A9F10102FC
:100A600010D040F0010331460CF10106012D21F8B0
:100A70001C0009D11846B646B44691460E4617E00A
:100A8000E6462FE014E000BF581C0CF1020E022DC8
:100A900021F816300E4603D1A9F10209F44607E009
:100AA0000CF1030CA9F1030926F81E00981CE64678
:100AB000032A17D306EB4C0E0026AEF1020300BF4B
:100AC0000EEB4601451C5880821C4D80C51C8A8057
:100AD00023F8085F0436B14500F10400F0D10CEBB7
:100AE000060E1A9E94F803904200B9F1000F13D03D
:100AF00019F00303A9F1010610D01A9942F0010080
:100B00000EF10105012B21F81E2009D10246AC4649
:100B1000AE46B14618E000BFF4462FE014E000BF37
:100B2000421C0EF1020C022B21F8150004D1A9F190
:100B30000209E64608E000BF0EF1030EA9F1030921
:100B400021F81C20821CF446032E1A9E16D306EBB5
:100B50004E0C0026ACF102030CEB4601551C5A80EA
:100B6000901C4D80D51C888023F8085F0436B14561
:100B700002F10402F0D10EEB060C1A9E94F80490D8
:100B80005100B9F1000F11D019F00303A9F10100D0
:100B90000ED041F001020CF10105012B26F81C10CA
:100BA00008D11146AE46AC46814617E0E6462FE036
:100BB00014E000BF511C0CF1020E022B26F8152088
:100BC00004D1A9F10209F44608E000BF0CF1030CBE
:100BD000A9F1030926F81E10911CE646032817D335
:100BE00006EB4C0E0020AEF1020300BF0EEB4006F8
:100BF0004D1C59808A1C7580CD1CB28023F8085F7B
:100C00000430814501F10401F0D11A9E0CEB000E75
:100C100094F805904900B9F1000F11D019F00303C1
:100C2000A9F101000ED041F001020EF10105012BE6
:100C300026F81E1008D11146AC46AE46814617E094
:100C4000F4462FE014E000BF511C0EF1020C022B01
:100C500026F8152004D1A9F10209E64608E000BFF4
:100C60000EF1030EA9F1030926F81C10911CF4469D
:100C7000032817D306EB4E0C0022ACF1020300BF91
:100C80000CEB42064D1C5980881C7580CD1CB08031
:100C900023F8085F0432914501F10401F0D11A9E56
:100CA0000EEB020C94F806904900B9F1000F11D038
:100CB00019F00303A9F101000ED041F001020CF17B
:100CC0000105012B26F81C1008D11146AE46AC4692
:100CD000814617E0E6462FE014E000BF511C0CF1FE
:100CE000020E022B26F8152004D1A9F10209F446C0
:100CF00008E000BF0CF1030CA9F1030926F81E104F
:100D0000911CE646032817D306EB4C0E0020AEF1EB
:100D1000020300BF0EEB40064D1C59808A1C7580F3
:100D2000CD1CB28023F8085F0430814501F1040135
:100D3000F0D11A9E0CEB000E94F807904900B9F11F
:100D4000000F11D019F00303A9F101000ED041F0FA
:100D500001020EF10105012B26F81E1008D11146E3
:100D6000AC46AE46814617E0F4462FE014E000BFE3
:100D7000511C0EF1020C022B26F8152004D1A9F10A
:100D80000209E64608E000BF0EF1030EA9F10309CF
:100D900026F81C10911CF446032817D306EB4E0CC2
:100DA0000022ACF1020300BF0CEB42064D1C59803F
:100DB000881C7580CD1CB08023F8085F04329145F3
:100DC00001F10401F0D11A9E0EEB020C94F8089088
:100DD0004900B9F1000F11D019F00303A9F1010086
:100DE0000ED041F001020CF10105012B26F81C1078
:100DF00008D11146AE46AC46814617E0E6462FE0E4
:100E000014E000BF511C0CF1020E022B26F8152035
:100E100004D1A9F10209F44608E000BF0CF1030C6B
:100E2000A9F1030926F81E10911CE646032817D3E2
:100E300006EB4C0E0020AEF1020300BF0EEB4006A5
:100E40004D1C59808A1C7580CD1CB28023F8085F28
:100E50000430814501F10401F0D11A9E0CEB000E23
:100E600094F809904900B9F1000F11D019F003036B
:100E7000A9F101000ED041F001020EF10105012B94
:100E800026F81E1008D11146AC46AE46814617E042
:100E9000F4462FE014E000BF511C0EF1020C022BAF
:100EA00026F8152004D1A9F10209E64608E000BFA2
:100EB0000EF1030EA9F1030926F81C10911CF4464B
:100EC000032817D306EB4E0C0022ACF1020300BF3F
:100ED0000CEB42064D1C5980881C7580CD1CB080DF
:100EE00023F8085F0432914501F10401F0D11A9E04
:100EF0000EEB020C94F80A904900B9F1000F11D0E2
:100F000019F00303A9F101000ED041F001020CF128
:100F10000105012B26F81C1008D11146AE46AC463F
:100F2000814617E0E6462FE014E000BF511C0CF1AB
:100F3000020E022B26F8152004D1A9F10209F4466D
:100F400008E000BF0CF1030CA9F1030926F81E10FC
:100F5000911CE646032817D306EB4C0E0020AEF199
:100F6000020300BF0EEB40064D1C59808A1C7580A1
:100F7000CD1CB28023F8085F0430814501F10401E3
:100F8000F0D11A9E0CEB000E94F80B904900B9F1C9
:100F9000000F11D019F00303A9F101000ED041F0A8
:100FA00001020EF10105012B26F81E1008D1114691
:100FB000AC46AE46814617E0F4462FE014E000BF91
:100FC000511C0EF1020C022B26F8152004D1A9F1B8
:100FD0000209E64608E000BF0EF1030EA9F103097D
:100FE00026F81C10911CF446032817D306EB4E0C70
:100FF0000022ACF1020300BF0CEB42064D1C5980ED
:10100000881C7580CD1CB08023F8085F04329145A0
:1010100001F10401F0D11A9E0EEB020C94F80C9031
:101020004900B9F1000F11D019F00303A9F1010033
:101030000ED041F001020CF10105012B26F81C1025
:1010400008D11146AE46AC46814617E0E6462FE091
:1010500014E000BF511C0CF1020E022B26F81520E3
:1010600004D1A9F10209F44608E000BF0CF1030C19
:10107000A9F1030926F81E10911CE646032817D390
:1010800006EB4C0E0020AEF1020300BF0EEB400653
:101090004D1C59808A1C7580CD1CB28023F8085FD6
:1010A0000430814501F10401F0D11A9E0CEB000ED1
:1010B00094F80D904900B9F1000F11D019F0030315
:1010C000A9F101000ED041F001020EF10105012B42
:1010D00026F81E1008D11146AC46AE46814617E0F0
:1010E000F4462FE014E000BF511C0EF1020C022B5D
:1010F00026F8152004D1A9F10209E64608E000BF50
:101100000EF1030EA9F1030926F81C10911CF446F8
:10111000032817D306EB4E0C0022ACF1020300BFEC
:101120000CEB42064D1C5980881C7580CD1CB0808C
:1011300023F8085F0432914501F10401F0D11A9EB1
:101140000EEB020C94F80E904A00B9F1000F11D08A
:1011500019F00305A9F101000ED042F001030CF1D2
:101160000101012D26F81C2008D11A468E468C4616
:10117000814617E0E6462FE014E000BF5A1C0CF150
:10118000020E022D26F8113004D1A9F10209F4460D
:1011900008E000BF0CF1030CA9F1030926F81E209A
:1011A0009A1CE646032817D306EB4C0E0020AEF13E
:1011B000020300BF0EEB4006551C5A80911C75803F
:1011C000D51CB18023F8085F0430814502F1040288
:1011D000F0D11A9E0CEB000EE07BA8B3520010F089
:1011E0000305A0F101031ED0344642F001060EF1C2
:1011F0000101012D24F81E2004D132468E461846E6
:1012000010E000BF721C0EF1020C022D24F81160D8
:1012100002D10238E64605E0033824F81C20B21C4F
:101220000EF1030E2646032B0ED306EB4E010839B2
:1012300021F8082F531C961C4B80D31C043802F154
:1012400004028E80CB80F3D11498159CA0F1110E6E
:10125000A645C0F0F781E01C20F0030113988842F6
:10126000C0F01482DAF87090421A4944B9F1000FC4
:10127000CAF87420CAF8701000F008821698179AFD
:1012800000F11101C2F8409034B1129A32B1621EDD
:10129000032A4DD2002260E00B467FE0DDE90F21FA
:1012A00011440E9A11440D9A11440C9A11440B9A50
:1012B00011440A9A1144099A1144089A1144049A53
:1012C0001144039A1144029A1144019A1144079A55
:1012D0001144069A1144119A1144C1F1000C0021E5
:1012E0004618757C0B2D00F2AD810CEB0102531CEE
:1012F00009F8015048D0B37C0B2B00F2A38109EB15
:101300000105901C6B7043D0F37C0B2B00F29A818B
:10131000D01CAB7040D0327D0B2A00F29381043197
:1013200016988C42EA70DBD1084400F1110335E0D5
:1013300024F0030C09F101050022885CAE188B181B
:1013400006F8010C5878A854987804327070D87850
:101350009445B070F1D18B18194614F003061DD0D6
:10136000084610F8013B012E09F80230034615D05B
:1013700002EB09004A78022E427001D18B1C0DE06D
:101380008A78CB1C827009E006F1120306E000BFE8
:1013900006F1130302E000BF06F11403DDF8149018
:1013A000BEEB04027FF435AAE3E000BFDAF8783040
:1013B0005046002114469847A04200F0DA803DE1F3
:1013C000B2F5007F00F2E780DAF8783050464946FF
:1013D000144698474AF6646CA646C0F2040CA04234
:1013E000494640F02B81BEF1410FC0F02B810A78B5
:1013F00012F0F00F40F02681DAF87400B0F5807F2B
:10140000C0F04481A0F58073DAF87000CAF8743037
:1014100000F580730028CAF8703000F0378102F0C0
:1014200003020AEB8202AEF1410E10650131002287
:101430001CF802508E5C3BF815408B1804FB06F438
:101440000CEB020640F8254075785C783BF8157087
:10145000103207FB04F7B47840F825709F783BF80A
:101460001450402A05FB07F7F57840F82470DF7820
:101470003BF8154004FB07F7347940F825701F79D5
:101480003BF8145005FB07F740F8247077795D7935
:101490003BF8174004FB05F540F82750B7799D79D4
:1014A0003BF8174004FB05F540F82750F779DD7944
:1014B0003BF8174004FB05F540F82750377A1D7AB2
:1014C0003BF8174004FB05F540F82750777A5D7A22
:1014D0003BF8174004FB05F540F82750B77A9D7A92
:1014E0003BF8174004FB05F540F82750F77ADD7A02
:1014F0003BF8174004FB05F540F82750377B1D7B70
:101500003BF8174004FB05F540F82750777B5D7BDF
:101510003BF8174004FB05F540F82750B77B9D7B4F
:101520003BF8174004FB05F540F82750F77BDB7BC1
:101530003BF8176006FB03F340F827307FF478AFE1
:10154000199FBEF1000F11447FF44DAF11E000BFB1
:10155000B2F5007F1FD8DAF8783050464946144675
:101560009847A0426AD1B9F8000000BA000CAAF866
:101570001A00DAF878305046494604229847042881
:101580004FF002003FF4A6A81BB0BDE8F08F00BFEB
:10159000B2F5007F04D904201BB0BDE8F08F00BF76
:1015A000DAF878305046494614469847A04245D16B
:1015B000BAF81C00002845D0BAF81E00002841D017
:1015C00099F800009AF8131088423FD1D8B109F178
:1015D0000201002211F81230112B18BF002B35D157
:1015E0001346002A18BF01230AEBC3031F6A4FB337
:1015F0005B6A3BB3199B9B5C0AEB83031B6D0BB3CC
:1016000001329042E6D19AF80E009AF80F1000FBD2
:1016100001F0B8B1C00100F14002DAF87410B2F57F
:10162000807F98BF4FF48072914213D20020CAF895
:10163000680003201BB0BDE8F08F00BF02201BB084
:10164000BDE8F08F06201BB0BDE8F08F08201BB06E
:10165000BDE8F08FDAF87030891A1A44CAF87410AD
:10166000CAF87020CAF8683083B14FF60073C0F230
:10167000FF0300F203108033184081420AD2002099
:10168000CAF86C0003201BB0BDE8F08F03201BB02C
:10169000BDE8F08F6FF35F28091A1044B8F1000F0E
:1016A000CAE91B20CAF8741009D0DAF8783009EBBF
:1016B0000801C8F5007250469847CAF8000009EBC7
:1016C0000800CAF8040000201BB0BDE8F08F00BF7E
:1016D0002DE9F04F99B0032A04D90522D0B219B0F0
:1016E000BDE8F08F80460E46B8F81E104273807B2E
:1016F00098F80F2000230029C8F81430A8F81830F3
:1017000001F01C85C0000590D00000220790B8F8B9
:101710001C00099200220A9200220B92CDF8488008
:10172000002801F0F784002008900496B8F81A0009
:1017300000285AD00A9A91B281420FD198F86400D9
:1017400080B100F57F41002088F8640021F0270077
:101750004FF6D072904235D001F0F6BC01320A92B9
:1017600043E000BFD8F8000010B1D8F804400BE007
:10177000D8F80840D8F87830404621464FF4007237
:101780009847002801F0E68414F8015B01380BD17A
:10179000D8F80840D8F87830404621464FF4007217
:1017A0009847002801F0D68414F8011B013841EA5B
:1017B0000521C8E9000421F027004FF6D0729042BD
:1017C00041F0C284099A01F0070002F00701884243
:1017D00041F0BA84002088F80C00C8F81400A8F87A
:1017E00018000132012009920A90D8F8683098F860
:1017F0000E0098F80F101A1D0F92012201FB00F540
:1018000011FB0020D8F86C700C90A3F12000C5F1FA
:101810000106069000201193CDE90D650644A8420B
:10182000109038BF0026169726B198F813000328A9
:1018300040F014813746002E18BF01274046394634
:10184000002201F093FC0446002800F1168308EB07
:10185000460030F9143F67D013A989C198F80C10DD
:101860004FF0FF3201F01F09D8F86010D8F80000DF
:10187000D8F8047002FA09F24C4521EA020A35D977
:101880004FF0000B0EE000BF002918BF88F864106D
:101890004FF0000BFF2141EA0A2A09F10809A1458E
:1018A00024D200BF98F864100029F3D158B9D8F8B1
:1018B0000870D8F87830404639464FF4007298479F
:1018C000002801F0358417F8011BBBF1000FA0F1CF
:1018D0000100D9D1FF294FF0010BE3D04FF0000BED
:1018E00041EA0A2A09F10809A145DBD3A9EB040161
:1018F000C8F8000001F01F003AFA00F0C8F860A034
:1019000088F80C10C8F8047000F1B682149B611EB0
:101910006FF001020344C8408A40C0071A4408BF60
:10192000531C1398159F038008EB0600007C08EBFE
:101930008000016D0868159100FB03F011990012F9
:1019400008600F98FC2117F093FD012540463946A9
:10195000012201F00BFC002800F0F080044600F1A9
:101960008C8205EB141ABAF13F0F01F2ED8314F0EB
:101970000F0B6CD098F80C104FF0FF3201F01F04E1
:10198000D8F860103D46D8F80000D8F80470A2409E
:10199000A34521EA02092FD900260BE0002918BF30
:1019A00088F864100026FF2141EA092908345C45C3
:1019B00022D200BF98F864100029F4D158B9D8F8A1
:1019C0000870D8F87830404639464FF4007298478E
:1019D000002801F0AD8317F8011B002EA0F10100D3
:1019E000DCD1FF294FF00106E4D0002641EA0929A5
:1019F00008345C45DED300BFA4EB0B01C8F800003F
:101A000001F01F0039FA00F4C8F8609088F80C1053
:101A1000C8F8047000F13182ABF101006FF00101F0
:101A2000814024FA00F04AF66462C0F20402C00762
:101A300012F80A201598214450F8220008BF4C1CC7
:101A4000119900FB04F02F46001241F822000AF120
:101A50000105402DFFF47AAF72E000BF802038808E
:101A60007880B880F88038817881B881F8813882B0
:101A70007882B882F88238837883B883F883388490
:101A80007884B884F88438857885B885F885388670
:101A90007886B886F88638877887B887F887A7F871
:101AA0004000A7F84200A7F84400A7F84600A7F8AE
:101AB0004800A7F84A00A7F84C00A7F84E00A7F87E
:101AC0005000A7F85200A7F85400A7F85600A7F84E
:101AD0005800A7F85A00A7F85C00A7F85E00A7F81E
:101AE0006000A7F86200A7F86400A7F86600A7F8EE
:101AF0006800A7F86A00A7F86C00A7F86E00A7F8BE
:101B00007000A7F87200A7F87400A7F87600A7F88D
:101B10007800A7F87A00A7F87C00A7F87E00DDE936
:101B20000D65169F0C981099DDF84880803781422A
:101B300001F101007FF472AEA2E100BF012D03D0DC
:101B400098F80D00032809D11198169F0068C11755
:101B500000EB1160802101EB102080E706984FF028
:101B6000080E41F6905B42F6CF1800BFD0E908514D
:101B7000036ED0F8A070D0F8E06015917A19EF1BD1
:101B80009D1B4FF4B55105FB01F53344C3EB2536DE
:101B9000046C9D18A2EB030906EB070CA7EB060AE1
:101BA000D0F80071D0F8C010D0F88030E61B3C446B
:101BB000CF1A1944631A2144BC1904FB0BF407FB28
:101BC00008F7241341F251184FF4B55206FB08F6FA
:101BD000A4EB273703FB02F3A4EB26347E1A4F193C
:101BE000691AC6EB2333C0F8001106EB0C0101643F
:101BF000ACEB0601C0F8E01003EB0A01E41A016641
