Component: ARM Compiler 6.16 Tool: armlink [5dfeaa00]

==============================================================================

Section Cross References

    main.o(.text) refers to swm341_timr.o(.text) for TIMR_INTClr
    main.o(.text) refers to gt_hal_tick.o(.text) for gt_tick_inc
    main.o(.text) refers to memmovea.o(.text) for __aeabi_memcpy4
    main.o(.text) refers to bsp_lcd_rgb.o(.data._LCD_Buffer) for _LCD_Buffer
    main.o(.text) refers to gt911.o(.text) for GT911_Scan
    main.o(.text) refers to dev_touch.o(.bss.TP_Dev) for TP_Dev
    main.o(.text) refers to system_swm341.o(.text) for SystemInit
    main.o(.text) refers to bsp_uart.o(.text) for bsp_uart0_init
    main.o(.text) refers to bsp_lcd_rgb.o(.text) for bsp_lcd_rgb_init
    main.o(.text) refers to dev_systick.o(.text) for systick_init
    main.o(.text) refers to swm341_sfc.o(.text) for SFC_QuadSwitch
    main.o(.text) refers to bsp_sfc.o(.text) for bsp_sfc_config
    main.o(.text) refers to system_swm341.o(.data..L_MergedGlobals) for CyclesPerUs
    main.o(.text) refers to gt_handler.o(.text) for gt_init
    main.o(.text) refers to memseta.o(.text) for __aeabi_memclr8
    main.o(.text) refers to gt_gui_driver.o(.text) for GT_Font_Init
    main.o(.text) refers to gt_ui.o(.text) for gt_ui_init
    main.o(.text) refers to puts.o(i.puts) for puts
==============================================================================

Removing Unused input sections from the image.

    Removing main.o(.ARM.exidx), (56 bytes).
    Removing main.o(.ARM.use_no_argv), (4 bytes).
    Removing bsp_lcd_rgb.o(.ARM.exidx), (40 bytes).
    Removing bsp_lcd_rgb.o(.bss.lcddev), (14 bytes).
    Removing bsp_lcd_rgb.o(.bss.BACK_COLOR), (4 bytes).
    Removing bsp_led.o(.text), (82 bytes).
    Removing bsp_led.o(.ARM.exidx), (32 bytes).
    Removing bsp_sfc.o(.ARM.exidx), (64 bytes).
    Removing bsp_uart.o(.ARM.exidx), (48 bytes).
    Removing dev_dac.o(.text), (170 bytes).
    Removing dev_dac.o(.ARM.exidx), (24 bytes).
    Removing dev_sdio.o(.text), (98 bytes).
    Removing dev_sdio.o(.ARM.exidx), (8 bytes).
    Removing dev_sdram.o(.text), (516 bytes).
    Removing dev_sdram.o(.ARM.exidx), (8 bytes).
    Removing dev_systick.o(.ARM.exidx), (56 bytes).
    Removing dev_touch.o(.ARM.exidx), (24 bytes).
    Removing gt911.o(.ARM.exidx), (56 bytes).
==============================================================================

Image Symbol Table

    Local Symbols

    Symbol Name                              Value     Ov Type        Size  Object(Section)

    ../clib/division.s                       0x00000000   Number         0  aeabi_sdiv.o ABSOLUTE
    ../clib/microlib/ctype/tolower.c         0x00000000   Number         0  tolower.o ABSOLUTE
    ../clib/microlib/division.c              0x00000000   Number         0  uidiv.o ABSOLUTE
    ../clib/microlib/division.c              0x00000000   Number         0  uldiv.o ABSOLUTE
    ../clib/microlib/init/entry.s            0x00000000   Number         0  entry.o ABSOLUTE
    ../clib/microlib/init/entry.s            0x00000000   Number         0  entry2.o ABSOLUTE
    ../clib/microlib/init/entry.s            0x00000000   Number         0  entry5.o ABSOLUTE
    ../clib/microlib/init/entry.s            0x00000000   Number         0  entry7a.o ABSOLUTE
    ../clib/microlib/init/entry.s            0x00000000   Number         0  entry7b.o ABSOLUTE
    ../clib/microlib/init/entry.s            0x00000000   Number         0  entry8a.o ABSOLUTE
    ../clib/microlib/init/entry.s            0x00000000   Number         0  entry8b.o ABSOLUTE
    ../clib/microlib/init/entry.s            0x00000000   Number         0  entry9a.o ABSOLUTE
    ../clib/microlib/init/entry.s            0x00000000   Number         0  entry9b.o ABSOLUTE
    ../clib/microlib/init/entry.s            0x00000000   Number         0  entry10a.o ABSOLUTE
    ../clib/microlib/init/entry.s            0x00000000   Number         0  entry10b.o ABSOLUTE
    ../clib/microlib/init/entry.s            0x00000000   Number         0  entry11a.o ABSOLUTE
    ../clib/microlib/init/entry.s            0x00000000   Number         0  entry11b.o ABSOLUTE
    ../clib/microlib/longlong.c              0x00000000   Number         0  llshl.o ABSOLUTE
    ../clib/microlib/longlong.c              0x00000000   Number         0  llushr.o ABSOLUTE
    ../clib/microlib/longlong.c              0x00000000   Number         0  llsshr.o ABSOLUTE
    ../clib/microlib/printf/printf.c         0x00000000   Number         0  printfb.o ABSOLUTE
    ../clib/microlib/printf/printf.c         0x00000000   Number         0  printf0.o ABSOLUTE
    ../clib/microlib/printf/printf.c         0x00000000   Number         0  printf1.o ABSOLUTE
    ../clib/microlib/printf/printf.c         0x00000000   Number         0  printf2.o ABSOLUTE
    ../clib/microlib/printf/printf.c         0x00000000   Number         0  printf3.o ABSOLUTE
    ../clib/microlib/printf/printf.c         0x00000000   Number         0  printf4.o ABSOLUTE
    ../clib/microlib/printf/printf.c         0x00000000   Number         0  printf5.o ABSOLUTE
    ../clib/microlib/printf/printf.c         0x00000000   Number         0  printf6.o ABSOLUTE
    ../clib/microlib/printf/printf.c         0x00000000   Number         0  printf7.o ABSOLUTE
    ../clib/microlib/printf/printf.c         0x00000000   Number         0  printf8.o ABSOLUTE
    ../clib/microlib/printf/printf.c         0x00000000   Number         0  printfa.o ABSOLUTE
    ../clib/microlib/printf/stubs.s          0x00000000   Number         0  printfstubs.o ABSOLUTE
    ../clib/microlib/stdio/puts.c            0x00000000   Number         0  puts.o ABSOLUTE
    ../clib/microlib/stdio/puts.c            0x00000000   Number         0  puts_e.o ABSOLUTE
    ../clib/microlib/stdio/streams.c         0x00000000   Number         0  stdout.o ABSOLUTE
    ../clib/microlib/string/memcmp.c         0x00000000   Number         0  memcmp.o ABSOLUTE
    ../clib/microlib/string/memcpy.c         0x00000000   Number         0  memcpya.o ABSOLUTE
    ../clib/microlib/string/memcpy.c         0x00000000   Number         0  memmovea.o ABSOLUTE
    ../clib/microlib/string/memcpy.c         0x00000000   Number         0  memcpyb.o ABSOLUTE
    ../clib/microlib/string/memcpy.c         0x00000000   Number         0  memmoveb.o ABSOLUTE
    ../clib/microlib/string/memset.c         0x00000000   Number         0  memseta.o ABSOLUTE
    ../clib/microlib/string/strcmp.c         0x00000000   Number         0  strcmp.o ABSOLUTE
    ../clib/microlib/string/strcpy.c         0x00000000   Number         0  strcpy.o ABSOLUTE
    ../clib/microlib/string/strlen.c         0x00000000   Number         0  strlen.o ABSOLUTE
    ../clib/microlib/stubs.s                 0x00000000   Number         0  iusefp.o ABSOLUTE
    ../fplib/microlib/d2f.c                  0x00000000   Number         0  d2f.o ABSOLUTE
    ../fplib/microlib/f2d.c                  0x00000000   Number         0  f2d.o ABSOLUTE
    ../fplib/microlib/fpadd.c                0x00000000   Number         0  dadd.o ABSOLUTE
    ../fplib/microlib/fpcmp.c                0x00000000   Number         0  dcmple.o ABSOLUTE
    ../fplib/microlib/fpcmp.c                0x00000000   Number         0  dcmplt.o ABSOLUTE
    ../fplib/microlib/fpcmp.c                0x00000000   Number         0  dcmpge.o ABSOLUTE
    ../fplib/microlib/fpdiv.c                0x00000000   Number         0  fdiv.o ABSOLUTE
    ../fplib/microlib/fpdiv.c                0x00000000   Number         0  ddiv.o ABSOLUTE
    ../fplib/microlib/fpepilogue.c           0x00000000   Number         0  fepilogue.o ABSOLUTE
    ../fplib/microlib/fpepilogue.c           0x00000000   Number         0  depilogue.o ABSOLUTE
    ../fplib/microlib/fpfix.c                0x00000000   Number         0  ffixi.o ABSOLUTE
    ../fplib/microlib/fpfix.c                0x00000000   Number         0  dfixi.o ABSOLUTE
    ../fplib/microlib/fpfix.c                0x00000000   Number         0  dfixul.o ABSOLUTE
    ../fplib/microlib/fpflt.c                0x00000000   Number         0  fflti.o ABSOLUTE
    ../fplib/microlib/fpflt.c                0x00000000   Number         0  ffltui.o ABSOLUTE
    ../fplib/microlib/fpflt.c                0x00000000   Number         0  dflti.o ABSOLUTE
    ../fplib/microlib/fpflt.c                0x00000000   Number         0  dfltui.o ABSOLUTE
    ../fplib/microlib/fpmul.c                0x00000000   Number         0  fmul.o ABSOLUTE
    ../fplib/microlib/fpmul.c                0x00000000   Number         0  dmul.o ABSOLUTE
    ../mathlib/ceil.c                        0x00000000   Number         0  ceil.o ABSOLUTE
    CSL\CMSIS\DeviceSupport\startup\arm\startup_SWM341.s 0x00000000   Number         0  startup_swm341.o ABSOLUTE
    SWM341_adc.c                             0x00000000   Number         0  swm341_adc.o ABSOLUTE
    SWM341_can.c                             0x00000000   Number         0  swm341_can.o ABSOLUTE
    SWM341_cordic.c                          0x00000000   Number         0  swm341_cordic.o ABSOLUTE
    SWM341_crc.c                             0x00000000   Number         0  swm341_crc.o ABSOLUTE
    SWM341_dac.c                             0x00000000   Number         0  swm341_dac.o ABSOLUTE
    SWM341_div.c                             0x00000000   Number         0  swm341_div.o ABSOLUTE
    SWM341_dma.c                             0x00000000   Number         0  swm341_dma.o ABSOLUTE
    SWM341_dma2d.c                           0x00000000   Number         0  swm341_dma2d.o ABSOLUTE
    SWM341_exti.c                            0x00000000   Number         0  swm341_exti.o ABSOLUTE
    SWM341_flash.c                           0x00000000   Number         0  swm341_flash.o ABSOLUTE
    SWM341_gpio.c                            0x00000000   Number         0  swm341_gpio.o ABSOLUTE
    SWM341_i2c.c                             0x00000000   Number         0  swm341_i2c.o ABSOLUTE
    SWM341_iofilt.c                          0x00000000   Number         0  swm341_iofilt.o ABSOLUTE
    SWM341_jpeg.c                            0x00000000   Number         0  swm341_jpeg.o ABSOLUTE
    SWM341_lcd.c                             0x00000000   Number         0  swm341_lcd.o ABSOLUTE
    SWM341_port.c                            0x00000000   Number         0  swm341_port.o ABSOLUTE
    SWM341_pwm.c                             0x00000000   Number         0  swm341_pwm.o ABSOLUTE
    SWM341_qei.c                             0x00000000   Number         0  swm341_qei.o ABSOLUTE
    SWM341_rtc.c                             0x00000000   Number         0  swm341_rtc.o ABSOLUTE
    SWM341_sdio.c                            0x00000000   Number         0  swm341_sdio.o ABSOLUTE
    SWM341_sdram.c                           0x00000000   Number         0  swm341_sdram.o ABSOLUTE
    SWM341_sfc.c                             0x00000000   Number         0  swm341_sfc.o ABSOLUTE
    SWM341_sleep.c                           0x00000000   Number         0  swm341_sleep.o ABSOLUTE
    SWM341_spi.c                             0x00000000   Number         0  swm341_spi.o ABSOLUTE
    SWM341_timr.c                            0x00000000   Number         0  swm341_timr.o ABSOLUTE
    SWM341_uart.c                            0x00000000   Number         0  swm341_uart.o ABSOLUTE
    SWM341_usbd.c                            0x00000000   Number         0  swm341_usbd.o ABSOLUTE
    SWM341_usbh.c                            0x00000000   Number         0  swm341_usbh.o ABSOLUTE
    SWM341_wdt.c                             0x00000000   Number         0  swm341_wdt.o ABSOLUTE
    bsp_lcd_rgb.c                            0x00000000   Number         0  bsp_lcd_rgb.o ABSOLUTE
    bsp_led.c                                0x00000000   Number         0  bsp_led.o ABSOLUTE
    bsp_sfc.c                                0x00000000   Number         0  bsp_sfc.o ABSOLUTE
    bsp_uart.c                               0x00000000   Number         0  bsp_uart.o ABSOLUTE
    cdrcmple.s                               0x00000000   Number         0  cdrcmple.o ABSOLUTE
    dc.s                                     0x00000000   Number         0  dc.o ABSOLUTE
    dev_dac.c                                0x00000000   Number         0  dev_dac.o ABSOLUTE
    dev_sdio.c                               0x00000000   Number         0  dev_sdio.o ABSOLUTE
    dev_sdram.c                              0x00000000   Number         0  dev_sdram.o ABSOLUTE
    dev_systick.c                            0x00000000   Number         0  dev_systick.o ABSOLUTE
    dev_touch.c                              0x00000000   Number         0  dev_touch.o ABSOLUTE
    gifdec.c                                 0x00000000   Number         0  gifdec.o ABSOLUTE
    gt911.c                                  0x00000000   Number         0  gt911.o ABSOLUTE
    gt_anim.c                                0x00000000   Number         0  gt_anim.o ABSOLUTE
    gt_area.c                                0x00000000   Number         0  gt_area.o ABSOLUTE
    gt_barcode.c                             0x00000000   Number         0  gt_barcode.o ABSOLUTE
    gt_btn.c                                 0x00000000   Number         0  gt_btn.o ABSOLUTE
    gt_btnmap.c                              0x00000000   Number         0  gt_btnmap.o ABSOLUTE
    gt_chat.c                                0x00000000   Number         0  gt_chat.o ABSOLUTE
    gt_checkbox.c                            0x00000000   Number         0  gt_checkbox.o ABSOLUTE
    gt_clock.c                               0x00000000   Number         0  gt_clock.o ABSOLUTE
    gt_color.c                               0x00000000   Number         0  gt_color.o ABSOLUTE
    gt_dialog.c                              0x00000000   Number         0  gt_dialog.o ABSOLUTE
    gt_disp.c                                0x00000000   Number         0  gt_disp.o ABSOLUTE
    gt_draw.c                                0x00000000   Number         0  gt_draw.o ABSOLUTE
    gt_draw_blend.c                          0x00000000   Number         0  gt_draw_blend.o ABSOLUTE
    gt_draw_blend_with_argb888.c             0x00000000   Number         0  gt_draw_blend_with_argb888.o ABSOLUTE
    gt_draw_blend_with_rgb565.c              0x00000000   Number         0  gt_draw_blend_with_rgb565.o ABSOLUTE
    gt_draw_blend_with_rgb888.c              0x00000000   Number         0  gt_draw_blend_with_rgb888.o ABSOLUTE
    gt_effects.c                             0x00000000   Number         0  gt_effects.o ABSOLUTE
    gt_event.c                               0x00000000   Number         0  gt_event.o ABSOLUTE
    gt_extra.c                               0x00000000   Number         0  gt_extra.o ABSOLUTE
    gt_font.c                                0x00000000   Number         0  gt_font.o ABSOLUTE
    gt_fs.c                                  0x00000000   Number         0  gt_fs.o ABSOLUTE
    gt_gc.c                                  0x00000000   Number         0  gt_gc.o ABSOLUTE
    gt_gif.c                                 0x00000000   Number         0  gt_gif.o ABSOLUTE
    gt_graph_base.c                          0x00000000   Number         0  gt_graph_base.o ABSOLUTE
    gt_group.c                               0x00000000   Number         0  gt_group.o ABSOLUTE
    gt_gui_driver.c                          0x00000000   Number         0  gt_gui_driver.o ABSOLUTE
    gt_hal_disp.c                            0x00000000   Number         0  gt_hal_disp.o ABSOLUTE
    gt_hal_file_header.c                     0x00000000   Number         0  gt_hal_file_header.o ABSOLUTE
    gt_hal_fs.c                              0x00000000   Number         0  gt_hal_fs.o ABSOLUTE
    gt_hal_indev.c                           0x00000000   Number         0  gt_hal_indev.o ABSOLUTE
    gt_hal_src.c                             0x00000000   Number         0  gt_hal_src.o ABSOLUTE
    gt_hal_tick.c                            0x00000000   Number         0  gt_hal_tick.o ABSOLUTE
    gt_hal_vf.c                              0x00000000   Number         0  gt_hal_vf.o ABSOLUTE
    gt_handler.c                             0x00000000   Number         0  gt_handler.o ABSOLUTE
    gt_img.c                                 0x00000000   Number         0  gt_img.o ABSOLUTE
    gt_img_decoder.c                         0x00000000   Number         0  gt_img_decoder.o ABSOLUTE
    gt_imgbtn.c                              0x00000000   Number         0  gt_imgbtn.o ABSOLUTE
    gt_indev.c                               0x00000000   Number         0  gt_indev.o ABSOLUTE
    gt_init_screen_home.c                    0x00000000   Number         0  gt_init_screen_home.o ABSOLUTE
    gt_input.c                               0x00000000   Number         0  gt_input.o ABSOLUTE
    gt_input_number.c                        0x00000000   Number         0  gt_input_number.o ABSOLUTE
    gt_keypad.c                              0x00000000   Number         0  gt_keypad.o ABSOLUTE
    gt_label.c                               0x00000000   Number         0  gt_label.o ABSOLUTE
    gt_layout.c                              0x00000000   Number         0  gt_layout.o ABSOLUTE
    gt_line.c                                0x00000000   Number         0  gt_line.o ABSOLUTE
    gt_listview.c                            0x00000000   Number         0  gt_listview.o ABSOLUTE
    gt_ll.c                                  0x00000000   Number         0  gt_ll.o ABSOLUTE
    gt_math.c                                0x00000000   Number         0  gt_math.o ABSOLUTE
    gt_mem.c                                 0x00000000   Number         0  gt_mem.o ABSOLUTE
    gt_obj.c                                 0x00000000   Number         0  gt_obj.o ABSOLUTE
    gt_obj_class.c                           0x00000000   Number         0  gt_obj_class.o ABSOLUTE
    gt_obj_pos.c                             0x00000000   Number         0  gt_obj_pos.o ABSOLUTE
    gt_obj_scroll.c                          0x00000000   Number         0  gt_obj_scroll.o ABSOLUTE
    gt_option.c                              0x00000000   Number         0  gt_option.o ABSOLUTE
    gt_player.c                              0x00000000   Number         0  gt_player.o ABSOLUTE
    gt_png.c                                 0x00000000   Number         0  gt_png.o ABSOLUTE
    gt_port_disp.c                           0x00000000   Number         0  gt_port_disp.o ABSOLUTE
    gt_port_indev.c                          0x00000000   Number         0  gt_port_indev.o ABSOLUTE
    gt_port_src.c                            0x00000000   Number         0  gt_port_src.o ABSOLUTE
    gt_port_vf.c                             0x00000000   Number         0  gt_port_vf.o ABSOLUTE
    gt_progress_bar.c                        0x00000000   Number         0  gt_progress_bar.o ABSOLUTE
    gt_qrcode.c                              0x00000000   Number         0  gt_qrcode.o ABSOLUTE
    gt_radio.c                               0x00000000   Number         0  gt_radio.o ABSOLUTE
    gt_rect.c                                0x00000000   Number         0  gt_rect.o ABSOLUTE
    gt_refr.c                                0x00000000   Number         0  gt_refr.o ABSOLUTE
    gt_roller.c                              0x00000000   Number         0  gt_roller.o ABSOLUTE
    gt_scr_stack.c                           0x00000000   Number         0  gt_scr_stack.o ABSOLUTE
    gt_sjpg.c                                0x00000000   Number         0  gt_sjpg.o ABSOLUTE
    gt_slider.c                              0x00000000   Number         0  gt_slider.o ABSOLUTE
    gt_stack.c                               0x00000000   Number         0  gt_stack.o ABSOLUTE
    gt_status_bar.c                          0x00000000   Number         0  gt_status_bar.o ABSOLUTE
    gt_style.c                               0x00000000   Number         0  gt_style.o ABSOLUTE
    gt_switch.c                              0x00000000   Number         0  gt_switch.o ABSOLUTE
    gt_symbol.c                              0x00000000   Number         0  gt_symbol.o ABSOLUTE
    gt_template.c                            0x00000000   Number         0  gt_template.o ABSOLUTE
    gt_textarea.c                            0x00000000   Number         0  gt_textarea.o ABSOLUTE
    gt_timer.c                               0x00000000   Number         0  gt_timer.o ABSOLUTE
    gt_tlsf.c                                0x00000000   Number         0  gt_tlsf.o ABSOLUTE
    gt_txt.c                                 0x00000000   Number         0  gt_txt.o ABSOLUTE
    gt_ui.c                                  0x00000000   Number         0  gt_ui.o ABSOLUTE
    gt_vector.c                              0x00000000   Number         0  gt_vector.o ABSOLUTE
    gt_view_pager.c                          0x00000000   Number         0  gt_view_pager.o ABSOLUTE
    gt_wordart.c                             0x00000000   Number         0  gt_wordart.o ABSOLUTE
    handlers.s                               0x00000000   Number         0  handlers.o ABSOLUTE
    init.s                                   0x00000000   Number         0  init.o ABSOLUTE
    lodepng.c                                0x00000000   Number         0  lodepng.o ABSOLUTE
    main.c                                   0x00000000   Number         0  main.o ABSOLUTE
    system_SWM341.c                          0x00000000   Number         0  system_swm341.o ABSOLUTE
    tjpgd.c                                  0x00000000   Number         0  tjpgd.o ABSOLUTE
    RESET                                    0x00020000   Section      424  startup_swm341.o(RESET)
    .ARM.Collect$$$$00000000                 0x000201a8   Section        0  entry.o(.ARM.Collect$$$$00000000)
    .ARM.Collect$$$$00000001                 0x000201a8   Section        4  entry2.o(.ARM.Collect$$$$00000001)
    .ARM.Collect$$$$00000004                 0x000201ac   Section        4  entry5.o(.ARM.Collect$$$$00000004)
    .ARM.Collect$$$$00000008                 0x000201b0   Section        0  entry7b.o(.ARM.Collect$$$$00000008)
    .ARM.Collect$$$$0000000A                 0x000201b0   Section        0  entry8b.o(.ARM.Collect$$$$0000000A)
    .ARM.Collect$$$$0000000B                 0x000201b0   Section        8  entry9a.o(.ARM.Collect$$$$0000000B)
    __lit__00000000                          0x000201b8   Data           4  entry2.o(.ARM.Collect$$$$00002712)
    .ARM.Collect$$$$0000000D                 0x000201b8   Section        0  entry10a.o(.ARM.Collect$$$$0000000D)
    .ARM.Collect$$$$0000000F                 0x000201b8   Section        0  entry11a.o(.ARM.Collect$$$$0000000F)
    .ARM.Collect$$$$00002712                 0x000201b8   Section        4  entry2.o(.ARM.Collect$$$$00002712)
    [Anonymous Symbol]                       0x000201bc   Section        0  main.o(.text)
    [Anonymous Symbol]                       0x00020458   Section        0  bsp_lcd_rgb.o(.text)
    [Anonymous Symbol]                       0x00020a2c   Section        0  bsp_sfc.o(.text)
    [Anonymous Symbol]                       0x00020ffc   Section        0  bsp_uart.o(.text)
    [Anonymous Symbol]                       0x000212ac   Section        0  dev_systick.o(.text)
    [Anonymous Symbol]                       0x000213b0   Section        0  dev_touch.o(.text)
    [Anonymous Symbol]                       0x0002142c   Section        0  gt911.o(.text)
    [Anonymous Symbol]                       0x00021a5c   Section        0  system_swm341.o(.text)
    .text                                    0x00022b54   Section      216  startup_swm341.o(.text)
    [Anonymous Symbol]                       0x00022c2c   Section        0  swm341_exti.o(.text)
    [Anonymous Symbol]                       0x00022ccc   Section        0  swm341_flash.o(.text)
    [Anonymous Symbol]                       0x00022e0c   Section        0  swm341_gpio.o(.text)
    [Anonymous Symbol]                       0x000230a4   Section        0  swm341_i2c.o(.text)
    [Anonymous Symbol]                       0x000233b0   Section        0  swm341_lcd.o(.text)
    [Anonymous Symbol]                       0x000236cc   Section        0  swm341_port.o(.text)
    [Anonymous Symbol]                       0x00023718   Section        0  swm341_sdram.o(.text)
    [Anonymous Symbol]                       0x000239a0   Section        0  swm341_sfc.o(.text)
    [Anonymous Symbol]                       0x00023f78   Section        0  swm341_timr.o(.text)
    [Anonymous Symbol]                       0x00024ad8   Section        0  swm341_uart.o(.text)
    [Anonymous Symbol]                       0x00024e48   Section        0  swm341_wdt.o(.text)
    [Anonymous Symbol]                       0x00024ee8   Section        0  gt_port_disp.o(.text)
    [Anonymous Symbol]                       0x00024f30   Section        0  gt_port_indev.o(.text)
    [Anonymous Symbol]                       0x00024f78   Section        0  gt_port_src.o(.text)
    [Anonymous Symbol]                       0x00024f88   Section        0  gt_port_vf.o(.text)
    [Anonymous Symbol]                       0x00024fa8   Section        0  gt_disp.o(.text)
    _scr_anim_del_ready_cb                   0x00026141   Thumb Code    20  gt_disp.o(.text)
    _old_scr_anim_ready_cb                   0x00026155   Thumb Code    88  gt_disp.o(.text)
    _scr_anim_start_cb                       0x000261cd   Thumb Code    32  gt_disp.o(.text)
    _scr_anim_ready_cb                       0x000261ed   Thumb Code   148  gt_disp.o(.text)
    _scr_anim_exec_x_cb                      0x00026295   Thumb Code     6  gt_disp.o(.text)
    _scr_anim_exec_y_cb                      0x0002629d   Thumb Code     6  gt_disp.o(.text)
    _gt_disp_check_and_copy_foreach          0x00026455   Thumb Code   170  gt_disp.o(.text)
    _check_and_copy_foreach                  0x00026501   Thumb Code   230  gt_disp.o(.text)
    [Anonymous Symbol]                       0x000265e8   Section        0  gt_draw.o(.text)
    _gt_radius_mask_init                     0x00027731   Thumb Code  1252  gt_draw.o(.text)
    _gt_get_radius_mask_buf                  0x00027c91   Thumb Code  1428  gt_draw.o(.text)
    _draw_text_convertor_split               0x00029af9   Thumb Code  1300  gt_draw.o(.text)
    [Anonymous Symbol]                       0x0002a00c   Section        0  gt_event.o(.text)
    [Anonymous Symbol]                       0x0002a324   Section        0  gt_fs.o(.text)
    [Anonymous Symbol]                       0x0002a630   Section        0  gt_graph_base.o(.text)
    [Anonymous Symbol]                       0x0002a6c4   Section        0  gt_handler.o(.text)
    [Anonymous Symbol]                       0x0002a718   Section        0  gt_img_decoder.o(.text)
    _gt_img_decoder_built_in_info            0x0002a7b5   Thumb Code    58  gt_img_decoder.o(.text)
    _gt_img_decoder_built_in_open            0x0002a7f5   Thumb Code    58  gt_img_decoder.o(.text)
    _gt_img_decoder_built_in_read_line       0x0002a835   Thumb Code    86  gt_img_decoder.o(.text)
    _gt_img_decoder_built_in_close           0x0002a891   Thumb Code    12  gt_img_decoder.o(.text)
    [Anonymous Symbol]                       0x0002aacc   Section        0  gt_indev.o(.text)
    _indev_scroll_throw_exec_cb              0x0002b2e9   Thumb Code   626  gt_indev.o(.text)
    _indev_scroll_throw_ready_cb             0x0002b55d   Thumb Code    10  gt_indev.o(.text)
    _absorb_handler                          0x0002b569   Thumb Code   314  gt_indev.o(.text)
    [Anonymous Symbol]                       0x0002b6a4   Section        0  gt_layout.o(.text)
    _row_grow_inside_invert                  0x0002b761   Thumb Code   140  gt_layout.o(.text)
    _row_grow_inside                         0x0002b7ed   Thumb Code   140  gt_layout.o(.text)
    [Anonymous Symbol]                       0x0002b878   Section        0  gt_mem.o(.text)
    [Anonymous Symbol]                       0x0002b9dc   Section        0  gt_obj_pos.o(.text)
    _gt_obj_foreach_clicked                  0x0002ba15   Thumb Code   272  gt_obj_pos.o(.text)
    _gt_obj_next_focus_get                   0x0002bbbd   Thumb Code    84  gt_obj_pos.o(.text)
    [Anonymous Symbol]                       0x0002bd78   Section        0  gt_obj_scroll.o(.text)
    _scroll_by_x                             0x0002bf0d   Thumb Code    12  gt_obj_scroll.o(.text)
    _scroll_by_y                             0x0002bf19   Thumb Code    12  gt_obj_scroll.o(.text)
    [Anonymous Symbol]                       0x0002bf60   Section        0  gt_refr.o(.text)
    [Anonymous Symbol]                       0x0002bfd8   Section        0  gt_scr_stack.o(.text)
    _equal_current_id_cb                     0x0002c56d   Thumb Code    14  gt_scr_stack.o(.text)
    _free_alive_scr_object_cb                0x0002c5d1   Thumb Code    84  gt_scr_stack.o(.text)
    [Anonymous Symbol]                       0x0002c654   Section        0  gt_style.o(.text)
    _update_layer_top_widget_area            0x0002c745   Thumb Code   332  gt_style.o(.text)
    [Anonymous Symbol]                       0x0002e228   Section        0  gt_timer.o(.text)
    [Anonymous Symbol]                       0x0002e758   Section        0  gt_extra.o(.text)
    [Anonymous Symbol]                       0x0002e768   Section        0  gt_draw_blend.o(.text)
    [Anonymous Symbol]                       0x0002ef08   Section        0  gt_draw_blend_with_rgb565.o(.text)
    [Anonymous Symbol]                       0x0002ff48   Section        0  gt_sjpg.o(.text)
    _gt_sjpg_info                            0x0002ff91   Thumb Code   460  gt_sjpg.o(.text)
    _gt_sjpg_open                            0x00030171   Thumb Code   714  gt_sjpg.o(.text)
    _gt_sjpg_read_line                       0x0003043d   Thumb Code   152  gt_sjpg.o(.text)
    _gt_sjpg_close                           0x000304d5   Thumb Code    30  gt_sjpg.o(.text)
    input_func                               0x000304f5   Thumb Code    60  gt_sjpg.o(.text)
    _sjpg_free                               0x00030531   Thumb Code   118  gt_sjpg.o(.text)
    output_func                              0x000305a9   Thumb Code   126  gt_sjpg.o(.text)
    [Anonymous Symbol]                       0x00030628   Section        0  tjpgd.o(.text)
    huffext                                  0x0003316d   Thumb Code  1778  tjpgd.o(.text)
    [Anonymous Symbol]                       0x00033860   Section        0  gt_png.o(.text)
    _gt_png_info                             0x000338a9   Thumb Code   236  gt_png.o(.text)
    _gt_png_open                             0x00033995   Thumb Code   780  gt_png.o(.text)
    _gt_png_read_line                        0x00033ce9   Thumb Code    32  gt_png.o(.text)
    _gt_png_close                            0x00033d09   Thumb Code    68  gt_png.o(.text)
    [Anonymous Symbol]                       0x00033d4c   Section        0  lodepng.o(.text)
    lodepng_inflatev                         0x00033e75   Thumb Code  5188  lodepng.o(.text)
    lodepng_zlib_decompressv                 0x000352e5   Thumb Code   382  lodepng.o(.text)
    lodepng_add_text_sized                   0x000361cd   Thumb Code   312  lodepng.o(.text)
    LodePNGText_cleanup                      0x00036309   Thumb Code   122  lodepng.o(.text)
    LodePNGIText_cleanup                     0x00036389   Thumb Code   198  lodepng.o(.text)
    lodepng_add_itext_sized                  0x000364a1   Thumb Code   602  lodepng.o(.text)
    color_tree_cleanup                       0x00039599   Thumb Code   430  lodepng.o(.text)
    readChunk_PLTE                           0x0003a085   Thumb Code   358  lodepng.o(.text)
    readChunk_tEXt                           0x0003a1ed   Thumb Code   332  lodepng.o(.text)
    readChunk_zTXt                           0x0003a339   Thumb Code   432  lodepng.o(.text)
    readChunk_iTXt                           0x0003a4e9   Thumb Code   846  lodepng.o(.text)
    readChunk_cHRM                           0x0003a839   Thumb Code    82  lodepng.o(.text)
    readChunk_iCCP                           0x0003a88d   Thumb Code   558  lodepng.o(.text)
    readChunk_sBIT                           0x0003aabd   Thumb Code   308  lodepng.o(.text)
    HuffmanTree_makeFromLengths              0x0003cb99   Thumb Code  2794  lodepng.o(.text)
    unfilter                                 0x0003d685   Thumb Code  3916  lodepng.o(.text)
    Adam7_getpassvalues                      0x0003e5d1   Thumb Code   798  lodepng.o(.text)
    [Anonymous Symbol]                       0x0003e8f0   Section        0  gt_font.o(.text)
    _gt_font_lang_and_punctuation_split      0x00040ba5   Thumb Code   486  gt_font.o(.text)
    _is_punctuation                          0x00040d8d   Thumb Code    46  gt_font.o(.text)
    [Anonymous Symbol]                       0x00040de4   Section        0  gt_symbol.o(.text)
    [Anonymous Symbol]                       0x00040e70   Section        0  gt_hal_disp.o(.text)
    _gt_disp_task_handler                    0x00040fcd   Thumb Code     4  gt_hal_disp.o(.text)
    _calc_max_area_recursive                 0x0004131d   Thumb Code   476  gt_hal_disp.o(.text)
    [Anonymous Symbol]                       0x00041594   Section        0  gt_hal_fs.o(.text)
    [Anonymous Symbol]                       0x00041638   Section        0  gt_hal_indev.o(.text)
    [Anonymous Symbol]                       0x00041730   Section        0  gt_hal_src.o(.text)
    _open_cb                                 0x000417b5   Thumb Code   192  gt_hal_src.o(.text)
    _close_cb                                0x000418c1   Thumb Code    34  gt_hal_src.o(.text)
    _read_cb                                 0x000418e5   Thumb Code    50  gt_hal_src.o(.text)
    _seek_cb                                 0x00041919   Thumb Code    44  gt_hal_src.o(.text)
    _tell_cb                                 0x00041945   Thumb Code    12  gt_hal_src.o(.text)
    [Anonymous Symbol]                       0x00041950   Section        0  gt_hal_tick.o(.text)
    [Anonymous Symbol]                       0x000419c4   Section        0  gt_hal_vf.o(.text)
    _open_cb                                 0x00041a7d   Thumb Code   184  gt_hal_vf.o(.text)
    _close_cb                                0x00041b81   Thumb Code    38  gt_hal_vf.o(.text)
    _read_cb                                 0x00041ba9   Thumb Code   188  gt_hal_vf.o(.text)
    _write_cb                                0x00041c65   Thumb Code    46  gt_hal_vf.o(.text)
    _seek_cb                                 0x00041c95   Thumb Code    50  gt_hal_vf.o(.text)
    _tell_cb                                 0x00041cc9   Thumb Code    20  gt_hal_vf.o(.text)
    [Anonymous Symbol]                       0x00041cdc   Section        0  gt_anim.o(.text)
    _default_exec_cb                         0x00041e3d   Thumb Code    70  gt_anim.o(.text)
    _gt_anim_task_handler                    0x0004206d   Thumb Code   432  gt_anim.o(.text)
    _gt_anim_path_linear                     0x0004221d   Thumb Code    44  gt_anim.o(.text)
    _gt_anim_path_ease_in                    0x00042441   Thumb Code    64  gt_anim.o(.text)
    _gt_anim_path_ease_out                   0x00042481   Thumb Code    64  gt_anim.o(.text)
    _gt_anim_path_ease_in_out                0x000424c1   Thumb Code    66  gt_anim.o(.text)
    _gt_anim_path_overshoot                  0x00042505   Thumb Code    68  gt_anim.o(.text)
    _gt_anim_path_bounce                     0x00042549   Thumb Code   264  gt_anim.o(.text)
    [Anonymous Symbol]                       0x00042650   Section        0  gt_area.o(.text)
    [Anonymous Symbol]                       0x000428fc   Section        0  gt_color.o(.text)
    [Anonymous Symbol]                       0x000429a0   Section        0  gt_gc.o(.text)
    [Anonymous Symbol]                       0x000429c8   Section        0  gt_math.o(.text)
    [Anonymous Symbol]                       0x00042b48   Section        0  gt_tlsf.o(.text)
    default_walker                           0x00042d79   Thumb Code    40  gt_tlsf.o(.text)
    block_locate_free                        0x00043165   Thumb Code   218  gt_tlsf.o(.text)
    block_prepare_used                       0x00043241   Thumb Code   244  gt_tlsf.o(.text)
    [Anonymous Symbol]                       0x000438cc   Section        0  gt_stack.o(.text)
    [Anonymous Symbol]                       0x00043d48   Section        0  gt_vector.o(.text)
    _default_equal_cb                        0x00043dbd   Thumb Code    14  gt_vector.o(.text)
    _init_cb                                 0x00044131   Thumb Code   358  gt_btn.o(.text)
    [Anonymous Symbol]                       0x00044130   Section        0  gt_btn.o(.text)
    _deinit_cb                               0x00044299   Thumb Code    44  gt_btn.o(.text)
    _event_cb                                0x000442c5   Thumb Code   154  gt_btn.o(.text)
    _contents_equal_cb                       0x000443f5   Thumb Code    14  gt_btn.o(.text)
    _press_btn_handler                       0x00044799   Thumb Code   116  gt_btn.o(.text)
    _init_cb                                 0x0004480d   Thumb Code    80  gt_dialog.o(.text)
    [Anonymous Symbol]                       0x0004480c   Section        0  gt_dialog.o(.text)
    _deinit_cb                               0x0004485d   Thumb Code     2  gt_dialog.o(.text)
    _event_cb                                0x00044861   Thumb Code   348  gt_dialog.o(.text)
    _find_showing_recursive_by_type          0x00044d19   Thumb Code    78  gt_dialog.o(.text)
    _close_release_cb                        0x0004503d   Thumb Code    10  gt_dialog.o(.text)
    _dialog_anim_exec_cb                     0x00045049   Thumb Code    26  gt_dialog.o(.text)
    _dialog_show_anim_start_cb               0x00045065   Thumb Code    14  gt_dialog.o(.text)
    _dialog_close_anim_ready_cb              0x00045075   Thumb Code    28  gt_dialog.o(.text)
    _init_cb                                 0x00045091   Thumb Code    68  gt_img.o(.text)
    [Anonymous Symbol]                       0x00045090   Section        0  gt_img.o(.text)
    _deinit_cb                               0x000450d5   Thumb Code    68  gt_img.o(.text)
    _event_cb                                0x00045165   Thumb Code   130  gt_img.o(.text)
    _init_cb                                 0x00045391   Thumb Code    80  gt_imgbtn.o(.text)
    [Anonymous Symbol]                       0x00045390   Section        0  gt_imgbtn.o(.text)
    _deinit_cb                               0x000453e1   Thumb Code    66  gt_imgbtn.o(.text)
    _event_cb                                0x00045425   Thumb Code   256  gt_imgbtn.o(.text)
    _imgs_free_cb                            0x00045565   Thumb Code    30  gt_imgbtn.o(.text)
    _imgs_equal_cb                           0x00045585   Thumb Code    18  gt_imgbtn.o(.text)
    _init_cb                                 0x0004582d   Thumb Code   368  gt_label.o(.text)
    [Anonymous Symbol]                       0x0004582c   Section        0  gt_label.o(.text)
    _deinit_cb                               0x0004599d   Thumb Code    72  gt_label.o(.text)
    _event_cb                                0x000459e5   Thumb Code    46  gt_label.o(.text)
    _auto_scroll_exec_cb                     0x00046101   Thumb Code    22  gt_label.o(.text)
    [Anonymous Symbol]                       0x00046118   Section        0  gt_obj.o(.text)
    _find_obj_recursive_by_id                0x00046295   Thumb Code    58  gt_obj.o(.text)
    _init_cb                                 0x00046755   Thumb Code   354  gt_obj.o(.text)
    _obj_event_cb                            0x000468b9   Thumb Code   220  gt_obj.o(.text)
    _screen_event_cb                         0x00046995   Thumb Code   328  gt_obj.o(.text)
    [Anonymous Symbol]                       0x00046adc   Section        0  gt_obj_class.o(.text)
    _destroy_and_free_children               0x00046fa9   Thumb Code   310  gt_obj_class.o(.text)
    _init_cb                                 0x0004714d   Thumb Code   100  gt_player.o(.text)
    [Anonymous Symbol]                       0x0004714c   Section        0  gt_player.o(.text)
    _deinit_cb                               0x000471b1   Thumb Code   170  gt_player.o(.text)
    _event_cb                                0x0004725d   Thumb Code    28  gt_player.o(.text)
    _auto_play_callback                      0x000472c1   Thumb Code   132  gt_player.o(.text)
    _remove_item                             0x000474a5   Thumb Code   212  gt_player.o(.text)
    _turn_next_item                          0x00047abd   Thumb Code   290  gt_player.o(.text)
    _turn_prev_item                          0x00047be1   Thumb Code   286  gt_player.o(.text)
    [Anonymous Symbol]                       0x00047d00   Section        0  gt_init_screen_home.o(.text)
    imgbtn1_0_cb                             0x00048621   Thumb Code    14  gt_init_screen_home.o(.text)
    imgbtn1_1_cb                             0x00048631   Thumb Code    14  gt_init_screen_home.o(.text)
    imgbtn2_0_cb                             0x00048641   Thumb Code    14  gt_init_screen_home.o(.text)
    imgbtn2_1_cb                             0x00048651   Thumb Code    14  gt_init_screen_home.o(.text)
    imgbtn5_0_cb                             0x00048661   Thumb Code    14  gt_init_screen_home.o(.text)
    imgbtn5_1_cb                             0x00048671   Thumb Code    14  gt_init_screen_home.o(.text)
    imgbtn6_0_cb                             0x00048681   Thumb Code    14  gt_init_screen_home.o(.text)
    imgbtn6_1_cb                             0x00048691   Thumb Code    14  gt_init_screen_home.o(.text)
    imgbtn10_0_cb                            0x000486a1   Thumb Code    14  gt_init_screen_home.o(.text)
    imgbtn11_0_cb                            0x000486b1   Thumb Code    14  gt_init_screen_home.o(.text)
    imgbtn12_0_cb                            0x000486c1   Thumb Code    14  gt_init_screen_home.o(.text)
    imgbtn13_0_cb                            0x000486d1   Thumb Code    14  gt_init_screen_home.o(.text)
    [Anonymous Symbol]                       0x000486e0   Section        0  gt_ui.o(.text)
    [Anonymous Symbol]                       0x00048704   Section        0  gt_gui_driver.o(.text)
    MD5Init                                  0x00048849   Thumb Code    48  gt_gui_driver.o(.text)
    MD5Update                                0x00048879   Thumb Code   146  gt_gui_driver.o(.text)
    MD5Final                                 0x0004890d   Thumb Code    84  gt_gui_driver.o(.text)
    GB2312Offset                             0x00048a75   Thumb Code    88  gt_gui_driver.o(.text)
    MD5Transform                             0x00048c71   Thumb Code  1876  gt_gui_driver.o(.text)
    MD5Decode                                0x000493c5   Thumb Code    24  gt_gui_driver.o(.text)
    MD5Encode                                0x000493dd   Thumb Code    58  gt_gui_driver.o(.text)
    .text                                    0x00049416   Section        0  tolower.o(.text)
    .text                                    0x00049422   Section        0  memmovea.o(.text)
    .text                                    0x00049462   Section        0  memseta.o(.text)
    .text                                    0x00049486   Section        0  strlen.o(.text)
    .text                                    0x00049494   Section        0  strcmp.o(.text)
    .text                                    0x000494b0   Section        0  memcmp.o(.text)
    .text                                    0x000494ca   Section        0  strcpy.o(.text)
    .text                                    0x000494dc   Section        0  fmul.o(.text)
    .text                                    0x00049540   Section        0  fdiv.o(.text)
    .text                                    0x000495bc   Section        0  dadd.o(.text)
    .text                                    0x0004970a   Section        0  dmul.o(.text)
    .text                                    0x000497ee   Section        0  ddiv.o(.text)
    .text                                    0x000498cc   Section        0  ffltui.o(.text)
    .text                                    0x000498d6   Section        0  dflti.o(.text)
    .text                                    0x000498f8   Section        0  dfltui.o(.text)
    .text                                    0x00049912   Section        0  f2d.o(.text)
    .text                                    0x00049938   Section        0  d2f.o(.text)
    .text                                    0x00049970   Section        0  uidiv.o(.text)
    .text                                    0x0004999c   Section        0  uldiv.o(.text)
    .text                                    0x000499fe   Section        0  llshl.o(.text)
    .text                                    0x00049a1c   Section        0  llushr.o(.text)
    .text                                    0x00049a3c   Section        0  llsshr.o(.text)
    .text                                    0x00049a60   Section        0  iusefp.o(.text)
    .text                                    0x00049a60   Section        0  fepilogue.o(.text)
    .text                                    0x00049ace   Section        0  depilogue.o(.text)
    .text                                    0x00049b88   Section        0  dfixul.o(.text)
    .text                                    0x00049bb8   Section       48  cdrcmple.o(.text)
    .text                                    0x00049be8   Section       36  init.o(.text)
    i.__0printf                              0x00049c0c   Section        0  printfa.o(i.__0printf)
    i.__0vsnprintf                           0x00049c2c   Section        0  printfa.o(i.__0vsnprintf)
    i.__scatterload_copy                     0x00049c60   Section       14  handlers.o(i.__scatterload_copy)
    i.__scatterload_null                     0x00049c6e   Section        2  handlers.o(i.__scatterload_null)
    i.__scatterload_zeroinit                 0x00049c70   Section       14  handlers.o(i.__scatterload_zeroinit)
    _fp_digits                               0x00049c81   Thumb Code   366  printfa.o(i._fp_digits)
    i._fp_digits                             0x00049c80   Section        0  printfa.o(i._fp_digits)
    _printf_core                             0x00049e05   Thumb Code  1744  printfa.o(i._printf_core)
    i._printf_core                           0x00049e04   Section        0  printfa.o(i._printf_core)
    _printf_post_padding                     0x0004a4e1   Thumb Code    36  printfa.o(i._printf_post_padding)
    i._printf_post_padding                   0x0004a4e0   Section        0  printfa.o(i._printf_post_padding)
    _printf_pre_padding                      0x0004a505   Thumb Code    46  printfa.o(i._printf_pre_padding)
    i._printf_pre_padding                    0x0004a504   Section        0  printfa.o(i._printf_pre_padding)
    _snputc                                  0x0004a533   Thumb Code    22  printfa.o(i._snputc)
    i._snputc                                0x0004a532   Section        0  printfa.o(i._snputc)
    i.puts                                   0x0004a548   Section        0  puts.o(i.puts)
    .Lswitch.table.gt_anim_set_path_type     0x0004a56c   Data          20  gt_anim.o(.rodata..Lswitch.table.gt_anim_set_path_type)
    .Lswitch.table.lodepng_error_text        0x0004a580   Data         464  lodepng.o(.rodata..Lswitch.table.lodepng_error_text)
    ADAM7_DX                                 0x0004a750   Data          28  lodepng.o(.rodata.ADAM7_DX)
    [Anonymous Symbol]                       0x0004a750   Section        0  lodepng.o(.rodata.ADAM7_DX)
    ADAM7_DY                                 0x0004a76c   Data          28  lodepng.o(.rodata.ADAM7_DY)
    [Anonymous Symbol]                       0x0004a76c   Section        0  lodepng.o(.rodata.ADAM7_DY)
    ADAM7_IX                                 0x0004a788   Data          28  lodepng.o(.rodata.ADAM7_IX)
    [Anonymous Symbol]                       0x0004a788   Section        0  lodepng.o(.rodata.ADAM7_IX)
    ADAM7_IY                                 0x0004a7a4   Data          28  lodepng.o(.rodata.ADAM7_IY)
    [Anonymous Symbol]                       0x0004a7a4   Section        0  lodepng.o(.rodata.ADAM7_IY)
    CLCL_ORDER                               0x0004a7c0   Data          76  lodepng.o(.rodata.CLCL_ORDER)
    [Anonymous Symbol]                       0x0004a7c0   Section        0  lodepng.o(.rodata.CLCL_ORDER)
    Clip8                                    0x0004a80c   Data        1024  tjpgd.o(.rodata.Clip8)
    [Anonymous Symbol]                       0x0004a80c   Section        0  tjpgd.o(.rodata.Clip8)
    DISTANCEBASE                             0x0004ac0c   Data         120  lodepng.o(.rodata.DISTANCEBASE)
    [Anonymous Symbol]                       0x0004ac0c   Section        0  lodepng.o(.rodata.DISTANCEBASE)
    DISTANCEEXTRA                            0x0004ac84   Data         120  lodepng.o(.rodata.DISTANCEEXTRA)
    [Anonymous Symbol]                       0x0004ac84   Section        0  lodepng.o(.rodata.DISTANCEEXTRA)
    Ipsf                                     0x0004acfc   Data         128  tjpgd.o(.rodata.Ipsf)
    [Anonymous Symbol]                       0x0004acfc   Section        0  tjpgd.o(.rodata.Ipsf)
    LENGTHBASE                               0x0004ad7c   Data         116  lodepng.o(.rodata.LENGTHBASE)
    [Anonymous Symbol]                       0x0004ad7c   Section        0  lodepng.o(.rodata.LENGTHBASE)
    LENGTHEXTRA                              0x0004adf0   Data         116  lodepng.o(.rodata.LENGTHEXTRA)
    [Anonymous Symbol]                       0x0004adf0   Section        0  lodepng.o(.rodata.LENGTHEXTRA)
    Zig                                      0x0004ae64   Data          64  tjpgd.o(.rodata.Zig)
    [Anonymous Symbol]                       0x0004ae64   Section        0  tjpgd.o(.rodata.Zig)
    _ascii_16                                0x0004aea4   Data        3040  gt_font.o(.rodata._ascii_16)
    [Anonymous Symbol]                       0x0004aea4   Section        0  gt_font.o(.rodata._ascii_16)
    _gt_sin_90_table                         0x0004ba84   Data         182  gt_math.o(.rodata._gt_sin_90_table)
    [Anonymous Symbol]                       0x0004ba84   Section        0  gt_math.o(.rodata._gt_sin_90_table)
    _gt_tab_per_255                          0x0004bb3c   Data        1024  gt_math.o(.rodata._gt_tab_per_255)
    [Anonymous Symbol]                       0x0004bb3c   Section        0  gt_math.o(.rodata._gt_tab_per_255)
    _latin_16x16_width                       0x0004bf3c   Data         490  gt_font.o(.rodata._latin_16x16_width)
    [Anonymous Symbol]                       0x0004bf3c   Section        0  gt_font.o(.rodata._latin_16x16_width)
    _src_icon_sys                            0x0004c128   Data          20  gt_port_src.o(.rodata._src_icon_sys)
    [Anonymous Symbol]                       0x0004c128   Section        0  gt_port_src.o(.rodata._src_icon_sys)
    _utf8_dots                               0x0004c13c   Data           3  gt_draw.o(.rodata._utf8_dots)
    [Anonymous Symbol]                       0x0004c13c   Section        0  gt_draw.o(.rodata._utf8_dots)
    _utf8_full_stops                         0x0004c13f   Data           9  gt_draw.o(.rodata._utf8_full_stops)
    [Anonymous Symbol]                       0x0004c13f   Section        0  gt_draw.o(.rodata._utf8_full_stops)
    .L__const._gt_indev_handler_keypad.data_indev 0x0004c148   Data          16  gt_indev.o(.rodata.cst16)
    .L__const.gt_disp_stack_push_scr_only_st.ret 0x0004c158   Data          32  gt_disp.o(.rodata.cst32)
    .Lswitch.table.lodepng_decode.127        0x0004c178   Data          32  lodepng.o(.rodata.cst32)
    _drive_label                             0x0004c198   Data           4  gt_fs.o(.rodata.cst4)
    [Anonymous Symbol]                       0x0004c198   Section        0  gt_fs.o(.rodata.cst4)
    .L__const._gt_obj_foreach_clicked.obj_clicked 0x0004c19c   Data           8  gt_obj_pos.o(.rodata.cst8)
    .L__const.gt_stack_search_item_from_bottom.ret 0x0004c1a8   Data           8  gt_stack.o(.rodata.cst8)
    gt_layer_top_class                       0x0004c20c   Data          16  gt_hal_disp.o(.rodata.gt_layer_top_class)
    [Anonymous Symbol]                       0x0004c20c   Section        0  gt_hal_disp.o(.rodata.gt_layer_top_class)
    gt_obj_class                             0x0004c21c   Data          16  gt_obj.o(.rodata.gt_obj_class)
    [Anonymous Symbol]                       0x0004c21c   Section        0  gt_obj.o(.rodata.gt_obj_class)
    gt_scr_list                              0x0004c23c   Data           8  gt_ui.o(.rodata.gt_scr_list)
    [Anonymous Symbol]                       0x0004c23c   Section        0  gt_ui.o(.rodata.gt_scr_list)
    gt_screen_class                          0x0004c244   Data          16  gt_obj.o(.rodata.gt_screen_class)
    [Anonymous Symbol]                       0x0004c244   Section        0  gt_obj.o(.rodata.gt_screen_class)
    gtuid                                    0x0004c254   Data         560  gt_gui_driver.o(.rodata.gtuid)
    [Anonymous Symbol]                       0x0004c254   Section        0  gt_gui_driver.o(.rodata.gtuid)
    lodepng_crc32_table                      0x0004c484   Data        1024  lodepng.o(.rodata.lodepng_crc32_table)
    [Anonymous Symbol]                       0x0004c484   Section        0  lodepng.o(.rodata.lodepng_crc32_table)
    r_1                                      0x0004c884   Data          12  gt_draw.o(.rodata.r_1)
    [Anonymous Symbol]                       0x0004c884   Section        0  gt_draw.o(.rodata.r_1)
    r_10                                     0x0004c890   Data          66  gt_draw.o(.rodata.r_10)
    [Anonymous Symbol]                       0x0004c890   Section        0  gt_draw.o(.rodata.r_10)
    r_11                                     0x0004c8d2   Data          72  gt_draw.o(.rodata.r_11)
    [Anonymous Symbol]                       0x0004c8d2   Section        0  gt_draw.o(.rodata.r_11)
    r_12                                     0x0004c91a   Data          78  gt_draw.o(.rodata.r_12)
    [Anonymous Symbol]                       0x0004c91a   Section        0  gt_draw.o(.rodata.r_12)
    r_13                                     0x0004c968   Data          84  gt_draw.o(.rodata.r_13)
    [Anonymous Symbol]                       0x0004c968   Section        0  gt_draw.o(.rodata.r_13)
    r_14                                     0x0004c9bc   Data          90  gt_draw.o(.rodata.r_14)
    [Anonymous Symbol]                       0x0004c9bc   Section        0  gt_draw.o(.rodata.r_14)
    r_15                                     0x0004ca16   Data          96  gt_draw.o(.rodata.r_15)
    [Anonymous Symbol]                       0x0004ca16   Section        0  gt_draw.o(.rodata.r_15)
    r_16                                     0x0004ca76   Data         102  gt_draw.o(.rodata.r_16)
    [Anonymous Symbol]                       0x0004ca76   Section        0  gt_draw.o(.rodata.r_16)
    r_2                                      0x0004cadc   Data          18  gt_draw.o(.rodata.r_2)
    [Anonymous Symbol]                       0x0004cadc   Section        0  gt_draw.o(.rodata.r_2)
    r_3                                      0x0004caee   Data          24  gt_draw.o(.rodata.r_3)
    [Anonymous Symbol]                       0x0004caee   Section        0  gt_draw.o(.rodata.r_3)
    r_4                                      0x0004cb06   Data          30  gt_draw.o(.rodata.r_4)
    [Anonymous Symbol]                       0x0004cb06   Section        0  gt_draw.o(.rodata.r_4)
    r_5                                      0x0004cb24   Data          36  gt_draw.o(.rodata.r_5)
    [Anonymous Symbol]                       0x0004cb24   Section        0  gt_draw.o(.rodata.r_5)
    r_6                                      0x0004cb48   Data          42  gt_draw.o(.rodata.r_6)
    [Anonymous Symbol]                       0x0004cb48   Section        0  gt_draw.o(.rodata.r_6)
    r_7                                      0x0004cb72   Data          48  gt_draw.o(.rodata.r_7)
    [Anonymous Symbol]                       0x0004cb72   Section        0  gt_draw.o(.rodata.r_7)
    r_8                                      0x0004cba2   Data          54  gt_draw.o(.rodata.r_8)
    [Anonymous Symbol]                       0x0004cba2   Section        0  gt_draw.o(.rodata.r_8)
    r_9                                      0x0004cbd8   Data          60  gt_draw.o(.rodata.r_9)
    [Anonymous Symbol]                       0x0004cbd8   Section        0  gt_draw.o(.rodata.r_9)
    small_radius_make                        0x0004cc14   Data          68  gt_draw.o(.rodata.small_radius_make)
    [Anonymous Symbol]                       0x0004cc14   Section        0  gt_draw.o(.rodata.small_radius_make)
    .L.str.1                                 0x0004cc58   Data           5  main.o(.rodata.str1.1)
    [Anonymous Symbol]                       0x0004cc58   Section        0  main.o(.rodata.str1.1)
    .Lstr                                    0x0004cc5d   Data          32  bsp_sfc.o(.rodata.str1.1)
    [Anonymous Symbol]                       0x0004cc5d   Section        0  bsp_sfc.o(.rodata.str1.1)
    .L.str.21                                0x0004cc7d   Data          24  gt_port_vf.o(.rodata.str1.1)
    [Anonymous Symbol]                       0x0004cc7d   Section        0  gt_port_vf.o(.rodata.str1.1)
    .L.str.27                                0x0004cc95   Data          24  gt_port_vf.o(.rodata.str1.1)
    .L.str.22                                0x0004ccad   Data          24  gt_port_vf.o(.rodata.str1.1)
    .L.str.28                                0x0004ccdd   Data          24  gt_port_vf.o(.rodata.str1.1)
    .L.str.5                                 0x0004cd0d   Data          31  gt_port_vf.o(.rodata.str1.1)
    .L.str.23                                0x0004cd2c   Data          24  gt_port_vf.o(.rodata.str1.1)
    .L.str.29                                0x0004cd5c   Data          24  gt_port_vf.o(.rodata.str1.1)
    .L.str.34                                0x0004cd8c   Data          30  gt_port_vf.o(.rodata.str1.1)
    .L.str.38                                0x0004cdaa   Data          30  gt_port_vf.o(.rodata.str1.1)
    .L.str.35                                0x0004cdc8   Data          30  gt_port_vf.o(.rodata.str1.1)
    .L.str.36                                0x0004cde6   Data          30  gt_port_vf.o(.rodata.str1.1)
    .L.str.33                                0x0004ce04   Data          30  gt_port_vf.o(.rodata.str1.1)
    .L.str.37                                0x0004ce22   Data          30  gt_port_vf.o(.rodata.str1.1)
    .L.str.24                                0x0004ce40   Data          24  gt_port_vf.o(.rodata.str1.1)
    .L.str.30                                0x0004ce58   Data          24  gt_port_vf.o(.rodata.str1.1)
    .L.str.25                                0x0004ce70   Data          24  gt_port_vf.o(.rodata.str1.1)
    .L.str.31                                0x0004ce88   Data          24  gt_port_vf.o(.rodata.str1.1)
    .L.str.2                                 0x0004cea0   Data          30  gt_port_vf.o(.rodata.str1.1)
    .L.str.26                                0x0004cebe   Data          24  gt_port_vf.o(.rodata.str1.1)
    .L.str.32                                0x0004ced6   Data          24  gt_port_vf.o(.rodata.str1.1)
    .L.str.13                                0x0004ceee   Data          31  gt_port_vf.o(.rodata.str1.1)
    .L.str.7                                 0x0004cf0d   Data          31  gt_port_vf.o(.rodata.str1.1)
    .L.str.11                                0x0004cf4b   Data          31  gt_port_vf.o(.rodata.str1.1)
    .L.str.15                                0x0004cf6a   Data          31  gt_port_vf.o(.rodata.str1.1)
    .L.str.9                                 0x0004cf89   Data          31  gt_port_vf.o(.rodata.str1.1)
    .L.str.48                                0x0004cfa8   Data          25  gt_port_vf.o(.rodata.str1.1)
    .L.str.49                                0x0004cfc1   Data          25  gt_port_vf.o(.rodata.str1.1)
    .L.str.39                                0x0004cfda   Data          24  gt_port_vf.o(.rodata.str1.1)
    .L.str.40                                0x0004cff2   Data          24  gt_port_vf.o(.rodata.str1.1)
    .L.str.41                                0x0004d00a   Data          24  gt_port_vf.o(.rodata.str1.1)
    .L.str.42                                0x0004d022   Data          24  gt_port_vf.o(.rodata.str1.1)
    .L.str.43                                0x0004d03a   Data          24  gt_port_vf.o(.rodata.str1.1)
    .L.str.44                                0x0004d052   Data          24  gt_port_vf.o(.rodata.str1.1)
    .L.str.45                                0x0004d06a   Data          24  gt_port_vf.o(.rodata.str1.1)
    .L.str.46                                0x0004d082   Data          24  gt_port_vf.o(.rodata.str1.1)
    .L.str.47                                0x0004d09a   Data          24  gt_port_vf.o(.rodata.str1.1)
    .L.str.19                                0x0004d0b2   Data          32  gt_port_vf.o(.rodata.str1.1)
    .L.str.17                                0x0004d0d2   Data          32  gt_port_vf.o(.rodata.str1.1)
    .L.str.1                                 0x0004d0f2   Data          27  gt_port_vf.o(.rodata.str1.1)
    .L.str.4                                 0x0004d10d   Data          27  gt_port_vf.o(.rodata.str1.1)
    .L.str.6                                 0x0004d128   Data          21  gt_port_vf.o(.rodata.str1.1)
    .L.str.8                                 0x0004d13d   Data          20  gt_port_vf.o(.rodata.str1.1)
    .L.str.10                                0x0004d151   Data          20  gt_port_vf.o(.rodata.str1.1)
    .L.str.12                                0x0004d165   Data          20  gt_port_vf.o(.rodata.str1.1)
    .L.str.14                                0x0004d179   Data          20  gt_port_vf.o(.rodata.str1.1)
    .L.str.16                                0x0004d18d   Data          20  gt_port_vf.o(.rodata.str1.1)
    .L.str.20                                0x0004d1a1   Data          21  gt_port_vf.o(.rodata.str1.1)
    .L.str.18                                0x0004d1ca   Data          21  gt_port_vf.o(.rodata.str1.1)
    .L.str.3                                 0x0004d1df   Data          21  gt_port_vf.o(.rodata.str1.1)
    .L.str                                   0x0004d1f4   Data          23  gt_port_vf.o(.rodata.str1.1)
    .L.str                                   0x0004d207   Data           4  gt_port_vf.o(.rodata.str1.1)
    .L.str                                   0x0004d20b   Data          51  gt_disp.o(.rodata.str1.1)
    .L.str                                   0x0004d20b   Data          51  gt_disp.o(.rodata.str1.1)
    .L.str                                   0x0004d20b   Data          51  gt_disp.o(.rodata.str1.1)
    .L.str                                   0x0004d20b   Data          51  gt_disp.o(.rodata.str1.1)
    .L.str                                   0x0004d20b   Data          51  gt_disp.o(.rodata.str1.1)
    .L.str                                   0x0004d20b   Data          51  gt_disp.o(.rodata.str1.1)
    .L.str                                   0x0004d20b   Data          51  gt_disp.o(.rodata.str1.1)
    .L.str                                   0x0004d20b   Data          51  gt_disp.o(.rodata.str1.1)
    .L.str.1                                 0x0004d20b   Data          51  gt_disp.o(.rodata.str1.1)
    .L.str.1                                 0x0004d20b   Data          51  gt_disp.o(.rodata.str1.1)
    [Anonymous Symbol]                       0x0004d20b   Section        0  gt_disp.o(.rodata.str1.1)
    .L.str.12                                0x0004d23e   Data          66  gt_disp.o(.rodata.str1.1)
    .L.str.2                                 0x0004d280   Data           4  gt_disp.o(.rodata.str1.1)
    .L.str.2                                 0x0004d280   Data           4  gt_disp.o(.rodata.str1.1)
    .L.str.8                                 0x0004d280   Data           4  gt_disp.o(.rodata.str1.1)
    .L.str.9                                 0x0004d280   Data           4  gt_disp.o(.rodata.str1.1)
    .L.str.1                                 0x0004d284   Data           6  gt_disp.o(.rodata.str1.1)
    .L.str.1                                 0x0004d284   Data           6  gt_disp.o(.rodata.str1.1)
    .L.str.1                                 0x0004d284   Data           6  gt_disp.o(.rodata.str1.1)
    .L.str.1                                 0x0004d284   Data           6  gt_disp.o(.rodata.str1.1)
    .L.str.1                                 0x0004d284   Data           6  gt_disp.o(.rodata.str1.1)
    .L.str.1                                 0x0004d284   Data           6  gt_disp.o(.rodata.str1.1)
    .L.str.1                                 0x0004d284   Data           6  gt_disp.o(.rodata.str1.1)
    .L.str.1                                 0x0004d284   Data           6  gt_disp.o(.rodata.str1.1)
    .L.str.2                                 0x0004d284   Data           6  gt_disp.o(.rodata.str1.1)
    .L.str.2                                 0x0004d284   Data           6  gt_disp.o(.rodata.str1.1)
    .L__func__._create_scr_by_id             0x0004d28a   Data          18  gt_disp.o(.rodata.str1.1)
    .L__func__._gt_disp_set_state            0x0004d29c   Data          19  gt_disp.o(.rodata.str1.1)
    .L.str.13                                0x0004d2af   Data          45  gt_disp.o(.rodata.str1.1)
    .L__func__.gt_disp_stack_go_back         0x0004d2dc   Data          22  gt_disp.o(.rodata.str1.1)
    .L.str.3                                 0x0004d2f2   Data           5  gt_disp.o(.rodata.str1.1)
    .L.str.3                                 0x0004d2f2   Data           5  gt_disp.o(.rodata.str1.1)
    .L.str.17                                0x0004d2f7   Data           4  gt_disp.o(.rodata.str1.1)
    .L__func__.gt_disp_get_area_act          0x0004d2fb   Data          21  gt_disp.o(.rodata.str1.1)
    .L__func__.gt_disp_stack_push_scr_only_st 0x0004d310   Data          31  gt_disp.o(.rodata.str1.1)
    .L.str.11                                0x0004d32f   Data           9  gt_disp.o(.rodata.str1.1)
    .L.str.15                                0x0004d338   Data          10  gt_disp.o(.rodata.str1.1)
    .L__func__.gt_disp_get_area_max          0x0004d342   Data          21  gt_disp.o(.rodata.str1.1)
    .L.str.15                                0x0004d357   Data          54  gt_draw.o(.rodata.str1.1)
    .L.str.4                                 0x0004d357   Data          54  gt_draw.o(.rodata.str1.1)
    [Anonymous Symbol]                       0x0004d357   Section        0  gt_draw.o(.rodata.str1.1)
    .L.str.11                                0x0004d38d   Data          61  gt_draw.o(.rodata.str1.1)
    .L.str.12                                0x0004d3ca   Data          66  gt_draw.o(.rodata.str1.1)
    .L.str.14                                0x0004d40c   Data          61  gt_draw.o(.rodata.str1.1)
    .L.str.13                                0x0004d449   Data          64  gt_draw.o(.rodata.str1.1)
    .L.str.8                                 0x0004d489   Data          75  gt_draw.o(.rodata.str1.1)
    .L.str.5                                 0x0004d4d4   Data          72  gt_draw.o(.rodata.str1.1)
    .L.str.4                                 0x0004d51c   Data          71  gt_draw.o(.rodata.str1.1)
    .L.str.7                                 0x0004d563   Data          69  gt_draw.o(.rodata.str1.1)
    .L.str.1                                 0x0004d5a8   Data          66  gt_draw.o(.rodata.str1.1)
    .L.str.6                                 0x0004d5ea   Data           4  gt_draw.o(.rodata.str1.1)
    .L.str                                   0x0004d5ee   Data          33  gt_draw.o(.rodata.str1.1)
    .L__func__.draw_text_single_line         0x0004d60f   Data          22  gt_draw.o(.rodata.str1.1)
    .L__func__.draw_text_multiple_line       0x0004d625   Data          24  gt_draw.o(.rodata.str1.1)
    .L__func__.draw_bg                       0x0004d63d   Data           8  gt_draw.o(.rodata.str1.1)
    .L__func__._gt_get_radius_mask           0x0004d645   Data          20  gt_draw.o(.rodata.str1.1)
    .L__func__._draw_text_convertor_split    0x0004d659   Data          27  gt_draw.o(.rodata.str1.1)
    .L__func__._gt_event_calling_event_cb    0x0004d674   Data          27  gt_event.o(.rodata.str1.1)
    [Anonymous Symbol]                       0x0004d674   Section        0  gt_event.o(.rodata.str1.1)
    .L.str                                   0x0004d68f   Data          34  gt_event.o(.rodata.str1.1)
    .L.str.5                                 0x0004d6b1   Data           7  gt_event.o(.rodata.str1.1)
    .L.str                                   0x0004d6b8   Data          40  gt_img_decoder.o(.rodata.str1.1)
    [Anonymous Symbol]                       0x0004d6b8   Section        0  gt_img_decoder.o(.rodata.str1.1)
    .L__func__.gt_img_decoder_read_line      0x0004d6e0   Data          25  gt_img_decoder.o(.rodata.str1.1)
    .L__func__._indev_pressed_handle         0x0004d6f9   Data          22  gt_indev.o(.rodata.str1.1)
    [Anonymous Symbol]                       0x0004d6f9   Section        0  gt_indev.o(.rodata.str1.1)
    .L__func__.gt_refr_timer                 0x0004d70f   Data          14  gt_refr.o(.rodata.str1.1)
    [Anonymous Symbol]                       0x0004d70f   Section        0  gt_refr.o(.rodata.str1.1)
    .L.str.5                                 0x0004d717   Data           6  gt_refr.o(.rodata.str1.1)
    .L__func__.gt_scr_stack_set_depth        0x0004d71d   Data          23  gt_scr_stack.o(.rodata.str1.1)
    [Anonymous Symbol]                       0x0004d71d   Section        0  gt_scr_stack.o(.rodata.str1.1)
    .L.str.3                                 0x0004d734   Data          16  gt_scr_stack.o(.rodata.str1.1)
    .L.str.4                                 0x0004d744   Data           5  gt_scr_stack.o(.rodata.str1.1)
    .L__func__.gt_obj_set_opa                0x0004d749   Data          15  gt_style.o(.rodata.str1.1)
    [Anonymous Symbol]                       0x0004d749   Section        0  gt_style.o(.rodata.str1.1)
    .L__func__.gt_obj_set_focus_disabled     0x0004d758   Data          26  gt_style.o(.rodata.str1.1)
    .L__func__.gt_obj_set_disabled           0x0004d772   Data          20  gt_style.o(.rodata.str1.1)
    .L__func__.gt_obj_set_fixed              0x0004d786   Data          17  gt_style.o(.rodata.str1.1)
    .L__func__.gt_obj_set_inside             0x0004d797   Data          18  gt_style.o(.rodata.str1.1)
    .L__func__.gt_obj_pos_change             0x0004d7a9   Data          18  gt_style.o(.rodata.str1.1)
    .L__func__.gt_obj_set_visible            0x0004d7bb   Data          19  gt_style.o(.rodata.str1.1)
    .L.str.3                                 0x0004d7ce   Data           4  gt_style.o(.rodata.str1.1)
    .L.str.3                                 0x0004d7ce   Data           4  gt_style.o(.rodata.str1.1)
    .L__func__.gt_obj_set_focus              0x0004d7d2   Data          17  gt_style.o(.rodata.str1.1)
    .L__func__.gt_obj_set_overflow           0x0004d7e3   Data          20  gt_style.o(.rodata.str1.1)
    .L__func__.gt_obj_set_untouchability     0x0004d7f7   Data          26  gt_style.o(.rodata.str1.1)
    .L.str.4                                 0x0004d811   Data          34  gt_timer.o(.rodata.str1.1)
    [Anonymous Symbol]                       0x0004d811   Section        0  gt_timer.o(.rodata.str1.1)
    .L.str.3                                 0x0004d833   Data           8  gt_sjpg.o(.rodata.str1.1)
    [Anonymous Symbol]                       0x0004d833   Section        0  gt_sjpg.o(.rodata.str1.1)
    .L.str.4                                 0x0004d83b   Data          39  gt_sjpg.o(.rodata.str1.1)
    .L.str.1                                 0x0004d862   Data          37  gt_png.o(.rodata.str1.1)
    [Anonymous Symbol]                       0x0004d862   Section        0  gt_png.o(.rodata.str1.1)
    [Anonymous Symbol]                       0x0004d887   Section        0  lodepng.o(.rodata.str1.1)
    .L.str.113                               0x0004dc86   Data          38  lodepng.o(.rodata.str1.1)
    .L.str.112                               0x0004df01   Data          19  lodepng.o(.rodata.str1.1)
    .L.str                                   0x0004ebb4   Data          33  gt_font.o(.rodata.str1.1)
    [Anonymous Symbol]                       0x0004ebb4   Section        0  gt_font.o(.rodata.str1.1)
    .L__func__._get_convertor_string_width   0x0004ebd5   Data          28  gt_font.o(.rodata.str1.1)
    [Anonymous Symbol]                       0x0004ebf1   Section        0  gt_symbol.o(.rodata.str1.1)
    .L.str                                   0x0004ec05   Data           4  gt_symbol.o(.rodata.str1.1)
    .L.str                                   0x0004ec50   Data           1  gt_symbol.o(.rodata.str1.1)
    .L.str.2                                 0x0004ec50   Data           1  gt_symbol.o(.rodata.str1.1)
    .L.str.2                                 0x0004ec50   Data           1  gt_symbol.o(.rodata.str1.1)
    .L.str.2                                 0x0004ec50   Data           1  gt_symbol.o(.rodata.str1.1)
    .L.str.2                                 0x0004ec50   Data           1  gt_symbol.o(.rodata.str1.1)
    .L.str.2                                 0x0004ec50   Data           1  gt_symbol.o(.rodata.str1.1)
    .L.str.2                                 0x0004ec50   Data           1  gt_symbol.o(.rodata.str1.1)
    .L.str.2                                 0x0004ec50   Data           1  gt_symbol.o(.rodata.str1.1)
    .L.str.2                                 0x0004ec50   Data           1  gt_symbol.o(.rodata.str1.1)
    .L.str.2                                 0x0004ec50   Data           1  gt_symbol.o(.rodata.str1.1)
    .L.str.2                                 0x0004ec50   Data           1  gt_symbol.o(.rodata.str1.1)
    .L.str.3                                 0x0004ec50   Data           1  gt_symbol.o(.rodata.str1.1)
    .L.str.3                                 0x0004ec50   Data           1  gt_symbol.o(.rodata.str1.1)
    .L.str.3                                 0x0004ec50   Data           1  gt_symbol.o(.rodata.str1.1)
    .L.str.3                                 0x0004ec50   Data           1  gt_symbol.o(.rodata.str1.1)
    .L.str.3                                 0x0004ec50   Data           1  gt_symbol.o(.rodata.str1.1)
    .L.str.3                                 0x0004ec50   Data           1  gt_symbol.o(.rodata.str1.1)
    .L.str.3                                 0x0004ec50   Data           1  gt_symbol.o(.rodata.str1.1)
    .L.str.3                                 0x0004ec50   Data           1  gt_symbol.o(.rodata.str1.1)
    .L.str.3                                 0x0004ec50   Data           1  gt_symbol.o(.rodata.str1.1)
    .L.str.3                                 0x0004ec50   Data           1  gt_symbol.o(.rodata.str1.1)
    .L.str.4                                 0x0004ec50   Data           1  gt_symbol.o(.rodata.str1.1)
    .L__func__._gt_disp_reload_max_area      0x0004ec51   Data          25  gt_hal_disp.o(.rodata.str1.1)
    [Anonymous Symbol]                       0x0004ec51   Section        0  gt_hal_disp.o(.rodata.str1.1)
    .L__func__._gt_disp_update_max_area      0x0004ec6a   Data          25  gt_hal_disp.o(.rodata.str1.1)
    .L__func__._gt_disp_create               0x0004ec83   Data          16  gt_hal_disp.o(.rodata.str1.1)
    .L__func__._calc_max_area_recursive      0x0004ec93   Data          25  gt_hal_disp.o(.rodata.str1.1)
    .L.str                                   0x0004ecac   Data          35  gt_hal_src.o(.rodata.str1.1)
    [Anonymous Symbol]                       0x0004ecac   Section        0  gt_hal_src.o(.rodata.str1.1)
    .L.str                                   0x0004eccf   Data          34  gt_hal_vf.o(.rodata.str1.1)
    [Anonymous Symbol]                       0x0004eccf   Section        0  gt_hal_vf.o(.rodata.str1.1)
    .L.str                                   0x0004ecf1   Data          35  gt_anim.o(.rodata.str1.1)
    [Anonymous Symbol]                       0x0004ecf1   Section        0  gt_anim.o(.rodata.str1.1)
    .L.str.5                                 0x0004ed14   Data          37  gt_anim.o(.rodata.str1.1)
    .L.str.9                                 0x0004ed39   Data          64  gt_tlsf.o(.rodata.str1.1)
    [Anonymous Symbol]                       0x0004ed39   Section        0  gt_tlsf.o(.rodata.str1.1)
    .L.str.8                                 0x0004ed79   Data          55  gt_tlsf.o(.rodata.str1.1)
    .L.str                                   0x0004edb0   Data          35  gt_stack.o(.rodata.str1.1)
    [Anonymous Symbol]                       0x0004edb0   Section        0  gt_stack.o(.rodata.str1.1)
    .L.str                                   0x0004edd3   Data          36  gt_vector.o(.rodata.str1.1)
    [Anonymous Symbol]                       0x0004edd3   Section        0  gt_vector.o(.rodata.str1.1)
    .L.str                                   0x0004edf7   Data          35  gt_btn.o(.rodata.str1.1)
    [Anonymous Symbol]                       0x0004edf7   Section        0  gt_btn.o(.rodata.str1.1)
    .L.str                                   0x0004ee1a   Data          35  gt_img.o(.rodata.str1.1)
    [Anonymous Symbol]                       0x0004ee1a   Section        0  gt_img.o(.rodata.str1.1)
    .L.str                                   0x0004ee3d   Data          38  gt_imgbtn.o(.rodata.str1.1)
    [Anonymous Symbol]                       0x0004ee3d   Section        0  gt_imgbtn.o(.rodata.str1.1)
    .L.str                                   0x0004ee63   Data          37  gt_label.o(.rodata.str1.1)
    [Anonymous Symbol]                       0x0004ee63   Section        0  gt_label.o(.rodata.str1.1)
    .L.str                                   0x0004ee88   Data          41  gt_obj_class.o(.rodata.str1.1)
    [Anonymous Symbol]                       0x0004ee88   Section        0  gt_obj_class.o(.rodata.str1.1)
    .L.str.5                                 0x0004eeb1   Data          78  gt_player.o(.rodata.str1.1)
    [Anonymous Symbol]                       0x0004eeb1   Section        0  gt_player.o(.rodata.str1.1)
    .L.str                                   0x0004eeff   Data          38  gt_player.o(.rodata.str1.1)
    symbol_16x16_backspace                   0x0004ef25   Data         256  gt_symbol.o(.rodata.symbol_16x16_backspace)
    [Anonymous Symbol]                       0x0004ef25   Section        0  gt_symbol.o(.rodata.symbol_16x16_backspace)
    symbol_16x16_close                       0x0004f025   Data         256  gt_symbol.o(.rodata.symbol_16x16_close)
    [Anonymous Symbol]                       0x0004f025   Section        0  gt_symbol.o(.rodata.symbol_16x16_close)
    symbol_16x16_down                        0x0004f125   Data         256  gt_symbol.o(.rodata.symbol_16x16_down)
    [Anonymous Symbol]                       0x0004f125   Section        0  gt_symbol.o(.rodata.symbol_16x16_down)
    symbol_16x16_keyboard                    0x0004f225   Data         256  gt_symbol.o(.rodata.symbol_16x16_keyboard)
    [Anonymous Symbol]                       0x0004f225   Section        0  gt_symbol.o(.rodata.symbol_16x16_keyboard)
    symbol_16x16_left                        0x0004f325   Data         256  gt_symbol.o(.rodata.symbol_16x16_left)
    [Anonymous Symbol]                       0x0004f325   Section        0  gt_symbol.o(.rodata.symbol_16x16_left)
    symbol_16x16_new_line                    0x0004f425   Data         256  gt_symbol.o(.rodata.symbol_16x16_new_line)
    [Anonymous Symbol]                       0x0004f425   Section        0  gt_symbol.o(.rodata.symbol_16x16_new_line)
    symbol_16x16_ok                          0x0004f525   Data         256  gt_symbol.o(.rodata.symbol_16x16_ok)
    [Anonymous Symbol]                       0x0004f525   Section        0  gt_symbol.o(.rodata.symbol_16x16_ok)
    symbol_16x16_right                       0x0004f625   Data         256  gt_symbol.o(.rodata.symbol_16x16_right)
    [Anonymous Symbol]                       0x0004f625   Section        0  gt_symbol.o(.rodata.symbol_16x16_right)
    symbol_16x16_save                        0x0004f725   Data         256  gt_symbol.o(.rodata.symbol_16x16_save)
    [Anonymous Symbol]                       0x0004f725   Section        0  gt_symbol.o(.rodata.symbol_16x16_save)
    symbol_16x16_up                          0x0004f825   Data         256  gt_symbol.o(.rodata.symbol_16x16_up)
    [Anonymous Symbol]                       0x0004f825   Section        0  gt_symbol.o(.rodata.symbol_16x16_up)
    symbol_24x24_close                       0x0004f925   Data         576  gt_symbol.o(.rodata.symbol_24x24_close)
    [Anonymous Symbol]                       0x0004f925   Section        0  gt_symbol.o(.rodata.symbol_24x24_close)
    symbol_backspace_24x24                   0x0004fb65   Data         576  gt_symbol.o(.rodata.symbol_backspace_24x24)
    [Anonymous Symbol]                       0x0004fb65   Section        0  gt_symbol.o(.rodata.symbol_backspace_24x24)
    symbol_ch_16x16                          0x0004fda5   Data         256  gt_symbol.o(.rodata.symbol_ch_16x16)
    [Anonymous Symbol]                       0x0004fda5   Section        0  gt_symbol.o(.rodata.symbol_ch_16x16)
    symbol_ch_24x24                          0x0004fea5   Data         576  gt_symbol.o(.rodata.symbol_ch_24x24)
    [Anonymous Symbol]                       0x0004fea5   Section        0  gt_symbol.o(.rodata.symbol_ch_24x24)
    symbol_en_16x16                          0x000500e5   Data         256  gt_symbol.o(.rodata.symbol_en_16x16)
    [Anonymous Symbol]                       0x000500e5   Section        0  gt_symbol.o(.rodata.symbol_en_16x16)
    symbol_en_24x24                          0x000501e5   Data         576  gt_symbol.o(.rodata.symbol_en_24x24)
    [Anonymous Symbol]                       0x000501e5   Section        0  gt_symbol.o(.rodata.symbol_en_24x24)
    symbol_keyboard_24x24                    0x00050425   Data         576  gt_symbol.o(.rodata.symbol_keyboard_24x24)
    [Anonymous Symbol]                       0x00050425   Section        0  gt_symbol.o(.rodata.symbol_keyboard_24x24)
    symbol_left_24x24                        0x00050665   Data         576  gt_symbol.o(.rodata.symbol_left_24x24)
    [Anonymous Symbol]                       0x00050665   Section        0  gt_symbol.o(.rodata.symbol_left_24x24)
    symbol_lower_case_16x16                  0x000508a5   Data         256  gt_symbol.o(.rodata.symbol_lower_case_16x16)
    [Anonymous Symbol]                       0x000508a5   Section        0  gt_symbol.o(.rodata.symbol_lower_case_16x16)
    symbol_lower_case_24x24                  0x000509a5   Data         576  gt_symbol.o(.rodata.symbol_lower_case_24x24)
    [Anonymous Symbol]                       0x000509a5   Section        0  gt_symbol.o(.rodata.symbol_lower_case_24x24)
    symbol_new_line_24x24                    0x00050be5   Data         576  gt_symbol.o(.rodata.symbol_new_line_24x24)
    [Anonymous Symbol]                       0x00050be5   Section        0  gt_symbol.o(.rodata.symbol_new_line_24x24)
    symbol_ok_24x24                          0x00050e25   Data         576  gt_symbol.o(.rodata.symbol_ok_24x24)
    [Anonymous Symbol]                       0x00050e25   Section        0  gt_symbol.o(.rodata.symbol_ok_24x24)
    symbol_right_24x24                       0x00051065   Data         576  gt_symbol.o(.rodata.symbol_right_24x24)
    [Anonymous Symbol]                       0x00051065   Section        0  gt_symbol.o(.rodata.symbol_right_24x24)
    symbol_space_16x16                       0x000512a5   Data         256  gt_symbol.o(.rodata.symbol_space_16x16)
    [Anonymous Symbol]                       0x000512a5   Section        0  gt_symbol.o(.rodata.symbol_space_16x16)
    symbol_space_24x24                       0x000513a5   Data         576  gt_symbol.o(.rodata.symbol_space_24x24)
    [Anonymous Symbol]                       0x000513a5   Section        0  gt_symbol.o(.rodata.symbol_space_24x24)
    symbol_upper_case_16x16                  0x000515e5   Data         256  gt_symbol.o(.rodata.symbol_upper_case_16x16)
    [Anonymous Symbol]                       0x000515e5   Section        0  gt_symbol.o(.rodata.symbol_upper_case_16x16)
    symbol_upper_case_24x24                  0x000516e5   Data         576  gt_symbol.o(.rodata.symbol_upper_case_24x24)
    [Anonymous Symbol]                       0x000516e5   Section        0  gt_symbol.o(.rodata.symbol_upper_case_24x24)
    symbol_well_number_16x16                 0x00051925   Data         256  gt_symbol.o(.rodata.symbol_well_number_16x16)
    [Anonymous Symbol]                       0x00051925   Section        0  gt_symbol.o(.rodata.symbol_well_number_16x16)
    symbol_well_number_24x24                 0x00051a25   Data         576  gt_symbol.o(.rodata.symbol_well_number_24x24)
    [Anonymous Symbol]                       0x00051a25   Section        0  gt_symbol.o(.rodata.symbol_well_number_24x24)
    symbols_16x16                            0x00051c68   Data         192  gt_symbol.o(.rodata.symbols_16x16)
    [Anonymous Symbol]                       0x00051c68   Section        0  gt_symbol.o(.rodata.symbols_16x16)
    symbols_24x24                            0x00051d28   Data         168  gt_symbol.o(.rodata.symbols_24x24)
    [Anonymous Symbol]                       0x00051d28   Section        0  gt_symbol.o(.rodata.symbols_24x24)
    virt_file_sys                            0x00051dd0   Data        1140  gt_port_vf.o(.rodata.virt_file_sys)
    [Anonymous Symbol]                       0x00051dd0   Section        0  gt_port_vf.o(.rodata.virt_file_sys)
    voice_play_16x16_left_1                  0x00052244   Data         256  gt_symbol.o(.rodata.voice_play_16x16_left_1)
    [Anonymous Symbol]                       0x00052244   Section        0  gt_symbol.o(.rodata.voice_play_16x16_left_1)
    voice_play_16x16_left_2                  0x00052344   Data         256  gt_symbol.o(.rodata.voice_play_16x16_left_2)
    [Anonymous Symbol]                       0x00052344   Section        0  gt_symbol.o(.rodata.voice_play_16x16_left_2)
    voice_play_16x16_left_3                  0x00052444   Data         256  gt_symbol.o(.rodata.voice_play_16x16_left_3)
    [Anonymous Symbol]                       0x00052444   Section        0  gt_symbol.o(.rodata.voice_play_16x16_left_3)
    voice_play_16x16_right_1                 0x00052544   Data         256  gt_symbol.o(.rodata.voice_play_16x16_right_1)
    [Anonymous Symbol]                       0x00052544   Section        0  gt_symbol.o(.rodata.voice_play_16x16_right_1)
    voice_play_16x16_right_2                 0x00052644   Data         256  gt_symbol.o(.rodata.voice_play_16x16_right_2)
    [Anonymous Symbol]                       0x00052644   Section        0  gt_symbol.o(.rodata.voice_play_16x16_right_2)
    voice_play_16x16_right_3                 0x00052744   Data         256  gt_symbol.o(.rodata.voice_play_16x16_right_3)
    [Anonymous Symbol]                       0x00052744   Section        0  gt_symbol.o(.rodata.voice_play_16x16_right_3)
    voice_play_24x24_left_1                  0x00052844   Data         576  gt_symbol.o(.rodata.voice_play_24x24_left_1)
    [Anonymous Symbol]                       0x00052844   Section        0  gt_symbol.o(.rodata.voice_play_24x24_left_1)
    voice_play_24x24_left_2                  0x00052a84   Data         576  gt_symbol.o(.rodata.voice_play_24x24_left_2)
    [Anonymous Symbol]                       0x00052a84   Section        0  gt_symbol.o(.rodata.voice_play_24x24_left_2)
    voice_play_24x24_left_3                  0x00052cc4   Data         576  gt_symbol.o(.rodata.voice_play_24x24_left_3)
    [Anonymous Symbol]                       0x00052cc4   Section        0  gt_symbol.o(.rodata.voice_play_24x24_left_3)
    voice_play_24x24_right_1                 0x00052f04   Data         576  gt_symbol.o(.rodata.voice_play_24x24_right_1)
    [Anonymous Symbol]                       0x00052f04   Section        0  gt_symbol.o(.rodata.voice_play_24x24_right_1)
    voice_play_24x24_right_2                 0x00053144   Data         576  gt_symbol.o(.rodata.voice_play_24x24_right_2)
    [Anonymous Symbol]                       0x00053144   Section        0  gt_symbol.o(.rodata.voice_play_24x24_right_2)
    voice_play_24x24_right_3                 0x00053384   Data         576  gt_symbol.o(.rodata.voice_play_24x24_right_3)
    [Anonymous Symbol]                       0x00053384   Section        0  gt_symbol.o(.rodata.voice_play_24x24_right_3)
    .data                                    0x20000000   Section        4  stdout.o(.data)
    .L_MergedGlobals                         0x20000004   Data           8  system_swm341.o(.data..L_MergedGlobals)
    [Anonymous Symbol]                       0x20000004   Section        0  system_swm341.o(.data..L_MergedGlobals)
    PADDING                                  0x2000000c   Data          64  gt_gui_driver.o(.data.PADDING)
    [Anonymous Symbol]                       0x2000000c   Section        0  gt_gui_driver.o(.data.PADDING)
    _focus_color                             0x20000050   Data           4  gt_color.o(.data._focus_color)
    [Anonymous Symbol]                       0x20000050   Section        0  gt_color.o(.data._focus_color)
    _gt_indev_handler_keypad.last_key        0x20000090   Data           4  gt_indev.o(.data._gt_indev_handler_keypad.last_key)
    [Anonymous Symbol]                       0x20000090   Section        0  gt_indev.o(.data._gt_indev_handler_keypad.last_key)
    _state                                   0x20000094   Data           1  gt_hal_vf.o(.data._state)
    [Anonymous Symbol]                       0x20000094   Section        0  gt_hal_vf.o(.data._state)
    .L_MergedGlobals                         0x20000098   Data          32  bsp_uart.o(.bss..L_MergedGlobals)
    _uart3_count                             0x20000098   Data           1  bsp_uart.o(.bss..L_MergedGlobals)
    [Anonymous Symbol]                       0x20000098   Section        0  bsp_uart.o(.bss..L_MergedGlobals)
    _uart3_rx_buf                            0x2000009a   Data          10  bsp_uart.o(.bss..L_MergedGlobals)
    .L_MergedGlobals                         0x200000b8   Data          32  gt_port_indev.o(.bss..L_MergedGlobals)
    indev_drv_pointer                        0x200000b8   Data          16  gt_port_indev.o(.bss..L_MergedGlobals)
    [Anonymous Symbol]                       0x200000b8   Section        0  gt_port_indev.o(.bss..L_MergedGlobals)
    indev_drv_button                         0x200000c8   Data          16  gt_port_indev.o(.bss..L_MergedGlobals)
    .L_MergedGlobals                         0x200000d8   Data          16  gt_indev.o(.bss..L_MergedGlobals)
    _gt_indev_handler_button.flag_key_down   0x200000d8   Data           1  gt_indev.o(.bss..L_MergedGlobals)
    [Anonymous Symbol]                       0x200000d8   Section        0  gt_indev.o(.bss..L_MergedGlobals)
    _gt_indev_handler_button.last_run        0x200000dc   Data           4  gt_indev.o(.bss..L_MergedGlobals)
    _indev_params                            0x200000e0   Data           8  gt_indev.o(.bss..L_MergedGlobals)
    .L_MergedGlobals                         0x200000e8   Data          12  gt_mem.o(.bss..L_MergedGlobals)
    _addr_start                              0x200000e8   Data           1  gt_mem.o(.bss..L_MergedGlobals)
    [Anonymous Symbol]                       0x200000e8   Section        0  gt_mem.o(.bss..L_MergedGlobals)
    _addr_end                                0x200000ec   Data           1  gt_mem.o(.bss..L_MergedGlobals)
    _tlsf                                    0x200000f0   Data           4  gt_mem.o(.bss..L_MergedGlobals)
    .L_MergedGlobals                         0x200000f4   Data          24  gt_hal_indev.o(.bss..L_MergedGlobals)
    cnt_indev                                0x200000f4   Data           1  gt_hal_indev.o(.bss..L_MergedGlobals)
    [Anonymous Symbol]                       0x200000f4   Section        0  gt_hal_indev.o(.bss..L_MergedGlobals)
    indev_act                                0x200000f8   Data          20  gt_hal_indev.o(.bss..L_MergedGlobals)
    .L_MergedGlobals                         0x2000010c   Data           8  gt_hal_tick.o(.bss..L_MergedGlobals)
    tick_irq_flag                            0x2000010c   Data           1  gt_hal_tick.o(.bss..L_MergedGlobals)
    [Anonymous Symbol]                       0x2000010c   Section        0  gt_hal_tick.o(.bss..L_MergedGlobals)
    _tick                                    0x20000110   Data           4  gt_hal_tick.o(.bss..L_MergedGlobals)
    .L_MergedGlobals                         0x20000114   Data           8  gt_hal_vf.o(.bss..L_MergedGlobals)
    _vfs                                     0x20000114   Data           4  gt_hal_vf.o(.bss..L_MergedGlobals)
    [Anonymous Symbol]                       0x20000114   Section        0  gt_hal_vf.o(.bss..L_MergedGlobals)
    _vf_dev                                  0x20000118   Data           4  gt_hal_vf.o(.bss..L_MergedGlobals)
    .L_MergedGlobals                         0x2000011c   Data          16  gt_anim.o(.bss..L_MergedGlobals)
    _is_list_change                          0x2000011c   Data           1  gt_anim.o(.bss..L_MergedGlobals)
    [Anonymous Symbol]                       0x2000011c   Section        0  gt_anim.o(.bss..L_MergedGlobals)
    _is_run_same_time                        0x2000011d   Data           1  gt_anim.o(.bss..L_MergedGlobals)
    _time_last_run                           0x20000120   Data           4  gt_anim.o(.bss..L_MergedGlobals)
    _anim_act                                0x20000124   Data           4  gt_anim.o(.bss..L_MergedGlobals)
    _anim_timer                              0x20000128   Data           4  gt_anim.o(.bss..L_MergedGlobals)
    .L_MergedGlobals                         0x2000012c   Data          92  gt_init_screen_home.o(.bss..L_MergedGlobals)
    [Anonymous Symbol]                       0x2000012c   Section        0  gt_init_screen_home.o(.bss..L_MergedGlobals)
    player1                                  0x20000130   Data           4  gt_init_screen_home.o(.bss..L_MergedGlobals)
    player2                                  0x20000134   Data           4  gt_init_screen_home.o(.bss..L_MergedGlobals)
    player3                                  0x20000138   Data           4  gt_init_screen_home.o(.bss..L_MergedGlobals)
    player4                                  0x2000013c   Data           4  gt_init_screen_home.o(.bss..L_MergedGlobals)
    player5                                  0x20000140   Data           4  gt_init_screen_home.o(.bss..L_MergedGlobals)
    img1                                     0x20000144   Data           4  gt_init_screen_home.o(.bss..L_MergedGlobals)
    img3                                     0x20000148   Data           4  gt_init_screen_home.o(.bss..L_MergedGlobals)
    imgbtn1                                  0x2000014c   Data           4  gt_init_screen_home.o(.bss..L_MergedGlobals)
    imgbtn2                                  0x20000150   Data           4  gt_init_screen_home.o(.bss..L_MergedGlobals)
    imgbtn4                                  0x20000154   Data           4  gt_init_screen_home.o(.bss..L_MergedGlobals)
    imgbtn5                                  0x20000158   Data           4  gt_init_screen_home.o(.bss..L_MergedGlobals)
    imgbtn6                                  0x2000015c   Data           4  gt_init_screen_home.o(.bss..L_MergedGlobals)
    imgbtn7                                  0x20000160   Data           4  gt_init_screen_home.o(.bss..L_MergedGlobals)
    imgbtn8                                  0x20000164   Data           4  gt_init_screen_home.o(.bss..L_MergedGlobals)
    imgbtn9                                  0x20000168   Data           4  gt_init_screen_home.o(.bss..L_MergedGlobals)
    imgbtn10                                 0x2000016c   Data           4  gt_init_screen_home.o(.bss..L_MergedGlobals)
    imgbtn11                                 0x20000170   Data           4  gt_init_screen_home.o(.bss..L_MergedGlobals)
    imgbtn12                                 0x20000174   Data           4  gt_init_screen_home.o(.bss..L_MergedGlobals)
    imgbtn13                                 0x20000178   Data           4  gt_init_screen_home.o(.bss..L_MergedGlobals)
    player6                                  0x2000017c   Data           4  gt_init_screen_home.o(.bss..L_MergedGlobals)
    player8                                  0x20000180   Data           4  gt_init_screen_home.o(.bss..L_MergedGlobals)
    imgbtn14                                 0x20000184   Data           4  gt_init_screen_home.o(.bss..L_MergedGlobals)
    GT_UID_MD5_FLAG                          0x20000189   Data           1  gt_gui_driver.o(.bss.GT_UID_MD5_FLAG)
    [Anonymous Symbol]                       0x20000189   Section        0  gt_gui_driver.o(.bss.GT_UID_MD5_FLAG)
    Systick_Time                             0x20000190   Data           4  dev_systick.o(.bss.Systick_Time)
    [Anonymous Symbol]                       0x20000190   Section        0  dev_systick.o(.bss.Systick_Time)
    _gt_init_done_flag                       0x200001aa   Data           1  gt_handler.o(.bss._gt_init_done_flag)
    [Anonymous Symbol]                       0x200001aa   Section        0  gt_handler.o(.bss._gt_init_done_flag)
    _gt_project_encoding                     0x200001ab   Data           1  gt_font.o(.bss._gt_project_encoding)
    [Anonymous Symbol]                       0x200001ab   Section        0  gt_font.o(.bss._gt_project_encoding)
    _gt_timer_task_ready_flag                0x200001ac   Data           1  gt_timer.o(.bss._gt_timer_task_ready_flag)
    [Anonymous Symbol]                       0x200001ac   Section        0  gt_timer.o(.bss._gt_timer_task_ready_flag)
    _mem_pool_int                            0x200001b0   Data       49152  gt_mem.o(.bss._mem_pool_int)
    [Anonymous Symbol]                       0x200001b0   Section        0  gt_mem.o(.bss._mem_pool_int)
    _self                                    0x2000c1b0   Data           4  gt_hal_src.o(.bss._self)
    [Anonymous Symbol]                       0x2000c1b0   Section        0  gt_hal_src.o(.bss._self)
    drv                                      0x2000c1b4   Data          12  gt_port_disp.o(.bss.drv)
    [Anonymous Symbol]                       0x2000c1b4   Section        0  gt_port_disp.o(.bss.drv)
    graph_buf_all                            0x2000c1c0   Data           4  gt_hal_disp.o(.bss.graph_buf_all)
    [Anonymous Symbol]                       0x2000c1c0   Section        0  gt_hal_disp.o(.bss.graph_buf_all)
    gt_font_chinese_encoding                 0x2000c1c4   Data           1  gt_gui_driver.o(.bss.gt_font_chinese_encoding)
    [Anonymous Symbol]                       0x2000c1c4   Section        0  gt_gui_driver.o(.bss.gt_font_chinese_encoding)
    indev                                    0x2000c1c8   Data           4  gt_hal_indev.o(.bss.indev)
    [Anonymous Symbol]                       0x2000c1c8   Section        0  gt_hal_indev.o(.bss.indev)
    STACK                                    0x2000c1d0   Section     4096  startup_swm341.o(STACK)
    buf_all                                  0x80180000   Data       768000  gt_port_disp.o(.bss.ARM.__at_0x80180000)
    [Anonymous Symbol]                       0x80180000   Section        0  gt_port_disp.o(.bss.ARM.__at_0x80180000)

    Global Symbols

    Symbol Name                              Value     Ov Type        Size  Object(Section)

    BuildAttributes$$THM_ISAv4$E$P$D$K$B$S$7EM$8M$PE$A:L22UL41UL21$X:L11$S22US41US21$IEEE1$IW$~IW$USESV6$~STKCKD$USESV7$~SHL$OTIME$ROPI$IEEEF$EBA8$MICROLIB$REQ8$PRES8$EABIv2 0x00000000   Number         0  anon$$obj.o ABSOLUTE
    _printf_a                                0x00000000   Number         0  printfstubs.o ABSOLUTE
    _printf_c                                0x00000000   Number         0  printfstubs.o ABSOLUTE
    _printf_charcount                        0x00000000   Number         0  printfstubs.o ABSOLUTE
    _printf_d                                0x00000000   Number         0  printfstubs.o ABSOLUTE
    _printf_e                                0x00000000   Number         0  printfstubs.o ABSOLUTE
    _printf_f                                0x00000000   Number         0  printfstubs.o ABSOLUTE
    _printf_flags                            0x00000000   Number         0  printfstubs.o ABSOLUTE
    _printf_fp_dec                           0x00000000   Number         0  printfstubs.o ABSOLUTE
    _printf_fp_hex                           0x00000000   Number         0  printfstubs.o ABSOLUTE
    _printf_g                                0x00000000   Number         0  printfstubs.o ABSOLUTE
    _printf_i                                0x00000000   Number         0  printfstubs.o ABSOLUTE
    _printf_int_dec                          0x00000000   Number         0  printfstubs.o ABSOLUTE
    _printf_l                                0x00000000   Number         0  printfstubs.o ABSOLUTE
    _printf_lc                               0x00000000   Number         0  printfstubs.o ABSOLUTE
    _printf_ll                               0x00000000   Number         0  printfstubs.o ABSOLUTE
    _printf_lld                              0x00000000   Number         0  printfstubs.o ABSOLUTE
    _printf_lli                              0x00000000   Number         0  printfstubs.o ABSOLUTE
    _printf_llo                              0x00000000   Number         0  printfstubs.o ABSOLUTE
    _printf_llu                              0x00000000   Number         0  printfstubs.o ABSOLUTE
    _printf_llx                              0x00000000   Number         0  printfstubs.o ABSOLUTE
    _printf_longlong_dec                     0x00000000   Number         0  printfstubs.o ABSOLUTE
    _printf_longlong_hex                     0x00000000   Number         0  printfstubs.o ABSOLUTE
    _printf_longlong_oct                     0x00000000   Number         0  printfstubs.o ABSOLUTE
    _printf_ls                               0x00000000   Number         0  printfstubs.o ABSOLUTE
    _printf_mbtowc                           0x00000000   Number         0  printfstubs.o ABSOLUTE
    _printf_n                                0x00000000   Number         0  printfstubs.o ABSOLUTE
    _printf_o                                0x00000000   Number         0  printfstubs.o ABSOLUTE
    _printf_p                                0x00000000   Number         0  printfstubs.o ABSOLUTE
    _printf_percent                          0x00000000   Number         0  printfstubs.o ABSOLUTE
    _printf_pre_padding                      0x00000000   Number         0  printfstubs.o ABSOLUTE
    _printf_return_value                     0x00000000   Number         0  printfstubs.o ABSOLUTE
    _printf_s                                0x00000000   Number         0  printfstubs.o ABSOLUTE
    _printf_sizespec                         0x00000000   Number         0  printfstubs.o ABSOLUTE
    _printf_str                              0x00000000   Number         0  printfstubs.o ABSOLUTE
    _printf_truncate_signed                  0x00000000   Number         0  printfstubs.o ABSOLUTE
    _printf_truncate_unsigned                0x00000000   Number         0  printfstubs.o ABSOLUTE
    _printf_u                                0x00000000   Number         0  printfstubs.o ABSOLUTE
    _printf_wc                               0x00000000   Number         0  printfstubs.o ABSOLUTE
    _printf_wctomb                           0x00000000   Number         0  printfstubs.o ABSOLUTE
    _printf_widthprec                        0x00000000   Number         0  printfstubs.o ABSOLUTE
    _printf_x                                0x00000000   Number         0  printfstubs.o ABSOLUTE
    __cpp_initialize__aeabi_                  - Undefined Weak Reference
    __cxa_finalize                            - Undefined Weak Reference
    __decompress                              - Undefined Weak Reference
    _clock_init                               - Undefined Weak Reference
    _microlib_exit                            - Undefined Weak Reference
    __Vectors_Size                           0x000001a8   Number         0  startup_swm341.o ABSOLUTE
    __Vectors                                0x00020000   Data           4  startup_swm341.o(RESET)
    __Vectors_End                            0x000201a8   Data           0  startup_swm341.o(RESET)
    __main                                   0x000201a9   Thumb Code     0  entry.o(.ARM.Collect$$$$00000000)
    _main_stk                                0x000201a9   Thumb Code     0  entry2.o(.ARM.Collect$$$$00000001)
    _main_scatterload                        0x000201ad   Thumb Code     0  entry5.o(.ARM.Collect$$$$00000004)
    __main_after_scatterload                 0x000201b1   Thumb Code     0  entry5.o(.ARM.Collect$$$$00000004)
    _main_clock                              0x000201b1   Thumb Code     0  entry7b.o(.ARM.Collect$$$$00000008)
    _main_cpp_init                           0x000201b1   Thumb Code     0  entry8b.o(.ARM.Collect$$$$0000000A)
    _main_init                               0x000201b1   Thumb Code     0  entry9a.o(.ARM.Collect$$$$0000000B)
    __rt_final_cpp                           0x000201b9   Thumb Code     0  entry10a.o(.ARM.Collect$$$$0000000D)
    __rt_final_exit                          0x000201b9   Thumb Code     0  entry11a.o(.ARM.Collect$$$$0000000F)
    TIMR4_Handler                            0x000201bd   Thumb Code    24  main.o(.text)
    spi_wr                                   0x000201d5   Thumb Code    76  main.o(.text)
    _flush_cb                                0x00020221   Thumb Code   196  main.o(.text)
    read_cb                                  0x000202e5   Thumb Code    36  main.o(.text)
    read_cb_btn                              0x00020309   Thumb Code     6  main.o(.text)
    HexToChar                                0x00020311   Thumb Code    14  main.o(.text)
    main                                     0x00020321   Thumb Code   288  main.o(.text)
    _lcd_init_sturct                         0x00020459   Thumb Code    96  bsp_lcd_rgb.o(.text)
    LCD_Handler                              0x000204b9   Thumb Code    26  bsp_lcd_rgb.o(.text)
    bsp_lcd_rgb_init                         0x000204d5   Thumb Code  1302  bsp_lcd_rgb.o(.text)
    lcd_draw_point                           0x000209ed   Thumb Code    26  bsp_lcd_rgb.o(.text)
    LCD_DrawPoint                            0x00020a09   Thumb Code    36  bsp_lcd_rgb.o(.text)
    bsp_sfc_config                           0x00020a2d   Thumb Code   158  bsp_sfc.o(.text)
    r_dat_bat                                0x00020acd   Thumb Code    64  bsp_sfc.o(.text)
    SFC_FLASH_PageWrite                      0x00020b0d   Thumb Code    42  bsp_sfc.o(.text)
    SFC_FLASH_BufferWrite                    0x00020b39   Thumb Code   236  bsp_sfc.o(.text)
    bsp_spi_io_config                        0x00020c25   Thumb Code   156  bsp_sfc.o(.text)
    Send_Byte                                0x00020cc1   Thumb Code   344  bsp_sfc.o(.text)
    Get_Byte                                 0x00020e19   Thumb Code   298  bsp_sfc.o(.text)
    gt_read_data                             0x00020f45   Thumb Code   184  bsp_sfc.o(.text)
    fputc                                    0x00020ffd   Thumb Code    34  bsp_uart.o(.text)
    uart_send_pack                           0x00021021   Thumb Code    56  bsp_uart.o(.text)
    bsp_uart0_init                           0x00021059   Thumb Code    88  bsp_uart.o(.text)
    bsp_uart3_init                           0x000210b1   Thumb Code    96  bsp_uart.o(.text)
    UART3_Handler                            0x00021111   Thumb Code   394  bsp_uart.o(.text)
    gt_put_char                              0x0002129d   Thumb Code    14  bsp_uart.o(.text)
    systick_init                             0x000212ad   Thumb Code    72  dev_systick.o(.text)
    swm_inctick                              0x000212f5   Thumb Code    16  dev_systick.o(.text)
    swm_gettick                              0x00021305   Thumb Code    12  dev_systick.o(.text)
    swm_delay_ms                             0x00021311   Thumb Code    48  dev_systick.o(.text)
    swm_delay_us                             0x00021341   Thumb Code    86  dev_systick.o(.text)
    SysTick_Handler_cb                       0x00021399   Thumb Code     2  dev_systick.o(.text)
    SysTick_Handler                          0x0002139d   Thumb Code    18  dev_systick.o(.text)
    GPIOD_Handler                            0x000213b1   Thumb Code    46  dev_touch.o(.text)
    touch_read_points                        0x000213e1   Thumb Code     2  dev_touch.o(.text)
    touch_ic_init                            0x000213e5   Thumb Code    72  dev_touch.o(.text)
    GT911_Send_Cfg                           0x0002142d   Thumb Code     4  gt911.o(.text)
    GT911_WR_Reg                             0x00021431   Thumb Code   104  gt911.o(.text)
    GT911_RD_Reg                             0x00021499   Thumb Code   152  gt911.o(.text)
    GT911_Init                               0x00021531   Thumb Code   420  gt911.o(.text)
    GT911_Reset_Sequence                     0x000216e9   Thumb Code   174  gt911.o(.text)
    GT911_Scan                               0x00021799   Thumb Code   680  gt911.o(.text)
    GT911_Soft_Reset                         0x00021a41   Thumb Code    28  gt911.o(.text)
    SystemCoreClockUpdate                    0x00021a5d   Thumb Code   200  system_swm341.o(.text)
    SystemInit                               0x00021b25   Thumb Code   408  system_swm341.o(.text)
    switchToPLL                              0x00021cbd   Thumb Code   266  system_swm341.o(.text)
    FPU_Enable                               0x00021dc9   Thumb Code     2  system_swm341.o(.text)
    switchTo20MHz                            0x00021dcd   Thumb Code   210  system_swm341.o(.text)
    switchTo2M5Hz                            0x00021ea1   Thumb Code   434  system_swm341.o(.text)
    switchTo40MHz                            0x00022055   Thumb Code   210  system_swm341.o(.text)
    switchTo5MHz                             0x00022129   Thumb Code   434  system_swm341.o(.text)
    switchToXTAL                             0x000222dd   Thumb Code   676  system_swm341.o(.text)
    PLLInit                                  0x00022581   Thumb Code   496  system_swm341.o(.text)
    switchTo32KHz                            0x00022771   Thumb Code   434  system_swm341.o(.text)
    switchToXTAL_32K                         0x00022925   Thumb Code   558  system_swm341.o(.text)
    Reset_Handler                            0x00022b55   Thumb Code     8  startup_swm341.o(.text)
    NMI_Handler                              0x00022b5d   Thumb Code     2  startup_swm341.o(.text)
    HardFault_Handler                        0x00022b5f   Thumb Code     2  startup_swm341.o(.text)
    MemManage_Handler                        0x00022b61   Thumb Code     2  startup_swm341.o(.text)
    BusFault_Handler                         0x00022b63   Thumb Code     2  startup_swm341.o(.text)
    UsageFault_Handler                       0x00022b65   Thumb Code     2  startup_swm341.o(.text)
    SVC_Handler                              0x00022b67   Thumb Code     2  startup_swm341.o(.text)
    DebugMon_Handler                         0x00022b69   Thumb Code     2  startup_swm341.o(.text)
    PendSV_Handler                           0x00022b6b   Thumb Code     2  startup_swm341.o(.text)
    UART0_Handler                            0x00022b6f   Thumb Code     2  startup_swm341.o(.text)
    UART1_Handler                            0x00022b71   Thumb Code     2  startup_swm341.o(.text)
    TIMR0_Handler                            0x00022b73   Thumb Code     2  startup_swm341.o(.text)
    TIMR1_Handler                            0x00022b75   Thumb Code     2  startup_swm341.o(.text)
    DMA_Handler                              0x00022b77   Thumb Code     2  startup_swm341.o(.text)
    SPI0_Handler                             0x00022b79   Thumb Code     2  startup_swm341.o(.text)
    PWM0_Handler                             0x00022b7b   Thumb Code     2  startup_swm341.o(.text)
    WDT_Handler                              0x00022b7d   Thumb Code     2  startup_swm341.o(.text)
    UART2_Handler                            0x00022b7f   Thumb Code     2  startup_swm341.o(.text)
    PWM1_Handler                             0x00022b81   Thumb Code     2  startup_swm341.o(.text)
    ADC0_Handler                             0x00022b83   Thumb Code     2  startup_swm341.o(.text)
    BTIMR0_Handler                           0x00022b85   Thumb Code     2  startup_swm341.o(.text)
    HALL0_Handler                            0x00022b87   Thumb Code     2  startup_swm341.o(.text)
    PWM2_Handler                             0x00022b89   Thumb Code     2  startup_swm341.o(.text)
    PWMBRK_Handler                           0x00022b8b   Thumb Code     2  startup_swm341.o(.text)
    I2C0_Handler                             0x00022b8d   Thumb Code     2  startup_swm341.o(.text)
    CAN0_Handler                             0x00022b8f   Thumb Code     2  startup_swm341.o(.text)
    SPI1_Handler                             0x00022b91   Thumb Code     2  startup_swm341.o(.text)
    RTC_Handler                              0x00022b93   Thumb Code     2  startup_swm341.o(.text)
    PWM3_Handler                             0x00022b95   Thumb Code     2  startup_swm341.o(.text)
    TIMR2_Handler                            0x00022b97   Thumb Code     2  startup_swm341.o(.text)
    TIMR3_Handler                            0x00022b9b   Thumb Code     2  startup_swm341.o(.text)
    ADC1_Handler                             0x00022b9d   Thumb Code     2  startup_swm341.o(.text)
    BOD_Handler                              0x00022b9f   Thumb Code     2  startup_swm341.o(.text)
    CORDIC_Handler                           0x00022ba1   Thumb Code     2  startup_swm341.o(.text)
    BTIMR1_Handler                           0x00022ba3   Thumb Code     2  startup_swm341.o(.text)
    PWM4_Handler                             0x00022ba5   Thumb Code     2  startup_swm341.o(.text)
    HALL3_Handler                            0x00022ba7   Thumb Code     2  startup_swm341.o(.text)
    BTIMR2_Handler                           0x00022ba9   Thumb Code     2  startup_swm341.o(.text)
    I2C1_Handler                             0x00022bab   Thumb Code     2  startup_swm341.o(.text)
    BTIMR3_Handler                           0x00022bad   Thumb Code     2  startup_swm341.o(.text)
    ACMP_Handler                             0x00022baf   Thumb Code     2  startup_swm341.o(.text)
    XTALSTOP_Handler                         0x00022bb1   Thumb Code     2  startup_swm341.o(.text)
    FSPI_Handler                             0x00022bb3   Thumb Code     2  startup_swm341.o(.text)
    GPIOA_Handler                            0x00022bb5   Thumb Code     2  startup_swm341.o(.text)
    GPIOB_Handler                            0x00022bb7   Thumb Code     2  startup_swm341.o(.text)
    GPIOC_Handler                            0x00022bb9   Thumb Code     2  startup_swm341.o(.text)
    GPIOM_Handler                            0x00022bbd   Thumb Code     2  startup_swm341.o(.text)
    GPION_Handler                            0x00022bbf   Thumb Code     2  startup_swm341.o(.text)
    GPIOA0_Handler                           0x00022bc1   Thumb Code     2  startup_swm341.o(.text)
    GPIOA1_Handler                           0x00022bc3   Thumb Code     2  startup_swm341.o(.text)
    GPIOA5_Handler                           0x00022bc5   Thumb Code     2  startup_swm341.o(.text)
    GPIOA6_Handler                           0x00022bc7   Thumb Code     2  startup_swm341.o(.text)
    GPIOA10_Handler                          0x00022bc9   Thumb Code     2  startup_swm341.o(.text)
    GPIOA11_Handler                          0x00022bcb   Thumb Code     2  startup_swm341.o(.text)
    GPIOA12_Handler                          0x00022bcd   Thumb Code     2  startup_swm341.o(.text)
    GPIOA13_Handler                          0x00022bcf   Thumb Code     2  startup_swm341.o(.text)
    GPIOB0_Handler                           0x00022bd1   Thumb Code     2  startup_swm341.o(.text)
    GPIOB1_Handler                           0x00022bd3   Thumb Code     2  startup_swm341.o(.text)
    GPIOB2_Handler                           0x00022bd5   Thumb Code     2  startup_swm341.o(.text)
    GPIOC0_Handler                           0x00022bd7   Thumb Code     2  startup_swm341.o(.text)
    GPIOC1_Handler                           0x00022bd9   Thumb Code     2  startup_swm341.o(.text)
    GPIOC2_Handler                           0x00022bdb   Thumb Code     2  startup_swm341.o(.text)
    GPIOC3_Handler                           0x00022bdd   Thumb Code     2  startup_swm341.o(.text)
    GPIOC4_Handler                           0x00022bdf   Thumb Code     2  startup_swm341.o(.text)
    GPIOD3_Handler                           0x00022be1   Thumb Code     2  startup_swm341.o(.text)
    GPIOD4_Handler                           0x00022be3   Thumb Code     2  startup_swm341.o(.text)
    GPIOD5_Handler                           0x00022be5   Thumb Code     2  startup_swm341.o(.text)
    GPIOD6_Handler                           0x00022be7   Thumb Code     2  startup_swm341.o(.text)
    GPIOD7_Handler                           0x00022be9   Thumb Code     2  startup_swm341.o(.text)
    GPIOD8_Handler                           0x00022beb   Thumb Code     2  startup_swm341.o(.text)
    GPIOC9_Handler                           0x00022bed   Thumb Code     2  startup_swm341.o(.text)
    GPIOC10_Handler                          0x00022bef   Thumb Code     2  startup_swm341.o(.text)
    GPIOC11_Handler                          0x00022bf1   Thumb Code     2  startup_swm341.o(.text)
    GPIOC12_Handler                          0x00022bf3   Thumb Code     2  startup_swm341.o(.text)
    GPIOM0_Handler                           0x00022bf5   Thumb Code     2  startup_swm341.o(.text)
    GPIOM1_Handler                           0x00022bf7   Thumb Code     2  startup_swm341.o(.text)
    GPIOM2_Handler                           0x00022bf9   Thumb Code     2  startup_swm341.o(.text)
    GPIOM3_Handler                           0x00022bfb   Thumb Code     2  startup_swm341.o(.text)
    GPIOM4_Handler                           0x00022bfd   Thumb Code     2  startup_swm341.o(.text)
    DIV_Handler                              0x00022bff   Thumb Code     2  startup_swm341.o(.text)
    GPIOE_Handler                            0x00022c03   Thumb Code     2  startup_swm341.o(.text)
    JPEG_Handler                             0x00022c05   Thumb Code     2  startup_swm341.o(.text)
    SDIO_Handler                             0x00022c07   Thumb Code     2  startup_swm341.o(.text)
    USB_Handler                              0x00022c09   Thumb Code     2  startup_swm341.o(.text)
    CAN1_Handler                             0x00022c0b   Thumb Code     2  startup_swm341.o(.text)
    BTIMR4_Handler                           0x00022c0f   Thumb Code     2  startup_swm341.o(.text)
    BTIMR5_Handler                           0x00022c11   Thumb Code     2  startup_swm341.o(.text)
    BTIMR6_Handler                           0x00022c13   Thumb Code     2  startup_swm341.o(.text)
    BTIMR7_Handler                           0x00022c15   Thumb Code     2  startup_swm341.o(.text)
    BTIMR8_Handler                           0x00022c17   Thumb Code     2  startup_swm341.o(.text)
    BTIMR9_Handler                           0x00022c19   Thumb Code     2  startup_swm341.o(.text)
    BTIMR10_Handler                          0x00022c1b   Thumb Code     2  startup_swm341.o(.text)
    BTIMR11_Handler                          0x00022c1d   Thumb Code     2  startup_swm341.o(.text)
    DMA2D_Handler                            0x00022c1f   Thumb Code     2  startup_swm341.o(.text)
    QEI_Handler                              0x00022c21   Thumb Code     2  startup_swm341.o(.text)
    EXTI_Init                                0x00022c2d   Thumb Code    90  swm341_exti.o(.text)
    EXTI_Close                               0x00022c89   Thumb Code    16  swm341_exti.o(.text)
    EXTI_Open                                0x00022c99   Thumb Code    14  swm341_exti.o(.text)
    EXTI_State                               0x00022ca9   Thumb Code    10  swm341_exti.o(.text)
    EXTI_RawState                            0x00022cb5   Thumb Code    10  swm341_exti.o(.text)
    EXTI_Clear                               0x00022cc1   Thumb Code    10  swm341_exti.o(.text)
    FLASH_Erase                              0x00022ccd   Thumb Code    70  swm341_flash.o(.text)
    FLASH_Write                              0x00022d15   Thumb Code    78  swm341_flash.o(.text)
    Flash_Param_at_xMHz                      0x00022d65   Thumb Code   166  swm341_flash.o(.text)
    GPIO_Init                                0x00022e0d   Thumb Code   366  swm341_gpio.o(.text)
    GPIO_SetBit                              0x00022f7d   Thumb Code    14  swm341_gpio.o(.text)
    GPIO_ClrBit                              0x00022f8d   Thumb Code    16  swm341_gpio.o(.text)
    GPIO_InvBit                              0x00022f9d   Thumb Code    14  swm341_gpio.o(.text)
    GPIO_GetBit                              0x00022fad   Thumb Code    10  swm341_gpio.o(.text)
    GPIO_SetBits                             0x00022fb9   Thumb Code    24  swm341_gpio.o(.text)
    GPIO_ClrBits                             0x00022fd1   Thumb Code    26  swm341_gpio.o(.text)
    GPIO_InvBits                             0x00022fed   Thumb Code    24  swm341_gpio.o(.text)
    GPIO_GetBits                             0x00023005   Thumb Code    20  swm341_gpio.o(.text)
    GPIO_AtomicSetBit                        0x00023019   Thumb Code    10  swm341_gpio.o(.text)
    GPIO_AtomicClrBit                        0x00023025   Thumb Code    10  swm341_gpio.o(.text)
    GPIO_AtomicInvBit                        0x00023031   Thumb Code    14  swm341_gpio.o(.text)
    GPIO_AtomicSetBits                       0x00023041   Thumb Code    32  swm341_gpio.o(.text)
    GPIO_AtomicClrBits                       0x00023061   Thumb Code    34  swm341_gpio.o(.text)
    GPIO_AtomicInvBits                       0x00023085   Thumb Code    32  swm341_gpio.o(.text)
    I2C_Init                                 0x000230a5   Thumb Code   412  swm341_i2c.o(.text)
    I2C_Close                                0x00023241   Thumb Code    10  swm341_i2c.o(.text)
    I2C_Open                                 0x0002324d   Thumb Code    10  swm341_i2c.o(.text)
    I2C_Start                                0x00023259   Thumb Code    64  swm341_i2c.o(.text)
    I2C_StartDone                            0x00023299   Thumb Code    10  swm341_i2c.o(.text)
    I2C_IsAck                                0x000232a5   Thumb Code    10  swm341_i2c.o(.text)
    I2C_Stop                                 0x000232b1   Thumb Code    52  swm341_i2c.o(.text)
    I2C_StopDone                             0x000232e5   Thumb Code    10  swm341_i2c.o(.text)
    I2C_Write                                0x000232f1   Thumb Code    64  swm341_i2c.o(.text)
    I2C_WriteDone                            0x00023331   Thumb Code    10  swm341_i2c.o(.text)
    I2C_Read                                 0x0002333d   Thumb Code    68  swm341_i2c.o(.text)
    I2C_ReadDone                             0x00023381   Thumb Code    10  swm341_i2c.o(.text)
    I2C_INTEn                                0x0002338d   Thumb Code     8  swm341_i2c.o(.text)
    I2C_INTDis                               0x00023395   Thumb Code    10  swm341_i2c.o(.text)
    I2C_INTClr                               0x000233a1   Thumb Code     4  swm341_i2c.o(.text)
    I2C_INTStat                              0x000233a5   Thumb Code    10  swm341_i2c.o(.text)
    LCD_Init                                 0x000233b1   Thumb Code   224  swm341_lcd.o(.text)
    LCD_LayerInit                            0x00023491   Thumb Code    58  swm341_lcd.o(.text)
    LCD_SetLayerPos                          0x000234cd   Thumb Code    40  swm341_lcd.o(.text)
    LCD_Start                                0x000234f5   Thumb Code    10  swm341_lcd.o(.text)
    LCD_IsBusy                               0x00023501   Thumb Code     8  swm341_lcd.o(.text)
    LCD_INTEn                                0x00023509   Thumb Code     6  swm341_lcd.o(.text)
    LCD_INTDis                               0x00023511   Thumb Code     6  swm341_lcd.o(.text)
    LCD_INTClr                               0x00023519   Thumb Code     6  swm341_lcd.o(.text)
    LCD_INTStat                              0x00023521   Thumb Code     8  swm341_lcd.o(.text)
    MPULCD_Init                              0x00023529   Thumb Code   138  swm341_lcd.o(.text)
    LCD_WR_REG                               0x000235b5   Thumb Code    46  swm341_lcd.o(.text)
    LCD_WR_DATA                              0x000235e5   Thumb Code    46  swm341_lcd.o(.text)
    LCD_WriteReg                             0x00023615   Thumb Code    90  swm341_lcd.o(.text)
    LCD_ReadReg                              0x00023671   Thumb Code    52  swm341_lcd.o(.text)
    MPULCD_DMAStart                          0x000236a5   Thumb Code    32  swm341_lcd.o(.text)
    MPULCD_DMABusy                           0x000236c5   Thumb Code     8  swm341_lcd.o(.text)
    PORT_Init                                0x000236cd   Thumb Code    74  swm341_port.o(.text)
    SDRAM_Init                               0x00023719   Thumb Code   214  swm341_sdram.o(.text)
    SDRAM_Enable                             0x000237f1   Thumb Code   216  swm341_sdram.o(.text)
    SDRAM_Disable                            0x000238c9   Thumb Code   216  swm341_sdram.o(.text)
    SFC_Init                                 0x000239a1   Thumb Code   150  swm341_sfc.o(.text)
    SFC_ReadJEDEC                            0x00023a39   Thumb Code    62  swm341_sfc.o(.text)
    SFC_Erase                                0x00023a79   Thumb Code   190  swm341_sfc.o(.text)
    SFC_EraseEx                              0x00023b39   Thumb Code   226  swm341_sfc.o(.text)
    SFC_FlashBusy                            0x00023c1d   Thumb Code    66  swm341_sfc.o(.text)
    SFC_Write                                0x00023c61   Thumb Code   234  swm341_sfc.o(.text)
    SFC_Read                                 0x00023d4d   Thumb Code   154  swm341_sfc.o(.text)
    SFC_ReadStatusReg                        0x00023de9   Thumb Code    64  swm341_sfc.o(.text)
    SFC_WriteStatusReg                       0x00023e29   Thumb Code    72  swm341_sfc.o(.text)
    SFC_QuadSwitch                           0x00023e71   Thumb Code   196  swm341_sfc.o(.text)
    SFC_QuadState                            0x00023f35   Thumb Code    66  swm341_sfc.o(.text)
    TIMR_Init                                0x00023f79   Thumb Code   904  swm341_timr.o(.text)
    TIMR_Stop                                0x00024301   Thumb Code   450  swm341_timr.o(.text)
    TIMR_Start                               0x000244c5   Thumb Code   400  swm341_timr.o(.text)
    TIMR_Halt                                0x00024655   Thumb Code     6  swm341_timr.o(.text)
    TIMR_Resume                              0x0002465d   Thumb Code     6  swm341_timr.o(.text)
    TIMR_GetCurValue                         0x00024665   Thumb Code     4  swm341_timr.o(.text)
    TIMR_INTEn                               0x00024669   Thumb Code    10  swm341_timr.o(.text)
    TIMR_INTDis                              0x00024675   Thumb Code    10  swm341_timr.o(.text)
    TIMR_INTClr                              0x00024681   Thumb Code     6  swm341_timr.o(.text)
    TIMR_INTStat                             0x00024689   Thumb Code     8  swm341_timr.o(.text)
    TIMR_OC_Init                             0x00024691   Thumb Code   740  swm341_timr.o(.text)
    TIMR_OC_OutputEn                         0x00024975   Thumb Code    10  swm341_timr.o(.text)
    TIMR_OC_OutputDis                        0x00024981   Thumb Code    24  swm341_timr.o(.text)
    TIMR_OC_SetMatch                         0x00024999   Thumb Code     4  swm341_timr.o(.text)
    TIMR_OC_GetMatch                         0x0002499d   Thumb Code     4  swm341_timr.o(.text)
    TIMR_OC_INTEn                            0x000249a1   Thumb Code    10  swm341_timr.o(.text)
    TIMR_OC_INTDis                           0x000249ad   Thumb Code    10  swm341_timr.o(.text)
    TIMR_OC_INTClr                           0x000249b9   Thumb Code     6  swm341_timr.o(.text)
    TIMR_OC_INTStat                          0x000249c1   Thumb Code     8  swm341_timr.o(.text)
    TIMR_IC_Init                             0x000249c9   Thumb Code   184  swm341_timr.o(.text)
    TIMR_IC_GetCaptureH                      0x00024a81   Thumb Code     4  swm341_timr.o(.text)
    TIMR_IC_GetCaptureL                      0x00024a85   Thumb Code     4  swm341_timr.o(.text)
    TIMR_IC_CaptureH_INTEn                   0x00024a89   Thumb Code    10  swm341_timr.o(.text)
    TIMR_IC_CaptureH_INTDis                  0x00024a95   Thumb Code    10  swm341_timr.o(.text)
    TIMR_IC_CaptureH_INTClr                  0x00024aa1   Thumb Code     6  swm341_timr.o(.text)
    TIMR_IC_CaptureH_INTStat                 0x00024aa9   Thumb Code     8  swm341_timr.o(.text)
    TIMR_IC_CaptureL_INTEn                   0x00024ab1   Thumb Code    10  swm341_timr.o(.text)
    TIMR_IC_CaptureL_INTDis                  0x00024abd   Thumb Code    10  swm341_timr.o(.text)
    TIMR_IC_CaptureL_INTClr                  0x00024ac9   Thumb Code     6  swm341_timr.o(.text)
    TIMR_IC_CaptureL_INTStat                 0x00024ad1   Thumb Code     8  swm341_timr.o(.text)
    UART_Init                                0x00024ad9   Thumb Code   368  swm341_uart.o(.text)
    UART_Close                               0x00024c59   Thumb Code    10  swm341_uart.o(.text)
    UART_Open                                0x00024c65   Thumb Code    10  swm341_uart.o(.text)
    UART_WriteByte                           0x00024c71   Thumb Code     4  swm341_uart.o(.text)
    UART_ReadByte                            0x00024c75   Thumb Code    16  swm341_uart.o(.text)
    UART_IsTXBusy                            0x00024c85   Thumb Code    10  swm341_uart.o(.text)
    UART_IsRXFIFOEmpty                       0x00024c91   Thumb Code    10  swm341_uart.o(.text)
    UART_IsTXFIFOFull                        0x00024c9d   Thumb Code     8  swm341_uart.o(.text)
    UART_SetBaudrate                         0x00024ca5   Thumb Code    40  swm341_uart.o(.text)
    UART_GetBaudrate                         0x00024ccd   Thumb Code    38  swm341_uart.o(.text)
    UART_CTSConfig                           0x00024cf5   Thumb Code    20  swm341_uart.o(.text)
    UART_CTSLineState                        0x00024d09   Thumb Code     8  swm341_uart.o(.text)
    UART_RTSConfig                           0x00024d11   Thumb Code    30  swm341_uart.o(.text)
    UART_RTSLineState                        0x00024d31   Thumb Code     8  swm341_uart.o(.text)
    UART_LINConfig                           0x00024d39   Thumb Code    54  swm341_uart.o(.text)
    UART_LINGenerate                         0x00024d71   Thumb Code    10  swm341_uart.o(.text)
    UART_LINIsDetected                       0x00024d7d   Thumb Code     8  swm341_uart.o(.text)
    UART_LINIsGenerated                      0x00024d85   Thumb Code     8  swm341_uart.o(.text)
    UART_ABRStart                            0x00024d8d   Thumb Code    72  swm341_uart.o(.text)
    UART_ABRIsDone                           0x00024dd5   Thumb Code    24  swm341_uart.o(.text)
    UART_INTEn                               0x00024ded   Thumb Code     8  swm341_uart.o(.text)
    UART_INTDis                              0x00024df5   Thumb Code    10  swm341_uart.o(.text)
    UART_INTClr                              0x00024e01   Thumb Code    16  swm341_uart.o(.text)
    UART_INTStat                             0x00024e11   Thumb Code    56  swm341_uart.o(.text)
    WDT_Init                                 0x00024e49   Thumb Code   116  swm341_wdt.o(.text)
    WDT_Stop                                 0x00024ebd   Thumb Code    10  swm341_wdt.o(.text)
    WDT_Start                                0x00024ec9   Thumb Code    10  swm341_wdt.o(.text)
    WDT_Feed                                 0x00024ed5   Thumb Code     6  swm341_wdt.o(.text)
    WDT_INTClr                               0x00024edd   Thumb Code     6  swm341_wdt.o(.text)
    WDT_INTStat                              0x00024ee5   Thumb Code     4  swm341_wdt.o(.text)
    gt_port_disp_init                        0x00024ee9   Thumb Code    70  gt_port_disp.o(.text)
    gt_port_indev_init                       0x00024f31   Thumb Code    70  gt_port_indev.o(.text)
    gt_port_src_init                         0x00024f79   Thumb Code    14  gt_port_src.o(.text)
    gt_port_vf_init                          0x00024f89   Thumb Code    30  gt_port_vf.o(.text)
    gt_disp_stack_go_back                    0x00024fa9   Thumb Code   584  gt_disp.o(.text)
    gt_disp_get_scr                          0x00025211   Thumb Code    16  gt_disp.o(.text)
    gt_disp_load_scr_anim                    0x00025221   Thumb Code   682  gt_disp.o(.text)
    gt_disp_stack_load_scr                   0x000254cd   Thumb Code    90  gt_disp.o(.text)
    gt_disp_stack_load_scr_anim_st           0x00025529   Thumb Code    66  gt_disp.o(.text)
    gt_disp_stack_load_scr_anim              0x0002556d   Thumb Code    86  gt_disp.o(.text)
    gt_disp_stack_push_scr_only_st           0x000255c5   Thumb Code   448  gt_disp.o(.text)
    gt_disp_invalid_area                     0x000257d1   Thumb Code   114  gt_disp.o(.text)
    gt_disp_load_scr                         0x00025845   Thumb Code    28  gt_disp.o(.text)
    gt_disp_set_scr                          0x00025861   Thumb Code    16  gt_disp.o(.text)
    gt_disp_ref_area                         0x00025871   Thumb Code  2152  gt_disp.o(.text)
    gt_disp_get_layer_top                    0x000262a5   Thumb Code    16  gt_disp.o(.text)
    gt_disp_get_area_act                     0x000262b5   Thumb Code    78  gt_disp.o(.text)
    gt_disp_get_area_max                     0x00026305   Thumb Code    78  gt_disp.o(.text)
    gt_disp_scroll_area_act                  0x00026355   Thumb Code   256  gt_disp.o(.text)
    gt_draw_arch                             0x000265e9   Thumb Code  2062  gt_draw.o(.text)
    gt_draw_line                             0x00026df9   Thumb Code   190  gt_draw.o(.text)
    draw_bg                                  0x00026eb9   Thumb Code  2168  gt_draw.o(.text)
    draw_text                                0x00028225   Thumb Code  5534  gt_draw.o(.text)
    draw_bg_img                              0x000297c5   Thumb Code   716  gt_draw.o(.text)
    draw_focus                               0x00029a91   Thumb Code   102  gt_draw.o(.text)
    gt_obj_add_event_cb                      0x0002a00d   Thumb Code   268  gt_event.o(.text)
    gt_event_send                            0x0002a13d   Thumb Code   272  gt_event.o(.text)
    gt_event_send_to_childs                  0x0002a279   Thumb Code   112  gt_event.o(.text)
    gt_event_send_by_id                      0x0002a301   Thumb Code    32  gt_event.o(.text)
    gt_event_get_code                        0x0002a321   Thumb Code     4  gt_event.o(.text)
    gt_fs_get_ext                            0x0002a325   Thumb Code   180  gt_fs.o(.text)
    gt_fs_get_src_type                       0x0002a3d9   Thumb Code    50  gt_fs.o(.text)
    gt_fs_open                               0x0002a40d   Thumb Code    80  gt_fs.o(.text)
    gt_fs_read                               0x0002a45d   Thumb Code    40  gt_fs.o(.text)
    gt_fs_seek                               0x0002a485   Thumb Code    36  gt_fs.o(.text)
    gt_fs_tell                               0x0002a4a9   Thumb Code    24  gt_fs.o(.text)
    gt_fs_write                              0x0002a4c1   Thumb Code    40  gt_fs.o(.text)
    gt_fs_read_img_offset                    0x0002a4e9   Thumb Code    74  gt_fs.o(.text)
    gt_fs_read_img_wh                        0x0002a535   Thumb Code   110  gt_fs.o(.text)
    gt_fs_close                              0x0002a5a5   Thumb Code    64  gt_fs.o(.text)
    gt_graph_get_gray                        0x0002a631   Thumb Code    94  gt_graph_base.o(.text)
    gt_graph_init_rect_attr                  0x0002a691   Thumb Code    26  gt_graph_base.o(.text)
    gt_graph_init_line_attr                  0x0002a6ad   Thumb Code     8  gt_graph_base.o(.text)
    gt_graph_init_arch_attr                  0x0002a6b5   Thumb Code     8  gt_graph_base.o(.text)
    gt_graph_init_circle_attr                0x0002a6bd   Thumb Code     8  gt_graph_base.o(.text)
    gt_init                                  0x0002a6c5   Thumb Code    62  gt_handler.o(.text)
    gt_task_handler                          0x0002a705   Thumb Code    20  gt_handler.o(.text)
    _gt_img_decoder_init                     0x0002a719   Thumb Code   108  gt_img_decoder.o(.text)
    gt_img_decoder_create                    0x0002a785   Thumb Code    44  gt_img_decoder.o(.text)
    gt_img_decoder_set_info_cb               0x0002a7b1   Thumb Code     4  gt_img_decoder.o(.text)
    gt_img_decoder_set_open_cb               0x0002a7f1   Thumb Code     4  gt_img_decoder.o(.text)
    gt_img_decoder_set_read_line_cb          0x0002a831   Thumb Code     4  gt_img_decoder.o(.text)
    gt_img_decoder_set_close_cb              0x0002a88d   Thumb Code     4  gt_img_decoder.o(.text)
    gt_img_decoder_register                  0x0002a89d   Thumb Code    22  gt_img_decoder.o(.text)
    gt_img_decoder_get_type                  0x0002a8b5   Thumb Code     4  gt_img_decoder.o(.text)
    gt_img_decoder_get_info                  0x0002a8b9   Thumb Code    62  gt_img_decoder.o(.text)
    gt_img_decoder_open                      0x0002a8f9   Thumb Code   142  gt_img_decoder.o(.text)
    gt_img_decoder_read_line                 0x0002a989   Thumb Code   160  gt_img_decoder.o(.text)
    gt_img_decoder_close                     0x0002aa59   Thumb Code    68  gt_img_decoder.o(.text)
    gt_indev_get_key                         0x0002aacd   Thumb Code    12  gt_indev.o(.text)
    gt_indev_get_point                       0x0002aad9   Thumb Code    12  gt_indev.o(.text)
    gt_indev_get_point_act                   0x0002aae5   Thumb Code    10  gt_indev.o(.text)
    gt_indev_get_point_newly                 0x0002aaf1   Thumb Code    10  gt_indev.o(.text)
    gt_indev_get_gesture                     0x0002aafd   Thumb Code     8  gt_indev.o(.text)
    gt_indev_handler                         0x0002ab05   Thumb Code  1864  gt_indev.o(.text)
    gt_indev_is_disabled                     0x0002b275   Thumb Code    16  gt_indev.o(.text)
    gt_indev_set_disabled                    0x0002b285   Thumb Code    20  gt_indev.o(.text)
    _gt_indev_remove_want_delate_target      0x0002b299   Thumb Code    78  gt_indev.o(.text)
    gt_layout_row_grow                       0x0002b6a5   Thumb Code   104  gt_layout.o(.text)
    gt_mem_init                              0x0002b879   Thumb Code    36  gt_mem.o(.text)
    gt_mem_deinit                            0x0002b89d   Thumb Code    14  gt_mem.o(.text)
    _mem_malloc                              0x0002b8ad   Thumb Code    20  gt_mem.o(.text)
    _mem_realloc                             0x0002b8c1   Thumb Code    22  gt_mem.o(.text)
    _mem_free                                0x0002b8d9   Thumb Code    20  gt_mem.o(.text)
    gt_memcpy                                0x0002b8ed   Thumb Code    38  gt_mem.o(.text)
    gt_memmove                               0x0002b915   Thumb Code    12  gt_mem.o(.text)
    gt_memset_0                              0x0002b921   Thumb Code    12  gt_mem.o(.text)
    gt_memset                                0x0002b92d   Thumb Code    18  gt_mem.o(.text)
    gt_memcmp                                0x0002b941   Thumb Code     4  gt_mem.o(.text)
    gt_mem_check_used                        0x0002b945   Thumb Code   136  gt_mem.o(.text)
    gt_area_copy                             0x0002b9dd   Thumb Code    10  gt_obj_pos.o(.text)
    gt_find_clicked_obj_by_point             0x0002b9e9   Thumb Code    42  gt_obj_pos.o(.text)
    _gt_obj_focus_clicked                    0x0002bb25   Thumb Code    82  gt_obj_pos.o(.text)
    gt_find_clicked_obj_by_focus             0x0002bb79   Thumb Code    16  gt_obj_pos.o(.text)
    gt_obj_next_focus_change                 0x0002bb89   Thumb Code    52  gt_obj_pos.o(.text)
    gt_obj_prev_focus_change                 0x0002bc11   Thumb Code   236  gt_obj_pos.o(.text)
    gt_obj_check_scr                         0x0002bcfd   Thumb Code    84  gt_obj_pos.o(.text)
    gt_obj_get_click_point_by_phy_point      0x0002bd51   Thumb Code    40  gt_obj_pos.o(.text)
    _scroll_ready_cb                         0x0002bd79   Thumb Code    10  gt_obj_scroll.o(.text)
    gt_obj_scroll_to                         0x0002bd85   Thumb Code   308  gt_obj_scroll.o(.text)
    gt_obj_scroll_to_x                       0x0002bf25   Thumb Code     8  gt_obj_scroll.o(.text)
    gt_obj_scroll_to_y                       0x0002bf2d   Thumb Code    10  gt_obj_scroll.o(.text)
    gt_obj_scroll_get_x                      0x0002bf39   Thumb Code     6  gt_obj_scroll.o(.text)
    gt_obj_scroll_get_y                      0x0002bf41   Thumb Code     6  gt_obj_scroll.o(.text)
    _gt_obj_set_process_point                0x0002bf49   Thumb Code     6  gt_obj_scroll.o(.text)
    _gt_obj_set_process_scroll_xy            0x0002bf51   Thumb Code    14  gt_obj_scroll.o(.text)
    gt_refr_timer                            0x0002bf61   Thumb Code   104  gt_refr.o(.text)
    gt_scr_stack_get_init_func               0x0002bfd9   Thumb Code   136  gt_scr_stack.o(.text)
    gt_scr_stack_register_id_list            0x0002c061   Thumb Code   144  gt_scr_stack.o(.text)
    gt_scr_stack_set_depth                   0x0002c0f1   Thumb Code   112  gt_scr_stack.o(.text)
    gt_scr_stack_set_home_scr_id             0x0002c161   Thumb Code    40  gt_scr_stack.o(.text)
    gt_scr_stack_set_home_scr                0x0002c189   Thumb Code    12  gt_scr_stack.o(.text)
    gt_scr_stack_get_home_scr                0x0002c195   Thumb Code    10  gt_scr_stack.o(.text)
    gt_scr_stack_get_home_scr_id             0x0002c1a1   Thumb Code    22  gt_scr_stack.o(.text)
    gt_scr_stack_is_home_scr_alive           0x0002c1b9   Thumb Code    14  gt_scr_stack.o(.text)
    gt_scr_stack_push                        0x0002c1c9   Thumb Code    20  gt_scr_stack.o(.text)
    gt_scr_stack_pop                         0x0002c1dd   Thumb Code   186  gt_scr_stack.o(.text)
    gt_scr_stack_peek                        0x0002c299   Thumb Code    16  gt_scr_stack.o(.text)
    gt_scr_stack_get_prev_scr                0x0002c2a9   Thumb Code   124  gt_scr_stack.o(.text)
    gt_scr_stack_is_prev                     0x0002c341   Thumb Code    88  gt_scr_stack.o(.text)
    gt_scr_stack_is_current                  0x0002c3b1   Thumb Code    88  gt_scr_stack.o(.text)
    gt_scr_stack_get_prev_id                 0x0002c421   Thumb Code    80  gt_scr_stack.o(.text)
    gt_scr_stack_get_prev_id_by              0x0002c48d   Thumb Code    30  gt_scr_stack.o(.text)
    gt_scr_stack_get_prev_scr_by             0x0002c4ad   Thumb Code   128  gt_scr_stack.o(.text)
    gt_scr_stack_has_before                  0x0002c54d   Thumb Code    30  gt_scr_stack.o(.text)
    gt_scr_stack_is_empty                    0x0002c57d   Thumb Code    16  gt_scr_stack.o(.text)
    gt_scr_stack_is_full                     0x0002c58d   Thumb Code    16  gt_scr_stack.o(.text)
    gt_scr_stack_get_count                   0x0002c59d   Thumb Code    16  gt_scr_stack.o(.text)
    gt_scr_stack_clear                       0x0002c5ad   Thumb Code    34  gt_scr_stack.o(.text)
    gt_obj_set_area                          0x0002c655   Thumb Code   224  gt_style.o(.text)
    gt_obj_pos_change                        0x0002c8b1   Thumb Code   224  gt_style.o(.text)
    _gt_obj_is_ignore_calc_max_area          0x0002c99d   Thumb Code    22  gt_style.o(.text)
    gt_obj_set_pos                           0x0002c9b5   Thumb Code   132  gt_style.o(.text)
    _gt_obj_move_child_by                    0x0002ca49   Thumb Code   124  gt_style.o(.text)
    gt_obj_get_virtual                       0x0002cadd   Thumb Code    76  gt_style.o(.text)
    gt_obj_set_size                          0x0002cb3d   Thumb Code   176  gt_style.o(.text)
    gt_obj_size_change                       0x0002cbfd   Thumb Code   140  gt_style.o(.text)
    gt_obj_set_x                             0x0002cc9d   Thumb Code   104  gt_style.o(.text)
    gt_obj_set_y                             0x0002cd15   Thumb Code   104  gt_style.o(.text)
    gt_obj_set_w                             0x0002cd8d   Thumb Code    92  gt_style.o(.text)
    gt_obj_set_h                             0x0002cdf9   Thumb Code    92  gt_style.o(.text)
    gt_obj_set_opa                           0x0002ce65   Thumb Code    84  gt_style.o(.text)
    gt_obj_get_x                             0x0002ceb9   Thumb Code    72  gt_style.o(.text)
    gt_obj_get_y                             0x0002cf11   Thumb Code    72  gt_style.o(.text)
    gt_obj_get_w                             0x0002cf69   Thumb Code    64  gt_style.o(.text)
    gt_obj_get_h                             0x0002cfb9   Thumb Code    64  gt_style.o(.text)
    gt_obj_set_visible                       0x0002d009   Thumb Code   106  gt_style.o(.text)
    gt_obj_get_visible                       0x0002d075   Thumb Code    72  gt_style.o(.text)
    gt_obj_set_disabled                      0x0002d0d1   Thumb Code   126  gt_style.o(.text)
    gt_obj_is_disabled                       0x0002d151   Thumb Code    76  gt_style.o(.text)
    gt_obj_set_focus                         0x0002d1b1   Thumb Code   102  gt_style.o(.text)
    gt_obj_is_focus                          0x0002d219   Thumb Code    76  gt_style.o(.text)
    gt_obj_set_focus_disabled                0x0002d275   Thumb Code   116  gt_style.o(.text)
    gt_obj_is_focus_disabled                 0x0002d2e9   Thumb Code    76  gt_style.o(.text)
    gt_obj_child_set_prop                    0x0002d351   Thumb Code   868  gt_style.o(.text)
    gt_obj_set_fixed                         0x0002d6cd   Thumb Code    86  gt_style.o(.text)
    gt_obj_set_overflow                      0x0002d725   Thumb Code    86  gt_style.o(.text)
    gt_obj_set_inside                        0x0002d77d   Thumb Code    86  gt_style.o(.text)
    gt_obj_set_untouchability                0x0002d7d5   Thumb Code    86  gt_style.o(.text)
    gt_obj_set_state                         0x0002d82d   Thumb Code    80  gt_style.o(.text)
    gt_obj_get_state                         0x0002d891   Thumb Code    76  gt_style.o(.text)
    gt_obj_get_fixed                         0x0002d8f1   Thumb Code    76  gt_style.o(.text)
    gt_obj_get_overflow                      0x0002d951   Thumb Code    76  gt_style.o(.text)
    gt_obj_get_inside                        0x0002d9b1   Thumb Code    76  gt_style.o(.text)
    gt_obj_set_septal_line                   0x0002da11   Thumb Code    80  gt_style.o(.text)
    gt_obj_get_septal_line                   0x0002da79   Thumb Code    80  gt_style.o(.text)
    gt_obj_set_mask_effect                   0x0002dae1   Thumb Code    76  gt_style.o(.text)
    gt_obj_get_mask_effect                   0x0002db45   Thumb Code    76  gt_style.o(.text)
    gt_obj_set_touch_parent                  0x0002dba9   Thumb Code    80  gt_style.o(.text)
    gt_obj_get_touch_parent                  0x0002dc11   Thumb Code    76  gt_style.o(.text)
    gt_obj_set_trigger_mode                  0x0002dc75   Thumb Code    84  gt_style.o(.text)
    gt_obj_get_trigger_mode                  0x0002dce1   Thumb Code    76  gt_style.o(.text)
    gt_obj_set_virtual                       0x0002dd45   Thumb Code    80  gt_style.o(.text)
    gt_obj_set_scroll_dir                    0x0002dda9   Thumb Code    92  gt_style.o(.text)
    gt_obj_get_scroll_dir                    0x0002de1d   Thumb Code    10  gt_style.o(.text)
    gt_obj_is_scroll_dir                     0x0002de29   Thumb Code    18  gt_style.o(.text)
    gt_obj_set_scroll_lr                     0x0002de3d   Thumb Code    18  gt_style.o(.text)
    gt_obj_is_scroll_left                    0x0002de51   Thumb Code    16  gt_style.o(.text)
    gt_obj_is_scroll_right                   0x0002de61   Thumb Code    10  gt_style.o(.text)
    gt_obj_set_scroll_ud                     0x0002de6d   Thumb Code    18  gt_style.o(.text)
    gt_obj_is_scroll_up                      0x0002de81   Thumb Code    16  gt_style.o(.text)
    gt_obj_is_scroll_down                    0x0002de91   Thumb Code    10  gt_style.o(.text)
    gt_obj_set_scroll_snap_x                 0x0002de9d   Thumb Code    18  gt_style.o(.text)
    gt_obj_set_scroll_snap_y                 0x0002deb1   Thumb Code    20  gt_style.o(.text)
    gt_obj_get_scroll_snap_x                 0x0002dec5   Thumb Code     8  gt_style.o(.text)
    gt_obj_get_scroll_snap_y                 0x0002decd   Thumb Code    10  gt_style.o(.text)
    gt_obj_set_bubble_notify                 0x0002ded9   Thumb Code    80  gt_style.o(.text)
    gt_obj_is_bubble_notify                  0x0002df45   Thumb Code    76  gt_style.o(.text)
    gt_obj_is_untouchability                 0x0002dfa9   Thumb Code    10  gt_style.o(.text)
    gt_obj_set_reduce                        0x0002dfb5   Thumb Code    68  gt_style.o(.text)
    gt_obj_get_reduce                        0x0002e00d   Thumb Code    72  gt_style.o(.text)
    gt_obj_set_radius                        0x0002e069   Thumb Code    64  gt_style.o(.text)
    gt_obj_get_radius                        0x0002e0bd   Thumb Code    68  gt_style.o(.text)
    gt_obj_set_row_layout                    0x0002e115   Thumb Code   132  gt_style.o(.text)
    gt_obj_set_grow_invert                   0x0002e1b1   Thumb Code    96  gt_style.o(.text)
    _gt_timer_core_init                      0x0002e229   Thumb Code    18  gt_timer.o(.text)
    _gt_timer_create                         0x0002e23d   Thumb Code   144  gt_timer.o(.text)
    _gt_timer_set_callback                   0x0002e2ed   Thumb Code    64  gt_timer.o(.text)
    _gt_timer_del                            0x0002e345   Thumb Code    92  gt_timer.o(.text)
    _gt_timer_set_paused                     0x0002e3b1   Thumb Code   108  gt_timer.o(.text)
    _gt_timer_set_repeat_count               0x0002e435   Thumb Code    72  gt_timer.o(.text)
    _gt_timer_set_user_data                  0x0002e499   Thumb Code    64  gt_timer.o(.text)
    _gt_timer_handler                        0x0002e4f1   Thumb Code   152  gt_timer.o(.text)
    _gt_timer_get_laster_timer               0x0002e589   Thumb Code    12  gt_timer.o(.text)
    _gt_timer_get_repeat_count               0x0002e595   Thumb Code    68  gt_timer.o(.text)
    _gt_timer_set_period                     0x0002e5f5   Thumb Code    64  gt_timer.o(.text)
    _gt_timer_get_period                     0x0002e64d   Thumb Code    64  gt_timer.o(.text)
    _gt_timer_get_paused                     0x0002e6a5   Thumb Code    68  gt_timer.o(.text)
    _gt_timer_get_user_data                  0x0002e701   Thumb Code    64  gt_timer.o(.text)
    _gt_extra_init                           0x0002e759   Thumb Code    14  gt_extra.o(.text)
    gt_draw_blend                            0x0002e769   Thumb Code   504  gt_draw_blend.o(.text)
    gt_draw_blend_text                       0x0002e961   Thumb Code  1448  gt_draw_blend.o(.text)
    gt_draw_blend_with_rgb565_opacity        0x0002ef09   Thumb Code  2386  gt_draw_blend_with_rgb565.o(.text)
    gt_draw_blend_with_rgb565_no_opacity     0x0002f85d   Thumb Code  1770  gt_draw_blend_with_rgb565.o(.text)
    gt_sjpg_init                             0x0002ff49   Thumb Code    72  gt_sjpg.o(.text)
    jd_prepare                               0x00030629   Thumb Code  4262  tjpgd.o(.text)
    jd_decomp                                0x000316d1   Thumb Code  6810  tjpgd.o(.text)
    gt_png_init                              0x00033861   Thumb Code    72  gt_png.o(.text)
    lodepng_load_file                        0x00033d4d   Thumb Code   194  lodepng.o(.text)
    lodepng_save_file                        0x00033e11   Thumb Code    54  lodepng.o(.text)
    lodepng_inflate                          0x00033e49   Thumb Code    44  lodepng.o(.text)
    lodepng_zlib_decompress                  0x000352b9   Thumb Code    44  lodepng.o(.text)
    lodepng_decompress_settings_init         0x00035465   Thumb Code    16  lodepng.o(.text)
    lodepng_crc32                            0x00035475   Thumb Code   200  lodepng.o(.text)
    lodepng_chunk_length                     0x0003553d   Thumb Code     6  lodepng.o(.text)
    lodepng_chunk_type                       0x00035545   Thumb Code    22  lodepng.o(.text)
    lodepng_chunk_type_equals                0x0003555d   Thumb Code   120  lodepng.o(.text)
    lodepng_chunk_ancillary                  0x000355d5   Thumb Code     8  lodepng.o(.text)
    lodepng_chunk_private                    0x000355dd   Thumb Code     8  lodepng.o(.text)
    lodepng_chunk_safetocopy                 0x000355e5   Thumb Code     8  lodepng.o(.text)
    lodepng_chunk_data                       0x000355ed   Thumb Code     4  lodepng.o(.text)
    lodepng_chunk_data_const                 0x000355f1   Thumb Code     4  lodepng.o(.text)
    lodepng_chunk_check_crc                  0x000355f5   Thumb Code   258  lodepng.o(.text)
    lodepng_chunk_generate_crc               0x000356f9   Thumb Code   234  lodepng.o(.text)
    lodepng_chunk_next                       0x000357e5   Thumb Code   116  lodepng.o(.text)
    lodepng_chunk_next_const                 0x00035859   Thumb Code   116  lodepng.o(.text)
    lodepng_chunk_find                       0x000358cd   Thumb Code   274  lodepng.o(.text)
    lodepng_chunk_find_const                 0x000359e1   Thumb Code   274  lodepng.o(.text)
    lodepng_chunk_append                     0x00035af5   Thumb Code   250  lodepng.o(.text)
    lodepng_chunk_create                     0x00035bf1   Thumb Code   470  lodepng.o(.text)
    lodepng_color_mode_init                  0x00035dc9   Thumb Code    24  lodepng.o(.text)
    lodepng_color_mode_cleanup               0x00035de1   Thumb Code    30  lodepng.o(.text)
    lodepng_palette_clear                    0x00035e01   Thumb Code    30  lodepng.o(.text)
    lodepng_color_mode_copy                  0x00035e21   Thumb Code   100  lodepng.o(.text)
    lodepng_color_mode_make                  0x00035e85   Thumb Code    20  lodepng.o(.text)
    lodepng_palette_add                      0x00035e99   Thumb Code   328  lodepng.o(.text)
    lodepng_get_bpp                          0x00035fe1   Thumb Code    40  lodepng.o(.text)
    lodepng_get_channels                     0x00036009   Thumb Code    30  lodepng.o(.text)
    lodepng_is_greyscale_type                0x00036029   Thumb Code    14  lodepng.o(.text)
    lodepng_is_alpha_type                    0x00036039   Thumb Code     8  lodepng.o(.text)
    lodepng_is_palette_type                  0x00036041   Thumb Code    12  lodepng.o(.text)
    lodepng_has_palette_alpha                0x0003604d   Thumb Code   112  lodepng.o(.text)
    lodepng_can_have_alpha                   0x000360bd   Thumb Code   116  lodepng.o(.text)
    lodepng_get_raw_size                     0x00036131   Thumb Code    64  lodepng.o(.text)
    lodepng_add_text                         0x00036171   Thumb Code    90  lodepng.o(.text)
    lodepng_clear_text                       0x00036305   Thumb Code     2  lodepng.o(.text)
    lodepng_clear_itext                      0x00036385   Thumb Code     2  lodepng.o(.text)
    lodepng_add_itext                        0x00036451   Thumb Code    80  lodepng.o(.text)
    lodepng_set_icc                          0x000366fd   Thumb Code   228  lodepng.o(.text)
    lodepng_clear_icc                        0x000367e1   Thumb Code    60  lodepng.o(.text)
    lodepng_info_init                        0x0003681d   Thumb Code    78  lodepng.o(.text)
    lodepng_info_cleanup                     0x0003686d   Thumb Code   166  lodepng.o(.text)
    lodepng_info_copy                        0x00036915   Thumb Code  1130  lodepng.o(.text)
    lodepng_convert                          0x00036d81   Thumb Code 10264  lodepng.o(.text)
    lodepng_convert_rgb                      0x00039749   Thumb Code   314  lodepng.o(.text)
    lodepng_inspect                          0x00039885   Thumb Code   734  lodepng.o(.text)
    lodepng_inspect_chunk                    0x00039b65   Thumb Code  1310  lodepng.o(.text)
    lodepng_decode                           0x0003abf1   Thumb Code  7068  lodepng.o(.text)
    lodepng_decode_memory                    0x0003c78d   Thumb Code   198  lodepng.o(.text)
    lodepng_state_init                       0x0003c855   Thumb Code   130  lodepng.o(.text)
    lodepng_state_cleanup                    0x0003c8d9   Thumb Code    40  lodepng.o(.text)
    lodepng_decode32                         0x0003c901   Thumb Code    30  lodepng.o(.text)
    lodepng_decode24                         0x0003c921   Thumb Code    30  lodepng.o(.text)
    lodepng_decode_file                      0x0003c941   Thumb Code    96  lodepng.o(.text)
    lodepng_decode32_file                    0x0003c9a1   Thumb Code    96  lodepng.o(.text)
    lodepng_decode24_file                    0x0003ca01   Thumb Code    96  lodepng.o(.text)
    lodepng_decoder_settings_init            0x0003ca61   Thumb Code    28  lodepng.o(.text)
    lodepng_state_copy                       0x0003ca7d   Thumb Code   256  lodepng.o(.text)
    lodepng_error_text                       0x0003cb7d   Thumb Code    28  lodepng.o(.text)
    gt_font_info_init                        0x0003e8f1   Thumb Code    44  gt_font.o(.text)
    gt_project_encoding_get                  0x0003e91d   Thumb Code    12  gt_font.o(.text)
    gt_font_info_update_font_thick           0x0003e929   Thumb Code    26  gt_font.o(.text)
    _gt_gb_font_one_char_code_len_get        0x0003e945   Thumb Code   124  gt_font.o(.text)
    gt_unicode_to_utf8                       0x0003e9c1   Thumb Code   248  gt_font.o(.text)
    _gt_utf8_to_unicode                      0x0003eab9   Thumb Code   124  gt_font.o(.text)
    _gt_font_get_type_group_offset_y         0x0003eb35   Thumb Code     4  gt_font.o(.text)
    gt_font_one_char_code_len_get            0x0003eb39   Thumb Code   162  gt_font.o(.text)
    gt_encoding_table_one_char               0x0003ebdd   Thumb Code   444  gt_font.o(.text)
    gt_utf8_check_char                       0x0003ed99   Thumb Code   110  gt_font.o(.text)
    gt_gb_check_char                         0x0003ee09   Thumb Code    98  gt_font.o(.text)
    _gt_is_style_cn_or_en                    0x0003ee6d   Thumb Code   146  gt_font.o(.text)
    _gt_font_is_convertor_language           0x0003ef01   Thumb Code    18  gt_font.o(.text)
    _gt_font_is_convertor_by                 0x0003ef15   Thumb Code   114  gt_font.o(.text)
    gt_font_get_dot                          0x0003ef89   Thumb Code   380  gt_font.o(.text)
    gt_font_get_string_dot                   0x0003f105   Thumb Code   478  gt_font.o(.text)
    gt_font_type_get                         0x0003f2e5   Thumb Code     4  gt_font.o(.text)
    gt_font_code_transform                   0x0003f2e9   Thumb Code    46  gt_font.o(.text)
    gt_font_convertor_data_get               0x0003f319   Thumb Code     4  gt_font.o(.text)
    gt_font_get_size_length_by_style         0x0003f31d   Thumb Code   256  gt_font.o(.text)
    gt_font_get_string_width                 0x0003f41d   Thumb Code    58  gt_font.o(.text)
    gt_font_get_one_word_width               0x0003f459   Thumb Code   444  gt_font.o(.text)
    gt_font_get_longest_line_substring_width 0x0003f615   Thumb Code   282  gt_font.o(.text)
    gt_font_get_word_width_figure_up         0x0003f731   Thumb Code   314  gt_font.o(.text)
    gt_project_encoding_set                  0x0003f86d   Thumb Code    12  gt_font.o(.text)
    gt_font_split                            0x0003f879   Thumb Code  2604  gt_font.o(.text)
    gt_font_split_line_numb                  0x000402a5   Thumb Code   316  gt_font.o(.text)
    right_to_left_lan_get                    0x000403e1   Thumb Code   144  gt_font.o(.text)
    gt_right_to_left_handler                 0x00040471   Thumb Code  1760  gt_font.o(.text)
    gt_py_input_method_create                0x00040dbd   Thumb Code     4  gt_font.o(.text)
    gt_py_input_method_push_ascii            0x00040dc1   Thumb Code     2  gt_font.o(.text)
    gt_py_input_method_pop_ascii             0x00040dc5   Thumb Code     2  gt_font.o(.text)
    gt_py_input_method_get_ascii_numb        0x00040dc9   Thumb Code     4  gt_font.o(.text)
    gt_py_input_method_get_chinese           0x00040dcd   Thumb Code     4  gt_font.o(.text)
    gt_py_input_method_chinese_data_handler  0x00040dd1   Thumb Code     2  gt_font.o(.text)
    gt_py_input_method_last_page             0x00040dd5   Thumb Code     2  gt_font.o(.text)
    gt_py_input_method_next_page             0x00040dd9   Thumb Code     2  gt_font.o(.text)
    gt_py_input_method_select_text           0x00040ddd   Thumb Code     2  gt_font.o(.text)
    gt_py_input_method_clean                 0x00040de1   Thumb Code     2  gt_font.o(.text)
    gt_symbol_is_valid_range                 0x00040de5   Thumb Code    30  gt_symbol.o(.text)
    gt_symbol_get_mask_buf                   0x00040e05   Thumb Code   106  gt_symbol.o(.text)
    gt_disp_drv_init                         0x00040e71   Thumb Code    12  gt_hal_disp.o(.text)
    gt_disp_drv_register                     0x00040e7d   Thumb Code   200  gt_hal_disp.o(.text)
    gt_disp_get_default                      0x00040fd1   Thumb Code     4  gt_hal_disp.o(.text)
    gt_disp_get_res_hor                      0x00040fd5   Thumb Code    36  gt_hal_disp.o(.text)
    gt_disp_get_res_ver                      0x00040ff9   Thumb Code    36  gt_hal_disp.o(.text)
    gt_disp_graph_buf_init                   0x0004101d   Thumb Code    12  gt_hal_disp.o(.text)
    gt_disp_graph_get_buf_default            0x00041029   Thumb Code    12  gt_hal_disp.o(.text)
    gt_disp_graph_get_buf_backup             0x00041035   Thumb Code     4  gt_hal_disp.o(.text)
    _gt_disp_refr_area_push                  0x00041039   Thumb Code    20  gt_hal_disp.o(.text)
    _gt_disp_refr_area_pop                   0x0004104d   Thumb Code    28  gt_hal_disp.o(.text)
    _gt_disp_refr_reset_areas                0x00041069   Thumb Code    40  gt_hal_disp.o(.text)
    _gt_disp_refr_append_area                0x00041091   Thumb Code   200  gt_hal_disp.o(.text)
    _gt_disp_refr_check                      0x00041159   Thumb Code    16  gt_hal_disp.o(.text)
    _gt_disp_refr_get_area                   0x00041169   Thumb Code   114  gt_hal_disp.o(.text)
    _gt_disp_update_max_area                 0x000411dd   Thumb Code   132  gt_hal_disp.o(.text)
    _gt_disp_reload_max_area                 0x00041261   Thumb Code   184  gt_hal_disp.o(.text)
    _gt_disp_hided_layer_top_widgets         0x00041501   Thumb Code   108  gt_hal_disp.o(.text)
    _gt_hal_fp_init                          0x00041595   Thumb Code    64  gt_hal_fs.o(.text)
    gt_indev_drv_init                        0x00041639   Thumb Code    36  gt_hal_indev.o(.text)
    gt_indev_drv_register                    0x0004165d   Thumb Code   112  gt_hal_indev.o(.text)
    gt_indev_set_default                     0x000416f5   Thumb Code    12  gt_hal_indev.o(.text)
    gt_indev_get_default                     0x00041701   Thumb Code    12  gt_hal_indev.o(.text)
    gt_indev_get_dev_by_idx                  0x0004170d   Thumb Code    24  gt_hal_indev.o(.text)
    gt_indev_get_dev_count                   0x00041725   Thumb Code    12  gt_hal_indev.o(.text)
    gt_src_init                              0x00041731   Thumb Code   118  gt_hal_src.o(.text)
    gt_src_get_drv                           0x000417a9   Thumb Code    12  gt_hal_src.o(.text)
    gt_tick_inc                              0x00041951   Thumb Code    20  gt_hal_tick.o(.text)
    gt_tick_get                              0x00041965   Thumb Code    48  gt_hal_tick.o(.text)
    gt_tick_elapse                           0x00041995   Thumb Code    48  gt_hal_tick.o(.text)
    gt_vf_init                               0x000419c5   Thumb Code   136  gt_hal_vf.o(.text)
    gt_vf_drv_register                       0x00041a4d   Thumb Code    34  gt_hal_vf.o(.text)
    gt_vf_get_drv                            0x00041a71   Thumb Code    12  gt_hal_vf.o(.text)
    gt_anim_speed_to_time                    0x00041cdd   Thumb Code    30  gt_anim.o(.text)
    gt_anim_get_data                         0x00041cfd   Thumb Code    14  gt_anim.o(.text)
    gt_anim_param_init                       0x00041d0d   Thumb Code    16  gt_anim.o(.text)
    gt_anim_pos_move                         0x00041d1d   Thumb Code   192  gt_anim.o(.text)
    gt_anim_init                             0x00041ddd   Thumb Code    56  gt_anim.o(.text)
    gt_anim_set_path_type                    0x00041e15   Thumb Code    40  gt_anim.o(.text)
    gt_anim_start                            0x00041e85   Thumb Code   340  gt_anim.o(.text)
    _gt_anim_core_init                       0x0004202d   Thumb Code    64  gt_anim.o(.text)
    gt_anim_restart                          0x00042249   Thumb Code    22  gt_anim.o(.text)
    gt_anim_del                              0x00042261   Thumb Code   176  gt_anim.o(.text)
    gt_anim_del_by                           0x00042311   Thumb Code   152  gt_anim.o(.text)
    gt_anim_del_all                          0x000423a9   Thumb Code   152  gt_anim.o(.text)
    gt_area_is_intersect_screen              0x00042651   Thumb Code    88  gt_area.o(.text)
    gt_area_intersect_screen                 0x000426a9   Thumb Code   204  gt_area.o(.text)
    gt_area_cover_screen                     0x00042775   Thumb Code   192  gt_area.o(.text)
    gt_area_is_on                            0x00042835   Thumb Code    66  gt_area.o(.text)
    gt_area_join                             0x00042879   Thumb Code    96  gt_area.o(.text)
    gt_area_check_legal                      0x000428d9   Thumb Code    34  gt_area.o(.text)
    gt_color_fill                            0x000428fd   Thumb Code   112  gt_color.o(.text)
    gt_color_focus                           0x0004296d   Thumb Code    40  gt_color.o(.text)
    gt_color_focus_set                       0x00042995   Thumb Code    12  gt_color.o(.text)
    _gt_gc_get_disp                          0x000429a1   Thumb Code    12  gt_gc.o(.text)
    _gt_gc_set_disp                          0x000429ad   Thumb Code    12  gt_gc.o(.text)
    _gt_gc_get_scr_info                      0x000429b9   Thumb Code    12  gt_gc.o(.text)
    _gt_gc_get_size                          0x000429c5   Thumb Code     4  gt_gc.o(.text)
    gt_sin                                   0x000429c9   Thumb Code   100  gt_math.o(.text)
    gt_cos                                   0x00042a2d   Thumb Code   104  gt_math.o(.text)
    gt_square                                0x00042a95   Thumb Code    12  gt_math.o(.text)
    gt_abs                                   0x00042aa1   Thumb Code     8  gt_math.o(.text)
    gt_per_255                               0x00042aa9   Thumb Code    14  gt_math.o(.text)
    gt_map                                   0x00042ab9   Thumb Code    60  gt_math.o(.text)
    gt_bezier3                               0x00042af5   Thumb Code    82  gt_math.o(.text)
    gt_tlsf_check                            0x00042b49   Thumb Code   488  gt_tlsf.o(.text)
    gt_tlsf_walk_pool                        0x00042d31   Thumb Code    72  gt_tlsf.o(.text)
    gt_tlsf_block_size                       0x00042dc9   Thumb Code    16  gt_tlsf.o(.text)
    gt_tlsf_check_pool                       0x00042dd9   Thumb Code    52  gt_tlsf.o(.text)
    gt_tlsf_size                             0x00042e0d   Thumb Code     6  gt_tlsf.o(.text)
    gt_tlsf_align_size                       0x00042e15   Thumb Code     4  gt_tlsf.o(.text)
    gt_tlsf_block_size_min                   0x00042e19   Thumb Code     4  gt_tlsf.o(.text)
    gt_tlsf_block_size_max                   0x00042e1d   Thumb Code     6  gt_tlsf.o(.text)
    gt_tlsf_pool_overhead                    0x00042e25   Thumb Code     4  gt_tlsf.o(.text)
    gt_tlsf_alloc_overhead                   0x00042e29   Thumb Code     4  gt_tlsf.o(.text)
    gt_tlsf_add_pool                         0x00042e2d   Thumb Code   206  gt_tlsf.o(.text)
    gt_tlsf_remove_pool                      0x00042efd   Thumb Code   110  gt_tlsf.o(.text)
    gt_tlsf_create                           0x00042f6d   Thumb Code   184  gt_tlsf.o(.text)
    gt_tlsf_create_with_pool                 0x0004305d   Thumb Code   200  gt_tlsf.o(.text)
    gt_tlsf_destroy                          0x00043125   Thumb Code     2  gt_tlsf.o(.text)
    gt_tlsf_get_pool                         0x00043129   Thumb Code     6  gt_tlsf.o(.text)
    gt_tlsf_malloc                           0x00043131   Thumb Code    52  gt_tlsf.o(.text)
    gt_tlsf_memalign                         0x00043335   Thumb Code   348  gt_tlsf.o(.text)
    gt_tlsf_free                             0x00043491   Thumb Code   400  gt_tlsf.o(.text)
    gt_tlsf_realloc                          0x00043621   Thumb Code   684  gt_tlsf.o(.text)
    gt_stack_create                          0x000438cd   Thumb Code   102  gt_stack.o(.text)
    gt_stack_cycle_create                    0x00043935   Thumb Code   114  gt_stack.o(.text)
    gt_stack_push                            0x000439a9   Thumb Code   154  gt_stack.o(.text)
    gt_stack_pop                             0x00043a45   Thumb Code    82  gt_stack.o(.text)
    gt_stack_peek                            0x00043a99   Thumb Code    56  gt_stack.o(.text)
    gt_stack_peek_by                         0x00043ad1   Thumb Code    64  gt_stack.o(.text)
    gt_stack_is_empty                        0x00043b11   Thumb Code    16  gt_stack.o(.text)
    gt_stack_is_full                         0x00043b21   Thumb Code    22  gt_stack.o(.text)
    gt_stack_clear                           0x00043b39   Thumb Code    38  gt_stack.o(.text)
    gt_stack_get_depth                       0x00043b61   Thumb Code    12  gt_stack.o(.text)
    gt_stack_get_count                       0x00043b6d   Thumb Code    12  gt_stack.o(.text)
    gt_stack_get_item_size                   0x00043b79   Thumb Code    10  gt_stack.o(.text)
    gt_stack_is_cycle                        0x00043b85   Thumb Code    14  gt_stack.o(.text)
    gt_stack_search_item_from_top            0x00043b95   Thumb Code   120  gt_stack.o(.text)
    gt_stack_search_item_from_bottom         0x00043c0d   Thumb Code   132  gt_stack.o(.text)
    gt_stack_iterator                        0x00043c91   Thumb Code   128  gt_stack.o(.text)
    gt_stack_destroy                         0x00043d11   Thumb Code    56  gt_stack.o(.text)
    _gt_vector_create                        0x00043d49   Thumb Code    66  gt_vector.o(.text)
    _gt_vector_add_free_item_cb              0x00043d8d   Thumb Code    24  gt_vector.o(.text)
    _gt_vector_add_equal_item_cb             0x00043da5   Thumb Code    24  gt_vector.o(.text)
    _gt_vector_add_item                      0x00043dcd   Thumb Code   170  gt_vector.o(.text)
    _gt_vector_replace_item                  0x00043e79   Thumb Code    92  gt_vector.o(.text)
    _gt_vector_remove_item                   0x00043ed5   Thumb Code   218  gt_vector.o(.text)
    _gt_vector_turn_next                     0x00043fb1   Thumb Code    56  gt_vector.o(.text)
    _gt_vector_get_count                     0x00043fe9   Thumb Code    18  gt_vector.o(.text)
    _gt_vector_get_index                     0x00043ffd   Thumb Code    22  gt_vector.o(.text)
    _gt_vector_get_item                      0x00044015   Thumb Code    32  gt_vector.o(.text)
    _gt_vector_free                          0x00044035   Thumb Code   130  gt_vector.o(.text)
    _gt_vector_clear_all_items               0x000440b9   Thumb Code   118  gt_vector.o(.text)
    gt_btn_create                            0x00044361   Thumb Code   148  gt_btn.o(.text)
    gt_btn_set_color_pressed                 0x00044405   Thumb Code    34  gt_btn.o(.text)
    gt_btn_set_color_background              0x00044429   Thumb Code    24  gt_btn.o(.text)
    gt_btn_set_color_border                  0x00044441   Thumb Code    36  gt_btn.o(.text)
    gt_btn_set_border_width                  0x00044465   Thumb Code    36  gt_btn.o(.text)
    gt_btn_set_text                          0x00044489   Thumb Code   166  gt_btn.o(.text)
    gt_btn_get_text                          0x00044531   Thumb Code    20  gt_btn.o(.text)
    gt_btn_set_font_color                    0x00044545   Thumb Code    34  gt_btn.o(.text)
    gt_btn_set_font_color_pressed            0x00044569   Thumb Code    36  gt_btn.o(.text)
    gt_btn_set_font_size                     0x0004458d   Thumb Code    22  gt_btn.o(.text)
    gt_btn_set_font_gray                     0x000445a5   Thumb Code    22  gt_btn.o(.text)
    gt_btn_set_font_align                    0x000445bd   Thumb Code    22  gt_btn.o(.text)
    gt_btn_set_font_family_cn                0x000445d5   Thumb Code    22  gt_btn.o(.text)
    gt_btn_set_font_family_en                0x000445ed   Thumb Code    22  gt_btn.o(.text)
    gt_btn_set_font_family_fl                0x00044605   Thumb Code    22  gt_btn.o(.text)
    gt_btn_set_font_family_numb              0x0004461d   Thumb Code    22  gt_btn.o(.text)
    gt_btn_set_radius                        0x00044635   Thumb Code    34  gt_btn.o(.text)
    gt_btn_add_state_content                 0x00044659   Thumb Code    90  gt_btn.o(.text)
    gt_btn_remove_state_content              0x000446b5   Thumb Code    42  gt_btn.o(.text)
    gt_btn_clear_all_state_content           0x000446e1   Thumb Code    28  gt_btn.o(.text)
    gt_btn_get_state_content_index           0x000446fd   Thumb Code    30  gt_btn.o(.text)
    gt_btn_set_font_thick_en                 0x0004471d   Thumb Code    22  gt_btn.o(.text)
    gt_btn_set_font_thick_cn                 0x00044735   Thumb Code    22  gt_btn.o(.text)
    gt_btn_set_font_encoding                 0x0004474d   Thumb Code    22  gt_btn.o(.text)
    gt_btn_set_space                         0x00044765   Thumb Code    28  gt_btn.o(.text)
    gt_btn_set_selected                      0x00044781   Thumb Code    24  gt_btn.o(.text)
    gt_dialog_create                         0x000449bd   Thumb Code   236  gt_dialog.o(.text)
    gt_dialog_create_issue                   0x00044aa9   Thumb Code   508  gt_dialog.o(.text)
    gt_dialog_show                           0x00044ca9   Thumb Code    82  gt_dialog.o(.text)
    gt_dialog_has_showing                    0x00044cfd   Thumb Code    28  gt_dialog.o(.text)
    gt_dialog_set_border_color               0x00044d69   Thumb Code    22  gt_dialog.o(.text)
    gt_dialog_set_border_width               0x00044d81   Thumb Code    22  gt_dialog.o(.text)
    gt_dialog_set_bgcolor                    0x00044d99   Thumb Code    20  gt_dialog.o(.text)
    gt_dialog_set_border_radius              0x00044dad   Thumb Code    22  gt_dialog.o(.text)
    gt_dialog_set_outside_auto_hide          0x00044dc5   Thumb Code    34  gt_dialog.o(.text)
    gt_dialog_set_anim_time                  0x00044de9   Thumb Code    20  gt_dialog.o(.text)
    gt_dialog_set_title_font_color           0x00044dfd   Thumb Code    34  gt_dialog.o(.text)
    gt_dialog_set_title_font_size            0x00044e21   Thumb Code    34  gt_dialog.o(.text)
    gt_dialog_set_title_font_align           0x00044e45   Thumb Code    34  gt_dialog.o(.text)
    gt_dialog_set_title_font_family_cn       0x00044e69   Thumb Code    34  gt_dialog.o(.text)
    gt_dialog_set_title_font_family_en       0x00044e8d   Thumb Code    34  gt_dialog.o(.text)
    gt_dialog_set_title_font_family_fl       0x00044eb1   Thumb Code    34  gt_dialog.o(.text)
    gt_dialog_set_title_font_thick_en        0x00044ed5   Thumb Code    34  gt_dialog.o(.text)
    gt_dialog_set_title_font_thick_cn        0x00044ef9   Thumb Code    34  gt_dialog.o(.text)
    gt_dialog_set_content_font_color         0x00044f1d   Thumb Code    34  gt_dialog.o(.text)
    gt_dialog_set_content_font_size          0x00044f41   Thumb Code    34  gt_dialog.o(.text)
    gt_dialog_set_content_font_align         0x00044f65   Thumb Code    34  gt_dialog.o(.text)
    gt_dialog_set_content_font_family_cn     0x00044f89   Thumb Code    34  gt_dialog.o(.text)
    gt_dialog_set_content_font_family_en     0x00044fad   Thumb Code    34  gt_dialog.o(.text)
    gt_dialog_set_content_font_family_fl     0x00044fd1   Thumb Code    34  gt_dialog.o(.text)
    gt_dialog_set_content_font_thick_en      0x00044ff5   Thumb Code    34  gt_dialog.o(.text)
    gt_dialog_set_content_font_thick_cn      0x00045019   Thumb Code    34  gt_dialog.o(.text)
    gt_img_create                            0x000451e9   Thumb Code    14  gt_img.o(.text)
    gt_img_set_src                           0x000451f9   Thumb Code   136  gt_img.o(.text)
    gt_img_set_raw_data                      0x00045281   Thumb Code   142  gt_img.o(.text)
    gt_img_get_src                           0x00045311   Thumb Code    20  gt_img.o(.text)
    gt_img_get_width                         0x00045325   Thumb Code    50  gt_img.o(.text)
    gt_img_get_height                        0x00045359   Thumb Code    54  gt_img.o(.text)
    gt_imgbtn_create                         0x00045525   Thumb Code    62  gt_imgbtn.o(.text)
    gt_imgbtn_style_set_selected             0x00045599   Thumb Code    52  gt_imgbtn.o(.text)
    gt_imgbtn_set_src                        0x000455cd   Thumb Code   130  gt_imgbtn.o(.text)
    gt_imgbtn_set_src_press                  0x00045651   Thumb Code   110  gt_imgbtn.o(.text)
    gt_imgbtn_set_src_release                0x000456c1   Thumb Code   110  gt_imgbtn.o(.text)
    gt_imgbtn_add_state_item                 0x00045731   Thumb Code   130  gt_imgbtn.o(.text)
    gt_imgbtn_remove_state_item              0x000457b5   Thumb Code    58  gt_imgbtn.o(.text)
    gt_imgbtn_clear_all_state_item           0x000457f1   Thumb Code    28  gt_imgbtn.o(.text)
    bt_imgbtn_get_state_item_index           0x0004580d   Thumb Code    30  gt_imgbtn.o(.text)
    gt_label_create                          0x00045a15   Thumb Code    84  gt_label.o(.text)
    gt_label_set_text                        0x00045a71   Thumb Code   224  gt_label.o(.text)
    gt_label_set_text_by_len                 0x00045b51   Thumb Code   280  gt_label.o(.text)
    gt_label_get_text                        0x00045c69   Thumb Code    20  gt_label.o(.text)
    gt_label_set_font_color                  0x00045c7d   Thumb Code    34  gt_label.o(.text)
    gt_label_set_font_size                   0x00045ca1   Thumb Code    68  gt_label.o(.text)
    gt_label_set_font_gray                   0x00045ce5   Thumb Code    22  gt_label.o(.text)
    gt_label_set_font_align                  0x00045cfd   Thumb Code    36  gt_label.o(.text)
    gt_label_set_font_family_cn              0x00045d21   Thumb Code    22  gt_label.o(.text)
    gt_label_set_font_family_en              0x00045d39   Thumb Code    22  gt_label.o(.text)
    gt_label_set_font_family_fl              0x00045d51   Thumb Code    22  gt_label.o(.text)
    gt_label_set_font_thick_en               0x00045d69   Thumb Code    22  gt_label.o(.text)
    gt_label_set_font_thick_cn               0x00045d81   Thumb Code    22  gt_label.o(.text)
    gt_label_set_font_encoding               0x00045d99   Thumb Code    22  gt_label.o(.text)
    gt_label_set_font_family_numb            0x00045db1   Thumb Code    22  gt_label.o(.text)
    gt_label_set_space                       0x00045dc9   Thumb Code    74  gt_label.o(.text)
    gt_label_get_font_size                   0x00045e15   Thumb Code    22  gt_label.o(.text)
    gt_label_get_space_x                     0x00045e2d   Thumb Code    22  gt_label.o(.text)
    gt_label_get_space_y                     0x00045e45   Thumb Code    22  gt_label.o(.text)
    gt_label_get_longest_line_substring_width 0x00045e5d   Thumb Code    36  gt_label.o(.text)
    gt_label_set_single_line                 0x00045e81   Thumb Code   102  gt_label.o(.text)
    gt_label_set_omit_single_line            0x00045ee9   Thumb Code    90  gt_label.o(.text)
    gt_label_set_auto_scroll_single_line     0x00045f45   Thumb Code   292  gt_label.o(.text)
    gt_label_set_font_style                  0x00046069   Thumb Code    52  gt_label.o(.text)
    gt_label_is_single_line                  0x0004609d   Thumb Code    26  gt_label.o(.text)
    gt_label_is_omit_single_line             0x000460b9   Thumb Code    26  gt_label.o(.text)
    gt_label_is_auto_scroll_single_line      0x000460d5   Thumb Code    44  gt_label.o(.text)
    _gt_obj_destroy_handler_cb               0x00046119   Thumb Code   156  gt_obj.o(.text)
    gt_obj_create                            0x000461d1   Thumb Code    28  gt_obj.o(.text)
    gt_obj_get_parent                        0x000461ed   Thumb Code    68  gt_obj.o(.text)
    gt_obj_change_parent                     0x00046245   Thumb Code     4  gt_obj.o(.text)
    gt_obj_find_by_id                        0x00046249   Thumb Code    74  gt_obj.o(.text)
    gt_obj_register_id                       0x000462d1   Thumb Code    64  gt_obj.o(.text)
    gt_obj_get_id                            0x00046325   Thumb Code    14  gt_obj.o(.text)
    gt_obj_is_child                          0x00046335   Thumb Code   112  gt_obj.o(.text)
    gt_obj_destroy                           0x000463b5   Thumb Code    58  gt_obj.o(.text)
    gt_screen_set_bgcolor                    0x000463f1   Thumb Code    22  gt_obj.o(.text)
    gt_screen_get_bgcolor                    0x00046409   Thumb Code    22  gt_obj.o(.text)
    gt_obj_set_bgcolor                       0x00046421   Thumb Code    20  gt_obj.o(.text)
    gt_obj_get_bgcolor                       0x00046435   Thumb Code    20  gt_obj.o(.text)
    gt_obj_get_limit_bottom                  0x00046449   Thumb Code   380  gt_obj.o(.text)
    gt_obj_get_childs_max_height             0x000465dd   Thumb Code   310  gt_obj.o(.text)
    gt_obj_show_bg                           0x00046715   Thumb Code    36  gt_obj.o(.text)
    gt_obj_is_show_bg                        0x00046739   Thumb Code    26  gt_obj.o(.text)
    gt_obj_class_create                      0x00046add   Thumb Code   394  gt_obj_class.o(.text)
    _gt_obj_class_inherent_attr_from_parent  0x00046c69   Thumb Code    48  gt_obj_class.o(.text)
    _gt_obj_class_change_parent              0x00046c99   Thumb Code   332  gt_obj_class.o(.text)
    _gt_obj_class_destroy                    0x00046de5   Thumb Code   452  gt_obj_class.o(.text)
    _gt_obj_class_destroy_children           0x000470e1   Thumb Code    44  gt_obj_class.o(.text)
    gt_obj_class_get_type                    0x0004710d   Thumb Code    18  gt_obj_class.o(.text)
    gt_obj_is_type                           0x00047121   Thumb Code    44  gt_obj_class.o(.text)
    gt_player_create                         0x00047279   Thumb Code    70  gt_player.o(.text)
    gt_player_set_type                       0x00047345   Thumb Code    38  gt_player.o(.text)
    gt_player_set_mode                       0x0004736d   Thumb Code    44  gt_player.o(.text)
    gt_player_set_auto_play_period           0x00047399   Thumb Code   114  gt_player.o(.text)
    gt_player_remove_item                    0x0004740d   Thumb Code   152  gt_player.o(.text)
    gt_player_remove_all_items               0x00047579   Thumb Code   208  gt_player.o(.text)
    gt_player_remove_item_by_index           0x00047649   Thumb Code    20  gt_player.o(.text)
    gt_player_add_item                       0x0004765d   Thumb Code   340  gt_player.o(.text)
    gt_player_set_index                      0x00047815   Thumb Code    54  gt_player.o(.text)
    gt_player_get_index                      0x0004784d   Thumb Code    24  gt_player.o(.text)
    gt_player_get_item_count                 0x00047865   Thumb Code    20  gt_player.o(.text)
    gt_player_get_percentage                 0x00047879   Thumb Code    76  gt_player.o(.text)
    gt_player_turn_prev                      0x000478c5   Thumb Code    32  gt_player.o(.text)
    gt_player_turn_next                      0x000478e5   Thumb Code    32  gt_player.o(.text)
    gt_player_play                           0x00047905   Thumb Code   100  gt_player.o(.text)
    gt_player_stop                           0x00047969   Thumb Code    66  gt_player.o(.text)
    gt_player_toggle                         0x000479ad   Thumb Code   104  gt_player.o(.text)
    gt_player_dir_toggle                     0x00047a15   Thumb Code    46  gt_player.o(.text)
    gt_player_set_repeat_count               0x00047a45   Thumb Code    20  gt_player.o(.text)
    gt_player_dir_is_forward                 0x00047a59   Thumb Code    34  gt_player.o(.text)
    gt_player_set_real_time_update           0x00047a7d   Thumb Code    36  gt_player.o(.text)
    gt_player_is_real_time_update            0x00047aa1   Thumb Code    26  gt_player.o(.text)
    Refresh_New_Page                         0x00047d01   Thumb Code   162  gt_init_screen_home.o(.text)
    send_pack                                0x00047da5   Thumb Code   108  gt_init_screen_home.o(.text)
    gt_init_screen_home                      0x00047e11   Thumb Code  1916  gt_init_screen_home.o(.text)
    gt_ui_init                               0x000486e1   Thumb Code    36  gt_ui.o(.text)
    GT_Font_Init                             0x00048705   Thumb Code   322  gt_gui_driver.o(.text)
    GT_Set_Chinese_Charset_Type              0x00048961   Thumb Code    12  gt_gui_driver.o(.text)
    GT_Get_Chinese_Charset_Type              0x0004896d   Thumb Code    12  gt_gui_driver.o(.text)
    GT_GetChinese                            0x00048979   Thumb Code    80  gt_gui_driver.o(.text)
    UnicodeToGBK                             0x000489c9   Thumb Code   172  gt_gui_driver.o(.text)
    GBKToUnicode                             0x00048acd   Thumb Code   282  gt_gui_driver.o(.text)
    GT_Get_Font_Width                        0x00048be9   Thumb Code    10  gt_gui_driver.o(.text)
    GT_Get_Font_Height                       0x00048bf5   Thumb Code    10  gt_gui_driver.o(.text)
    GT_Check_Is_Vec                          0x00048c01   Thumb Code     4  gt_gui_driver.o(.text)
    GT_Get_Font_Func_S                       0x00048c05   Thumb Code    44  gt_gui_driver.o(.text)
    GT_Get_Font_Type                         0x00048c31   Thumb Code    16  gt_gui_driver.o(.text)
    GT_Font_Code_Transform                   0x00048c41   Thumb Code    24  gt_gui_driver.o(.text)
    GT_Get_Font_Convertor_Data               0x00048c59   Thumb Code    24  gt_gui_driver.o(.text)
    tolower                                  0x00049417   Thumb Code    12  tolower.o(.text)
    ___aeabi_memcpy8$move                    0x00049423   Thumb Code     0  memmovea.o(.text)
    __aeabi_memcpy                           0x00049423   Thumb Code    64  memmovea.o(.text)
    __aeabi_memcpy4                          0x00049423   Thumb Code     0  memmovea.o(.text)
    __aeabi_memmove                          0x00049423   Thumb Code     0  memmovea.o(.text)
    __aeabi_memmove4                         0x00049423   Thumb Code     0  memmovea.o(.text)
    __aeabi_memmove8                         0x00049423   Thumb Code     0  memmovea.o(.text)
    __aeabi_memset                           0x00049463   Thumb Code    14  memseta.o(.text)
    __aeabi_memset4                          0x00049463   Thumb Code     0  memseta.o(.text)
    __aeabi_memset8                          0x00049463   Thumb Code     0  memseta.o(.text)
    __aeabi_memclr                           0x00049471   Thumb Code     4  memseta.o(.text)
    __aeabi_memclr4                          0x00049471   Thumb Code     0  memseta.o(.text)
    __aeabi_memclr8                          0x00049471   Thumb Code     0  memseta.o(.text)
    _memset$wrapper                          0x00049475   Thumb Code    18  memseta.o(.text)
    strlen                                   0x00049487   Thumb Code    14  strlen.o(.text)
    strcmp                                   0x00049495   Thumb Code    28  strcmp.o(.text)
    memcmp                                   0x000494b1   Thumb Code    26  memcmp.o(.text)
    strcpy                                   0x000494cb   Thumb Code    18  strcpy.o(.text)
    __aeabi_fmul                             0x000494dd   Thumb Code   100  fmul.o(.text)
    __aeabi_fdiv                             0x00049541   Thumb Code   124  fdiv.o(.text)
    __aeabi_dadd                             0x000495bd   Thumb Code   322  dadd.o(.text)
    __aeabi_dsub                             0x000496ff   Thumb Code     6  dadd.o(.text)
    __aeabi_drsub                            0x00049705   Thumb Code     6  dadd.o(.text)
    __aeabi_dmul                             0x0004970b   Thumb Code   228  dmul.o(.text)
    __aeabi_ddiv                             0x000497ef   Thumb Code   222  ddiv.o(.text)
    __aeabi_ui2f                             0x000498cd   Thumb Code    10  ffltui.o(.text)
    __aeabi_i2d                              0x000498d7   Thumb Code    34  dflti.o(.text)
    __aeabi_ui2d                             0x000498f9   Thumb Code    26  dfltui.o(.text)
    __aeabi_f2d                              0x00049913   Thumb Code    38  f2d.o(.text)
    __aeabi_d2f                              0x00049939   Thumb Code    56  d2f.o(.text)
    __aeabi_uidiv                            0x00049971   Thumb Code     0  uidiv.o(.text)
    __aeabi_uidivmod                         0x00049971   Thumb Code    44  uidiv.o(.text)
    __aeabi_uldivmod                         0x0004999d   Thumb Code    98  uldiv.o(.text)
    __aeabi_llsl                             0x000499ff   Thumb Code    30  llshl.o(.text)
    _ll_shift_l                              0x000499ff   Thumb Code     0  llshl.o(.text)
    __aeabi_llsr                             0x00049a1d   Thumb Code    32  llushr.o(.text)
    _ll_ushift_r                             0x00049a1d   Thumb Code     0  llushr.o(.text)
    __aeabi_lasr                             0x00049a3d   Thumb Code    36  llsshr.o(.text)
    _ll_sshift_r                             0x00049a3d   Thumb Code     0  llsshr.o(.text)
    __I$use$fp                               0x00049a61   Thumb Code     0  iusefp.o(.text)
    _float_round                             0x00049a61   Thumb Code    18  fepilogue.o(.text)
    _float_epilogue                          0x00049a73   Thumb Code    92  fepilogue.o(.text)
    _double_round                            0x00049acf   Thumb Code    30  depilogue.o(.text)
    _double_epilogue                         0x00049aed   Thumb Code   156  depilogue.o(.text)
    __aeabi_d2ulz                            0x00049b89   Thumb Code    48  dfixul.o(.text)
    __aeabi_cdrcmple                         0x00049bb9   Thumb Code    48  cdrcmple.o(.text)
    __scatterload                            0x00049be9   Thumb Code    28  init.o(.text)
    __scatterload_rt2                        0x00049be9   Thumb Code     0  init.o(.text)
    __0printf                                0x00049c0d   Thumb Code    22  printfa.o(i.__0printf)
    __1printf                                0x00049c0d   Thumb Code     0  printfa.o(i.__0printf)
    __2printf                                0x00049c0d   Thumb Code     0  printfa.o(i.__0printf)
    __c89printf                              0x00049c0d   Thumb Code     0  printfa.o(i.__0printf)
    printf                                   0x00049c0d   Thumb Code     0  printfa.o(i.__0printf)
    __0vsnprintf                             0x00049c2d   Thumb Code    46  printfa.o(i.__0vsnprintf)
    __1vsnprintf                             0x00049c2d   Thumb Code     0  printfa.o(i.__0vsnprintf)
    __2vsnprintf                             0x00049c2d   Thumb Code     0  printfa.o(i.__0vsnprintf)
    __c89vsnprintf                           0x00049c2d   Thumb Code     0  printfa.o(i.__0vsnprintf)
    vsnprintf                                0x00049c2d   Thumb Code     0  printfa.o(i.__0vsnprintf)
    __scatterload_copy                       0x00049c61   Thumb Code    14  handlers.o(i.__scatterload_copy)
    __scatterload_null                       0x00049c6f   Thumb Code     2  handlers.o(i.__scatterload_null)
    __scatterload_zeroinit                   0x00049c71   Thumb Code    14  handlers.o(i.__scatterload_zeroinit)
    puts                                     0x0004a549   Thumb Code    30  puts.o(i.puts)
    gt_btn_class                             0x0004c1b0   Data          16  gt_btn.o(.rodata.gt_btn_class)
    gt_dialog_class                          0x0004c1c0   Data          16  gt_dialog.o(.rodata.gt_dialog_class)
    gt_get_font_func                         0x0004c1d0   Data          12  gt_gui_driver.o(.rodata.gt_get_font_func)
    gt_img_class                             0x0004c1dc   Data          16  gt_img.o(.rodata.gt_img_class)
    gt_imgbtn_class                          0x0004c1ec   Data          16  gt_imgbtn.o(.rodata.gt_imgbtn_class)
    gt_label_class                           0x0004c1fc   Data          16  gt_label.o(.rodata.gt_label_class)
    gt_player_class                          0x0004c22c   Data          16  gt_player.o(.rodata.gt_player_class)
    Region$$Table$$Base                      0x000535c4   Number         0  anon$$obj.o(Region$$Table)
    Region$$Table$$Limit                     0x000535e4   Number         0  anon$$obj.o(Region$$Table)
    __stdout                                 0x20000000   Data           4  stdout.o(.data)
    SystemCoreClock                          0x20000004   Data           4  system_swm341.o(.data..L_MergedGlobals)
    CyclesPerUs                              0x20000008   Data           4  system_swm341.o(.data..L_MergedGlobals)
    _LCD_Buffer                              0x2000004c   Data           4  bsp_lcd_rgb.o(.data._LCD_Buffer)
    _gt_global_call                          0x20000054   Data          60  gt_gc.o(.data._gt_global_call)
    uart_status                              0x20000099   Data           1  bsp_uart.o(.bss..L_MergedGlobals)
    UART_BUF                                 0x200000a4   Data          20  bsp_uart.o(.bss..L_MergedGlobals)
    screen_home                              0x2000012c   Data           4  gt_init_screen_home.o(.bss..L_MergedGlobals)
    Boot_Video_Flag                          0x20000188   Data           1  dev_touch.o(.bss.Boot_Video_Flag)
    POINT_COLOR                              0x2000018c   Data           4  bsp_lcd_rgb.o(.bss.POINT_COLOR)
    TP_Dev                                   0x20000194   Data          22  dev_touch.o(.bss.TP_Dev)
    update_sreen_status                      0x2000c1cc   Data           1  gt_init_screen_home.o(.bss.update_sreen_status)
    __initial_sp                             0x2000d1d0   Data           0  startup_swm341.o(STACK)



==============================================================================

Memory Map of the image

  Image Entry point : 0x000201a9

  Load Region LR_IROM1 (Base: 0x00020000, Size: 0x00033680, Max: 0x00080000, ABSOLUTE)

    Execution Region ER_IROM1 (Exec base: 0x00020000, Load base: 0x00020000, Size: 0x000335e4, Max: 0x00080000, ABSOLUTE)

    Exec Addr    Load Addr    Size         Type   Attr      Idx    E Section Name        Object

    0x00020000   0x00020000   0x000001a8   Data   RO          115    RESET               startup_swm341.o
    0x000201a8   0x000201a8   0x00000000   Code   RO         1287  * .ARM.Collect$$$$00000000  mc_w.l(entry.o)
    0x000201a8   0x000201a8   0x00000004   Code   RO         1607    .ARM.Collect$$$$00000001  mc_w.l(entry2.o)
    0x000201ac   0x000201ac   0x00000004   Code   RO         1610    .ARM.Collect$$$$00000004  mc_w.l(entry5.o)
    0x000201b0   0x000201b0   0x00000000   Code   RO         1612    .ARM.Collect$$$$00000008  mc_w.l(entry7b.o)
    0x000201b0   0x000201b0   0x00000000   Code   RO         1614    .ARM.Collect$$$$0000000A  mc_w.l(entry8b.o)
    0x000201b0   0x000201b0   0x00000008   Code   RO         1615    .ARM.Collect$$$$0000000B  mc_w.l(entry9a.o)
    0x000201b8   0x000201b8   0x00000000   Code   RO         1617    .ARM.Collect$$$$0000000D  mc_w.l(entry10a.o)
    0x000201b8   0x000201b8   0x00000000   Code   RO         1619    .ARM.Collect$$$$0000000F  mc_w.l(entry11a.o)
    0x000201b8   0x000201b8   0x00000004   Code   RO         1608    .ARM.Collect$$$$00002712  mc_w.l(entry2.o)
    0x000201bc   0x000201bc   0x0000029c   Code   RO            1    .text               main.o
    0x00020458   0x00020458   0x000005d4   Code   RO           11    .text               bsp_lcd_rgb.o
    0x00020a2c   0x00020a2c   0x000005d0   Code   RO           31    .text               bsp_sfc.o
    0x00020ffc   0x00020ffc   0x000002ae   Code   RO           41    .text               bsp_uart.o
    0x000212aa   0x000212aa   0x00000002   PAD
    0x000212ac   0x000212ac   0x00000102   Code   RO           72    .text               dev_systick.o
    0x000213ae   0x000213ae   0x00000002   PAD
    0x000213b0   0x000213b0   0x0000007c   Code   RO           82    .text               dev_touch.o
    0x0002142c   0x0002142c   0x00000630   Code   RO           92    .text               gt911.o
    0x00021a5c   0x00021a5c   0x000010f6   Code   RO          103    .text               system_swm341.o
    0x00022b52   0x00022b52   0x00000002   PAD
    0x00022b54   0x00022b54   0x000000d8   Code   RO          116    .text               startup_swm341.o
    0x00022c2c   0x00022c2c   0x0000009e   Code   RO          190    .text               swm341_exti.o
    0x00022cca   0x00022cca   0x00000002   PAD
    0x00022ccc   0x00022ccc   0x0000013e   Code   RO          199    .text               swm341_flash.o
    0x00022e0a   0x00022e0a   0x00000002   PAD
    0x00022e0c   0x00022e0c   0x00000298   Code   RO          211    .text               swm341_gpio.o
    0x000230a4   0x000230a4   0x0000030a   Code   RO          219    .text               swm341_i2c.o
    0x000233ae   0x000233ae   0x00000002   PAD
