Component: ARM Compiler 6.15 Tool: armlink [5dd79300]

==============================================================================

Section Cross References

    main.o(.text) refers to swm341_timr.o(.text) for TIMR_INTClr
    main.o(.text) refers to gt_hal_tick.o(.text) for gt_tick_inc
    main.o(.text) refers to memmovea.o(.text) for __aeabi_memcpy4
    main.o(.text) refers to bsp_lcd_rgb.o(.data._LCD_Buffer) for _LCD_Buffer
    main.o(.text) refers to dev_xpt2046.o(.text) for TP_Scan
    main.o(.text) refers to dev_xpt2046.o(.data.tp_dev) for tp_dev
    main.o(.text) refers to system_swm341.o(.text) for SystemInit
    main.o(.text) refers to bsp_uart.o(.text) for bsp_uart0_init
    main.o(.text) refers to bsp_sfc.o(.text) for bsp_sfc_config
    main.o(.text) refers to bsp_lcd_rgb.o(.text) for bsp_lcd_rgb_init
    main.o(.text) refers to dev_systick.o(.text) for systick_init
    main.o(.text) refers to system_swm341.o(.data.CyclesPerUs) for CyclesPerUs
    main.o(.text) refers to gt_gui_driver.o(.text) for GT_Font_Init
    main.o(.text) refers to gt_handler.o(.text) for gt_init
    main.o(.text) refers to gt_ui.o(.text) for gt_ui_init
    main.o(.text) refers to bsp_uart.o(.bss.uart_status) for uart_status
    main.o(.text) refers to gt_init_screen_home.o(.bss.update_sreen_status) for update_sreen_status
    main.o(.text) refers to bsp_uart.o(.bss.UART_BUF) for UART_BUF
==============================================================================

Removing Unused input sections from the image.

    Removing main.o(.ARM.exidx), (56 bytes).
    Removing main.o(.ARM.use_no_argv), (4 bytes).
    Removing bsp_lcd_rgb.o(.ARM.exidx), (40 bytes).
    Removing bsp_lcd_rgb.o(.bss.BACK_COLOR), (4 bytes).
    Removing bsp_led.o(.text), (82 bytes).
    Removing bsp_led.o(.ARM.exidx), (32 bytes).
    Removing bsp_sfc.o(.ARM.exidx), (64 bytes).
    Removing bsp_uart.o(.ARM.exidx), (48 bytes).
    Removing dev_systick.o(.ARM.exidx), (56 bytes).
    Removing dev_touch.o(.ARM.exidx), (24 bytes).
    Removing dev_xpt2046.o(.ARM.exidx), (88 bytes).
    Removing lcd_show.o(.ARM.exidx), (80 bytes).
    Removing tp_gt911.o(.ARM.exidx), (32 bytes).
    Removing ugui.o(.ARM.exidx), (1352 bytes).
    Removing ugui.o(.rodata.font_4x6), (1536 bytes).
    Removing ugui.o(.rodata.font_12x20), (10240 bytes).
    Removing ugui.o(.rodata.FONT_4X6), (20 bytes).
    Removing ugui.o(.rodata.FONT_12X20), (20 bytes).
==============================================================================

Image Symbol Table

    Local Symbols

    Symbol Name                              Value     Ov Type        Size  Object(Section)

    ../clib/../cmprslib/zerorunl2.c          0x00000000   Number         0  __dczerorl2.o ABSOLUTE
    ../clib/division.s                       0x00000000   Number         0  aeabi_sdiv.o ABSOLUTE
    ../clib/microlib/ctype/tolower.c         0x00000000   Number         0  tolower.o ABSOLUTE
    ../clib/microlib/division.c              0x00000000   Number         0  uidiv.o ABSOLUTE
    ../clib/microlib/division.c              0x00000000   Number         0  uldiv.o ABSOLUTE
    ../clib/microlib/errno.c                 0x00000000   Number         0  errno.o ABSOLUTE
    ../clib/microlib/init/entry.s            0x00000000   Number         0  entry.o ABSOLUTE
    ../clib/microlib/init/entry.s            0x00000000   Number         0  entry2.o ABSOLUTE
    ../clib/microlib/init/entry.s            0x00000000   Number         0  entry5.o ABSOLUTE
    ../clib/microlib/init/entry.s            0x00000000   Number         0  entry7a.o ABSOLUTE
    ../clib/microlib/init/entry.s            0x00000000   Number         0  entry7b.o ABSOLUTE
    ../clib/microlib/init/entry.s            0x00000000   Number         0  entry8a.o ABSOLUTE
    ../clib/microlib/init/entry.s            0x00000000   Number         0  entry8b.o ABSOLUTE
    ../clib/microlib/init/entry.s            0x00000000   Number         0  entry9a.o ABSOLUTE
    ../clib/microlib/init/entry.s            0x00000000   Number         0  entry9b.o ABSOLUTE
    ../clib/microlib/init/entry.s            0x00000000   Number         0  entry10a.o ABSOLUTE
    ../clib/microlib/init/entry.s            0x00000000   Number         0  entry10b.o ABSOLUTE
    ../clib/microlib/init/entry.s            0x00000000   Number         0  entry11a.o ABSOLUTE
    ../clib/microlib/init/entry.s            0x00000000   Number         0  entry11b.o ABSOLUTE
    ../clib/microlib/longlong.c              0x00000000   Number         0  llshl.o ABSOLUTE
    ../clib/microlib/longlong.c              0x00000000   Number         0  llushr.o ABSOLUTE
    ../clib/microlib/longlong.c              0x00000000   Number         0  llsshr.o ABSOLUTE
    ../clib/microlib/printf/printf.c         0x00000000   Number         0  printfb.o ABSOLUTE
    ../clib/microlib/printf/printf.c         0x00000000   Number         0  printf0.o ABSOLUTE
    ../clib/microlib/printf/printf.c         0x00000000   Number         0  printf1.o ABSOLUTE
    ../clib/microlib/printf/printf.c         0x00000000   Number         0  printf2.o ABSOLUTE
    ../clib/microlib/printf/printf.c         0x00000000   Number         0  printf3.o ABSOLUTE
    ../clib/microlib/printf/printf.c         0x00000000   Number         0  printf4.o ABSOLUTE
    ../clib/microlib/printf/printf.c         0x00000000   Number         0  printf5.o ABSOLUTE
    ../clib/microlib/printf/printf.c         0x00000000   Number         0  printf6.o ABSOLUTE
    ../clib/microlib/printf/printf.c         0x00000000   Number         0  printf7.o ABSOLUTE
    ../clib/microlib/printf/printf.c         0x00000000   Number         0  printf8.o ABSOLUTE
    ../clib/microlib/printf/printf.c         0x00000000   Number         0  printfa.o ABSOLUTE
    ../clib/microlib/printf/stubs.s          0x00000000   Number         0  printfstubs.o ABSOLUTE
    ../clib/microlib/stdio/puts.c            0x00000000   Number         0  puts.o ABSOLUTE
    ../clib/microlib/stdio/puts.c            0x00000000   Number         0  puts_e.o ABSOLUTE
    ../clib/microlib/stdio/streams.c         0x00000000   Number         0  stdout.o ABSOLUTE
    ../clib/microlib/string/memcmp.c         0x00000000   Number         0  memcmp.o ABSOLUTE
    ../clib/microlib/string/memcpy.c         0x00000000   Number         0  memcpya.o ABSOLUTE
    ../clib/microlib/string/memcpy.c         0x00000000   Number         0  memmovea.o ABSOLUTE
    ../clib/microlib/string/memcpy.c         0x00000000   Number         0  memcpyb.o ABSOLUTE
    ../clib/microlib/string/memcpy.c         0x00000000   Number         0  memmoveb.o ABSOLUTE
    ../clib/microlib/string/memset.c         0x00000000   Number         0  memseta.o ABSOLUTE
    ../clib/microlib/string/strcmp.c         0x00000000   Number         0  strcmp.o ABSOLUTE
    ../clib/microlib/string/strcpy.c         0x00000000   Number         0  strcpy.o ABSOLUTE
    ../clib/microlib/string/strlen.c         0x00000000   Number         0  strlen.o ABSOLUTE
    ../clib/microlib/string/strstr.c         0x00000000   Number         0  strstr.o ABSOLUTE
    ../clib/microlib/stubs.s                 0x00000000   Number         0  iusefp.o ABSOLUTE
    ../fplib/microlib/d2f.c                  0x00000000   Number         0  d2f.o ABSOLUTE
    ../fplib/microlib/f2d.c                  0x00000000   Number         0  f2d.o ABSOLUTE
    ../fplib/microlib/fpadd.c                0x00000000   Number         0  fadd.o ABSOLUTE
    ../fplib/microlib/fpadd.c                0x00000000   Number         0  dadd.o ABSOLUTE
    ../fplib/microlib/fpcmp.c                0x00000000   Number         0  fcmple.o ABSOLUTE
    ../fplib/microlib/fpcmp.c                0x00000000   Number         0  fcmpgt.o ABSOLUTE
    ../fplib/microlib/fpcmp.c                0x00000000   Number         0  dcmple.o ABSOLUTE
    ../fplib/microlib/fpcmp.c                0x00000000   Number         0  dcmplt.o ABSOLUTE
    ../fplib/microlib/fpcmp.c                0x00000000   Number         0  dcmpge.o ABSOLUTE
    ../fplib/microlib/fpdiv.c                0x00000000   Number         0  fdiv.o ABSOLUTE
    ../fplib/microlib/fpdiv.c                0x00000000   Number         0  ddiv.o ABSOLUTE
    ../fplib/microlib/fpepilogue.c           0x00000000   Number         0  fepilogue.o ABSOLUTE
    ../fplib/microlib/fpepilogue.c           0x00000000   Number         0  depilogue.o ABSOLUTE
    ../fplib/microlib/fpfix.c                0x00000000   Number         0  ffixi.o ABSOLUTE
    ../fplib/microlib/fpfix.c                0x00000000   Number         0  dfixi.o ABSOLUTE
    ../fplib/microlib/fpfix.c                0x00000000   Number         0  dfixul.o ABSOLUTE
    ../fplib/microlib/fpflt.c                0x00000000   Number         0  fflti.o ABSOLUTE
    ../fplib/microlib/fpflt.c                0x00000000   Number         0  ffltui.o ABSOLUTE
    ../fplib/microlib/fpflt.c                0x00000000   Number         0  dflti.o ABSOLUTE
    ../fplib/microlib/fpflt.c                0x00000000   Number         0  dfltui.o ABSOLUTE
    ../fplib/microlib/fpmul.c                0x00000000   Number         0  fmul.o ABSOLUTE
    ../fplib/microlib/fpmul.c                0x00000000   Number         0  dmul.o ABSOLUTE
    ../fplib/microlib/fpsqrt.c               0x00000000   Number         0  dsqrt.o ABSOLUTE
    ../mathlib/ceil.c                        0x00000000   Number         0  ceil.o ABSOLUTE
    ../mathlib/sqrt.c                        0x00000000   Number         0  sqrt.o ABSOLUTE
    CSL\CMSIS\DeviceSupport\startup\arm\startup_SWM341.s 0x00000000   Number         0  startup_swm341.o ABSOLUTE
    SWM341_adc.c                             0x00000000   Number         0  swm341_adc.o ABSOLUTE
    SWM341_can.c                             0x00000000   Number         0  swm341_can.o ABSOLUTE
    SWM341_cordic.c                          0x00000000   Number         0  swm341_cordic.o ABSOLUTE
    SWM341_crc.c                             0x00000000   Number         0  swm341_crc.o ABSOLUTE
    SWM341_dac.c                             0x00000000   Number         0  swm341_dac.o ABSOLUTE
    SWM341_div.c                             0x00000000   Number         0  swm341_div.o ABSOLUTE
    SWM341_dma.c                             0x00000000   Number         0  swm341_dma.o ABSOLUTE
    SWM341_dma2d.c                           0x00000000   Number         0  swm341_dma2d.o ABSOLUTE
    SWM341_exti.c                            0x00000000   Number         0  swm341_exti.o ABSOLUTE
    SWM341_flash.c                           0x00000000   Number         0  swm341_flash.o ABSOLUTE
    SWM341_gpio.c                            0x00000000   Number         0  swm341_gpio.o ABSOLUTE
    SWM341_i2c.c                             0x00000000   Number         0  swm341_i2c.o ABSOLUTE
    SWM341_iofilt.c                          0x00000000   Number         0  swm341_iofilt.o ABSOLUTE
    SWM341_jpeg.c                            0x00000000   Number         0  swm341_jpeg.o ABSOLUTE
    SWM341_lcd.c                             0x00000000   Number         0  swm341_lcd.o ABSOLUTE
    SWM341_port.c                            0x00000000   Number         0  swm341_port.o ABSOLUTE
    SWM341_pwm.c                             0x00000000   Number         0  swm341_pwm.o ABSOLUTE
    SWM341_qei.c                             0x00000000   Number         0  swm341_qei.o ABSOLUTE
    SWM341_rtc.c                             0x00000000   Number         0  swm341_rtc.o ABSOLUTE
    SWM341_sdio.c                            0x00000000   Number         0  swm341_sdio.o ABSOLUTE
    SWM341_sdram.c                           0x00000000   Number         0  swm341_sdram.o ABSOLUTE
    SWM341_sfc.c                             0x00000000   Number         0  swm341_sfc.o ABSOLUTE
    SWM341_sleep.c                           0x00000000   Number         0  swm341_sleep.o ABSOLUTE
    SWM341_spi.c                             0x00000000   Number         0  swm341_spi.o ABSOLUTE
    SWM341_timr.c                            0x00000000   Number         0  swm341_timr.o ABSOLUTE
    SWM341_uart.c                            0x00000000   Number         0  swm341_uart.o ABSOLUTE
    SWM341_usbd.c                            0x00000000   Number         0  swm341_usbd.o ABSOLUTE
    SWM341_usbh.c                            0x00000000   Number         0  swm341_usbh.o ABSOLUTE
    SWM341_wdt.c                             0x00000000   Number         0  swm341_wdt.o ABSOLUTE
    TP_GT911.c                               0x00000000   Number         0  tp_gt911.o ABSOLUTE
    bsp_lcd_rgb.c                            0x00000000   Number         0  bsp_lcd_rgb.o ABSOLUTE
    bsp_led.c                                0x00000000   Number         0  bsp_led.o ABSOLUTE
    bsp_sfc.c                                0x00000000   Number         0  bsp_sfc.o ABSOLUTE
    bsp_uart.c                               0x00000000   Number         0  bsp_uart.o ABSOLUTE
    cdrcmple.s                               0x00000000   Number         0  cdrcmple.o ABSOLUTE
    dc.s                                     0x00000000   Number         0  dc.o ABSOLUTE
    dev_systick.c                            0x00000000   Number         0  dev_systick.o ABSOLUTE
    dev_touch.c                              0x00000000   Number         0  dev_touch.o ABSOLUTE
    dev_xpt2046.c                            0x00000000   Number         0  dev_xpt2046.o ABSOLUTE
    gt_anim.c                                0x00000000   Number         0  gt_anim.o ABSOLUTE
    gt_area.c                                0x00000000   Number         0  gt_area.o ABSOLUTE
    gt_barcode.c                             0x00000000   Number         0  gt_barcode.o ABSOLUTE
    gt_btn.c                                 0x00000000   Number         0  gt_btn.o ABSOLUTE
    gt_checkbox.c                            0x00000000   Number         0  gt_checkbox.o ABSOLUTE
    gt_clock.c                               0x00000000   Number         0  gt_clock.o ABSOLUTE
    gt_color.c                               0x00000000   Number         0  gt_color.o ABSOLUTE
    gt_disp.c                                0x00000000   Number         0  gt_disp.o ABSOLUTE
    gt_draw.c                                0x00000000   Number         0  gt_draw.o ABSOLUTE
    gt_draw_blend.c                          0x00000000   Number         0  gt_draw_blend.o ABSOLUTE
    gt_effects.c                             0x00000000   Number         0  gt_effects.o ABSOLUTE
    gt_event.c                               0x00000000   Number         0  gt_event.o ABSOLUTE
    gt_extra.c                               0x00000000   Number         0  gt_extra.o ABSOLUTE
    gt_font.c                                0x00000000   Number         0  gt_font.o ABSOLUTE
    gt_fs.c                                  0x00000000   Number         0  gt_fs.o ABSOLUTE
    gt_gc.c                                  0x00000000   Number         0  gt_gc.o ABSOLUTE
    gt_graph_base.c                          0x00000000   Number         0  gt_graph_base.o ABSOLUTE
    gt_group.c                               0x00000000   Number         0  gt_group.o ABSOLUTE
    gt_gui_driver.c                          0x00000000   Number         0  gt_gui_driver.o ABSOLUTE
    gt_hal_disp.c                            0x00000000   Number         0  gt_hal_disp.o ABSOLUTE
    gt_hal_fs.c                              0x00000000   Number         0  gt_hal_fs.o ABSOLUTE
    gt_hal_indev.c                           0x00000000   Number         0  gt_hal_indev.o ABSOLUTE
    gt_hal_src.c                             0x00000000   Number         0  gt_hal_src.o ABSOLUTE
    gt_hal_tick.c                            0x00000000   Number         0  gt_hal_tick.o ABSOLUTE
    gt_hal_vf.c                              0x00000000   Number         0  gt_hal_vf.o ABSOLUTE
    gt_handler.c                             0x00000000   Number         0  gt_handler.o ABSOLUTE
    gt_img.c                                 0x00000000   Number         0  gt_img.o ABSOLUTE
    gt_img_decoder.c                         0x00000000   Number         0  gt_img_decoder.o ABSOLUTE
    gt_imgbtn.c                              0x00000000   Number         0  gt_imgbtn.o ABSOLUTE
    gt_indev.c                               0x00000000   Number         0  gt_indev.o ABSOLUTE
    gt_init_screen_home.c                    0x00000000   Number         0  gt_init_screen_home.o ABSOLUTE
    gt_input.c                               0x00000000   Number         0  gt_input.o ABSOLUTE
    gt_input_number.c                        0x00000000   Number         0  gt_input_number.o ABSOLUTE
    gt_keypad.c                              0x00000000   Number         0  gt_keypad.o ABSOLUTE
    gt_label.c                               0x00000000   Number         0  gt_label.o ABSOLUTE
    gt_line.c                                0x00000000   Number         0  gt_line.o ABSOLUTE
    gt_listview.c                            0x00000000   Number         0  gt_listview.o ABSOLUTE
    gt_ll.c                                  0x00000000   Number         0  gt_ll.o ABSOLUTE
    gt_math.c                                0x00000000   Number         0  gt_math.o ABSOLUTE
    gt_mem.c                                 0x00000000   Number         0  gt_mem.o ABSOLUTE
    gt_obj.c                                 0x00000000   Number         0  gt_obj.o ABSOLUTE
    gt_obj_class.c                           0x00000000   Number         0  gt_obj_class.o ABSOLUTE
    gt_obj_pos.c                             0x00000000   Number         0  gt_obj_pos.o ABSOLUTE
    gt_obj_scroll.c                          0x00000000   Number         0  gt_obj_scroll.o ABSOLUTE
    gt_option.c                              0x00000000   Number         0  gt_option.o ABSOLUTE
    gt_player.c                              0x00000000   Number         0  gt_player.o ABSOLUTE
    gt_png.c                                 0x00000000   Number         0  gt_png.o ABSOLUTE
    gt_port_disp.c                           0x00000000   Number         0  gt_port_disp.o ABSOLUTE
    gt_port_indev.c                          0x00000000   Number         0  gt_port_indev.o ABSOLUTE
    gt_port_src.c                            0x00000000   Number         0  gt_port_src.o ABSOLUTE
    gt_port_vf.c                             0x00000000   Number         0  gt_port_vf.o ABSOLUTE
    gt_progress_bar.c                        0x00000000   Number         0  gt_progress_bar.o ABSOLUTE
    gt_qrcode.c                              0x00000000   Number         0  gt_qrcode.o ABSOLUTE
    gt_radio.c                               0x00000000   Number         0  gt_radio.o ABSOLUTE
    gt_rect.c                                0x00000000   Number         0  gt_rect.o ABSOLUTE
    gt_refr.c                                0x00000000   Number         0  gt_refr.o ABSOLUTE
    gt_slider.c                              0x00000000   Number         0  gt_slider.o ABSOLUTE
    gt_style.c                               0x00000000   Number         0  gt_style.o ABSOLUTE
    gt_switch.c                              0x00000000   Number         0  gt_switch.o ABSOLUTE
    gt_symbol.c                              0x00000000   Number         0  gt_symbol.o ABSOLUTE
    gt_template.c                            0x00000000   Number         0  gt_template.o ABSOLUTE
    gt_textarea.c                            0x00000000   Number         0  gt_textarea.o ABSOLUTE
    gt_timer.c                               0x00000000   Number         0  gt_timer.o ABSOLUTE
    gt_tlsf.c                                0x00000000   Number         0  gt_tlsf.o ABSOLUTE
    gt_txt.c                                 0x00000000   Number         0  gt_txt.o ABSOLUTE
    gt_ui.c                                  0x00000000   Number         0  gt_ui.o ABSOLUTE
    gt_vector.c                              0x00000000   Number         0  gt_vector.o ABSOLUTE
    handlers.s                               0x00000000   Number         0  handlers.o ABSOLUTE
    init.s                                   0x00000000   Number         0  init.o ABSOLUTE
    lcd_show.c                               0x00000000   Number         0  lcd_show.o ABSOLUTE
    lodepng.c                                0x00000000   Number         0  lodepng.o ABSOLUTE
    main.c                                   0x00000000   Number         0  main.o ABSOLUTE
    system_SWM341.c                          0x00000000   Number         0  system_swm341.o ABSOLUTE
    ugui.c                                   0x00000000   Number         0  ugui.o ABSOLUTE
    RESET                                    0x00020000   Section      424  startup_swm341.o(RESET)
    .ARM.Collect$$$$00000000                 0x000201a8   Section        0  entry.o(.ARM.Collect$$$$00000000)
    .ARM.Collect$$$$00000001                 0x000201a8   Section        4  entry2.o(.ARM.Collect$$$$00000001)
    .ARM.Collect$$$$00000004                 0x000201ac   Section        4  entry5.o(.ARM.Collect$$$$00000004)
    .ARM.Collect$$$$00000008                 0x000201b0   Section        0  entry7b.o(.ARM.Collect$$$$00000008)
    .ARM.Collect$$$$0000000A                 0x000201b0   Section        0  entry8b.o(.ARM.Collect$$$$0000000A)
    .ARM.Collect$$$$0000000B                 0x000201b0   Section        8  entry9a.o(.ARM.Collect$$$$0000000B)
    __lit__00000000                          0x000201b8   Data           4  entry2.o(.ARM.Collect$$$$00002712)
    .ARM.Collect$$$$0000000D                 0x000201b8   Section        0  entry10a.o(.ARM.Collect$$$$0000000D)
    .ARM.Collect$$$$0000000F                 0x000201b8   Section        0  entry11a.o(.ARM.Collect$$$$0000000F)
    .ARM.Collect$$$$00002712                 0x000201b8   Section        4  entry2.o(.ARM.Collect$$$$00002712)
    [Anonymous Symbol]                       0x000201bc   Section        0  main.o(.text)
    [Anonymous Symbol]                       0x00020404   Section        0  bsp_lcd_rgb.o(.text)
    [Anonymous Symbol]                       0x000209d4   Section        0  bsp_sfc.o(.text)
    [Anonymous Symbol]                       0x00020ec0   Section        0  bsp_uart.o(.text)
    [Anonymous Symbol]                       0x00021238   Section        0  dev_systick.o(.text)
    [Anonymous Symbol]                       0x0002133c   Section        0  dev_touch.o(.text)
    [Anonymous Symbol]                       0x000213d0   Section        0  dev_xpt2046.o(.text)
    [Anonymous Symbol]                       0x00021fec   Section        0  lcd_show.o(.text)
    [Anonymous Symbol]                       0x0002278c   Section        0  tp_gt911.o(.text)
    touch_read_regs                          0x00022819   Thumb Code   530  tp_gt911.o(.text)
    touch_write_regs                         0x00022a2d   Thumb Code   350  tp_gt911.o(.text)
    [Anonymous Symbol]                       0x00022ccc   Section        0  ugui.o(.text)
    [Anonymous Symbol]                       0x00027b84   Section        0  system_swm341.o(.text)
    .text                                    0x00028c80   Section      216  startup_swm341.o(.text)
    [Anonymous Symbol]                       0x00028d58   Section        0  swm341_exti.o(.text)
    [Anonymous Symbol]                       0x00028df4   Section        0  swm341_flash.o(.text)
    [Anonymous Symbol]                       0x00028f2c   Section        0  swm341_gpio.o(.text)
    [Anonymous Symbol]                       0x000291b8   Section        0  swm341_i2c.o(.text)
    [Anonymous Symbol]                       0x000294b4   Section        0  swm341_lcd.o(.text)
    [Anonymous Symbol]                       0x000297d0   Section        0  swm341_port.o(.text)
    [Anonymous Symbol]                       0x0002981c   Section        0  swm341_sdram.o(.text)
    [Anonymous Symbol]                       0x000299e8   Section        0  swm341_sfc.o(.text)
    [Anonymous Symbol]                       0x00029fb8   Section        0  swm341_timr.o(.text)
    [Anonymous Symbol]                       0x0002aabc   Section        0  swm341_uart.o(.text)
    [Anonymous Symbol]                       0x0002ae14   Section        0  swm341_wdt.o(.text)
    [Anonymous Symbol]                       0x0002aeb4   Section        0  gt_port_disp.o(.text)
    [Anonymous Symbol]                       0x0002aefc   Section        0  gt_port_indev.o(.text)
    [Anonymous Symbol]                       0x0002af48   Section        0  gt_port_src.o(.text)
    [Anonymous Symbol]                       0x0002af58   Section        0  gt_port_vf.o(.text)
    [Anonymous Symbol]                       0x0002af80   Section        0  gt_disp.o(.text)
    _gt_disp_check_and_copy_foreach          0x0002b195   Thumb Code    96  gt_disp.o(.text)
    [Anonymous Symbol]                       0x0002b314   Section        0  gt_draw.o(.text)
    _push_mask_buf                           0x0002d515   Thumb Code  1542  gt_draw.o(.text)
    [Anonymous Symbol]                       0x0002dd1c   Section        0  gt_event.o(.text)
    _gt_timer_event_cb                       0x0002dec5   Thumb Code    34  gt_event.o(.text)
    _gt_obj_foreach_event_cb                 0x0002df25   Thumb Code   290  gt_event.o(.text)
    [Anonymous Symbol]                       0x0002e048   Section        0  gt_fs.o(.text)
    [Anonymous Symbol]                       0x0002e2c0   Section        0  gt_graph_base.o(.text)
    [Anonymous Symbol]                       0x0002fe00   Section        0  gt_handler.o(.text)
    [Anonymous Symbol]                       0x0002fe58   Section        0  gt_img_decoder.o(.text)
    _gt_img_decoder_built_in_info            0x0002fef1   Thumb Code    54  gt_img_decoder.o(.text)
    _gt_img_decoder_built_in_open            0x0002ff2d   Thumb Code    54  gt_img_decoder.o(.text)
    _gt_img_decoder_built_in_read_line       0x0002ff69   Thumb Code    80  gt_img_decoder.o(.text)
    _gt_img_decoder_built_in_close           0x0002ffbd   Thumb Code    10  gt_img_decoder.o(.text)
    [Anonymous Symbol]                       0x000300e0   Section        0  gt_indev.o(.text)
    [Anonymous Symbol]                       0x000303d8   Section        0  gt_mem.o(.text)
    [Anonymous Symbol]                       0x00030588   Section        0  gt_obj_pos.o(.text)
    _gt_obj_foreach_clicked                  0x00030715   Thumb Code   128  gt_obj_pos.o(.text)
    [Anonymous Symbol]                       0x000307fc   Section        0  gt_refr.o(.text)
    [Anonymous Symbol]                       0x00030840   Section        0  gt_style.o(.text)
    [Anonymous Symbol]                       0x00030d60   Section        0  gt_timer.o(.text)
    [Anonymous Symbol]                       0x00030f54   Section        0  gt_extra.o(.text)
    [Anonymous Symbol]                       0x00030f58   Section        0  gt_draw_blend.o(.text)
    [Anonymous Symbol]                       0x00031528   Section        0  gt_png.o(.text)
    _gt_png_info                             0x00031571   Thumb Code   238  gt_png.o(.text)
    _gt_png_open                             0x00031661   Thumb Code   724  gt_png.o(.text)
    _gt_png_read_line                        0x00031935   Thumb Code    32  gt_png.o(.text)
    _gt_png_close                            0x00031955   Thumb Code    56  gt_png.o(.text)
    [Anonymous Symbol]                       0x0003198c   Section        0  lodepng.o(.text)
    lodepng_inflatev                         0x00031a81   Thumb Code  4748  lodepng.o(.text)
    lodepng_zlib_decompressv                 0x00032d39   Thumb Code   390  lodepng.o(.text)
    lodepng_add_text_sized                   0x00033b21   Thumb Code   266  lodepng.o(.text)
    LodePNGIText_cleanup                     0x00033c95   Thumb Code   156  lodepng.o(.text)
    lodepng_add_itext_sized                  0x00033d81   Thumb Code   542  lodepng.o(.text)
    color_tree_cleanup                       0x00036745   Thumb Code    50  lodepng.o(.text)
    readChunk_PLTE                           0x00037079   Thumb Code   352  lodepng.o(.text)
    readChunk_tEXt                           0x000371d9   Thumb Code   294  lodepng.o(.text)
    readChunk_zTXt                           0x00037301   Thumb Code   372  lodepng.o(.text)
    readChunk_iTXt                           0x00037475   Thumb Code   792  lodepng.o(.text)
    readChunk_cHRM                           0x0003778d   Thumb Code    82  lodepng.o(.text)
    readChunk_iCCP                           0x000377e1   Thumb Code   544  lodepng.o(.text)
    readChunk_sBIT                           0x00037a01   Thumb Code   298  lodepng.o(.text)
    HuffmanTree_makeFromLengths              0x000398e9   Thumb Code  2820  lodepng.o(.text)
    unfilter                                 0x0003a3ed   Thumb Code  3816  lodepng.o(.text)
    Adam7_getpassvalues                      0x0003b2d5   Thumb Code   722  lodepng.o(.text)
    [Anonymous Symbol]                       0x0003b5a8   Section        0  gt_font.o(.text)
    [Anonymous Symbol]                       0x0003c224   Section        0  gt_symbol.o(.text)
    [Anonymous Symbol]                       0x0003c290   Section        0  gt_hal_disp.o(.text)
    _gt_disp_task_handler                    0x0003c321   Thumb Code     4  gt_hal_disp.o(.text)
    [Anonymous Symbol]                       0x0003c5dc   Section        0  gt_hal_fs.o(.text)
    [Anonymous Symbol]                       0x0003c624   Section        0  gt_hal_indev.o(.text)
    _gt_indev_task_handler                   0x0003c6d9   Thumb Code     4  gt_hal_indev.o(.text)
    [Anonymous Symbol]                       0x0003c714   Section        0  gt_hal_src.o(.text)
    _open_cb                                 0x0003c7bd   Thumb Code   146  gt_hal_src.o(.text)
    _close_cb                                0x0003c851   Thumb Code    10  gt_hal_src.o(.text)
    _read_cb                                 0x0003c85d   Thumb Code    50  gt_hal_src.o(.text)
    _seek_cb                                 0x0003c891   Thumb Code    40  gt_hal_src.o(.text)
    _tell_cb                                 0x0003c8b9   Thumb Code     8  gt_hal_src.o(.text)
    [Anonymous Symbol]                       0x0003c8c0   Section        0  gt_hal_tick.o(.text)
    [Anonymous Symbol]                       0x0003c94c   Section        0  gt_hal_vf.o(.text)
    _open_cb                                 0x0003ca2d   Thumb Code   140  gt_hal_vf.o(.text)
    _close_cb                                0x0003cab9   Thumb Code    10  gt_hal_vf.o(.text)
    _read_cb                                 0x0003cac5   Thumb Code   128  gt_hal_vf.o(.text)
    _write_cb                                0x0003cb45   Thumb Code    46  gt_hal_vf.o(.text)
    _seek_cb                                 0x0003cb75   Thumb Code    44  gt_hal_vf.o(.text)
    _tell_cb                                 0x0003cba1   Thumb Code    14  gt_hal_vf.o(.text)
    [Anonymous Symbol]                       0x0003cbc4   Section        0  gt_anim.o(.text)
    _default_exec_cb                         0x0003cd49   Thumb Code    70  gt_anim.o(.text)
    _gt_anim_task_handler                    0x0003ceed   Thumb Code   472  gt_anim.o(.text)
    _gt_anim_path_linear                     0x0003d0c5   Thumb Code    44  gt_anim.o(.text)
    _gt_anim_path_ease_in                    0x0003d241   Thumb Code    54  gt_anim.o(.text)
    _gt_anim_path_ease_out                   0x0003d279   Thumb Code    58  gt_anim.o(.text)
    _gt_anim_path_ease_in_out                0x0003d2b5   Thumb Code    56  gt_anim.o(.text)
    _gt_anim_path_overshoot                  0x0003d2ed   Thumb Code    58  gt_anim.o(.text)
    _gt_anim_path_bounce                     0x0003d329   Thumb Code   254  gt_anim.o(.text)
    _gt_anim_path_step                       0x0003d429   Thumb Code    16  gt_anim.o(.text)
    [Anonymous Symbol]                       0x0003d438   Section        0  gt_area.o(.text)
    [Anonymous Symbol]                       0x0003d628   Section        0  gt_color.o(.text)
    [Anonymous Symbol]                       0x0003d6dc   Section        0  gt_effects.o(.text)
    [Anonymous Symbol]                       0x0003d99c   Section        0  gt_math.o(.text)
    [Anonymous Symbol]                       0x0003db18   Section        0  gt_tlsf.o(.text)
    default_walker                           0x0003dd3d   Thumb Code    80  gt_tlsf.o(.text)
    block_locate_free                        0x0003e0d9   Thumb Code   216  gt_tlsf.o(.text)
    block_prepare_used                       0x0003e1b1   Thumb Code   244  gt_tlsf.o(.text)
    [Anonymous Symbol]                       0x0003e828   Section        0  gt_vector.o(.text)
    _gt_vector_create                        0x0003e855   Thumb Code    60  gt_vector.o(.text)
    _default_free_cb                         0x0003ebb9   Thumb Code    20  gt_vector.o(.text)
    _default_equal_cb                        0x0003ebcd   Thumb Code    14  gt_vector.o(.text)
    _init_cb                                 0x0003ebdd   Thumb Code    70  gt_imgbtn.o(.text)
    [Anonymous Symbol]                       0x0003ebdc   Section        0  gt_imgbtn.o(.text)
    _deinit_cb                               0x0003ec25   Thumb Code   138  gt_imgbtn.o(.text)
    _event_cb                                0x0003ecb1   Thumb Code   178  gt_imgbtn.o(.text)
    _imgs_free_cb                            0x0003ef89   Thumb Code    20  gt_imgbtn.o(.text)
    _imgs_equal_cb                           0x0003ef9d   Thumb Code    14  gt_imgbtn.o(.text)
    _init_cb                                 0x0003efad   Thumb Code   116  gt_input_number.o(.text)
    [Anonymous Symbol]                       0x0003efac   Section        0  gt_input_number.o(.text)
    _deinit_cb                               0x0003f021   Thumb Code    64  gt_input_number.o(.text)
    _event_cb                                0x0003f061   Thumb Code    48  gt_input_number.o(.text)
    _init_cb                                 0x0003f311   Thumb Code   168  gt_label.o(.text)
    [Anonymous Symbol]                       0x0003f310   Section        0  gt_label.o(.text)
    _deinit_cb                               0x0003f3b9   Thumb Code    62  gt_label.o(.text)
    _event_cb                                0x0003f3f9   Thumb Code    68  gt_label.o(.text)
    _init_cb                                 0x0003f585   Thumb Code     2  gt_obj.o(.text)
    [Anonymous Symbol]                       0x0003f584   Section        0  gt_obj.o(.text)
    _deinit_cb                               0x0003f589   Thumb Code     2  gt_obj.o(.text)
    _event_cb                                0x0003f58d   Thumb Code    82  gt_obj.o(.text)
    [Anonymous Symbol]                       0x0003f67c   Section        0  gt_obj_class.o(.text)
    _gt_obj_class_destroy_children           0x0003f969   Thumb Code   282  gt_obj_class.o(.text)
    _init_cb                                 0x0003fa8d   Thumb Code    98  gt_rect.o(.text)
    [Anonymous Symbol]                       0x0003fa8c   Section        0  gt_rect.o(.text)
    _deinit_cb                               0x0003faf1   Thumb Code    64  gt_rect.o(.text)
    _event_cb                                0x0003fb31   Thumb Code    64  gt_rect.o(.text)
    _init_cb                                 0x0003fbed   Thumb Code   798  gt_slider.o(.text)
    [Anonymous Symbol]                       0x0003fbec   Section        0  gt_slider.o(.text)
    _deinit_cb                               0x0003ff0d   Thumb Code    66  gt_slider.o(.text)
    _event_cb                                0x0003ff51   Thumb Code   256  gt_slider.o(.text)
    _init_cb                                 0x0004023d   Thumb Code   208  gt_switch.o(.text)
    [Anonymous Symbol]                       0x0004023c   Section        0  gt_switch.o(.text)
    _deinit_cb                               0x0004030d   Thumb Code    68  gt_switch.o(.text)
    _event_cb                                0x00040351   Thumb Code    82  gt_switch.o(.text)
    [Anonymous Symbol]                       0x00040408   Section        0  gt_init_screen_home.o(.text)
    switch1_0_cb                             0x00040d31   Thumb Code     4  gt_init_screen_home.o(.text)
    imgbtn1_0_cb                             0x00040d35   Thumb Code    30  gt_init_screen_home.o(.text)
    imgbtn2_0_cb                             0x00040d55   Thumb Code    30  gt_init_screen_home.o(.text)
    imgbtn3_0_cb                             0x00040d75   Thumb Code    30  gt_init_screen_home.o(.text)
    imgbtn4_0_cb                             0x00040d95   Thumb Code    30  gt_init_screen_home.o(.text)
    imgbtn5_0_cb                             0x00040db5   Thumb Code    30  gt_init_screen_home.o(.text)
    imgbtn6_0_cb                             0x00040dd5   Thumb Code    30  gt_init_screen_home.o(.text)
    slider1_0_cb                             0x00040df5   Thumb Code    14  gt_init_screen_home.o(.text)
    [Anonymous Symbol]                       0x00040e04   Section        0  gt_ui.o(.text)
    [Anonymous Symbol]                       0x00040e08   Section        0  gt_gui_driver.o(.text)
    MD5Init                                  0x00040f61   Thumb Code    48  gt_gui_driver.o(.text)
    MD5Update                                0x00040f91   Thumb Code   146  gt_gui_driver.o(.text)
    MD5Final                                 0x00041025   Thumb Code    84  gt_gui_driver.o(.text)
    GB18030Offset                            0x0004120d   Thumb Code   416  gt_gui_driver.o(.text)
    ASCIIOffset                              0x000413ad   Thumb Code    12  gt_gui_driver.o(.text)
    MD5Transform                             0x00041609   Thumb Code  1876  gt_gui_driver.o(.text)
    MD5Decode                                0x00041d5d   Thumb Code    24  gt_gui_driver.o(.text)
    MD5Encode                                0x00041d75   Thumb Code    58  gt_gui_driver.o(.text)
    .text                                    0x00041dae   Section        0  tolower.o(.text)
    .text                                    0x00041dba   Section        0  memmovea.o(.text)
    .text                                    0x00041dfa   Section        0  memseta.o(.text)
    .text                                    0x00041e1e   Section        0  strstr.o(.text)
    .text                                    0x00041e42   Section        0  strlen.o(.text)
    .text                                    0x00041e50   Section        0  strcmp.o(.text)
    .text                                    0x00041e6c   Section        0  memcmp.o(.text)
    .text                                    0x00041e86   Section        0  strcpy.o(.text)
    .text                                    0x00041e98   Section        0  fadd.o(.text)
    .text                                    0x00041f48   Section        0  fmul.o(.text)
    .text                                    0x00041fac   Section        0  fdiv.o(.text)
    .text                                    0x00042028   Section        0  dadd.o(.text)
    .text                                    0x00042176   Section        0  dmul.o(.text)
    .text                                    0x0004225a   Section        0  ddiv.o(.text)
    .text                                    0x00042338   Section        0  fcmple.o(.text)
    .text                                    0x00042354   Section        0  fcmpgt.o(.text)
    .text                                    0x00042370   Section        0  dcmple.o(.text)
    .text                                    0x000423a6   Section        0  dcmplt.o(.text)
    .text                                    0x000423dc   Section        0  dcmpge.o(.text)
    .text                                    0x00042412   Section        0  fflti.o(.text)
    .text                                    0x00042424   Section        0  ffltui.o(.text)
    .text                                    0x0004242e   Section        0  dfltui.o(.text)
    .text                                    0x00042448   Section        0  ffixi.o(.text)
    .text                                    0x0004247a   Section        0  dfixi.o(.text)
    .text                                    0x000424b8   Section        0  f2d.o(.text)
    .text                                    0x000424de   Section        0  uidiv.o(.text)
    .text                                    0x0004250a   Section        0  uldiv.o(.text)
    .text                                    0x0004256c   Section        0  llshl.o(.text)
    .text                                    0x0004258a   Section        0  llushr.o(.text)
    .text                                    0x000425aa   Section        0  llsshr.o(.text)
    .text                                    0x000425ce   Section        0  iusefp.o(.text)
    .text                                    0x000425ce   Section        0  fepilogue.o(.text)
    .text                                    0x0004263c   Section        0  depilogue.o(.text)
    .text                                    0x000426f6   Section        0  dsqrt.o(.text)
    .text                                    0x00042798   Section        0  dfixul.o(.text)
    .text                                    0x000427c8   Section       48  cdrcmple.o(.text)
    .text                                    0x000427f8   Section       36  init.o(.text)
    .text                                    0x0004281c   Section        0  __dczerorl2.o(.text)
    i.__0printf                              0x00042874   Section        0  printfa.o(i.__0printf)
    i.__0sprintf                             0x00042894   Section        0  printfa.o(i.__0sprintf)
    i.__0vsnprintf                           0x000428bc   Section        0  printfa.o(i.__0vsnprintf)
    i.__scatterload_copy                     0x000428f0   Section       14  handlers.o(i.__scatterload_copy)
    i.__scatterload_null                     0x000428fe   Section        2  handlers.o(i.__scatterload_null)
    i.__scatterload_zeroinit                 0x00042900   Section       14  handlers.o(i.__scatterload_zeroinit)
    i.__set_errno                            0x00042910   Section        0  errno.o(i.__set_errno)
    _fp_digits                               0x0004291d   Thumb Code   366  printfa.o(i._fp_digits)
    i._fp_digits                             0x0004291c   Section        0  printfa.o(i._fp_digits)
    _printf_core                             0x00042aa1   Thumb Code  1744  printfa.o(i._printf_core)
    i._printf_core                           0x00042aa0   Section        0  printfa.o(i._printf_core)
    _printf_post_padding                     0x0004317d   Thumb Code    36  printfa.o(i._printf_post_padding)
    i._printf_post_padding                   0x0004317c   Section        0  printfa.o(i._printf_post_padding)
    _printf_pre_padding                      0x000431a1   Thumb Code    46  printfa.o(i._printf_pre_padding)
    i._printf_pre_padding                    0x000431a0   Section        0  printfa.o(i._printf_pre_padding)
    _snputc                                  0x000431cf   Thumb Code    22  printfa.o(i._snputc)
    i._snputc                                0x000431ce   Section        0  printfa.o(i._snputc)
    _sputc                                   0x000431e5   Thumb Code    10  printfa.o(i._sputc)
    i._sputc                                 0x000431e4   Section        0  printfa.o(i._sputc)
    i.puts                                   0x000431f0   Section        0  puts.o(i.puts)
    i.sqrt                                   0x00043214   Section        0  sqrt.o(i.sqrt)
    .Lswitch.table.lodepng_error_text        0x00043260   Data         464  lodepng.o(.rodata..Lswitch.table.lodepng_error_text)
    ADAM7_DX                                 0x00043430   Data          28  lodepng.o(.rodata.ADAM7_DX)
    [Anonymous Symbol]                       0x00043430   Section        0  lodepng.o(.rodata.ADAM7_DX)
    ADAM7_DY                                 0x0004344c   Data          28  lodepng.o(.rodata.ADAM7_DY)
    [Anonymous Symbol]                       0x0004344c   Section        0  lodepng.o(.rodata.ADAM7_DY)
    ADAM7_IX                                 0x00043468   Data          28  lodepng.o(.rodata.ADAM7_IX)
    [Anonymous Symbol]                       0x00043468   Section        0  lodepng.o(.rodata.ADAM7_IX)
    ADAM7_IY                                 0x00043484   Data          28  lodepng.o(.rodata.ADAM7_IY)
    [Anonymous Symbol]                       0x00043484   Section        0  lodepng.o(.rodata.ADAM7_IY)
    CLCL_ORDER                               0x000434a0   Data          76  lodepng.o(.rodata.CLCL_ORDER)
    [Anonymous Symbol]                       0x000434a0   Section        0  lodepng.o(.rodata.CLCL_ORDER)
    DISTANCEBASE                             0x000434ec   Data         120  lodepng.o(.rodata.DISTANCEBASE)
    [Anonymous Symbol]                       0x000434ec   Section        0  lodepng.o(.rodata.DISTANCEBASE)
    DISTANCEEXTRA                            0x00043564   Data         120  lodepng.o(.rodata.DISTANCEEXTRA)
    [Anonymous Symbol]                       0x00043564   Section        0  lodepng.o(.rodata.DISTANCEEXTRA)
    LENGTHBASE                               0x000435dc   Data         116  lodepng.o(.rodata.LENGTHBASE)
    [Anonymous Symbol]                       0x000435dc   Section        0  lodepng.o(.rodata.LENGTHBASE)
    LENGTHEXTRA                              0x00043650   Data         116  lodepng.o(.rodata.LENGTHEXTRA)
    [Anonymous Symbol]                       0x00043650   Section        0  lodepng.o(.rodata.LENGTHEXTRA)
    _drive_label                             0x000436c4   Data           6  gt_fs.o(.rodata._drive_label)
    [Anonymous Symbol]                       0x000436c4   Section        0  gt_fs.o(.rodata._drive_label)
    _gt_sin_90_table                         0x000436ca   Data         182  gt_math.o(.rodata._gt_sin_90_table)
    [Anonymous Symbol]                       0x000436ca   Section        0  gt_math.o(.rodata._gt_sin_90_table)
    _gt_tab_per_255                          0x00043780   Data        1024  gt_math.o(.rodata._gt_tab_per_255)
    [Anonymous Symbol]                       0x00043780   Section        0  gt_math.o(.rodata._gt_tab_per_255)
    _src_bmp_img                             0x00043b80   Data          16  gt_port_src.o(.rodata._src_bmp_img)
    [Anonymous Symbol]                       0x00043b80   Section        0  gt_port_src.o(.rodata._src_bmp_img)
    _src_icon_sys                            0x00043b90   Data          80  gt_port_src.o(.rodata._src_icon_sys)
    [Anonymous Symbol]                       0x00043b90   Section        0  gt_port_src.o(.rodata._src_icon_sys)
    _src_png_50x50_img                       0x00043be0   Data        5425  gt_port_src.o(.rodata._src_png_50x50_img)
    [Anonymous Symbol]                       0x00043be0   Section        0  gt_port_src.o(.rodata._src_png_50x50_img)
    _src_png_file_img                        0x00045111   Data         619  gt_port_src.o(.rodata._src_png_file_img)
    [Anonymous Symbol]                       0x00045111   Section        0  gt_port_src.o(.rodata._src_png_file_img)
    ascii_16                                 0x00049abc   Data        3040  gt_font.o(.rodata.ascii_16)
    [Anonymous Symbol]                       0x00049abc   Section        0  gt_font.o(.rodata.ascii_16)
    .Lswitch.table.lodepng_decode.123        0x0004a69c   Data          32  lodepng.o(.rodata.cst32)
    gtuid                                    0x0004a75c   Data         560  gt_gui_driver.o(.rodata.gtuid)
    [Anonymous Symbol]                       0x0004a75c   Section        0  gt_gui_driver.o(.rodata.gtuid)
    lodepng_crc32_table                      0x0004a98c   Data        1024  lodepng.o(.rodata.lodepng_crc32_table)
    [Anonymous Symbol]                       0x0004a98c   Section        0  lodepng.o(.rodata.lodepng_crc32_table)
    radius1                                  0x0004ae04   Data           1  gt_draw.o(.rodata.radius1)
    [Anonymous Symbol]                       0x0004ae04   Section        0  gt_draw.o(.rodata.radius1)
    radius10                                 0x0004ae05   Data         100  gt_draw.o(.rodata.radius10)
    [Anonymous Symbol]                       0x0004ae05   Section        0  gt_draw.o(.rodata.radius10)
    radius11                                 0x0004ae69   Data         121  gt_draw.o(.rodata.radius11)
    [Anonymous Symbol]                       0x0004ae69   Section        0  gt_draw.o(.rodata.radius11)
    radius12                                 0x0004aee2   Data         144  gt_draw.o(.rodata.radius12)
    [Anonymous Symbol]                       0x0004aee2   Section        0  gt_draw.o(.rodata.radius12)
    radius2                                  0x0004af72   Data           4  gt_draw.o(.rodata.radius2)
    [Anonymous Symbol]                       0x0004af72   Section        0  gt_draw.o(.rodata.radius2)
    radius3                                  0x0004af76   Data           9  gt_draw.o(.rodata.radius3)
    [Anonymous Symbol]                       0x0004af76   Section        0  gt_draw.o(.rodata.radius3)
    radius4                                  0x0004af7f   Data          16  gt_draw.o(.rodata.radius4)
    [Anonymous Symbol]                       0x0004af7f   Section        0  gt_draw.o(.rodata.radius4)
    radius5                                  0x0004af8f   Data          25  gt_draw.o(.rodata.radius5)
    [Anonymous Symbol]                       0x0004af8f   Section        0  gt_draw.o(.rodata.radius5)
    radius6                                  0x0004afa8   Data          36  gt_draw.o(.rodata.radius6)
    [Anonymous Symbol]                       0x0004afa8   Section        0  gt_draw.o(.rodata.radius6)
    radius7                                  0x0004afcc   Data          49  gt_draw.o(.rodata.radius7)
    [Anonymous Symbol]                       0x0004afcc   Section        0  gt_draw.o(.rodata.radius7)
    radius8                                  0x0004affd   Data          64  gt_draw.o(.rodata.radius8)
    [Anonymous Symbol]                       0x0004affd   Section        0  gt_draw.o(.rodata.radius8)
    radius9                                  0x0004b03d   Data          81  gt_draw.o(.rodata.radius9)
    [Anonymous Symbol]                       0x0004b03d   Section        0  gt_draw.o(.rodata.radius9)
    .L.str                                   0x0004b08e   Data           5  main.o(.rodata.str1.1)
    [Anonymous Symbol]                       0x0004b08e   Section        0  main.o(.rodata.str1.1)
    .Lstr                                    0x0004b093   Data          32  bsp_sfc.o(.rodata.str1.1)
    [Anonymous Symbol]                       0x0004b093   Section        0  bsp_sfc.o(.rodata.str1.1)
    .L.str                                   0x0004b0b3   Data           2  ugui.o(.rodata.str1.1)
    [Anonymous Symbol]                       0x0004b0b3   Section        0  ugui.o(.rodata.str1.1)
    .L.str.2                                 0x0004b0b5   Data          12  gt_port_src.o(.rodata.str1.1)
    [Anonymous Symbol]                       0x0004b0b5   Section        0  gt_port_src.o(.rodata.str1.1)
    .L.str.1                                 0x0004b0c1   Data           8  gt_port_src.o(.rodata.str1.1)
    .L.str                                   0x0004b0c9   Data           8  gt_port_src.o(.rodata.str1.1)
    .L.str                                   0x0004b0d1   Data          18  gt_port_vf.o(.rodata.str1.1)
    .L.str.7                                 0x0004b0d1   Data          18  gt_port_vf.o(.rodata.str1.1)
    [Anonymous Symbol]                       0x0004b0d1   Section        0  gt_port_vf.o(.rodata.str1.1)
    .L.str.1                                 0x0004b0e3   Data          18  gt_port_vf.o(.rodata.str1.1)
    .L.str.8                                 0x0004b0e3   Data          18  gt_port_vf.o(.rodata.str1.1)
    .L.str                                   0x0004b0f1   Data           4  gt_port_vf.o(.rodata.str1.1)
    .L.str.2                                 0x0004b0f5   Data           4  gt_draw.o(.rodata.str1.1)
    [Anonymous Symbol]                       0x0004b0f5   Section        0  gt_draw.o(.rodata.str1.1)
    .L.str                                   0x0004b0f9   Data          33  gt_draw.o(.rodata.str1.1)
    .L__func__._draw_text_convertor          0x0004b11a   Data          21  gt_draw.o(.rodata.str1.1)
    .L.str                                   0x0004b12f   Data          34  gt_event.o(.rodata.str1.1)
    [Anonymous Symbol]                       0x0004b12f   Section        0  gt_event.o(.rodata.str1.1)
    .L.str                                   0x0004b151   Data          39  gt_graph_base.o(.rodata.str1.1)
    [Anonymous Symbol]                       0x0004b151   Section        0  gt_graph_base.o(.rodata.str1.1)
    .L.str                                   0x0004b178   Data          40  gt_img_decoder.o(.rodata.str1.1)
    [Anonymous Symbol]                       0x0004b178   Section        0  gt_img_decoder.o(.rodata.str1.1)
    .L.str                                   0x0004b1a0   Data          34  gt_timer.o(.rodata.str1.1)
    [Anonymous Symbol]                       0x0004b1a0   Section        0  gt_timer.o(.rodata.str1.1)
    .L.str.3                                 0x0004b1c2   Data          37  gt_png.o(.rodata.str1.1)
    [Anonymous Symbol]                       0x0004b1c2   Section        0  gt_png.o(.rodata.str1.1)
    .L.str                                   0x0004b1e7   Data           9  lodepng.o(.rodata.str1.1)
    .L.str.69                                0x0004b1e7   Data          93  lodepng.o(.rodata.str1.1)
    [Anonymous Symbol]                       0x0004b1e7   Section        0  lodepng.o(.rodata.str1.1)
    .L.str.68                                0x0004b244   Data          57  lodepng.o(.rodata.str1.1)
    .L.str.59                                0x0004b27d   Data          75  lodepng.o(.rodata.str1.1)
    .L.str.57                                0x0004b2c8   Data          63  lodepng.o(.rodata.str1.1)
    .L.str.56                                0x0004b307   Data          55  lodepng.o(.rodata.str1.1)
    .L.str.60                                0x0004b33e   Data          81  lodepng.o(.rodata.str1.1)
    .L.str.100                               0x0004b38f   Data          68  lodepng.o(.rodata.str1.1)
    .L.str.82                                0x0004b3d3   Data          50  lodepng.o(.rodata.str1.1)
    .L.str.63                                0x0004b405   Data          58  lodepng.o(.rodata.str1.1)
    .L.str.85                                0x0004b43f   Data          58  lodepng.o(.rodata.str1.1)
    .L.str.48                                0x0004b479   Data          72  lodepng.o(.rodata.str1.1)
    .L.str.99                                0x0004b4c1   Data          70  lodepng.o(.rodata.str1.1)
    .L.str.28                                0x0004b507   Data          61  lodepng.o(.rodata.str1.1)
    .L.str.96                                0x0004b544   Data          78  lodepng.o(.rodata.str1.1)
    .L.str.97                                0x0004b592   Data          84  lodepng.o(.rodata.str1.1)
    .L.str.113                               0x0004b5e6   Data          38  lodepng.o(.rodata.str1.1)
    .L.str.81                                0x0004b60c   Data          58  lodepng.o(.rodata.str1.1)
    .L.str.107                               0x0004b646   Data          42  lodepng.o(.rodata.str1.1)
    .L.str.106                               0x0004b670   Data          44  lodepng.o(.rodata.str1.1)
    .L.str.80                                0x0004b69c   Data          25  lodepng.o(.rodata.str1.1)
    .L.str.83                                0x0004b6b5   Data          81  lodepng.o(.rodata.str1.1)
    .L.str.38                                0x0004b706   Data          36  lodepng.o(.rodata.str1.1)
    .L.str.30                                0x0004b72a   Data          50  lodepng.o(.rodata.str1.1)
    .L.str.61                                0x0004b75c   Data          49  lodepng.o(.rodata.str1.1)
    .L.str.58                                0x0004b78d   Data          41  lodepng.o(.rodata.str1.1)
    .L.str.89                                0x0004b7b6   Data          32  lodepng.o(.rodata.str1.1)
    .L.str.36                                0x0004b7d6   Data          29  lodepng.o(.rodata.str1.1)
    .L.str.34                                0x0004b7f3   Data          31  lodepng.o(.rodata.str1.1)
    .L.str.35                                0x0004b812   Data          26  lodepng.o(.rodata.str1.1)
    .L.str.17                                0x0004b82c   Data          53  lodepng.o(.rodata.str1.1)
    .L.str.112                               0x0004b861   Data          19  lodepng.o(.rodata.str1.1)
    .L.str.49                                0x0004b874   Data          57  lodepng.o(.rodata.str1.1)
    .L.str.18                                0x0004b8ad   Data          56  lodepng.o(.rodata.str1.1)
    .L.str.54                                0x0004b8e5   Data          47  lodepng.o(.rodata.str1.1)
    .L.str.47                                0x0004b914   Data          40  lodepng.o(.rodata.str1.1)
    .L.str.43                                0x0004b93c   Data          40  lodepng.o(.rodata.str1.1)
    .L.str.110                               0x0004b964   Data          58  lodepng.o(.rodata.str1.1)
    .L.str.46                                0x0004b99e   Data          46  lodepng.o(.rodata.str1.1)
    .L.str.42                                0x0004b9cc   Data          46  lodepng.o(.rodata.str1.1)
    .L.str.45                                0x0004b9fa   Data          44  lodepng.o(.rodata.str1.1)
    .L.str.111                               0x0004ba26   Data          24  lodepng.o(.rodata.str1.1)
    .L.str.109                               0x0004ba3e   Data          31  lodepng.o(.rodata.str1.1)
    .L.str.108                               0x0004ba5d   Data          35  lodepng.o(.rodata.str1.1)
    .L.str.78                                0x0004ba80   Data          37  lodepng.o(.rodata.str1.1)
    .L.str.32                                0x0004baa5   Data          56  lodepng.o(.rodata.str1.1)
    .L.str.44                                0x0004badd   Data          65  lodepng.o(.rodata.str1.1)
    .L.str.104                               0x0004bb1e   Data          47  lodepng.o(.rodata.str1.1)
    .L.str.102                               0x0004bb4d   Data          55  lodepng.o(.rodata.str1.1)
    .L.str.65                                0x0004bb84   Data          94  lodepng.o(.rodata.str1.1)
    .L.str.41                                0x0004bbe2   Data          61  lodepng.o(.rodata.str1.1)
    .L.str.92                                0x0004bc1f   Data          24  lodepng.o(.rodata.str1.1)
    .L.str.94                                0x0004bc37   Data          24  lodepng.o(.rodata.str1.1)
    .L.str.70                                0x0004bc4f   Data          24  lodepng.o(.rodata.str1.1)
    .L.str.93                                0x0004bc67   Data          24  lodepng.o(.rodata.str1.1)
    .L.str.71                                0x0004bc7f   Data          24  lodepng.o(.rodata.str1.1)
    .L.str.91                                0x0004bc97   Data          47  lodepng.o(.rodata.str1.1)
    .L.str.74                                0x0004bcc6   Data          32  lodepng.o(.rodata.str1.1)
    .L.str.87                                0x0004bce6   Data          31  lodepng.o(.rodata.str1.1)
    .L.str.105                               0x0004bd05   Data          77  lodepng.o(.rodata.str1.1)
    .L.str.101                               0x0004bd52   Data          28  lodepng.o(.rodata.str1.1)
    .L.str.40                                0x0004bd6e   Data          36  lodepng.o(.rodata.str1.1)
    .L.str.75                                0x0004bd92   Data          32  lodepng.o(.rodata.str1.1)
    .L.str.23                                0x0004bdb2   Data          55  lodepng.o(.rodata.str1.1)
    .L.str.25                                0x0004bde9   Data          48  lodepng.o(.rodata.str1.1)
    .L.str.21                                0x0004be19   Data          49  lodepng.o(.rodata.str1.1)
    .L.str.22                                0x0004be4a   Data          38  lodepng.o(.rodata.str1.1)
    .L.str.51                                0x0004be70   Data          35  lodepng.o(.rodata.str1.1)
    .L.str.76                                0x0004be93   Data          32  lodepng.o(.rodata.str1.1)
    .L.str.24                                0x0004beb3   Data          54  lodepng.o(.rodata.str1.1)
    .L.str.20                                0x0004bee9   Data          52  lodepng.o(.rodata.str1.1)
    .L.str.19                                0x0004bf1d   Data          47  lodepng.o(.rodata.str1.1)
    .L.str.50                                0x0004bf4c   Data          49  lodepng.o(.rodata.str1.1)
    .L.str.31                                0x0004bf7d   Data          36  lodepng.o(.rodata.str1.1)
    .L.str.62                                0x0004bfa1   Data          78  lodepng.o(.rodata.str1.1)
    .L.str.72                                0x0004bfef   Data          57  lodepng.o(.rodata.str1.1)
    .L.str.15                                0x0004c028   Data          29  lodepng.o(.rodata.str1.1)
    .L.str.52                                0x0004c045   Data          28  lodepng.o(.rodata.str1.1)
    .L.str.37                                0x0004c061   Data          60  lodepng.o(.rodata.str1.1)
    .L.str.39                                0x0004c09d   Data          44  lodepng.o(.rodata.str1.1)
    .L.str.55                                0x0004c0c9   Data          76  lodepng.o(.rodata.str1.1)
    .L.str.98                                0x0004c115   Data          82  lodepng.o(.rodata.str1.1)
    .L.str.86                                0x0004c167   Data          34  lodepng.o(.rodata.str1.1)
    .L.str.33                                0x0004c189   Data          30  lodepng.o(.rodata.str1.1)
    .L.str.29                                0x0004c1a7   Data          38  lodepng.o(.rodata.str1.1)
    .L.str.26                                0x0004c1cd   Data          30  lodepng.o(.rodata.str1.1)
    .L.str.27                                0x0004c1eb   Data          42  lodepng.o(.rodata.str1.1)
    .L.str.67                                0x0004c215   Data          67  lodepng.o(.rodata.str1.1)
    .L.str.79                                0x0004c258   Data          93  lodepng.o(.rodata.str1.1)
    .L.str.90                                0x0004c2b5   Data          42  lodepng.o(.rodata.str1.1)
    .L.str.64                                0x0004c2df   Data          95  lodepng.o(.rodata.str1.1)
    .L.str.73                                0x0004c33e   Data          47  lodepng.o(.rodata.str1.1)
    .L.str.88                                0x0004c36d   Data          40  lodepng.o(.rodata.str1.1)
    .L.str.77                                0x0004c395   Data          35  lodepng.o(.rodata.str1.1)
    .L.str.66                                0x0004c3b8   Data          89  lodepng.o(.rodata.str1.1)
    .L.str.16                                0x0004c411   Data          17  lodepng.o(.rodata.str1.1)
    .L.str.53                                0x0004c422   Data          58  lodepng.o(.rodata.str1.1)
    .L.str.103                               0x0004c45c   Data          81  lodepng.o(.rodata.str1.1)
    .L.str.95                                0x0004c4ad   Data          30  lodepng.o(.rodata.str1.1)
    .L.str.84                                0x0004c4cb   Data          73  lodepng.o(.rodata.str1.1)
    .L.str.1                                 0x0004c514   Data           4  gt_symbol.o(.rodata.str1.1)
    [Anonymous Symbol]                       0x0004c514   Section        0  gt_symbol.o(.rodata.str1.1)
    .L.str.20                                0x0004c518   Data           4  gt_symbol.o(.rodata.str1.1)
    .L.str.8                                 0x0004c51c   Data           4  gt_symbol.o(.rodata.str1.1)
    .L.str.19                                0x0004c520   Data           4  gt_symbol.o(.rodata.str1.1)
    .L.str.3                                 0x0004c524   Data           4  gt_symbol.o(.rodata.str1.1)
    .L.str.2                                 0x0004c528   Data           4  gt_symbol.o(.rodata.str1.1)
    .L.str.6                                 0x0004c52c   Data           4  gt_symbol.o(.rodata.str1.1)
    .L.str.7                                 0x0004c530   Data           4  gt_symbol.o(.rodata.str1.1)
    .L.str                                   0x0004c534   Data           4  gt_symbol.o(.rodata.str1.1)
    .L.str.17                                0x0004c538   Data           4  gt_symbol.o(.rodata.str1.1)
    .L.str.18                                0x0004c53c   Data           4  gt_symbol.o(.rodata.str1.1)
    .L.str.4                                 0x0004c540   Data           4  gt_symbol.o(.rodata.str1.1)
    .L.str.5                                 0x0004c544   Data           4  gt_symbol.o(.rodata.str1.1)
    .L.str                                   0x0004c547   Data           1  gt_symbol.o(.rodata.str1.1)
    .L.str                                   0x0004c548   Data          35  gt_anim.o(.rodata.str1.1)
    [Anonymous Symbol]                       0x0004c548   Section        0  gt_anim.o(.rodata.str1.1)
    .L.str                                   0x0004c56b   Data          36  gt_vector.o(.rodata.str1.1)
    [Anonymous Symbol]                       0x0004c56b   Section        0  gt_vector.o(.rodata.str1.1)
    .L.str                                   0x0004c58f   Data          38  gt_imgbtn.o(.rodata.str1.1)
    [Anonymous Symbol]                       0x0004c58f   Section        0  gt_imgbtn.o(.rodata.str1.1)
    .L.str                                   0x0004c5b5   Data          37  gt_label.o(.rodata.str1.1)
    [Anonymous Symbol]                       0x0004c5b5   Section        0  gt_label.o(.rodata.str1.1)
    .L.str                                   0x0004c5da   Data          41  gt_obj_class.o(.rodata.str1.1)
    [Anonymous Symbol]                       0x0004c5da   Section        0  gt_obj_class.o(.rodata.str1.1)
    .L.str                                   0x0004c603   Data          38  gt_slider.o(.rodata.str1.1)
    [Anonymous Symbol]                       0x0004c603   Section        0  gt_slider.o(.rodata.str1.1)
    symbol_16x16_backspace                   0x0004c629   Data         256  gt_symbol.o(.rodata.symbol_16x16_backspace)
    [Anonymous Symbol]                       0x0004c629   Section        0  gt_symbol.o(.rodata.symbol_16x16_backspace)
    symbol_16x16_down                        0x0004c729   Data         256  gt_symbol.o(.rodata.symbol_16x16_down)
    [Anonymous Symbol]                       0x0004c729   Section        0  gt_symbol.o(.rodata.symbol_16x16_down)
    symbol_16x16_keyboard                    0x0004c829   Data         256  gt_symbol.o(.rodata.symbol_16x16_keyboard)
    [Anonymous Symbol]                       0x0004c829   Section        0  gt_symbol.o(.rodata.symbol_16x16_keyboard)
    symbol_16x16_left                        0x0004c929   Data         256  gt_symbol.o(.rodata.symbol_16x16_left)
    [Anonymous Symbol]                       0x0004c929   Section        0  gt_symbol.o(.rodata.symbol_16x16_left)
    symbol_16x16_new_line                    0x0004ca29   Data         256  gt_symbol.o(.rodata.symbol_16x16_new_line)
    [Anonymous Symbol]                       0x0004ca29   Section        0  gt_symbol.o(.rodata.symbol_16x16_new_line)
    symbol_16x16_right                       0x0004cb29   Data         256  gt_symbol.o(.rodata.symbol_16x16_right)
    [Anonymous Symbol]                       0x0004cb29   Section        0  gt_symbol.o(.rodata.symbol_16x16_right)
    symbol_16x16_save                        0x0004cc29   Data         256  gt_symbol.o(.rodata.symbol_16x16_save)
    [Anonymous Symbol]                       0x0004cc29   Section        0  gt_symbol.o(.rodata.symbol_16x16_save)
    symbol_16x16_up                          0x0004cd29   Data         256  gt_symbol.o(.rodata.symbol_16x16_up)
    [Anonymous Symbol]                       0x0004cd29   Section        0  gt_symbol.o(.rodata.symbol_16x16_up)
    symbol_backspace_24x24                   0x0004ce29   Data         576  gt_symbol.o(.rodata.symbol_backspace_24x24)
    [Anonymous Symbol]                       0x0004ce29   Section        0  gt_symbol.o(.rodata.symbol_backspace_24x24)
    symbol_en_24x24                          0x0004d069   Data         576  gt_symbol.o(.rodata.symbol_en_24x24)
    [Anonymous Symbol]                       0x0004d069   Section        0  gt_symbol.o(.rodata.symbol_en_24x24)
    symbol_keyboard_24x24                    0x0004d2a9   Data         576  gt_symbol.o(.rodata.symbol_keyboard_24x24)
    [Anonymous Symbol]                       0x0004d2a9   Section        0  gt_symbol.o(.rodata.symbol_keyboard_24x24)
    symbol_left_24x24                        0x0004d4e9   Data         576  gt_symbol.o(.rodata.symbol_left_24x24)
    [Anonymous Symbol]                       0x0004d4e9   Section        0  gt_symbol.o(.rodata.symbol_left_24x24)
    symbol_new_line_24x24                    0x0004d729   Data         576  gt_symbol.o(.rodata.symbol_new_line_24x24)
    [Anonymous Symbol]                       0x0004d729   Section        0  gt_symbol.o(.rodata.symbol_new_line_24x24)
    symbol_ok_24x24                          0x0004d969   Data         576  gt_symbol.o(.rodata.symbol_ok_24x24)
    [Anonymous Symbol]                       0x0004d969   Section        0  gt_symbol.o(.rodata.symbol_ok_24x24)
    symbol_right_24x24                       0x0004dba9   Data         576  gt_symbol.o(.rodata.symbol_right_24x24)
    [Anonymous Symbol]                       0x0004dba9   Section        0  gt_symbol.o(.rodata.symbol_right_24x24)
    symbol_spell_24x24                       0x0004dde9   Data         576  gt_symbol.o(.rodata.symbol_spell_24x24)
    [Anonymous Symbol]                       0x0004dde9   Section        0  gt_symbol.o(.rodata.symbol_spell_24x24)
    symbols_16x16                            0x0004e02c   Data          72  gt_symbol.o(.rodata.symbols_16x16)
    [Anonymous Symbol]                       0x0004e02c   Section        0  gt_symbol.o(.rodata.symbols_16x16)
    symbols_24x24                            0x0004e074   Data          80  gt_symbol.o(.rodata.symbols_24x24)
    [Anonymous Symbol]                       0x0004e074   Section        0  gt_symbol.o(.rodata.symbols_24x24)
    virt_file_sys                            0x0004e0c4   Data          60  gt_port_vf.o(.rodata.virt_file_sys)
    [Anonymous Symbol]                       0x0004e0c4   Section        0  gt_port_vf.o(.rodata.virt_file_sys)
    .data                                    0x20000000   Section        4  stdout.o(.data)
    _errno                                   0x20000004   Data           4  errno.o(.data)
    .data                                    0x20000004   Section        4  errno.o(.data)
    PADDING                                  0x20000010   Data          64  gt_gui_driver.o(.data.PADDING)
    [Anonymous Symbol]                       0x20000010   Section        0  gt_gui_driver.o(.data.PADDING)
    _state                                   0x20000064   Data           1  gt_hal_vf.o(.data._state)
    [Anonymous Symbol]                       0x20000064   Section        0  gt_hal_vf.o(.data._state)
    GT_UID_MD5_FLAG                          0x20000336   Data           1  gt_gui_driver.o(.bss.GT_UID_MD5_FLAG)
    [Anonymous Symbol]                       0x20000336   Section        0  gt_gui_driver.o(.bss.GT_UID_MD5_FLAG)
    Systick_Time                             0x2000033c   Data           4  dev_systick.o(.bss.Systick_Time)
    [Anonymous Symbol]                       0x2000033c   Section        0  dev_systick.o(.bss.Systick_Time)
    _UG_HandleEvents.msg                     0x2000036c   Data           8  ugui.o(.bss._UG_HandleEvents.msg)
    [Anonymous Symbol]                       0x2000036c   Section        0  ugui.o(.bss._UG_HandleEvents.msg)
    _addr_end                                0x20000374   Data           1  gt_mem.o(.bss._addr_end)
    [Anonymous Symbol]                       0x20000374   Section        0  gt_mem.o(.bss._addr_end)
    _addr_start                              0x20000378   Data           1  gt_mem.o(.bss._addr_start)
    [Anonymous Symbol]                       0x20000378   Section        0  gt_mem.o(.bss._addr_start)
    _anim_act                                0x2000037c   Data           4  gt_anim.o(.bss._anim_act)
    [Anonymous Symbol]                       0x2000037c   Section        0  gt_anim.o(.bss._anim_act)
    _anim_timer                              0x20000380   Data           4  gt_anim.o(.bss._anim_timer)
    [Anonymous Symbol]                       0x20000380   Section        0  gt_anim.o(.bss._anim_timer)
    _fp                                      0x20000384   Data           4  gt_hal_fs.o(.bss._fp)
    [Anonymous Symbol]                       0x20000384   Section        0  gt_hal_fs.o(.bss._fp)
    _gt_event_is_locked                      0x20000390   Data           1  gt_event.o(.bss._gt_event_is_locked)
    [Anonymous Symbol]                       0x20000390   Section        0  gt_event.o(.bss._gt_event_is_locked)
    _gt_event_obj_locked                     0x20000394   Data           4  gt_event.o(.bss._gt_event_obj_locked)
    [Anonymous Symbol]                       0x20000394   Section        0  gt_event.o(.bss._gt_event_obj_locked)
    _gt_indev_handler_button.flag_key_down   0x200003a0   Data           1  gt_indev.o(.bss._gt_indev_handler_button.flag_key_down)
    [Anonymous Symbol]                       0x200003a0   Section        0  gt_indev.o(.bss._gt_indev_handler_button.flag_key_down)
    _gt_indev_handler_button.last_run        0x200003a4   Data           4  gt_indev.o(.bss._gt_indev_handler_button.last_run)
    [Anonymous Symbol]                       0x200003a4   Section        0  gt_indev.o(.bss._gt_indev_handler_button.last_run)
    _gt_indev_handler_point.flag_key_down    0x200003a8   Data           1  gt_indev.o(.bss._gt_indev_handler_point.flag_key_down)
    [Anonymous Symbol]                       0x200003a8   Section        0  gt_indev.o(.bss._gt_indev_handler_point.flag_key_down)
    _gt_indev_handler_point.last_run         0x200003ac   Data           4  gt_indev.o(.bss._gt_indev_handler_point.last_run)
    [Anonymous Symbol]                       0x200003ac   Section        0  gt_indev.o(.bss._gt_indev_handler_point.last_run)
    _gt_init_done_flag                       0x200003b0   Data           1  gt_handler.o(.bss._gt_init_done_flag)
    [Anonymous Symbol]                       0x200003b0   Section        0  gt_handler.o(.bss._gt_init_done_flag)
    _gt_project_encoding                     0x200003b1   Data           1  gt_font.o(.bss._gt_project_encoding)
    [Anonymous Symbol]                       0x200003b1   Section        0  gt_font.o(.bss._gt_project_encoding)
    _gt_timer_handler.busy_time              0x200003b4   Data           4  gt_timer.o(.bss._gt_timer_handler.busy_time)
    [Anonymous Symbol]                       0x200003b4   Section        0  gt_timer.o(.bss._gt_timer_handler.busy_time)
    _gt_timer_handler.idle_period_start      0x200003b8   Data           4  gt_timer.o(.bss._gt_timer_handler.idle_period_start)
    [Anonymous Symbol]                       0x200003b8   Section        0  gt_timer.o(.bss._gt_timer_handler.idle_period_start)
    _gt_timer_task_ready_flag                0x200003c4   Data           1  gt_timer.o(.bss._gt_timer_task_ready_flag)
    [Anonymous Symbol]                       0x200003c4   Section        0  gt_timer.o(.bss._gt_timer_task_ready_flag)
    _is_list_change                          0x200003c5   Data           1  gt_anim.o(.bss._is_list_change)
    [Anonymous Symbol]                       0x200003c5   Section        0  gt_anim.o(.bss._is_list_change)
    _is_print_no_screen_flag                 0x200003c6   Data           1  gt_event.o(.bss._is_print_no_screen_flag)
    [Anonymous Symbol]                       0x200003c6   Section        0  gt_event.o(.bss._is_print_no_screen_flag)
    _is_run_same_time                        0x200003c7   Data           1  gt_anim.o(.bss._is_run_same_time)
    [Anonymous Symbol]                       0x200003c7   Section        0  gt_anim.o(.bss._is_run_same_time)
    _max_addr                                0x200003c8   Data           4  gt_mem.o(.bss._max_addr)
    [Anonymous Symbol]                       0x200003c8   Section        0  gt_mem.o(.bss._max_addr)
    _mem_pool_int                            0x200003cc   Data       32768  gt_mem.o(.bss._mem_pool_int)
    [Anonymous Symbol]                       0x200003cc   Section        0  gt_mem.o(.bss._mem_pool_int)
    _self                                    0x200083cc   Data           4  gt_hal_src.o(.bss._self)
    [Anonymous Symbol]                       0x200083cc   Section        0  gt_hal_src.o(.bss._self)
    _self.0                                  0x200083d0   Data           4  gt_fs.o(.bss._self.0)
    [Anonymous Symbol]                       0x200083d0   Section        0  gt_fs.o(.bss._self.0)
    _self.1                                  0x200083d4   Data           4  gt_fs.o(.bss._self.1)
    [Anonymous Symbol]                       0x200083d4   Section        0  gt_fs.o(.bss._self.1)
    _tick                                    0x200083d8   Data           4  gt_hal_tick.o(.bss._tick)
    [Anonymous Symbol]                       0x200083d8   Section        0  gt_hal_tick.o(.bss._tick)
    _time_last_run                           0x200083dc   Data           4  gt_anim.o(.bss._time_last_run)
    [Anonymous Symbol]                       0x200083dc   Section        0  gt_anim.o(.bss._time_last_run)
    _tlsf                                    0x200083e0   Data           4  gt_mem.o(.bss._tlsf)
    [Anonymous Symbol]                       0x200083e0   Section        0  gt_mem.o(.bss._tlsf)
    _uart3_count                             0x200083e4   Data           1  bsp_uart.o(.bss._uart3_count)
    [Anonymous Symbol]                       0x200083e4   Section        0  bsp_uart.o(.bss._uart3_count)
    _uart3_rx_buf                            0x200083e5   Data          10  bsp_uart.o(.bss._uart3_rx_buf)
    [Anonymous Symbol]                       0x200083e5   Section        0  bsp_uart.o(.bss._uart3_rx_buf)
    _vf_dev                                  0x200083f0   Data           4  gt_hal_vf.o(.bss._vf_dev)
    [Anonymous Symbol]                       0x200083f0   Section        0  gt_hal_vf.o(.bss._vf_dev)
    _vfs                                     0x200083f4   Data           4  gt_hal_vf.o(.bss._vfs)
    [Anonymous Symbol]                       0x200083f4   Section        0  gt_hal_vf.o(.bss._vfs)
    cnt_indev                                0x200083f8   Data           1  gt_hal_indev.o(.bss.cnt_indev)
    [Anonymous Symbol]                       0x200083f8   Section        0  gt_hal_indev.o(.bss.cnt_indev)
    color                                    0x200083fc   Data           4  gt_graph_base.o(.bss.color)
    [Anonymous Symbol]                       0x200083fc   Section        0  gt_graph_base.o(.bss.color)
    disp_p                                   0x20008400   Data           4  gt_hal_disp.o(.bss.disp_p)
    [Anonymous Symbol]                       0x20008400   Section        0  gt_hal_disp.o(.bss.disp_p)
    draw_bg.color_circle_p                   0x20008404   Data           4  gt_draw.o(.bss.draw_bg.color_circle_p)
    [Anonymous Symbol]                       0x20008404   Section        0  gt_draw.o(.bss.draw_bg.color_circle_p)
    draw_bg.mask_left_up                     0x20008408   Data           4  gt_draw.o(.bss.draw_bg.mask_left_up)
    [Anonymous Symbol]                       0x20008408   Section        0  gt_draw.o(.bss.draw_bg.mask_left_up)
    draw_bg.radius_pre                       0x2000840c   Data           2  gt_draw.o(.bss.draw_bg.radius_pre)
    [Anonymous Symbol]                       0x2000840c   Section        0  gt_draw.o(.bss.draw_bg.radius_pre)
    drv                                      0x20008410   Data          16  gt_port_disp.o(.bss.drv)
    [Anonymous Symbol]                       0x20008410   Section        0  gt_port_disp.o(.bss.drv)
    drv_vf                                   0x20008420   Data          44  gt_port_vf.o(.bss.drv_vf)
    [Anonymous Symbol]                       0x20008420   Section        0  gt_port_vf.o(.bss.drv_vf)
    file_occupied_count                      0x2000844c   Data           1  gt_fs.o(.bss.file_occupied_count)
    [Anonymous Symbol]                       0x2000844c   Section        0  gt_fs.o(.bss.file_occupied_count)
    graph_buf_all                            0x20008450   Data           4  gt_hal_disp.o(.bss.graph_buf_all)
    [Anonymous Symbol]                       0x20008450   Section        0  gt_hal_disp.o(.bss.graph_buf_all)
    gt_font_chinese_encoding                 0x20008454   Data           1  gt_gui_driver.o(.bss.gt_font_chinese_encoding)
    [Anonymous Symbol]                       0x20008454   Section        0  gt_gui_driver.o(.bss.gt_font_chinese_encoding)
    gt_font_get_next_word_width.idx          0x20008456   Data           2  gt_font.o(.bss.gt_font_get_next_word_width.idx)
    [Anonymous Symbol]                       0x20008456   Section        0  gt_font.o(.bss.gt_font_get_next_word_width.idx)
    gui                                      0x20008458   Data           4  ugui.o(.bss.gui)
    [Anonymous Symbol]                       0x20008458   Section        0  ugui.o(.bss.gui)
    idle_last                                0x2000845c   Data           4  gt_timer.o(.bss.idle_last)
    [Anonymous Symbol]                       0x2000845c   Section        0  gt_timer.o(.bss.idle_last)
    imgbtn1                                  0x20008460   Data           4  gt_init_screen_home.o(.bss.imgbtn1)
    [Anonymous Symbol]                       0x20008460   Section        0  gt_init_screen_home.o(.bss.imgbtn1)
    imgbtn2                                  0x20008464   Data           4  gt_init_screen_home.o(.bss.imgbtn2)
    [Anonymous Symbol]                       0x20008464   Section        0  gt_init_screen_home.o(.bss.imgbtn2)
    imgbtn3                                  0x20008468   Data           4  gt_init_screen_home.o(.bss.imgbtn3)
    [Anonymous Symbol]                       0x20008468   Section        0  gt_init_screen_home.o(.bss.imgbtn3)
    imgbtn4                                  0x2000846c   Data           4  gt_init_screen_home.o(.bss.imgbtn4)
    [Anonymous Symbol]                       0x2000846c   Section        0  gt_init_screen_home.o(.bss.imgbtn4)
    imgbtn5                                  0x20008470   Data           4  gt_init_screen_home.o(.bss.imgbtn5)
    [Anonymous Symbol]                       0x20008470   Section        0  gt_init_screen_home.o(.bss.imgbtn5)
    imgbtn6                                  0x20008474   Data           4  gt_init_screen_home.o(.bss.imgbtn6)
    [Anonymous Symbol]                       0x20008474   Section        0  gt_init_screen_home.o(.bss.imgbtn6)
    indev                                    0x20008478   Data           4  gt_hal_indev.o(.bss.indev)
    [Anonymous Symbol]                       0x20008478   Section        0  gt_hal_indev.o(.bss.indev)
    indev_act                                0x2000847c   Data          20  gt_hal_indev.o(.bss.indev_act)
    [Anonymous Symbol]                       0x2000847c   Section        0  gt_hal_indev.o(.bss.indev_act)
    indev_drv_button                         0x20008490   Data          20  gt_port_indev.o(.bss.indev_drv_button)
    [Anonymous Symbol]                       0x20008490   Section        0  gt_port_indev.o(.bss.indev_drv_button)
    indev_drv_pointer                        0x200084a4   Data          20  gt_port_indev.o(.bss.indev_drv_pointer)
    [Anonymous Symbol]                       0x200084a4   Section        0  gt_port_indev.o(.bss.indev_drv_pointer)
    inputNum1                                0x200084b8   Data           4  gt_init_screen_home.o(.bss.inputNum1)
    [Anonymous Symbol]                       0x200084b8   Section        0  gt_init_screen_home.o(.bss.inputNum1)
    inputNum2                                0x200084bc   Data           4  gt_init_screen_home.o(.bss.inputNum2)
    [Anonymous Symbol]                       0x200084bc   Section        0  gt_init_screen_home.o(.bss.inputNum2)
    inputNum3                                0x200084c0   Data           4  gt_init_screen_home.o(.bss.inputNum3)
    [Anonymous Symbol]                       0x200084c0   Section        0  gt_init_screen_home.o(.bss.inputNum3)
    lab1                                     0x200084c4   Data           4  gt_init_screen_home.o(.bss.lab1)
    [Anonymous Symbol]                       0x200084c4   Section        0  gt_init_screen_home.o(.bss.lab1)
    lab2                                     0x200084c8   Data           4  gt_init_screen_home.o(.bss.lab2)
    [Anonymous Symbol]                       0x200084c8   Section        0  gt_init_screen_home.o(.bss.lab2)
    lab3                                     0x200084cc   Data           4  gt_init_screen_home.o(.bss.lab3)
    [Anonymous Symbol]                       0x200084cc   Section        0  gt_init_screen_home.o(.bss.lab3)
    lab4                                     0x200084d0   Data           4  gt_init_screen_home.o(.bss.lab4)
    [Anonymous Symbol]                       0x200084d0   Section        0  gt_init_screen_home.o(.bss.lab4)
    lab5                                     0x200084d4   Data           4  gt_init_screen_home.o(.bss.lab5)
    [Anonymous Symbol]                       0x200084d4   Section        0  gt_init_screen_home.o(.bss.lab5)
    lab6                                     0x200084d8   Data           4  gt_init_screen_home.o(.bss.lab6)
    [Anonymous Symbol]                       0x200084d8   Section        0  gt_init_screen_home.o(.bss.lab6)
    lab7                                     0x200084dc   Data           4  gt_init_screen_home.o(.bss.lab7)
    [Anonymous Symbol]                       0x200084dc   Section        0  gt_init_screen_home.o(.bss.lab7)
    lab8                                     0x200084e0   Data           4  gt_init_screen_home.o(.bss.lab8)
    [Anonymous Symbol]                       0x200084e0   Section        0  gt_init_screen_home.o(.bss.lab8)
    lab9                                     0x200084e4   Data           4  gt_init_screen_home.o(.bss.lab9)
    [Anonymous Symbol]                       0x200084e4   Section        0  gt_init_screen_home.o(.bss.lab9)
    rect1                                    0x20008508   Data           4  gt_init_screen_home.o(.bss.rect1)
    [Anonymous Symbol]                       0x20008508   Section        0  gt_init_screen_home.o(.bss.rect1)
    slider1                                  0x20008510   Data           4  gt_init_screen_home.o(.bss.slider1)
    [Anonymous Symbol]                       0x20008510   Section        0  gt_init_screen_home.o(.bss.slider1)
    switch1                                  0x20008514   Data           4  gt_init_screen_home.o(.bss.switch1)
    [Anonymous Symbol]                       0x20008514   Section        0  gt_init_screen_home.o(.bss.switch1)
    tick_irq_flag                            0x20008518   Data           1  gt_hal_tick.o(.bss.tick_irq_flag)
    [Anonymous Symbol]                       0x20008518   Section        0  gt_hal_tick.o(.bss.tick_irq_flag)
    STACK                                    0x20008520   Section     8192  startup_swm341.o(STACK)
    buf_all                                  0x80180000   Data       261120  gt_port_disp.o(.bss.ARM.__at_0x80180000)
    [Anonymous Symbol]                       0x80180000   Section        0  gt_port_disp.o(.bss.ARM.__at_0x80180000)

    Global Symbols

    Symbol Name                              Value     Ov Type        Size  Object(Section)

    BuildAttributes$$THM_ISAv4$E$P$D$K$B$S$7EM$8M$PE$A:L22UL41UL21$X:L11$S22US41US21$IEEE1$IW$~IW$USESV6$~STKCKD$USESV7$~SHL$OTIME$ROPI$IEEEJ$EBA8$MICROLIB$REQ8$PRES8$EABIv2 0x00000000   Number         0  anon$$obj.o ABSOLUTE
    _printf_a                                0x00000000   Number         0  printfstubs.o ABSOLUTE
    _printf_c                                0x00000000   Number         0  printfstubs.o ABSOLUTE
    _printf_charcount                        0x00000000   Number         0  printfstubs.o ABSOLUTE
    _printf_d                                0x00000000   Number         0  printfstubs.o ABSOLUTE
    _printf_e                                0x00000000   Number         0  printfstubs.o ABSOLUTE
    _printf_f                                0x00000000   Number         0  printfstubs.o ABSOLUTE
    _printf_flags                            0x00000000   Number         0  printfstubs.o ABSOLUTE
    _printf_fp_dec                           0x00000000   Number         0  printfstubs.o ABSOLUTE
    _printf_fp_hex                           0x00000000   Number         0  printfstubs.o ABSOLUTE
    _printf_g                                0x00000000   Number         0  printfstubs.o ABSOLUTE
    _printf_i                                0x00000000   Number         0  printfstubs.o ABSOLUTE
    _printf_int_dec                          0x00000000   Number         0  printfstubs.o ABSOLUTE
    _printf_l                                0x00000000   Number         0  printfstubs.o ABSOLUTE
    _printf_lc                               0x00000000   Number         0  printfstubs.o ABSOLUTE
    _printf_ll                               0x00000000   Number         0  printfstubs.o ABSOLUTE
    _printf_lld                              0x00000000   Number         0  printfstubs.o ABSOLUTE
    _printf_lli                              0x00000000   Number         0  printfstubs.o ABSOLUTE
    _printf_llo                              0x00000000   Number         0  printfstubs.o ABSOLUTE
    _printf_llu                              0x00000000   Number         0  printfstubs.o ABSOLUTE
    _printf_llx                              0x00000000   Number         0  printfstubs.o ABSOLUTE
    _printf_longlong_dec                     0x00000000   Number         0  printfstubs.o ABSOLUTE
    _printf_longlong_hex                     0x00000000   Number         0  printfstubs.o ABSOLUTE
    _printf_longlong_oct                     0x00000000   Number         0  printfstubs.o ABSOLUTE
    _printf_ls                               0x00000000   Number         0  printfstubs.o ABSOLUTE
    _printf_mbtowc                           0x00000000   Number         0  printfstubs.o ABSOLUTE
    _printf_n                                0x00000000   Number         0  printfstubs.o ABSOLUTE
    _printf_o                                0x00000000   Number         0  printfstubs.o ABSOLUTE
    _printf_p                                0x00000000   Number         0  printfstubs.o ABSOLUTE
    _printf_percent                          0x00000000   Number         0  printfstubs.o ABSOLUTE
    _printf_pre_padding                      0x00000000   Number         0  printfstubs.o ABSOLUTE
    _printf_return_value                     0x00000000   Number         0  printfstubs.o ABSOLUTE
    _printf_s                                0x00000000   Number         0  printfstubs.o ABSOLUTE
    _printf_sizespec                         0x00000000   Number         0  printfstubs.o ABSOLUTE
    _printf_str                              0x00000000   Number         0  printfstubs.o ABSOLUTE
    _printf_truncate_signed                  0x00000000   Number         0  printfstubs.o ABSOLUTE
    _printf_truncate_unsigned                0x00000000   Number         0  printfstubs.o ABSOLUTE
    _printf_u                                0x00000000   Number         0  printfstubs.o ABSOLUTE
    _printf_wc                               0x00000000   Number         0  printfstubs.o ABSOLUTE
    _printf_wctomb                           0x00000000   Number         0  printfstubs.o ABSOLUTE
    _printf_widthprec                        0x00000000   Number         0  printfstubs.o ABSOLUTE
    _printf_x                                0x00000000   Number         0  printfstubs.o ABSOLUTE
    __cpp_initialize__aeabi_                  - Undefined Weak Reference
    __cxa_finalize                            - Undefined Weak Reference
    _clock_init                               - Undefined Weak Reference
    _microlib_exit                            - Undefined Weak Reference
    __Vectors_Size                           0x000001a8   Number         0  startup_swm341.o ABSOLUTE
    __Vectors                                0x00020000   Data           4  startup_swm341.o(RESET)
    __Vectors_End                            0x000201a8   Data           0  startup_swm341.o(RESET)
    __main                                   0x000201a9   Thumb Code     0  entry.o(.ARM.Collect$$$$00000000)
    _main_stk                                0x000201a9   Thumb Code     0  entry2.o(.ARM.Collect$$$$00000001)
    _main_scatterload                        0x000201ad   Thumb Code     0  entry5.o(.ARM.Collect$$$$00000004)
    __main_after_scatterload                 0x000201b1   Thumb Code     0  entry5.o(.ARM.Collect$$$$00000004)
    _main_clock                              0x000201b1   Thumb Code     0  entry7b.o(.ARM.Collect$$$$00000008)
    _main_cpp_init                           0x000201b1   Thumb Code     0  entry8b.o(.ARM.Collect$$$$0000000A)
    _main_init                               0x000201b1   Thumb Code     0  entry9a.o(.ARM.Collect$$$$0000000B)
    __rt_final_cpp                           0x000201b9   Thumb Code     0  entry10a.o(.ARM.Collect$$$$0000000D)
    __rt_final_exit                          0x000201b9   Thumb Code     0  entry11a.o(.ARM.Collect$$$$0000000F)
    TIMR4_Handler                            0x000201bd   Thumb Code    24  main.o(.text)
    spi_wr                                   0x000201d5   Thumb Code    76  main.o(.text)
    _flush_cb                                0x00020221   Thumb Code   180  main.o(.text)
    read_cb                                  0x000202d5   Thumb Code    36  main.o(.text)
    read_cb_btn                              0x000202f9   Thumb Code     6  main.o(.text)
    HexToChar                                0x00020301   Thumb Code    14  main.o(.text)
    main                                     0x00020311   Thumb Code   244  main.o(.text)
    _lcd_init_sturct                         0x00020405   Thumb Code    96  bsp_lcd_rgb.o(.text)
    LCD_Handler                              0x00020465   Thumb Code    26  bsp_lcd_rgb.o(.text)
    bsp_lcd_rgb_init                         0x00020481   Thumb Code  1304  bsp_lcd_rgb.o(.text)
    lcd_draw_point                           0x00020999   Thumb Code    24  bsp_lcd_rgb.o(.text)
    LCD_DrawPoint                            0x000209b1   Thumb Code    34  bsp_lcd_rgb.o(.text)
    bsp_sfc_config                           0x000209d5   Thumb Code   158  bsp_sfc.o(.text)
    bsp_spi_io_config                        0x00020a75   Thumb Code   156  bsp_sfc.o(.text)
    Send_Byte                                0x00020b11   Thumb Code    66  bsp_sfc.o(.text)
    Get_Byte                                 0x00020b55   Thumb Code   298  bsp_sfc.o(.text)
    gt_read_data                             0x00020c81   Thumb Code   250  bsp_sfc.o(.text)
    r_dat_bat                                0x00020d7d   Thumb Code    64  bsp_sfc.o(.text)
    SFC_FLASH_PageWrite                      0x00020dbd   Thumb Code    42  bsp_sfc.o(.text)
    SFC_FLASH_BufferWrite                    0x00020de9   Thumb Code   214  bsp_sfc.o(.text)
    fputc                                    0x00020ec1   Thumb Code    34  bsp_uart.o(.text)
    uart_send_pack                           0x00020ee5   Thumb Code    56  bsp_uart.o(.text)
    bsp_uart0_init                           0x00020f1d   Thumb Code    88  bsp_uart.o(.text)
    bsp_uart3_init                           0x00020f75   Thumb Code    96  bsp_uart.o(.text)
    UART3_Handler                            0x00020fd5   Thumb Code   594  bsp_uart.o(.text)
    gt_put_char                              0x00021229   Thumb Code    14  bsp_uart.o(.text)
    systick_init                             0x00021239   Thumb Code    70  dev_systick.o(.text)
    swm_inctick                              0x00021281   Thumb Code    16  dev_systick.o(.text)
    swm_gettick                              0x00021291   Thumb Code    12  dev_systick.o(.text)
    swm_delay_ms                             0x0002129d   Thumb Code    48  dev_systick.o(.text)
    swm_delay_us                             0x000212cd   Thumb Code    86  dev_systick.o(.text)
    SysTick_Handler_cb                       0x00021325   Thumb Code     2  dev_systick.o(.text)
    SysTick_Handler                          0x00021329   Thumb Code    18  dev_systick.o(.text)
    GPIOD_Handler                            0x0002133d   Thumb Code    58  dev_touch.o(.text)
    touch_read_points                        0x00021379   Thumb Code    12  dev_touch.o(.text)
    touch_ic_init                            0x00021385   Thumb Code    76  dev_touch.o(.text)
    TP_Init                                  0x000213d1   Thumb Code   180  dev_xpt2046.o(.text)
    TP_Scan                                  0x00021485   Thumb Code   268  dev_xpt2046.o(.text)
    TP_Adjust                                0x00021591   Thumb Code  1484  dev_xpt2046.o(.text)
    TP_Write_Byte                            0x00021b5d   Thumb Code    76  dev_xpt2046.o(.text)
    TP_Read_AD                               0x00021ba9   Thumb Code   216  dev_xpt2046.o(.text)
    TP_Read_XOY                              0x00021c81   Thumb Code   286  dev_xpt2046.o(.text)
    TP_Read_XY                               0x00021da1   Thumb Code    50  dev_xpt2046.o(.text)
    TP_Read_XY2                              0x00021dd5   Thumb Code   144  dev_xpt2046.o(.text)
    TP_Get_Adjdata                           0x00021e65   Thumb Code   264  dev_xpt2046.o(.text)
    RTP_Read                                 0x00021f6d   Thumb Code    36  dev_xpt2046.o(.text)
    GPIOM_Handler                            0x00021f91   Thumb Code    92  dev_xpt2046.o(.text)
    LCD_DrawLine                             0x00021fed   Thumb Code   152  lcd_show.o(.text)
    LCD_Color_Fill                           0x00022085   Thumb Code    60  lcd_show.o(.text)
    LCD_DrawRectangle                        0x000220c1   Thumb Code   268  lcd_show.o(.text)
    LCD_Draw_Circle                          0x000221cd   Thumb Code   206  lcd_show.o(.text)
    LCD_Draw_color_Circle                    0x0002229d   Thumb Code   226  lcd_show.o(.text)
    LCD_ShowChar                             0x00022381   Thumb Code   288  lcd_show.o(.text)
    LCD_Pow                                  0x000224a1   Thumb Code    88  lcd_show.o(.text)
    LCD_ShowNum                              0x000224f9   Thumb Code   262  lcd_show.o(.text)
    LCD_ShowxNum                             0x00022601   Thumb Code   284  lcd_show.o(.text)
    LCD_ShowString                           0x0002271d   Thumb Code   110  lcd_show.o(.text)
    gt9x_read_points                         0x0002278d   Thumb Code   140  tp_gt911.o(.text)
    gt9x_init                                0x00022b8d   Thumb Code   320  tp_gt911.o(.text)
    UG_Init                                  0x00022ccd   Thumb Code   126  ugui.o(.text)
    UG_SelectGUI                             0x00022d4d   Thumb Code    16  ugui.o(.text)
    UG_FontSelect                            0x00022d5d   Thumb Code    30  ugui.o(.text)
    UG_FillScreen                            0x00022d7d   Thumb Code   124  ugui.o(.text)
    UG_FillFrame                             0x00022df9   Thumb Code   124  ugui.o(.text)
    UG_FillRoundFrame                        0x00022e75   Thumb Code   384  ugui.o(.text)
    UG_DrawLine                              0x00022ff5   Thumb Code   308  ugui.o(.text)
    UG_DrawMesh                              0x00023129   Thumb Code    82  ugui.o(.text)
    UG_DrawFrame                             0x0002317d   Thumb Code    82  ugui.o(.text)
    UG_DrawRoundFrame                        0x000231d1   Thumb Code   818  ugui.o(.text)
    UG_DrawArc                               0x00023505   Thumb Code   352  ugui.o(.text)
    UG_DrawPixel                             0x00023665   Thumb Code    14  ugui.o(.text)
    UG_DrawCircle                            0x00023675   Thumb Code   322  ugui.o(.text)
    UG_FillCircle                            0x000237b9   Thumb Code   222  ugui.o(.text)
    UG_PutString                             0x00023899   Thumb Code   238  ugui.o(.text)
    UG_PutChar                               0x00023989   Thumb Code    36  ugui.o(.text)
    _UG_PutChar                              0x000239ad   Thumb Code   952  ugui.o(.text)
    UG_ConsolePutString                      0x00023d65   Thumb Code   318  ugui.o(.text)
    UG_ConsoleSetArea                        0x00023ea5   Thumb Code    30  ugui.o(.text)
    UG_ConsoleSetForecolor                   0x00023ec5   Thumb Code    14  ugui.o(.text)
    UG_ConsoleSetBackcolor                   0x00023ed5   Thumb Code    14  ugui.o(.text)
    UG_SetForecolor                          0x00023ee5   Thumb Code    16  ugui.o(.text)
    UG_SetBackcolor                          0x00023ef5   Thumb Code    16  ugui.o(.text)
    UG_GetXDim                               0x00023f05   Thumb Code    16  ugui.o(.text)
    UG_GetYDim                               0x00023f15   Thumb Code    16  ugui.o(.text)
    UG_FontSetHSpace                         0x00023f25   Thumb Code    16  ugui.o(.text)
    UG_FontSetVSpace                         0x00023f35   Thumb Code    16  ugui.o(.text)
    _UG_PutText                              0x00023f45   Thumb Code   466  ugui.o(.text)
    _UG_GetFreeObject                        0x00024119   Thumb Code   116  ugui.o(.text)
    _UG_SearchObject                         0x0002418d   Thumb Code    66  ugui.o(.text)
    _UG_DeleteObject                         0x000241d1   Thumb Code    88  ugui.o(.text)
    _UG_ProcessTouchData                     0x00024229   Thumb Code   494  ugui.o(.text)
    _UG_UpdateObjects                        0x00024419   Thumb Code    86  ugui.o(.text)
    _UG_HandleEvents                         0x00024471   Thumb Code   100  ugui.o(.text)
    _UG_DrawObjectFrame                      0x000244d5   Thumb Code   310  ugui.o(.text)
    _UG_SendObjectPrerenderEvent             0x0002460d   Thumb Code    32  ugui.o(.text)
    _UG_SendObjectPostrenderEvent            0x0002462d   Thumb Code    34  ugui.o(.text)
    UG_DriverRegister                        0x00024651   Thumb Code    30  ugui.o(.text)
    UG_DriverEnable                          0x00024671   Thumb Code    36  ugui.o(.text)
    UG_DriverDisable                         0x00024695   Thumb Code    36  ugui.o(.text)
    UG_Update                                0x000246b9   Thumb Code   378  ugui.o(.text)
    _UG_WindowDrawTitle                      0x00024835   Thumb Code   336  ugui.o(.text)
    _UG_WindowUpdate                         0x00024985   Thumb Code   568  ugui.o(.text)
    UG_WaitForUpdate                         0x00024bbd   Thumb Code    26  ugui.o(.text)
    UG_DrawBMP                               0x00024bd9   Thumb Code   126  ugui.o(.text)
    UG_TouchUpdate                           0x00024c59   Thumb Code    18  ugui.o(.text)
    UG_WindowCreate                          0x00024c6d   Thumb Code   270  ugui.o(.text)
    UG_WindowDelete                          0x00024d7d   Thumb Code    58  ugui.o(.text)
    UG_WindowShow                            0x00024db9   Thumb Code    36  ugui.o(.text)
    UG_WindowHide                            0x00024ddd   Thumb Code   118  ugui.o(.text)
    _UG_WindowClear                          0x00024e55   Thumb Code   192  ugui.o(.text)
    UG_WindowResize                          0x00024f15   Thumb Code   570  ugui.o(.text)
    UG_WindowAlert                           0x00025151   Thumb Code    34  ugui.o(.text)
    UG_WindowGetTitleTextColor               0x00025175   Thumb Code    16  ugui.o(.text)
    UG_WindowSetTitleTextColor               0x00025185   Thumb Code    28  ugui.o(.text)
    UG_WindowGetTitleColor                   0x000251a1   Thumb Code    16  ugui.o(.text)
    UG_WindowSetTitleColor                   0x000251b1   Thumb Code    28  ugui.o(.text)
    UG_WindowSetForeColor                    0x000251cd   Thumb Code    28  ugui.o(.text)
    UG_WindowSetBackColor                    0x000251e9   Thumb Code    28  ugui.o(.text)
    UG_WindowSetTitleInactiveTextColor       0x00025205   Thumb Code    28  ugui.o(.text)
    UG_WindowSetTitleInactiveColor           0x00025221   Thumb Code    28  ugui.o(.text)
    UG_WindowSetTitleText                    0x0002523d   Thumb Code    28  ugui.o(.text)
    UG_WindowSetTitleTextFont                0x00025259   Thumb Code    60  ugui.o(.text)
    UG_WindowSetTitleTextHSpace              0x00025295   Thumb Code    30  ugui.o(.text)
    UG_WindowSetTitleTextVSpace              0x000252b5   Thumb Code    30  ugui.o(.text)
    UG_WindowSetTitleTextAlignment           0x000252d5   Thumb Code    30  ugui.o(.text)
    UG_WindowSetTitleHeight                  0x000252f5   Thumb Code    32  ugui.o(.text)
    UG_WindowSetXStart                       0x00025315   Thumb Code    52  ugui.o(.text)
    UG_WindowSetYStart                       0x00025349   Thumb Code    54  ugui.o(.text)
    UG_WindowSetXEnd                         0x00025381   Thumb Code    54  ugui.o(.text)
    UG_WindowSetYEnd                         0x000253b9   Thumb Code    56  ugui.o(.text)
    UG_WindowSetStyle                        0x000253f1   Thumb Code    46  ugui.o(.text)
    UG_WindowGetForeColor                    0x00025421   Thumb Code    16  ugui.o(.text)
    UG_WindowGetBackColor                    0x00025431   Thumb Code    16  ugui.o(.text)
    UG_WindowGetTitleInactiveTextColor       0x00025441   Thumb Code    16  ugui.o(.text)
    UG_WindowGetTitleInactiveColor           0x00025451   Thumb Code    16  ugui.o(.text)
    UG_WindowGetTitleText                    0x00025461   Thumb Code    16  ugui.o(.text)
    UG_WindowGetTitleTextFont                0x00025471   Thumb Code    16  ugui.o(.text)
    UG_WindowGetTitleTextHSpace              0x00025481   Thumb Code    22  ugui.o(.text)
    UG_WindowGetTitleTextVSpace              0x00025499   Thumb Code    22  ugui.o(.text)
    UG_WindowGetTitleTextAlignment           0x000254b1   Thumb Code    18  ugui.o(.text)
    UG_WindowGetTitleHeight                  0x000254c5   Thumb Code    18  ugui.o(.text)
    UG_WindowGetXStart                       0x000254d9   Thumb Code    18  ugui.o(.text)
    UG_WindowGetYStart                       0x000254ed   Thumb Code    18  ugui.o(.text)
    UG_WindowGetXEnd                         0x00025501   Thumb Code    18  ugui.o(.text)
    UG_WindowGetYEnd                         0x00025515   Thumb Code    18  ugui.o(.text)
    UG_WindowGetStyle                        0x00025529   Thumb Code    16  ugui.o(.text)
    UG_WindowGetArea                         0x00025539   Thumb Code    86  ugui.o(.text)
    UG_WindowGetInnerWidth                   0x00025591   Thumb Code    38  ugui.o(.text)
    UG_WindowGetOuterWidth                   0x000255b9   Thumb Code    36  ugui.o(.text)
    UG_WindowGetInnerHeight                  0x000255dd   Thumb Code    48  ugui.o(.text)
    UG_WindowGetOuterHeight                  0x0002560d   Thumb Code    36  ugui.o(.text)
    UG_ButtonCreate                          0x00025631   Thumb Code   266  ugui.o(.text)
    _UG_ButtonUpdate                         0x0002573d   Thumb Code   920  ugui.o(.text)
    UG_ButtonDelete                          0x00025ad5   Thumb Code    78  ugui.o(.text)
    UG_ButtonShow                            0x00025b25   Thumb Code    66  ugui.o(.text)
    UG_ButtonHide                            0x00025b69   Thumb Code    82  ugui.o(.text)
    UG_ButtonSetForeColor                    0x00025bbd   Thumb Code    82  ugui.o(.text)
    UG_ButtonSetBackColor                    0x00025c11   Thumb Code    82  ugui.o(.text)
    UG_ButtonSetAlternateForeColor           0x00025c65   Thumb Code    82  ugui.o(.text)
    UG_ButtonSetAlternateBackColor           0x00025cb9   Thumb Code    82  ugui.o(.text)
    UG_ButtonSetText                         0x00025d0d   Thumb Code    82  ugui.o(.text)
    UG_ButtonSetFont                         0x00025d61   Thumb Code    82  ugui.o(.text)
    UG_ButtonSetStyle                        0x00025db5   Thumb Code   154  ugui.o(.text)
    UG_ButtonSetHSpace                       0x00025e51   Thumb Code    82  ugui.o(.text)
    UG_ButtonSetVSpace                       0x00025ea5   Thumb Code    82  ugui.o(.text)
    UG_ButtonSetAlignment                    0x00025ef9   Thumb Code    82  ugui.o(.text)
    UG_ButtonGetForeColor                    0x00025f4d   Thumb Code    62  ugui.o(.text)
    UG_ButtonGetBackColor                    0x00025f8d   Thumb Code    62  ugui.o(.text)
    UG_ButtonGetAlternateForeColor           0x00025fcd   Thumb Code    62  ugui.o(.text)
    UG_ButtonGetAlternateBackColor           0x0002600d   Thumb Code    62  ugui.o(.text)
    UG_ButtonGetText                         0x0002604d   Thumb Code    62  ugui.o(.text)
    UG_ButtonGetFont                         0x0002608d   Thumb Code    62  ugui.o(.text)
    UG_ButtonGetStyle                        0x000260cd   Thumb Code    62  ugui.o(.text)
    UG_ButtonGetHSpace                       0x0002610d   Thumb Code    62  ugui.o(.text)
    UG_ButtonGetVSpace                       0x0002614d   Thumb Code    62  ugui.o(.text)
    UG_ButtonGetAlignment                    0x0002618d   Thumb Code    62  ugui.o(.text)
    UG_CheckboxCreate                        0x000261cd   Thumb Code   268  ugui.o(.text)
    _UG_CheckboxUpdate                       0x000262d9   Thumb Code  1420  ugui.o(.text)
    UG_CheckboxDelete                        0x00026865   Thumb Code    78  ugui.o(.text)
    UG_CheckboxShow                          0x000268b5   Thumb Code    66  ugui.o(.text)
    UG_CheckboxHide                          0x000268f9   Thumb Code    82  ugui.o(.text)
    UG_CheckboxSetCheched                    0x0002694d   Thumb Code    82  ugui.o(.text)
    UG_CheckboxSetForeColor                  0x000269a1   Thumb Code    82  ugui.o(.text)
    UG_CheckboxSetBackColor                  0x000269f5   Thumb Code    82  ugui.o(.text)
    UG_CheckboxSetAlternateForeColor         0x00026a49   Thumb Code    82  ugui.o(.text)
    UG_CheckboxSetAlternateBackColor         0x00026a9d   Thumb Code    82  ugui.o(.text)
    UG_CheckboxSetText                       0x00026af1   Thumb Code    82  ugui.o(.text)
    UG_CheckboxSetFont                       0x00026b45   Thumb Code    82  ugui.o(.text)
    UG_CheckboxSetStyle                      0x00026b99   Thumb Code   154  ugui.o(.text)
    UG_CheckboxSetHSpace                     0x00026c35   Thumb Code    82  ugui.o(.text)
    UG_CheckboxSetVSpace                     0x00026c89   Thumb Code    82  ugui.o(.text)
    UG_CheckboxSetAlignment                  0x00026cdd   Thumb Code    82  ugui.o(.text)
    UG_CheckboxGetChecked                    0x00026d31   Thumb Code    62  ugui.o(.text)
    UG_CheckboxGetForeColor                  0x00026d71   Thumb Code    62  ugui.o(.text)
    UG_CheckboxGetBackColor                  0x00026db1   Thumb Code    62  ugui.o(.text)
    UG_CheckboxGetAlternateForeColor         0x00026df1   Thumb Code    62  ugui.o(.text)
    UG_CheckboxGetAlternateBackColor         0x00026e31   Thumb Code    62  ugui.o(.text)
    UG_CheckboxGetText                       0x00026e71   Thumb Code    62  ugui.o(.text)
    UG_CheckboxGetFont                       0x00026eb1   Thumb Code    62  ugui.o(.text)
    UG_CheckboxGetStyle                      0x00026ef1   Thumb Code    62  ugui.o(.text)
    UG_CheckboxGetHSpace                     0x00026f31   Thumb Code    62  ugui.o(.text)
    UG_CheckboxGetVSpace                     0x00026f71   Thumb Code    62  ugui.o(.text)
    UG_CheckboxGetAlignment                  0x00026fb1   Thumb Code    62  ugui.o(.text)
    UG_TextboxCreate                         0x00026ff1   Thumb Code   252  ugui.o(.text)
    _UG_TextboxUpdate                        0x000270ed   Thumb Code   536  ugui.o(.text)
    UG_TextboxDelete                         0x00027305   Thumb Code    78  ugui.o(.text)
    UG_TextboxShow                           0x00027355   Thumb Code    66  ugui.o(.text)
    UG_TextboxHide                           0x00027399   Thumb Code    68  ugui.o(.text)
    UG_TextboxSetForeColor                   0x000273dd   Thumb Code    82  ugui.o(.text)
    UG_TextboxSetBackColor                   0x00027431   Thumb Code    82  ugui.o(.text)
    UG_TextboxSetText                        0x00027485   Thumb Code    82  ugui.o(.text)
    UG_TextboxSetFont                        0x000274d9   Thumb Code    82  ugui.o(.text)
    UG_TextboxSetHSpace                      0x0002752d   Thumb Code    82  ugui.o(.text)
    UG_TextboxSetVSpace                      0x00027581   Thumb Code    82  ugui.o(.text)
    UG_TextboxSetAlignment                   0x000275d5   Thumb Code    82  ugui.o(.text)
    UG_TextboxGetForeColor                   0x00027629   Thumb Code    62  ugui.o(.text)
    UG_TextboxGetBackColor                   0x00027669   Thumb Code    62  ugui.o(.text)
    UG_TextboxGetText                        0x000276a9   Thumb Code    62  ugui.o(.text)
    UG_TextboxGetFont                        0x000276e9   Thumb Code    62  ugui.o(.text)
    UG_TextboxGetHSpace                      0x00027729   Thumb Code    62  ugui.o(.text)
    UG_TextboxGetVSpace                      0x00027769   Thumb Code    62  ugui.o(.text)
    UG_TextboxGetAlignment                   0x000277a9   Thumb Code    62  ugui.o(.text)
    UG_ImageCreate                           0x000277e9   Thumb Code   214  ugui.o(.text)
    _UG_ImageUpdate                          0x000278c1   Thumb Code   402  ugui.o(.text)
    UG_ImageDelete                           0x00027a55   Thumb Code    78  ugui.o(.text)
    UG_ImageShow                             0x00027aa5   Thumb Code    66  ugui.o(.text)
    UG_ImageHide                             0x00027ae9   Thumb Code    68  ugui.o(.text)
    UG_ImageSetBMP                           0x00027b2d   Thumb Code    86  ugui.o(.text)
    SystemCoreClockUpdate                    0x00027b85   Thumb Code   200  system_swm341.o(.text)
    SystemInit                               0x00027c4d   Thumb Code   412  system_swm341.o(.text)
    switchToPLL                              0x00027de9   Thumb Code   266  system_swm341.o(.text)
    FPU_Enable                               0x00027ef5   Thumb Code     2  system_swm341.o(.text)
    switchTo20MHz                            0x00027ef9   Thumb Code   210  system_swm341.o(.text)
    switchTo2M5Hz                            0x00027fcd   Thumb Code   434  system_swm341.o(.text)
    switchTo40MHz                            0x00028181   Thumb Code   210  system_swm341.o(.text)
    switchTo5MHz                             0x00028255   Thumb Code   434  system_swm341.o(.text)
    switchToXTAL                             0x00028409   Thumb Code   676  system_swm341.o(.text)
    PLLInit                                  0x000286ad   Thumb Code   496  system_swm341.o(.text)
    switchTo32KHz                            0x0002889d   Thumb Code   434  system_swm341.o(.text)
    switchToXTAL_32K                         0x00028a51   Thumb Code   558  system_swm341.o(.text)
    Reset_Handler                            0x00028c81   Thumb Code     8  startup_swm341.o(.text)
    NMI_Handler                              0x00028c89   Thumb Code     2  startup_swm341.o(.text)
    HardFault_Handler                        0x00028c8b   Thumb Code     2  startup_swm341.o(.text)
    MemManage_Handler                        0x00028c8d   Thumb Code     2  startup_swm341.o(.text)
    BusFault_Handler                         0x00028c8f   Thumb Code     2  startup_swm341.o(.text)
    UsageFault_Handler                       0x00028c91   Thumb Code     2  startup_swm341.o(.text)
    SVC_Handler                              0x00028c93   Thumb Code     2  startup_swm341.o(.text)
    DebugMon_Handler                         0x00028c95   Thumb Code     2  startup_swm341.o(.text)
    PendSV_Handler                           0x00028c97   Thumb Code     2  startup_swm341.o(.text)
    UART0_Handler                            0x00028c9b   Thumb Code     2  startup_swm341.o(.text)
    UART1_Handler                            0x00028c9d   Thumb Code     2  startup_swm341.o(.text)
    TIMR0_Handler                            0x00028c9f   Thumb Code     2  startup_swm341.o(.text)
    TIMR1_Handler                            0x00028ca1   Thumb Code     2  startup_swm341.o(.text)
    DMA_Handler                              0x00028ca3   Thumb Code     2  startup_swm341.o(.text)
    SPI0_Handler                             0x00028ca5   Thumb Code     2  startup_swm341.o(.text)
    PWM0_Handler                             0x00028ca7   Thumb Code     2  startup_swm341.o(.text)
    WDT_Handler                              0x00028ca9   Thumb Code     2  startup_swm341.o(.text)
    UART2_Handler                            0x00028cab   Thumb Code     2  startup_swm341.o(.text)
    PWM1_Handler                             0x00028cad   Thumb Code     2  startup_swm341.o(.text)
    ADC0_Handler                             0x00028caf   Thumb Code     2  startup_swm341.o(.text)
    BTIMR0_Handler                           0x00028cb1   Thumb Code     2  startup_swm341.o(.text)
    HALL0_Handler                            0x00028cb3   Thumb Code     2  startup_swm341.o(.text)
    PWM2_Handler                             0x00028cb5   Thumb Code     2  startup_swm341.o(.text)
    PWMBRK_Handler                           0x00028cb7   Thumb Code     2  startup_swm341.o(.text)
    I2C0_Handler                             0x00028cb9   Thumb Code     2  startup_swm341.o(.text)
    CAN0_Handler                             0x00028cbb   Thumb Code     2  startup_swm341.o(.text)
    SPI1_Handler                             0x00028cbd   Thumb Code     2  startup_swm341.o(.text)
    RTC_Handler                              0x00028cbf   Thumb Code     2  startup_swm341.o(.text)
    PWM3_Handler                             0x00028cc1   Thumb Code     2  startup_swm341.o(.text)
    TIMR2_Handler                            0x00028cc3   Thumb Code     2  startup_swm341.o(.text)
    TIMR3_Handler                            0x00028cc7   Thumb Code     2  startup_swm341.o(.text)
    ADC1_Handler                             0x00028cc9   Thumb Code     2  startup_swm341.o(.text)
    BOD_Handler                              0x00028ccb   Thumb Code     2  startup_swm341.o(.text)
    CORDIC_Handler                           0x00028ccd   Thumb Code     2  startup_swm341.o(.text)
    BTIMR1_Handler                           0x00028ccf   Thumb Code     2  startup_swm341.o(.text)
    PWM4_Handler                             0x00028cd1   Thumb Code     2  startup_swm341.o(.text)
    HALL3_Handler                            0x00028cd3   Thumb Code     2  startup_swm341.o(.text)
    BTIMR2_Handler                           0x00028cd5   Thumb Code     2  startup_swm341.o(.text)
    I2C1_Handler                             0x00028cd7   Thumb Code     2  startup_swm341.o(.text)
    BTIMR3_Handler                           0x00028cd9   Thumb Code     2  startup_swm341.o(.text)
    ACMP_Handler                             0x00028cdb   Thumb Code     2  startup_swm341.o(.text)
    XTALSTOP_Handler                         0x00028cdd   Thumb Code     2  startup_swm341.o(.text)
    FSPI_Handler                             0x00028cdf   Thumb Code     2  startup_swm341.o(.text)
    GPIOA_Handler                            0x00028ce1   Thumb Code     2  startup_swm341.o(.text)
    GPIOB_Handler                            0x00028ce3   Thumb Code     2  startup_swm341.o(.text)
    GPIOC_Handler                            0x00028ce5   Thumb Code     2  startup_swm341.o(.text)
    GPION_Handler                            0x00028ceb   Thumb Code     2  startup_swm341.o(.text)
    GPIOA0_Handler                           0x00028ced   Thumb Code     2  startup_swm341.o(.text)
    GPIOA1_Handler                           0x00028cef   Thumb Code     2  startup_swm341.o(.text)
    GPIOA5_Handler                           0x00028cf1   Thumb Code     2  startup_swm341.o(.text)
    GPIOA6_Handler                           0x00028cf3   Thumb Code     2  startup_swm341.o(.text)
    GPIOA10_Handler                          0x00028cf5   Thumb Code     2  startup_swm341.o(.text)
    GPIOA11_Handler                          0x00028cf7   Thumb Code     2  startup_swm341.o(.text)
    GPIOA12_Handler                          0x00028cf9   Thumb Code     2  startup_swm341.o(.text)
    GPIOA13_Handler                          0x00028cfb   Thumb Code     2  startup_swm341.o(.text)
    GPIOB0_Handler                           0x00028cfd   Thumb Code     2  startup_swm341.o(.text)
    GPIOB1_Handler                           0x00028cff   Thumb Code     2  startup_swm341.o(.text)
    GPIOB2_Handler                           0x00028d01   Thumb Code     2  startup_swm341.o(.text)
    GPIOC0_Handler                           0x00028d03   Thumb Code     2  startup_swm341.o(.text)
    GPIOC1_Handler                           0x00028d05   Thumb Code     2  startup_swm341.o(.text)
    GPIOC2_Handler                           0x00028d07   Thumb Code     2  startup_swm341.o(.text)
    GPIOC3_Handler                           0x00028d09   Thumb Code     2  startup_swm341.o(.text)
    GPIOC4_Handler                           0x00028d0b   Thumb Code     2  startup_swm341.o(.text)
    GPIOD3_Handler                           0x00028d0d   Thumb Code     2  startup_swm341.o(.text)
    GPIOD4_Handler                           0x00028d0f   Thumb Code     2  startup_swm341.o(.text)
    GPIOD5_Handler                           0x00028d11   Thumb Code     2  startup_swm341.o(.text)
    GPIOD6_Handler                           0x00028d13   Thumb Code     2  startup_swm341.o(.text)
    GPIOD7_Handler                           0x00028d15   Thumb Code     2  startup_swm341.o(.text)
    GPIOD8_Handler                           0x00028d17   Thumb Code     2  startup_swm341.o(.text)
    GPIOC9_Handler                           0x00028d19   Thumb Code     2  startup_swm341.o(.text)
    GPIOC10_Handler                          0x00028d1b   Thumb Code     2  startup_swm341.o(.text)
    GPIOC11_Handler                          0x00028d1d   Thumb Code     2  startup_swm341.o(.text)
    GPIOC12_Handler                          0x00028d1f   Thumb Code     2  startup_swm341.o(.text)
    GPIOM0_Handler                           0x00028d21   Thumb Code     2  startup_swm341.o(.text)
    GPIOM1_Handler                           0x00028d23   Thumb Code     2  startup_swm341.o(.text)
    GPIOM2_Handler                           0x00028d25   Thumb Code     2  startup_swm341.o(.text)
    GPIOM3_Handler                           0x00028d27   Thumb Code     2  startup_swm341.o(.text)
    GPIOM4_Handler                           0x00028d29   Thumb Code     2  startup_swm341.o(.text)
    DIV_Handler                              0x00028d2b   Thumb Code     2  startup_swm341.o(.text)
    GPIOE_Handler                            0x00028d2f   Thumb Code     2  startup_swm341.o(.text)
    JPEG_Handler                             0x00028d31   Thumb Code     2  startup_swm341.o(.text)
    SDIO_Handler                             0x00028d33   Thumb Code     2  startup_swm341.o(.text)
    USB_Handler                              0x00028d35   Thumb Code     2  startup_swm341.o(.text)
    CAN1_Handler                             0x00028d37   Thumb Code     2  startup_swm341.o(.text)
    BTIMR4_Handler                           0x00028d3b   Thumb Code     2  startup_swm341.o(.text)
    BTIMR5_Handler                           0x00028d3d   Thumb Code     2  startup_swm341.o(.text)
    BTIMR6_Handler                           0x00028d3f   Thumb Code     2  startup_swm341.o(.text)
    BTIMR7_Handler                           0x00028d41   Thumb Code     2  startup_swm341.o(.text)
    BTIMR8_Handler                           0x00028d43   Thumb Code     2  startup_swm341.o(.text)
    BTIMR9_Handler                           0x00028d45   Thumb Code     2  startup_swm341.o(.text)
    BTIMR10_Handler                          0x00028d47   Thumb Code     2  startup_swm341.o(.text)
    BTIMR11_Handler                          0x00028d49   Thumb Code     2  startup_swm341.o(.text)
    DMA2D_Handler                            0x00028d4b   Thumb Code     2  startup_swm341.o(.text)
    QEI_Handler                              0x00028d4d   Thumb Code     2  startup_swm341.o(.text)
    EXTI_Init                                0x00028d59   Thumb Code    86  swm341_exti.o(.text)
    EXTI_Close                               0x00028db1   Thumb Code    16  swm341_exti.o(.text)
    EXTI_Open                                0x00028dc1   Thumb Code    14  swm341_exti.o(.text)
    EXTI_State                               0x00028dd1   Thumb Code    10  swm341_exti.o(.text)
    EXTI_RawState                            0x00028ddd   Thumb Code    10  swm341_exti.o(.text)
    EXTI_Clear                               0x00028de9   Thumb Code    10  swm341_exti.o(.text)
    FLASH_Erase                              0x00028df5   Thumb Code    70  swm341_flash.o(.text)
    FLASH_Write                              0x00028e3d   Thumb Code    78  swm341_flash.o(.text)
    Flash_Param_at_xMHz                      0x00028e8d   Thumb Code   158  swm341_flash.o(.text)
    GPIO_Init                                0x00028f2d   Thumb Code   356  swm341_gpio.o(.text)
    GPIO_SetBit                              0x00029091   Thumb Code    14  swm341_gpio.o(.text)
    GPIO_ClrBit                              0x000290a1   Thumb Code    16  swm341_gpio.o(.text)
    GPIO_InvBit                              0x000290b1   Thumb Code    14  swm341_gpio.o(.text)
    GPIO_GetBit                              0x000290c1   Thumb Code    10  swm341_gpio.o(.text)
    GPIO_SetBits                             0x000290cd   Thumb Code    24  swm341_gpio.o(.text)
    GPIO_ClrBits                             0x000290e5   Thumb Code    26  swm341_gpio.o(.text)
    GPIO_InvBits                             0x00029101   Thumb Code    24  swm341_gpio.o(.text)
    GPIO_GetBits                             0x00029119   Thumb Code    20  swm341_gpio.o(.text)
    GPIO_AtomicSetBit                        0x0002912d   Thumb Code    10  swm341_gpio.o(.text)
    GPIO_AtomicClrBit                        0x00029139   Thumb Code    10  swm341_gpio.o(.text)
    GPIO_AtomicInvBit                        0x00029145   Thumb Code    14  swm341_gpio.o(.text)
    GPIO_AtomicSetBits                       0x00029155   Thumb Code    32  swm341_gpio.o(.text)
    GPIO_AtomicClrBits                       0x00029175   Thumb Code    34  swm341_gpio.o(.text)
    GPIO_AtomicInvBits                       0x00029199   Thumb Code    32  swm341_gpio.o(.text)
    I2C_Init                                 0x000291b9   Thumb Code   394  swm341_i2c.o(.text)
    I2C_Close                                0x00029345   Thumb Code    10  swm341_i2c.o(.text)
    I2C_Open                                 0x00029351   Thumb Code    10  swm341_i2c.o(.text)
    I2C_Start                                0x0002935d   Thumb Code    64  swm341_i2c.o(.text)
    I2C_StartDone                            0x0002939d   Thumb Code    10  swm341_i2c.o(.text)
    I2C_IsAck                                0x000293a9   Thumb Code    10  swm341_i2c.o(.text)
    I2C_Stop                                 0x000293b5   Thumb Code    52  swm341_i2c.o(.text)
    I2C_StopDone                             0x000293e9   Thumb Code    10  swm341_i2c.o(.text)
    I2C_Write                                0x000293f5   Thumb Code    64  swm341_i2c.o(.text)
    I2C_WriteDone                            0x00029435   Thumb Code    10  swm341_i2c.o(.text)
    I2C_Read                                 0x00029441   Thumb Code    68  swm341_i2c.o(.text)
    I2C_ReadDone                             0x00029485   Thumb Code    10  swm341_i2c.o(.text)
    I2C_INTEn                                0x00029491   Thumb Code     8  swm341_i2c.o(.text)
    I2C_INTDis                               0x00029499   Thumb Code    10  swm341_i2c.o(.text)
    I2C_INTClr                               0x000294a5   Thumb Code     4  swm341_i2c.o(.text)
    I2C_INTStat                              0x000294a9   Thumb Code    10  swm341_i2c.o(.text)
    LCD_Init                                 0x000294b5   Thumb Code   222  swm341_lcd.o(.text)
    LCD_LayerInit                            0x00029595   Thumb Code    58  swm341_lcd.o(.text)
    LCD_SetLayerPos                          0x000295d1   Thumb Code    40  swm341_lcd.o(.text)
    LCD_Start                                0x000295f9   Thumb Code    10  swm341_lcd.o(.text)
    LCD_IsBusy                               0x00029605   Thumb Code     8  swm341_lcd.o(.text)
    LCD_INTEn                                0x0002960d   Thumb Code     6  swm341_lcd.o(.text)
    LCD_INTDis                               0x00029615   Thumb Code     6  swm341_lcd.o(.text)
    LCD_INTClr                               0x0002961d   Thumb Code     6  swm341_lcd.o(.text)
    LCD_INTStat                              0x00029625   Thumb Code     8  swm341_lcd.o(.text)
    MPULCD_Init                              0x0002962d   Thumb Code   138  swm341_lcd.o(.text)
    LCD_WR_REG                               0x000296b9   Thumb Code    46  swm341_lcd.o(.text)
    LCD_WR_DATA                              0x000296e9   Thumb Code    46  swm341_lcd.o(.text)
    LCD_WriteReg                             0x00029719   Thumb Code    90  swm341_lcd.o(.text)
    LCD_ReadReg                              0x00029775   Thumb Code    52  swm341_lcd.o(.text)
    MPULCD_DMAStart                          0x000297a9   Thumb Code    32  swm341_lcd.o(.text)
    MPULCD_DMABusy                           0x000297c9   Thumb Code     8  swm341_lcd.o(.text)
    PORT_Init                                0x000297d1   Thumb Code    74  swm341_port.o(.text)
    SDRAM_Init                               0x0002981d   Thumb Code   210  swm341_sdram.o(.text)
    SDRAM_Enable                             0x000298f1   Thumb Code   122  swm341_sdram.o(.text)
    SDRAM_Disable                            0x0002996d   Thumb Code   122  swm341_sdram.o(.text)
    SFC_Init                                 0x000299e9   Thumb Code   150  swm341_sfc.o(.text)
    SFC_ReadJEDEC                            0x00029a81   Thumb Code    62  swm341_sfc.o(.text)
    SFC_Erase                                0x00029ac1   Thumb Code   188  swm341_sfc.o(.text)
    SFC_EraseEx                              0x00029b7d   Thumb Code   224  swm341_sfc.o(.text)
    SFC_FlashBusy                            0x00029c5d   Thumb Code    66  swm341_sfc.o(.text)
    SFC_Write                                0x00029ca1   Thumb Code   234  swm341_sfc.o(.text)
    SFC_Read                                 0x00029d8d   Thumb Code   154  swm341_sfc.o(.text)
    SFC_ReadStatusReg                        0x00029e29   Thumb Code    64  swm341_sfc.o(.text)
    SFC_WriteStatusReg                       0x00029e69   Thumb Code    72  swm341_sfc.o(.text)
    SFC_QuadSwitch                           0x00029eb1   Thumb Code   196  swm341_sfc.o(.text)
    SFC_QuadState                            0x00029f75   Thumb Code    66  swm341_sfc.o(.text)
    TIMR_Init                                0x00029fb9   Thumb Code   880  swm341_timr.o(.text)
    TIMR_Stop                                0x0002a329   Thumb Code   418  swm341_timr.o(.text)
    TIMR_Start                               0x0002a4cd   Thumb Code   392  swm341_timr.o(.text)
    TIMR_Halt                                0x0002a655   Thumb Code     6  swm341_timr.o(.text)
    TIMR_Resume                              0x0002a65d   Thumb Code     6  swm341_timr.o(.text)
    TIMR_GetCurValue                         0x0002a665   Thumb Code     4  swm341_timr.o(.text)
    TIMR_INTEn                               0x0002a669   Thumb Code    10  swm341_timr.o(.text)
    TIMR_INTDis                              0x0002a675   Thumb Code    10  swm341_timr.o(.text)
    TIMR_INTClr                              0x0002a681   Thumb Code     6  swm341_timr.o(.text)
    TIMR_INTStat                             0x0002a689   Thumb Code     8  swm341_timr.o(.text)
    TIMR_OC_Init                             0x0002a691   Thumb Code   716  swm341_timr.o(.text)
    TIMR_OC_OutputEn                         0x0002a95d   Thumb Code    10  swm341_timr.o(.text)
    TIMR_OC_OutputDis                        0x0002a969   Thumb Code    24  swm341_timr.o(.text)
    TIMR_OC_SetMatch                         0x0002a981   Thumb Code     4  swm341_timr.o(.text)
    TIMR_OC_GetMatch                         0x0002a985   Thumb Code     4  swm341_timr.o(.text)
    TIMR_OC_INTEn                            0x0002a989   Thumb Code    10  swm341_timr.o(.text)
    TIMR_OC_INTDis                           0x0002a995   Thumb Code    10  swm341_timr.o(.text)
    TIMR_OC_INTClr                           0x0002a9a1   Thumb Code     6  swm341_timr.o(.text)
    TIMR_OC_INTStat                          0x0002a9a9   Thumb Code     8  swm341_timr.o(.text)
    TIMR_IC_Init                             0x0002a9b1   Thumb Code   178  swm341_timr.o(.text)
    TIMR_IC_GetCaptureH                      0x0002aa65   Thumb Code     4  swm341_timr.o(.text)
    TIMR_IC_GetCaptureL                      0x0002aa69   Thumb Code     4  swm341_timr.o(.text)
    TIMR_IC_CaptureH_INTEn                   0x0002aa6d   Thumb Code    10  swm341_timr.o(.text)
    TIMR_IC_CaptureH_INTDis                  0x0002aa79   Thumb Code    10  swm341_timr.o(.text)
    TIMR_IC_CaptureH_INTClr                  0x0002aa85   Thumb Code     6  swm341_timr.o(.text)
    TIMR_IC_CaptureH_INTStat                 0x0002aa8d   Thumb Code     8  swm341_timr.o(.text)
    TIMR_IC_CaptureL_INTEn                   0x0002aa95   Thumb Code    10  swm341_timr.o(.text)
    TIMR_IC_CaptureL_INTDis                  0x0002aaa1   Thumb Code    10  swm341_timr.o(.text)
    TIMR_IC_CaptureL_INTClr                  0x0002aaad   Thumb Code     6  swm341_timr.o(.text)
    TIMR_IC_CaptureL_INTStat                 0x0002aab5   Thumb Code     8  swm341_timr.o(.text)
    UART_Init                                0x0002aabd   Thumb Code   376  swm341_uart.o(.text)
    UART_Close                               0x0002ac35   Thumb Code    10  swm341_uart.o(.text)
    UART_Open                                0x0002ac41   Thumb Code    10  swm341_uart.o(.text)
    UART_WriteByte                           0x0002ac4d   Thumb Code     4  swm341_uart.o(.text)
    UART_ReadByte                            0x0002ac51   Thumb Code    16  swm341_uart.o(.text)
    UART_IsTXBusy                            0x0002ac61   Thumb Code    10  swm341_uart.o(.text)
    UART_IsRXFIFOEmpty                       0x0002ac6d   Thumb Code    10  swm341_uart.o(.text)
    UART_IsTXFIFOFull                        0x0002ac79   Thumb Code     8  swm341_uart.o(.text)
    UART_SetBaudrate                         0x0002ac81   Thumb Code    44  swm341_uart.o(.text)
    UART_GetBaudrate                         0x0002acad   Thumb Code    28  swm341_uart.o(.text)
    UART_CTSConfig                           0x0002acc9   Thumb Code    20  swm341_uart.o(.text)
    UART_CTSLineState                        0x0002acdd   Thumb Code     8  swm341_uart.o(.text)
    UART_RTSConfig                           0x0002ace5   Thumb Code    30  swm341_uart.o(.text)
    UART_RTSLineState                        0x0002ad05   Thumb Code     8  swm341_uart.o(.text)
    UART_LINConfig                           0x0002ad0d   Thumb Code    54  swm341_uart.o(.text)
    UART_LINGenerate                         0x0002ad45   Thumb Code    10  swm341_uart.o(.text)
    UART_LINIsDetected                       0x0002ad51   Thumb Code     8  swm341_uart.o(.text)
    UART_LINIsGenerated                      0x0002ad59   Thumb Code     8  swm341_uart.o(.text)
    UART_ABRStart                            0x0002ad61   Thumb Code    64  swm341_uart.o(.text)
    UART_ABRIsDone                           0x0002ada1   Thumb Code    24  swm341_uart.o(.text)
    UART_INTEn                               0x0002adb9   Thumb Code     8  swm341_uart.o(.text)
    UART_INTDis                              0x0002adc1   Thumb Code    10  swm341_uart.o(.text)
    UART_INTClr                              0x0002adcd   Thumb Code    16  swm341_uart.o(.text)
    UART_INTStat                             0x0002addd   Thumb Code    54  swm341_uart.o(.text)
    WDT_Init                                 0x0002ae15   Thumb Code   116  swm341_wdt.o(.text)
    WDT_Stop                                 0x0002ae89   Thumb Code    10  swm341_wdt.o(.text)
    WDT_Start                                0x0002ae95   Thumb Code    10  swm341_wdt.o(.text)
    WDT_Feed                                 0x0002aea1   Thumb Code     6  swm341_wdt.o(.text)
    WDT_INTClr                               0x0002aea9   Thumb Code     6  swm341_wdt.o(.text)
    WDT_INTStat                              0x0002aeb1   Thumb Code     4  swm341_wdt.o(.text)
    gt_port_disp_init                        0x0002aeb5   Thumb Code    70  gt_port_disp.o(.text)
    gt_port_indev_init                       0x0002aefd   Thumb Code    74  gt_port_indev.o(.text)
    gt_port_src_init                         0x0002af49   Thumb Code    14  gt_port_src.o(.text)
    gt_port_vf_init                          0x0002af59   Thumb Code    40  gt_port_vf.o(.text)
    gt_disp_set_scr                          0x0002af81   Thumb Code    16  gt_disp.o(.text)
    gt_disp_get_scr                          0x0002af91   Thumb Code    16  gt_disp.o(.text)
    gt_disp_load_scr                         0x0002afa1   Thumb Code   110  gt_disp.o(.text)
    gt_disp_ref_area                         0x0002b011   Thumb Code   386  gt_disp.o(.text)
    gt_disp_set_area_act                     0x0002b1f5   Thumb Code    22  gt_disp.o(.text)
    gt_disp_get_area_act                     0x0002b20d   Thumb Code    12  gt_disp.o(.text)
    gt_disp_get_area_max                     0x0002b219   Thumb Code    12  gt_disp.o(.text)
    gt_disp_scroll_area_act                  0x0002b225   Thumb Code   156  gt_disp.o(.text)
    gt_disp_obj                              0x0002b2c1   Thumb Code    84  gt_disp.o(.text)
    gt_draw_rect                             0x0002b315   Thumb Code     2  gt_draw.o(.text)
    gt_draw_arch                             0x0002b319   Thumb Code  1940  gt_draw.o(.text)
    gt_draw_line                             0x0002baad   Thumb Code   180  gt_draw.o(.text)
    draw_bg                                  0x0002bb61   Thumb Code  3750  gt_draw.o(.text)
    draw_text                                0x0002ca09   Thumb Code  2828  gt_draw.o(.text)
    draw_bg_img                              0x0002db1d   Thumb Code   512  gt_draw.o(.text)
    gt_obj_add_event_cb                      0x0002dd1d   Thumb Code   102  gt_event.o(.text)
    gt_event_send                            0x0002dd85   Thumb Code   290  gt_event.o(.text)
    gt_event_is_locked                       0x0002dea9   Thumb Code    12  gt_event.o(.text)
    _gt_event_init                           0x0002deb5   Thumb Code    16  gt_event.o(.text)
    gt_event_clr_all_event                   0x0002dee9   Thumb Code    42  gt_event.o(.text)
    gt_event_get_locked_obj                  0x0002df15   Thumb Code    12  gt_event.o(.text)
    gt_event_get_code                        0x0002df21   Thumb Code     4  gt_event.o(.text)
    gt_fs_get_src_type                       0x0002e049   Thumb Code    54  gt_fs.o(.text)
    gt_fs_get_fp                             0x0002e081   Thumb Code    12  gt_fs.o(.text)
    gt_fs_open                               0x0002e08d   Thumb Code   118  gt_fs.o(.text)
    gt_fs_read                               0x0002e105   Thumb Code    48  gt_fs.o(.text)
    gt_fs_seek                               0x0002e135   Thumb Code    30  gt_fs.o(.text)
    gt_fs_tell                               0x0002e155   Thumb Code    26  gt_fs.o(.text)
    gt_fs_write                              0x0002e171   Thumb Code    48  gt_fs.o(.text)
    gt_fs_read_img_offset                    0x0002e1a1   Thumb Code    82  gt_fs.o(.text)
    gt_fs_read_img_wh                        0x0002e1f5   Thumb Code   166  gt_fs.o(.text)
    gt_fs_close                              0x0002e29d   Thumb Code    36  gt_fs.o(.text)
    gt_graph_dot_to_gray                     0x0002e2c1   Thumb Code  1080  gt_graph_base.o(.text)
    gt_graph_get_gray                        0x0002e6f9   Thumb Code    92  gt_graph_base.o(.text)
    gt_graph_init_rect_attr                  0x0002e755   Thumb Code    26  gt_graph_base.o(.text)
    gt_graph_init_line_attr                  0x0002e771   Thumb Code     8  gt_graph_base.o(.text)
    gt_graph_init_arch_attr                  0x0002e779   Thumb Code     8  gt_graph_base.o(.text)
    gt_graph_init_circle_attr                0x0002e781   Thumb Code     8  gt_graph_base.o(.text)
    gt_graph_get_default                     0x0002e789   Thumb Code    12  gt_graph_base.o(.text)
    gt_graph_set_default                     0x0002e795   Thumb Code    12  gt_graph_base.o(.text)
    gt_graph_circle                          0x0002e7a1   Thumb Code  3802  gt_graph_base.o(.text)
    gt_graph_line                            0x0002f67d   Thumb Code   534  gt_graph_base.o(.text)
    gt_bresenham_line                        0x0002f895   Thumb Code   138  gt_graph_base.o(.text)
    gt_graph_rect                            0x0002f921   Thumb Code   714  gt_graph_base.o(.text)
    gt_graph_dot_draw_to_color               0x0002fbed   Thumb Code   528  gt_graph_base.o(.text)
    gt_rect                                  0x0002fdfd   Thumb Code     2  gt_graph_base.o(.text)
    gt_init                                  0x0002fe01   Thumb Code    66  gt_handler.o(.text)
    gt_task_handler                          0x0002fe45   Thumb Code    20  gt_handler.o(.text)
    _gt_img_decoder_init                     0x0002fe59   Thumb Code   102  gt_img_decoder.o(.text)
    gt_img_decoder_create                    0x0002fec1   Thumb Code    44  gt_img_decoder.o(.text)
    gt_img_decoder_set_info_cb               0x0002feed   Thumb Code     4  gt_img_decoder.o(.text)
    gt_img_decoder_set_open_cb               0x0002ff29   Thumb Code     4  gt_img_decoder.o(.text)
    gt_img_decoder_set_read_line_cb          0x0002ff65   Thumb Code     4  gt_img_decoder.o(.text)
    gt_img_decoder_set_close_cb              0x0002ffb9   Thumb Code     4  gt_img_decoder.o(.text)
    gt_img_decoder_register                  0x0002ffc9   Thumb Code    20  gt_img_decoder.o(.text)
    gt_img_decoder_get_type                  0x0002ffdd   Thumb Code     4  gt_img_decoder.o(.text)
    gt_img_decoder_get_info                  0x0002ffe1   Thumb Code    54  gt_img_decoder.o(.text)
    gt_img_decoder_open                      0x00030019   Thumb Code   132  gt_img_decoder.o(.text)
    gt_img_decoder_read_line                 0x0003009d   Thumb Code    52  gt_img_decoder.o(.text)
    gt_img_decoder_close                     0x000300d1   Thumb Code    14  gt_img_decoder.o(.text)
    gt_indev_get_point_act                   0x000300e1   Thumb Code    10  gt_indev.o(.text)
    gt_indev_get_point_newly                 0x000300ed   Thumb Code    10  gt_indev.o(.text)
    gt_indev_get_gesture                     0x000300f9   Thumb Code     4  gt_indev.o(.text)
    gt_indev_handler                         0x000300fd   Thumb Code   732  gt_indev.o(.text)
    gt_mem_init                              0x000303d9   Thumb Code    52  gt_mem.o(.text)
    gt_mem_deinit                            0x0003040d   Thumb Code    14  gt_mem.o(.text)
    _mem_malloc                              0x0003041d   Thumb Code    40  gt_mem.o(.text)
    _mem_realloc                             0x00030445   Thumb Code    42  gt_mem.o(.text)
    _mem_free                                0x00030471   Thumb Code    20  gt_mem.o(.text)
    gt_memcpy                                0x00030485   Thumb Code    36  gt_mem.o(.text)
    gt_memmove                               0x000304a9   Thumb Code    12  gt_mem.o(.text)
    gt_memset_0                              0x000304b5   Thumb Code    12  gt_mem.o(.text)
    gt_memset                                0x000304c1   Thumb Code    18  gt_mem.o(.text)
    gt_memcmp                                0x000304d5   Thumb Code     4  gt_mem.o(.text)
    gt_mem_check_used                        0x000304d9   Thumb Code   176  gt_mem.o(.text)
    gt_area_copy                             0x00030589   Thumb Code    10  gt_obj_pos.o(.text)
    gt_obj_is_visible                        0x00030595   Thumb Code    82  gt_obj_pos.o(.text)
    gt_obj_check_visible                     0x000305e9   Thumb Code    64  gt_obj_pos.o(.text)
    gt_obj_get_valid_area                    0x00030629   Thumb Code   130  gt_obj_pos.o(.text)
    gt_obj_check_is_clicked                  0x000306ad   Thumb Code    50  gt_obj_pos.o(.text)
    gt_find_clicked_obj_by_point             0x000306e1   Thumb Code    50  gt_obj_pos.o(.text)
    gt_obj_check_scr                         0x00030795   Thumb Code    48  gt_obj_pos.o(.text)
    _gt_obj_set_process_point                0x000307c5   Thumb Code     6  gt_obj_pos.o(.text)
    _gt_obj_set_process_scroll_xy            0x000307cd   Thumb Code     6  gt_obj_pos.o(.text)
    gt_obj_get_click_point_by_phy_point      0x000307d5   Thumb Code    40  gt_obj_pos.o(.text)
    gt_refr_timer                            0x000307fd   Thumb Code    68  gt_refr.o(.text)
    gt_obj_set_area                          0x00030841   Thumb Code   116  gt_style.o(.text)
    gt_obj_area_change                       0x000308b5   Thumb Code   102  gt_style.o(.text)
    gt_obj_set_pos                           0x0003091d   Thumb Code   124  gt_style.o(.text)
    gt_obj_pos_change                        0x00030999   Thumb Code   102  gt_style.o(.text)
    gt_obj_set_size                          0x00030a01   Thumb Code   106  gt_style.o(.text)
    gt_obj_size_change                       0x00030a6d   Thumb Code    86  gt_style.o(.text)
    gt_obj_set_x                             0x00030ac5   Thumb Code   138  gt_style.o(.text)
    gt_obj_set_y                             0x00030b51   Thumb Code   108  gt_style.o(.text)
    gt_obj_set_w                             0x00030bbd   Thumb Code   114  gt_style.o(.text)
    gt_obj_set_h                             0x00030c31   Thumb Code   114  gt_style.o(.text)
    gt_obj_set_opa                           0x00030ca5   Thumb Code    14  gt_style.o(.text)
    gt_obj_get_x                             0x00030cb5   Thumb Code     4  gt_style.o(.text)
    gt_obj_get_y                             0x00030cb9   Thumb Code     4  gt_style.o(.text)
    gt_obj_get_w                             0x00030cbd   Thumb Code     4  gt_style.o(.text)
    gt_obj_get_h                             0x00030cc1   Thumb Code     4  gt_style.o(.text)
    gt_obj_set_visible                       0x00030cc5   Thumb Code    46  gt_style.o(.text)
    gt_obj_set_disabled                      0x00030cf5   Thumb Code    66  gt_style.o(.text)
    gt_obj_is_disabled                       0x00030d39   Thumb Code     8  gt_style.o(.text)
    gt_obj_set_state                         0x00030d41   Thumb Code    20  gt_style.o(.text)
    gt_obj_get_state                         0x00030d55   Thumb Code    10  gt_style.o(.text)
    gt_timer_get_idle                        0x00030d61   Thumb Code    12  gt_timer.o(.text)
    _gt_timer_core_init                      0x00030d6d   Thumb Code    14  gt_timer.o(.text)
    _gt_timer_create                         0x00030d7d   Thumb Code   104  gt_timer.o(.text)
    _gt_timer_del                            0x00030de5   Thumb Code    16  gt_timer.o(.text)
    _gt_timer_set_repeat_count               0x00030df5   Thumb Code    16  gt_timer.o(.text)
    _gt_timer_handler                        0x00030e05   Thumb Code   232  gt_timer.o(.text)
    _gt_timer_get_laster_timer               0x00030eed   Thumb Code    12  gt_timer.o(.text)
    _gt_timer_get_repeat_count               0x00030ef9   Thumb Code    14  gt_timer.o(.text)
    _gt_timer_set_period                     0x00030f09   Thumb Code     4  gt_timer.o(.text)
    _gt_timer_set_paused                     0x00030f0d   Thumb Code    54  gt_timer.o(.text)
    _gt_timer_get_paused                     0x00030f45   Thumb Code     6  gt_timer.o(.text)
    _gt_timer_set_user_data                  0x00030f4d   Thumb Code     4  gt_timer.o(.text)
    _gt_timer_get_user_data                  0x00030f51   Thumb Code     4  gt_timer.o(.text)
    _gt_extra_init                           0x00030f55   Thumb Code     4  gt_extra.o(.text)
    gt_draw_blend                            0x00030f59   Thumb Code  1486  gt_draw_blend.o(.text)
    gt_png_init                              0x00031529   Thumb Code    72  gt_png.o(.text)
    lodepng_load_file                        0x0003198d   Thumb Code   154  lodepng.o(.text)
    lodepng_save_file                        0x00031a29   Thumb Code    44  lodepng.o(.text)
    lodepng_inflate                          0x00031a55   Thumb Code    44  lodepng.o(.text)
    lodepng_zlib_decompress                  0x00032d0d   Thumb Code    44  lodepng.o(.text)
    lodepng_decompress_settings_init         0x00032ec1   Thumb Code    16  lodepng.o(.text)
    lodepng_crc32                            0x00032ed1   Thumb Code   200  lodepng.o(.text)
    lodepng_chunk_length                     0x00032f99   Thumb Code     6  lodepng.o(.text)
    lodepng_chunk_type                       0x00032fa1   Thumb Code    22  lodepng.o(.text)
    lodepng_chunk_type_equals                0x00032fb9   Thumb Code   102  lodepng.o(.text)
    lodepng_chunk_ancillary                  0x00033021   Thumb Code     8  lodepng.o(.text)
    lodepng_chunk_private                    0x00033029   Thumb Code     8  lodepng.o(.text)
    lodepng_chunk_safetocopy                 0x00033031   Thumb Code     8  lodepng.o(.text)
    lodepng_chunk_data                       0x00033039   Thumb Code     4  lodepng.o(.text)
    lodepng_chunk_data_const                 0x0003303d   Thumb Code     4  lodepng.o(.text)
    lodepng_chunk_check_crc                  0x00033041   Thumb Code   244  lodepng.o(.text)
    lodepng_chunk_generate_crc               0x00033135   Thumb Code   218  lodepng.o(.text)
    lodepng_chunk_next                       0x00033211   Thumb Code   116  lodepng.o(.text)
    lodepng_chunk_next_const                 0x00033285   Thumb Code   116  lodepng.o(.text)
    lodepng_chunk_find                       0x000332f9   Thumb Code   246  lodepng.o(.text)
    lodepng_chunk_find_const                 0x000333f1   Thumb Code   246  lodepng.o(.text)
    lodepng_chunk_append                     0x000334e9   Thumb Code   200  lodepng.o(.text)
    lodepng_chunk_create                     0x000335b1   Thumb Code   400  lodepng.o(.text)
    lodepng_color_mode_init                  0x00033741   Thumb Code    24  lodepng.o(.text)
    lodepng_color_mode_cleanup               0x00033759   Thumb Code    30  lodepng.o(.text)
    lodepng_palette_clear                    0x00033779   Thumb Code    30  lodepng.o(.text)
    lodepng_color_mode_copy                  0x00033799   Thumb Code   100  lodepng.o(.text)
    lodepng_color_mode_make                  0x000337fd   Thumb Code    20  lodepng.o(.text)
    lodepng_palette_add                      0x00033811   Thumb Code   312  lodepng.o(.text)
    lodepng_get_bpp                          0x00033949   Thumb Code    40  lodepng.o(.text)
    lodepng_get_channels                     0x00033971   Thumb Code    30  lodepng.o(.text)
    lodepng_is_greyscale_type                0x00033991   Thumb Code    14  lodepng.o(.text)
    lodepng_is_alpha_type                    0x000339a1   Thumb Code     8  lodepng.o(.text)
    lodepng_is_palette_type                  0x000339a9   Thumb Code    12  lodepng.o(.text)
    lodepng_has_palette_alpha                0x000339b5   Thumb Code   112  lodepng.o(.text)
    lodepng_can_have_alpha                   0x00033a25   Thumb Code   116  lodepng.o(.text)
    lodepng_get_raw_size                     0x00033a99   Thumb Code    62  lodepng.o(.text)
    lodepng_add_text                         0x00033ad9   Thumb Code    72  lodepng.o(.text)
    lodepng_clear_text                       0x00033c2d   Thumb Code   100  lodepng.o(.text)
    lodepng_clear_itext                      0x00033c91   Thumb Code     2  lodepng.o(.text)
    lodepng_add_itext                        0x00033d31   Thumb Code    78  lodepng.o(.text)
    lodepng_set_icc                          0x00033fa1   Thumb Code   212  lodepng.o(.text)
    lodepng_clear_icc                        0x00034075   Thumb Code    52  lodepng.o(.text)
    lodepng_info_init                        0x000340a9   Thumb Code    78  lodepng.o(.text)
    lodepng_info_cleanup                     0x000340f9   Thumb Code   206  lodepng.o(.text)
    lodepng_info_copy                        0x000341c9   Thumb Code  1136  lodepng.o(.text)
    lodepng_convert                          0x00034639   Thumb Code  8458  lodepng.o(.text)
    lodepng_convert_rgb                      0x00036779   Thumb Code   286  lodepng.o(.text)
    lodepng_inspect                          0x00036899   Thumb Code   718  lodepng.o(.text)
    lodepng_inspect_chunk                    0x00036b69   Thumb Code  1294  lodepng.o(.text)
    lodepng_decode                           0x00037b2d   Thumb Code  6612  lodepng.o(.text)
    lodepng_decode_memory                    0x00039501   Thumb Code   198  lodepng.o(.text)
    lodepng_state_init                       0x000395c9   Thumb Code   130  lodepng.o(.text)
    lodepng_state_cleanup                    0x0003964d   Thumb Code    40  lodepng.o(.text)
    lodepng_decode32                         0x00039675   Thumb Code    30  lodepng.o(.text)
    lodepng_decode24                         0x00039695   Thumb Code    30  lodepng.o(.text)
    lodepng_decode_file                      0x000396b5   Thumb Code    88  lodepng.o(.text)
    lodepng_decode32_file                    0x0003970d   Thumb Code    88  lodepng.o(.text)
    lodepng_decode24_file                    0x00039765   Thumb Code    88  lodepng.o(.text)
    lodepng_decoder_settings_init            0x000397bd   Thumb Code    28  lodepng.o(.text)
    lodepng_state_copy                       0x000397d9   Thumb Code   244  lodepng.o(.text)
    lodepng_error_text                       0x000398cd   Thumb Code    28  lodepng.o(.text)
    _gt_gb_font_one_char_code_len_get        0x0003b5a9   Thumb Code   122  gt_font.o(.text)
    gt_unicode_to_utf8                       0x0003b625   Thumb Code   244  gt_font.o(.text)
    _gt_utf8_to_unicode                      0x0003b719   Thumb Code   118  gt_font.o(.text)
    gt_font_one_char_code_len_get            0x0003b791   Thumb Code   160  gt_font.o(.text)
    gt_encoding_table_one_char               0x0003b831   Thumb Code   516  gt_font.o(.text)
    gt_utf8_check_char                       0x0003ba35   Thumb Code   110  gt_font.o(.text)
    gt_gb_check_char                         0x0003baa5   Thumb Code    94  gt_font.o(.text)
    _gt_is_style_cn_or_en                    0x0003bb05   Thumb Code   160  gt_font.o(.text)
    gt_style_en_data_is_convertor            0x0003bba5   Thumb Code   164  gt_font.o(.text)
    gt_font_get_string_dot                   0x0003bc49   Thumb Code   528  gt_font.o(.text)
    gt_font_type_get                         0x0003be59   Thumb Code     4  gt_font.o(.text)
    gt_font_code_transform                   0x0003be5d   Thumb Code    40  gt_font.o(.text)
    gt_font_convertor_data_get               0x0003be85   Thumb Code     4  gt_font.o(.text)
    gt_font_get_string_width                 0x0003be89   Thumb Code    58  gt_font.o(.text)
    gt_font_get_one_word_width               0x0003bec5   Thumb Code   370  gt_font.o(.text)
    gt_font_get_next_word_width              0x0003c039   Thumb Code    86  gt_font.o(.text)
    gt_font_get_word_width_figure_up         0x0003c091   Thumb Code   376  gt_font.o(.text)
    gt_dot_to_mask_buf                       0x0003c209   Thumb Code     2  gt_font.o(.text)
    gt_project_encoding_set                  0x0003c20d   Thumb Code    12  gt_font.o(.text)
    gt_project_encoding_get                  0x0003c219   Thumb Code    12  gt_font.o(.text)
    gt_symbol_check_by_unicode               0x0003c225   Thumb Code    20  gt_symbol.o(.text)
    gt_symbol_get_mask_buf                   0x0003c239   Thumb Code    88  gt_symbol.o(.text)
    gt_disp_drv_init                         0x0003c291   Thumb Code    12  gt_hal_disp.o(.text)
    gt_disp_drv_register                     0x0003c29d   Thumb Code   120  gt_hal_disp.o(.text)
    gt_disp_graph_get_buf_default            0x0003c315   Thumb Code    12  gt_hal_disp.o(.text)
    gt_disp_get_default                      0x0003c325   Thumb Code    12  gt_hal_disp.o(.text)
    gt_disp_get_res_hor                      0x0003c331   Thumb Code    40  gt_hal_disp.o(.text)
    gt_disp_get_res_ver                      0x0003c359   Thumb Code    40  gt_hal_disp.o(.text)
    gt_disp_graph_buf_init                   0x0003c381   Thumb Code    12  gt_hal_disp.o(.text)
    gt_disp_graph_get_buf_backup             0x0003c38d   Thumb Code     4  gt_hal_disp.o(.text)
    _gt_disp_refr_reset_areas                0x0003c391   Thumb Code    46  gt_hal_disp.o(.text)
    _gt_disp_refr_append_area                0x0003c3c1   Thumb Code   214  gt_hal_disp.o(.text)
    _gt_disp_refr_area_push                  0x0003c499   Thumb Code    30  gt_hal_disp.o(.text)
    _gt_disp_refr_check                      0x0003c4b9   Thumb Code    26  gt_hal_disp.o(.text)
    _gt_disp_refr_area_pop                   0x0003c4d5   Thumb Code    38  gt_hal_disp.o(.text)
    _gt_disp_refr_get_area                   0x0003c4fd   Thumb Code   116  gt_hal_disp.o(.text)
    _gt_disp_update_max_area                 0x0003c571   Thumb Code    80  gt_hal_disp.o(.text)
    gt_disp_invalid_area                     0x0003c5c1   Thumb Code    26  gt_hal_disp.o(.text)
    _gt_hal_fp_init                          0x0003c5dd   Thumb Code    72  gt_hal_fs.o(.text)
    gt_indev_drv_init                        0x0003c625   Thumb Code    36  gt_hal_indev.o(.text)
    gt_indev_drv_register                    0x0003c649   Thumb Code   144  gt_hal_indev.o(.text)
    gt_indev_set_default                     0x0003c6dd   Thumb Code    12  gt_hal_indev.o(.text)
    gt_indev_get_default                     0x0003c6e9   Thumb Code    12  gt_hal_indev.o(.text)
    gt_indev_get_dev_by_idx                  0x0003c6f5   Thumb Code    20  gt_hal_indev.o(.text)
    gt_indev_get_dev_count                   0x0003c709   Thumb Code    12  gt_hal_indev.o(.text)
    gt_src_init                              0x0003c715   Thumb Code   156  gt_hal_src.o(.text)
    gt_src_get_drv                           0x0003c7b1   Thumb Code    12  gt_hal_src.o(.text)
    gt_tick_inc                              0x0003c8c1   Thumb Code    28  gt_hal_tick.o(.text)
    gt_tick_get                              0x0003c8dd   Thumb Code    56  gt_hal_tick.o(.text)
    gt_tick_elapse                           0x0003c915   Thumb Code    56  gt_hal_tick.o(.text)
    gt_vf_init                               0x0003c94d   Thumb Code   108  gt_hal_vf.o(.text)
    gt_vf_drv_register                       0x0003c9b9   Thumb Code   114  gt_hal_vf.o(.text)
    gt_vf_get_drv                            0x0003cbb1   Thumb Code    20  gt_hal_vf.o(.text)
    gt_anim_get_data                         0x0003cbc5   Thumb Code    14  gt_anim.o(.text)
    gt_anim_param_init                       0x0003cbd5   Thumb Code    16  gt_anim.o(.text)
    gt_anim_pos_move                         0x0003cbe5   Thumb Code   200  gt_anim.o(.text)
    gt_anim_init                             0x0003ccad   Thumb Code    50  gt_anim.o(.text)
    gt_anim_set_path_type                    0x0003cce1   Thumb Code   102  gt_anim.o(.text)
    gt_anim_start                            0x0003cd91   Thumb Code   276  gt_anim.o(.text)
    _gt_anim_core_init                       0x0003cea5   Thumb Code    72  gt_anim.o(.text)
    gt_anim_del                              0x0003d0f1   Thumb Code   174  gt_anim.o(.text)
    gt_anim_del_all                          0x0003d1a1   Thumb Code   160  gt_anim.o(.text)
    gt_area_is_intersect_screen              0x0003d439   Thumb Code    88  gt_area.o(.text)
    gt_area_intersect_screen                 0x0003d491   Thumb Code   206  gt_area.o(.text)
    gt_area_is_on                            0x0003d561   Thumb Code    66  gt_area.o(.text)
    gt_area_join                             0x0003d5a5   Thumb Code    96  gt_area.o(.text)
    gt_area_check_legal                      0x0003d605   Thumb Code    34  gt_area.o(.text)
    gt_color_area_copy                       0x0003d629   Thumb Code    96  gt_color.o(.text)
    gt_color_fill                            0x0003d689   Thumb Code    82  gt_color.o(.text)
    gt_anti_aliasing_div                     0x0003d6dd   Thumb Code   702  gt_effects.o(.text)
    gt_sin                                   0x0003d99d   Thumb Code    98  gt_math.o(.text)
    gt_cos                                   0x0003da01   Thumb Code   102  gt_math.o(.text)
    gt_square                                0x0003da69   Thumb Code    12  gt_math.o(.text)
    gt_abs                                   0x0003da75   Thumb Code     8  gt_math.o(.text)
    gt_per_255                               0x0003da7d   Thumb Code    14  gt_math.o(.text)
    gt_map                                   0x0003da8d   Thumb Code    58  gt_math.o(.text)
    gt_bezier3                               0x0003dac9   Thumb Code    78  gt_math.o(.text)
    gt_tlsf_check                            0x0003db19   Thumb Code   476  gt_tlsf.o(.text)
    gt_tlsf_walk_pool                        0x0003dcf5   Thumb Code    72  gt_tlsf.o(.text)
    gt_tlsf_block_size                       0x0003dd8d   Thumb Code    16  gt_tlsf.o(.text)
    gt_tlsf_check_pool                       0x0003dd9d   Thumb Code    52  gt_tlsf.o(.text)
    gt_tlsf_size                             0x0003ddd1   Thumb Code     6  gt_tlsf.o(.text)
    gt_tlsf_align_size                       0x0003ddd9   Thumb Code     4  gt_tlsf.o(.text)
    gt_tlsf_block_size_min                   0x0003dddd   Thumb Code     4  gt_tlsf.o(.text)
    gt_tlsf_block_size_max                   0x0003dde1   Thumb Code     6  gt_tlsf.o(.text)
    gt_tlsf_pool_overhead                    0x0003dde9   Thumb Code     4  gt_tlsf.o(.text)
    gt_tlsf_alloc_overhead                   0x0003dded   Thumb Code     4  gt_tlsf.o(.text)
    gt_tlsf_add_pool                         0x0003ddf1   Thumb Code   300  gt_tlsf.o(.text)
    gt_tlsf_remove_pool                      0x0003df1d   Thumb Code   110  gt_tlsf.o(.text)
    gt_tlsf_create                           0x0003df8d   Thumb Code   240  gt_tlsf.o(.text)
    gt_tlsf_create_with_pool                 0x0003e07d   Thumb Code    28  gt_tlsf.o(.text)
    gt_tlsf_destroy                          0x0003e099   Thumb Code     2  gt_tlsf.o(.text)
    gt_tlsf_get_pool                         0x0003e09d   Thumb Code     6  gt_tlsf.o(.text)
    gt_tlsf_malloc                           0x0003e0a5   Thumb Code    52  gt_tlsf.o(.text)
    gt_tlsf_memalign                         0x0003e2a5   Thumb Code   340  gt_tlsf.o(.text)
    gt_tlsf_free                             0x0003e3f9   Thumb Code   398  gt_tlsf.o(.text)
    gt_tlsf_realloc                          0x0003e589   Thumb Code   672  gt_tlsf.o(.text)
    _gt_vector_add_free_item_cb              0x0003e829   Thumb Code    44  gt_vector.o(.text)
    _gt_vector_add_equal_item_cb             0x0003e891   Thumb Code    44  gt_vector.o(.text)
    _gt_vector_add_item                      0x0003e8bd   Thumb Code   238  gt_vector.o(.text)
    _gt_vector_remove_item                   0x0003e9ad   Thumb Code   210  gt_vector.o(.text)
    _gt_vector_turn_next                     0x0003ea81   Thumb Code    54  gt_vector.o(.text)
    _gt_vector_get_count                     0x0003eab9   Thumb Code    18  gt_vector.o(.text)
    _gt_vector_get_index                     0x0003eacd   Thumb Code    22  gt_vector.o(.text)
    _gt_vector_free                          0x0003eae5   Thumb Code   120  gt_vector.o(.text)
    _gt_vector_clear_all_items               0x0003eb5d   Thumb Code    92  gt_vector.o(.text)
    gt_imgbtn_create                         0x0003ed65   Thumb Code    46  gt_imgbtn.o(.text)
    gt_imgbtn_style_set_selected             0x0003ed95   Thumb Code    30  gt_imgbtn.o(.text)
    gt_imgbtn_set_src                        0x0003edb5   Thumb Code    98  gt_imgbtn.o(.text)
    gt_imgbtn_set_src_press                  0x0003ee19   Thumb Code    94  gt_imgbtn.o(.text)
    gt_imgbtn_set_src_release                0x0003ee79   Thumb Code    94  gt_imgbtn.o(.text)
    gt_imgbtn_add_state_item                 0x0003eed9   Thumb Code   112  gt_imgbtn.o(.text)
    gt_imgbtn_remove_state_item              0x0003ef49   Thumb Code    28  gt_imgbtn.o(.text)
    gt_imgbtn_clear_all_state_item           0x0003ef65   Thumb Code    16  gt_imgbtn.o(.text)
    bt_imgbtn_get_state_item_index           0x0003ef75   Thumb Code    20  gt_imgbtn.o(.text)
    gt_input_number_create                   0x0003f091   Thumb Code    96  gt_input_number.o(.text)
    gt_input_number_set_fill_zero_front      0x0003f0f1   Thumb Code    28  gt_input_number.o(.text)
    gt_input_number_get_fill_zero_front      0x0003f10d   Thumb Code    12  gt_input_number.o(.text)
    gt_input_number_set_value                0x0003f119   Thumb Code    78  gt_input_number.o(.text)
    gt_input_number_get_value                0x0003f169   Thumb Code     8  gt_input_number.o(.text)
    gt_input_number_set_max                  0x0003f171   Thumb Code    24  gt_input_number.o(.text)
    gt_input_number_set_min                  0x0003f189   Thumb Code    24  gt_input_number.o(.text)
    gt_input_number_set_step                 0x0003f1a1   Thumb Code    24  gt_input_number.o(.text)
    gt_input_number_increase                 0x0003f1b9   Thumb Code    62  gt_input_number.o(.text)
    gt_input_number_decrease                 0x0003f1f9   Thumb Code    60  gt_input_number.o(.text)
    gt_input_number_set_display_integer_length 0x0003f235   Thumb Code    24  gt_input_number.o(.text)
    gt_input_number_set_display_decimal_length 0x0003f24d   Thumb Code    36  gt_input_number.o(.text)
    gt_input_number_set_font_color           0x0003f271   Thumb Code    16  gt_input_number.o(.text)
    gt_input_number_set_font_size            0x0003f281   Thumb Code    14  gt_input_number.o(.text)
    gt_input_number_set_font_gray            0x0003f291   Thumb Code    14  gt_input_number.o(.text)
    gt_input_number_set_font_align           0x0003f2a1   Thumb Code    14  gt_input_number.o(.text)
    gt_input_number_set_font_family_cn       0x0003f2b1   Thumb Code    14  gt_input_number.o(.text)
    gt_input_number_set_font_family_en       0x0003f2c1   Thumb Code    14  gt_input_number.o(.text)
    gt_input_number_set_font_family_numb     0x0003f2d1   Thumb Code    14  gt_input_number.o(.text)
    gt_input_number_set_font_thick_en        0x0003f2e1   Thumb Code    14  gt_input_number.o(.text)
    gt_input_number_set_font_thick_cn        0x0003f2f1   Thumb Code    14  gt_input_number.o(.text)
    gt_input_number_set_space                0x0003f301   Thumb Code    14  gt_input_number.o(.text)
    gt_label_create                          0x0003f43d   Thumb Code   112  gt_label.o(.text)
    gt_label_set_text                        0x0003f4ad   Thumb Code   114  gt_label.o(.text)
    gt_label_get_text                        0x0003f521   Thumb Code    12  gt_label.o(.text)
    gt_label_set_font_color                  0x0003f52d   Thumb Code    16  gt_label.o(.text)
    gt_label_set_font_size                   0x0003f53d   Thumb Code     6  gt_label.o(.text)
    gt_label_set_font_gray                   0x0003f545   Thumb Code     6  gt_label.o(.text)
    gt_label_set_font_align                  0x0003f54d   Thumb Code     6  gt_label.o(.text)
    gt_label_set_font_family_cn              0x0003f555   Thumb Code     6  gt_label.o(.text)
    gt_label_set_font_family_en              0x0003f55d   Thumb Code     6  gt_label.o(.text)
    gt_label_set_font_thick_en               0x0003f565   Thumb Code     6  gt_label.o(.text)
    gt_label_set_font_thick_cn               0x0003f56d   Thumb Code     6  gt_label.o(.text)
    gt_label_set_font_family_numb            0x0003f575   Thumb Code     6  gt_label.o(.text)
    gt_label_set_space                       0x0003f57d   Thumb Code     8  gt_label.o(.text)
    _gt_obj_destroy_handler_cb               0x0003f5e1   Thumb Code    54  gt_obj.o(.text)
    gt_obj_create                            0x0003f619   Thumb Code    26  gt_obj.o(.text)
    gt_obj_destroy                           0x0003f635   Thumb Code    36  gt_obj.o(.text)
    gt_screen_set_bgcolor                    0x0003f659   Thumb Code    16  gt_obj.o(.text)
    gt_screen_get_bgcolor                    0x0003f669   Thumb Code    18  gt_obj.o(.text)
    gt_obj_class_create                      0x0003f67d   Thumb Code   320  gt_obj_class.o(.text)
    _gt_obj_class_destroy                    0x0003f7bd   Thumb Code   428  gt_obj_class.o(.text)
    gt_obj_class_get_type                    0x0003fa85   Thumb Code     6  gt_obj_class.o(.text)
    gt_rect_create                           0x0003fb71   Thumb Code    44  gt_rect.o(.text)
    gt_rect_set_bg_color                     0x0003fb9d   Thumb Code    16  gt_rect.o(.text)
    gt_rect_set_color_border                 0x0003fbad   Thumb Code    16  gt_rect.o(.text)
    gt_rect_set_radius                       0x0003fbbd   Thumb Code    16  gt_rect.o(.text)
    gt_rect_set_border                       0x0003fbcd   Thumb Code    16  gt_rect.o(.text)
    gt_rect_set_fill                         0x0003fbdd   Thumb Code    16  gt_rect.o(.text)
    gt_slider_create                         0x00040051   Thumb Code    64  gt_slider.o(.text)
    gt_slider_set_pos                        0x00040091   Thumb Code   190  gt_slider.o(.text)
    gt_slider_set_start_end                  0x00040151   Thumb Code     8  gt_slider.o(.text)
    gt_slider_get_pos                        0x00040159   Thumb Code     8  gt_slider.o(.text)
    gt_slider_get_start                      0x00040161   Thumb Code     8  gt_slider.o(.text)
    gt_slider_get_end                        0x00040169   Thumb Code     8  gt_slider.o(.text)
    gt_slider_get_total                      0x00040171   Thumb Code    12  gt_slider.o(.text)
    gt_slider_set_color_act                  0x0004017d   Thumb Code    16  gt_slider.o(.text)
    gt_slider_set_color_ina                  0x0004018d   Thumb Code    16  gt_slider.o(.text)
    gt_slider_set_dir                        0x0004019d   Thumb Code    14  gt_slider.o(.text)
    gt_slider_get_dir                        0x000401ad   Thumb Code     6  gt_slider.o(.text)
    gt_slider_set_step                       0x000401b5   Thumb Code     6  gt_slider.o(.text)
    gt_slider_get_step                       0x000401bd   Thumb Code     6  gt_slider.o(.text)
    gt_slider_set_tag                        0x000401c5   Thumb Code   104  gt_slider.o(.text)
    gt_slider_set_tag_visible                0x0004022d   Thumb Code    16  gt_slider.o(.text)
    gt_switch_create                         0x000403a5   Thumb Code    50  gt_switch.o(.text)
    gt_switch_set_color_act                  0x000403d9   Thumb Code    16  gt_switch.o(.text)
    gt_switch_set_color_ina                  0x000403e9   Thumb Code    16  gt_switch.o(.text)
    gt_switch_set_color_point                0x000403f9   Thumb Code    16  gt_switch.o(.text)
    Refresh_New_Page                         0x00040409   Thumb Code   232  gt_init_screen_home.o(.text)
    send_pack                                0x000404f1   Thumb Code   148  gt_init_screen_home.o(.text)
    gt_init_screen_home                      0x00040585   Thumb Code  1964  gt_init_screen_home.o(.text)
    gt_ui_init                               0x00040e05   Thumb Code     4  gt_ui.o(.text)
    GT_Font_Init                             0x00040e09   Thumb Code   344  gt_gui_driver.o(.text)
    GT_Set_Chinese_Charset_Type              0x00041079   Thumb Code    12  gt_gui_driver.o(.text)
    GT_Get_Chinese_Charset_Type              0x00041085   Thumb Code    12  gt_gui_driver.o(.text)
    GT_GetChinese                            0x00041091   Thumb Code   110  gt_gui_driver.o(.text)
    GT_GetASCII                              0x00041101   Thumb Code   100  gt_gui_driver.o(.text)
    UnicodeToGBK                             0x00041165   Thumb Code   168  gt_gui_driver.o(.text)
    GBKToUnicode                             0x000413b9   Thumb Code   276  gt_gui_driver.o(.text)
    GT_Get_Font_Width                        0x000414cd   Thumb Code   148  gt_gui_driver.o(.text)
    GT_Get_Font_Height                       0x00041561   Thumb Code    64  gt_gui_driver.o(.text)
    GT_Check_Is_Vec                          0x000415a1   Thumb Code     4  gt_gui_driver.o(.text)
    GT_Get_Font_Func_S                       0x000415a5   Thumb Code    34  gt_gui_driver.o(.text)
    GT_Get_Font_Type                         0x000415c9   Thumb Code    16  gt_gui_driver.o(.text)
    GT_Font_Code_Transform                   0x000415d9   Thumb Code    24  gt_gui_driver.o(.text)
    GT_Get_Font_Convertor_Data               0x000415f1   Thumb Code    24  gt_gui_driver.o(.text)
    tolower                                  0x00041daf   Thumb Code    12  tolower.o(.text)
    ___aeabi_memcpy8$move                    0x00041dbb   Thumb Code     0  memmovea.o(.text)
    __aeabi_memcpy                           0x00041dbb   Thumb Code    64  memmovea.o(.text)
    __aeabi_memcpy4                          0x00041dbb   Thumb Code     0  memmovea.o(.text)
    __aeabi_memmove                          0x00041dbb   Thumb Code     0  memmovea.o(.text)
    __aeabi_memmove4                         0x00041dbb   Thumb Code     0  memmovea.o(.text)
    __aeabi_memmove8                         0x00041dbb   Thumb Code     0  memmovea.o(.text)
    __aeabi_memset                           0x00041dfb   Thumb Code    14  memseta.o(.text)
    __aeabi_memset4                          0x00041dfb   Thumb Code     0  memseta.o(.text)
    __aeabi_memset8                          0x00041dfb   Thumb Code     0  memseta.o(.text)
    __aeabi_memclr                           0x00041e09   Thumb Code     4  memseta.o(.text)
    __aeabi_memclr4                          0x00041e09   Thumb Code     0  memseta.o(.text)
    __aeabi_memclr8                          0x00041e09   Thumb Code     0  memseta.o(.text)
    _memset$wrapper                          0x00041e0d   Thumb Code    18  memseta.o(.text)
    strstr                                   0x00041e1f   Thumb Code    36  strstr.o(.text)
    strlen                                   0x00041e43   Thumb Code    14  strlen.o(.text)
    strcmp                                   0x00041e51   Thumb Code    28  strcmp.o(.text)
    memcmp                                   0x00041e6d   Thumb Code    26  memcmp.o(.text)
    strcpy                                   0x00041e87   Thumb Code    18  strcpy.o(.text)
    __aeabi_fadd                             0x00041e99   Thumb Code   164  fadd.o(.text)
    __aeabi_fsub                             0x00041f3d   Thumb Code     6  fadd.o(.text)
    __aeabi_frsub                            0x00041f43   Thumb Code     6  fadd.o(.text)
    __aeabi_fmul                             0x00041f49   Thumb Code   100  fmul.o(.text)
    __aeabi_fdiv                             0x00041fad   Thumb Code   124  fdiv.o(.text)
    __aeabi_dadd                             0x00042029   Thumb Code   322  dadd.o(.text)
    __aeabi_dsub                             0x0004216b   Thumb Code     6  dadd.o(.text)
    __aeabi_drsub                            0x00042171   Thumb Code     6  dadd.o(.text)
    __aeabi_dmul                             0x00042177   Thumb Code   228  dmul.o(.text)
    __aeabi_ddiv                             0x0004225b   Thumb Code   222  ddiv.o(.text)
    __aeabi_fcmple                           0x00042339   Thumb Code    28  fcmple.o(.text)
    __aeabi_fcmpgt                           0x00042355   Thumb Code    28  fcmpgt.o(.text)
    __aeabi_dcmple                           0x00042371   Thumb Code    54  dcmple.o(.text)
    __aeabi_dcmplt                           0x000423a7   Thumb Code    54  dcmplt.o(.text)
    __aeabi_dcmpge                           0x000423dd   Thumb Code    54  dcmpge.o(.text)
    __aeabi_i2f                              0x00042413   Thumb Code    18  fflti.o(.text)
    __aeabi_ui2f                             0x00042425   Thumb Code    10  ffltui.o(.text)
    __aeabi_ui2d                             0x0004242f   Thumb Code    26  dfltui.o(.text)
    __aeabi_f2iz                             0x00042449   Thumb Code    50  ffixi.o(.text)
    __aeabi_d2iz                             0x0004247b   Thumb Code    62  dfixi.o(.text)
    __aeabi_f2d                              0x000424b9   Thumb Code    38  f2d.o(.text)
    __aeabi_uidiv                            0x000424df   Thumb Code     0  uidiv.o(.text)
    __aeabi_uidivmod                         0x000424df   Thumb Code    44  uidiv.o(.text)
    __aeabi_uldivmod                         0x0004250b   Thumb Code    98  uldiv.o(.text)
    __aeabi_llsl                             0x0004256d   Thumb Code    30  llshl.o(.text)
    _ll_shift_l                              0x0004256d   Thumb Code     0  llshl.o(.text)
    __aeabi_llsr                             0x0004258b   Thumb Code    32  llushr.o(.text)
    _ll_ushift_r                             0x0004258b   Thumb Code     0  llushr.o(.text)
    __aeabi_lasr                             0x000425ab   Thumb Code    36  llsshr.o(.text)
    _ll_sshift_r                             0x000425ab   Thumb Code     0  llsshr.o(.text)
    __I$use$fp                               0x000425cf   Thumb Code     0  iusefp.o(.text)
    _float_round                             0x000425cf   Thumb Code    18  fepilogue.o(.text)
    _float_epilogue                          0x000425e1   Thumb Code    92  fepilogue.o(.text)
    _double_round                            0x0004263d   Thumb Code    30  depilogue.o(.text)
    _double_epilogue                         0x0004265b   Thumb Code   156  depilogue.o(.text)
    _dsqrt                                   0x000426f7   Thumb Code   162  dsqrt.o(.text)
    __aeabi_d2ulz                            0x00042799   Thumb Code    48  dfixul.o(.text)
    __aeabi_cdrcmple                         0x000427c9   Thumb Code    48  cdrcmple.o(.text)
    __scatterload                            0x000427f9   Thumb Code    28  init.o(.text)
    __scatterload_rt2                        0x000427f9   Thumb Code     0  init.o(.text)
    __decompress                             0x0004281d   Thumb Code     0  __dczerorl2.o(.text)
    __decompress1                            0x0004281d   Thumb Code    86  __dczerorl2.o(.text)
    __0printf                                0x00042875   Thumb Code    22  printfa.o(i.__0printf)
    __1printf                                0x00042875   Thumb Code     0  printfa.o(i.__0printf)
    __2printf                                0x00042875   Thumb Code     0  printfa.o(i.__0printf)
    __c89printf                              0x00042875   Thumb Code     0  printfa.o(i.__0printf)
    printf                                   0x00042875   Thumb Code     0  printfa.o(i.__0printf)
    __0sprintf                               0x00042895   Thumb Code    34  printfa.o(i.__0sprintf)
    __1sprintf                               0x00042895   Thumb Code     0  printfa.o(i.__0sprintf)
    __2sprintf                               0x00042895   Thumb Code     0  printfa.o(i.__0sprintf)
    __c89sprintf                             0x00042895   Thumb Code     0  printfa.o(i.__0sprintf)
    sprintf                                  0x00042895   Thumb Code     0  printfa.o(i.__0sprintf)
    __0vsnprintf                             0x000428bd   Thumb Code    46  printfa.o(i.__0vsnprintf)
    __1vsnprintf                             0x000428bd   Thumb Code     0  printfa.o(i.__0vsnprintf)
    __2vsnprintf                             0x000428bd   Thumb Code     0  printfa.o(i.__0vsnprintf)
    __c89vsnprintf                           0x000428bd   Thumb Code     0  printfa.o(i.__0vsnprintf)
    vsnprintf                                0x000428bd   Thumb Code     0  printfa.o(i.__0vsnprintf)
    __scatterload_copy                       0x000428f1   Thumb Code    14  handlers.o(i.__scatterload_copy)
    __scatterload_null                       0x000428ff   Thumb Code     2  handlers.o(i.__scatterload_null)
    __scatterload_zeroinit                   0x00042901   Thumb Code    14  handlers.o(i.__scatterload_zeroinit)
    __set_errno                              0x00042911   Thumb Code     6  errno.o(i.__set_errno)
    puts                                     0x000431f1   Thumb Code    30  puts.o(i.puts)
    sqrt                                     0x00043215   Thumb Code    76  sqrt.o(i.sqrt)
    asc2_1206                                0x0004537c   Data        1140  lcd_show.o(.rodata.asc2_1206)
    asc2_1608                                0x000457f0   Data        1520  lcd_show.o(.rodata.asc2_1608)
    asc2_2412                                0x00045de0   Data        3420  lcd_show.o(.rodata.asc2_2412)
    asc2_3216                                0x00046b3c   Data       12160  lcd_show.o(.rodata.asc2_3216)
    gt_get_font_func                         0x0004a6bc   Data          48  gt_gui_driver.o(.rodata.gt_get_font_func)
    gt_imgbtn_class                          0x0004a6ec   Data          16  gt_imgbtn.o(.rodata.gt_imgbtn_class)
    gt_input_number_class                    0x0004a6fc   Data          16  gt_input_number.o(.rodata.gt_input_number_class)
    gt_label_class                           0x0004a70c   Data          16  gt_label.o(.rodata.gt_label_class)
    gt_obj_class                             0x0004a71c   Data          16  gt_obj.o(.rodata.gt_obj_class)
    gt_rect_class                            0x0004a72c   Data          16  gt_rect.o(.rodata.gt_rect_class)
    gt_slider_class                          0x0004a73c   Data          16  gt_slider.o(.rodata.gt_slider_class)
    gt_switcher_class                        0x0004a74c   Data          16  gt_switch.o(.rodata.gt_switcher_class)
    pal_button_pressed                       0x0004ad8c   Data          24  ugui.o(.rodata.pal_button_pressed)
    pal_button_released                      0x0004ada4   Data          24  ugui.o(.rodata.pal_button_released)
    pal_checkbox_pressed                     0x0004adbc   Data          24  ugui.o(.rodata.pal_checkbox_pressed)
    pal_checkbox_released                    0x0004add4   Data          24  ugui.o(.rodata.pal_checkbox_released)
    pal_window                               0x0004adec   Data          24  ugui.o(.rodata.pal_window)
    Region$$Table$$Base                      0x0004e100   Number         0  anon$$obj.o(Region$$Table)
    Region$$Table$$Limit                     0x0004e120   Number         0  anon$$obj.o(Region$$Table)
    __stdout                                 0x20000000   Data           4  stdout.o(.data)
    CMD_RDX                                  0x20000008   Data           1  dev_xpt2046.o(.data.CMD_RDX)
    CMD_RDY                                  0x20000009   Data           1  dev_xpt2046.o(.data.CMD_RDY)
    CyclesPerUs                              0x2000000c   Data           4  system_swm341.o(.data.CyclesPerUs)
    SystemCoreClock                          0x20000050   Data           4  system_swm341.o(.data.SystemCoreClock)
    TP_REMIND_MSG_TBL                        0x20000054   Data          10  dev_xpt2046.o(.data.TP_REMIND_MSG_TBL)
    _LCD_Buffer                              0x20000060   Data           4  bsp_lcd_rgb.o(.data._LCD_Buffer)
    latin_16x16_width                        0x20000065   Data         490  gt_font.o(.data.latin_16x16_width)
    radius_dat                               0x20000250   Data         156  gt_draw.o(.data.radius_dat)
    tp_dev                                   0x200002ec   Data          52  dev_xpt2046.o(.data.tp_dev)
    Boot_Video_Flag                          0x20000320   Data           1  dev_touch.o(.bss.Boot_Video_Flag)
    Buf                                      0x20000321   Data          20  dev_xpt2046.o(.bss.Buf)
    FlagAdjusted                             0x20000335   Data           1  dev_xpt2046.o(.bss.FlagAdjusted)
    POINT_COLOR                              0x20000338   Data           4  bsp_lcd_rgb.o(.bss.POINT_COLOR)
    TP_Dev                                   0x20000340   Data          22  dev_touch.o(.bss.TP_Dev)
    UART_BUF                                 0x20000356   Data          20  bsp_uart.o(.bss.UART_BUF)
    _gt_anim_ll                              0x20000388   Data           8  gt_gc.o(.bss._gt_anim_ll)
    _gt_img_decoder_ll                       0x20000398   Data           8  gt_gc.o(.bss._gt_img_decoder_ll)
    _gt_timer_ll                             0x200003bc   Data           8  gt_gc.o(.bss._gt_timer_ll)
    lcddev                                   0x200084e8   Data          14  bsp_lcd_rgb.o(.bss.lcddev)
    pos_temp                                 0x200084f6   Data          16  dev_xpt2046.o(.bss.pos_temp)
    screen_home                              0x2000850c   Data           4  gt_init_screen_home.o(.bss.screen_home)
    uart_status                              0x20008519   Data           1  bsp_uart.o(.bss.uart_status)
    update_sreen_status                      0x2000851a   Data           1  gt_init_screen_home.o(.bss.update_sreen_status)
    __initial_sp                             0x2000a520   Data           0  startup_swm341.o(STACK)



==============================================================================

Memory Map of the image

  Image Entry point : 0x000201a9

  Load Region LR_IROM1 (Base: 0x00020000, Size: 0x0002e440, Max: 0x00060000, ABSOLUTE, COMPRESSED[0x0002e2e0])

    Execution Region ER_IROM1 (Exec base: 0x00020000, Load base: 0x00020000, Size: 0x0002e120, Max: 0x00060000, ABSOLUTE)

    Exec Addr    Load Addr    Size         Type   Attr      Idx    E Section Name        Object

    0x00020000   0x00020000   0x000001a8   Data   RO          144    RESET               startup_swm341.o
    0x000201a8   0x000201a8   0x00000000   Code   RO         1161  * .ARM.Collect$$$$00000000  mc_w.l(entry.o)
    0x000201a8   0x000201a8   0x00000004   Code   RO         1489    .ARM.Collect$$$$00000001  mc_w.l(entry2.o)
    0x000201ac   0x000201ac   0x00000004   Code   RO         1492    .ARM.Collect$$$$00000004  mc_w.l(entry5.o)
    0x000201b0   0x000201b0   0x00000000   Code   RO         1494    .ARM.Collect$$$$00000008  mc_w.l(entry7b.o)
    0x000201b0   0x000201b0   0x00000000   Code   RO         1496    .ARM.Collect$$$$0000000A  mc_w.l(entry8b.o)
    0x000201b0   0x000201b0   0x00000008   Code   RO         1497    .ARM.Collect$$$$0000000B  mc_w.l(entry9a.o)
    0x000201b8   0x000201b8   0x00000000   Code   RO         1499    .ARM.Collect$$$$0000000D  mc_w.l(entry10a.o)
    0x000201b8   0x000201b8   0x00000000   Code   RO         1501    .ARM.Collect$$$$0000000F  mc_w.l(entry11a.o)
    0x000201b8   0x000201b8   0x00000004   Code   RO         1490    .ARM.Collect$$$$00002712  mc_w.l(entry2.o)
    0x000201bc   0x000201bc   0x00000248   Code   RO            1    .text               main.o
    0x00020404   0x00020404   0x000005ce   Code   RO           11    .text               bsp_lcd_rgb.o
    0x000209d2   0x000209d2   0x00000002   PAD
    0x000209d4   0x000209d4   0x000004ea   Code   RO           31    .text               bsp_sfc.o
    0x00020ebe   0x00020ebe   0x00000002   PAD
    0x00020ec0   0x00020ec0   0x00000376   Code   RO           41    .text               bsp_uart.o
    0x00021236   0x00021236   0x00000002   PAD
    0x00021238   0x00021238   0x00000102   Code   RO           53    .text               dev_systick.o
    0x0002133a   0x0002133a   0x00000002   PAD
    0x0002133c   0x0002133c   0x00000094   Code   RO           63    .text               dev_touch.o
    0x000213d0   0x000213d0   0x00000c1c   Code   RO           73    .text               dev_xpt2046.o
    0x00021fec   0x00021fec   0x0000079e   Code   RO           89    .text               lcd_show.o
    0x0002278a   0x0002278a   0x00000002   PAD
    0x0002278c   0x0002278c   0x00000540   Code   RO          102    .text               tp_gt911.o
    0x00022ccc   0x00022ccc   0x00004eb6   Code   RO          110    .text               ugui.o
    0x00027b82   0x00027b82   0x00000002   PAD
    0x00027b84   0x00027b84   0x000010fa   Code   RO          131    .text               system_swm341.o
    0x00028c7e   0x00028c7e   0x00000002   PAD
    0x00028c80   0x00028c80   0x000000d8   Code   RO          145    .text               startup_swm341.o
    0x00028d58   0x00028d58   0x0000009a   Code   RO          219    .text               swm341_exti.o
    0x00028df2   0x00028df2   0x00000002   PAD
    0x00028df4   0x00028df4   0x00000136   Code   RO          228    .text               swm341_flash.o
    0x00028f2a   0x00028f2a   0x00000002   PAD
    0x00028f2c   0x00028f2c   0x0000028c   Code   RO          240    .text               swm341_gpio.o
    0x000291b8   0x000291b8   0x000002fa   Code   RO          248    .text               swm341_i2c.o
    0x000294b2   0x000294b2   0x00000002   PAD
    0x000294b4   0x000294b4   0x0000031c   Code   RO          274    .text               swm341_lcd.o
    0x000297d0   0x000297d0   0x0000004a   Code   RO          283    .text               swm341_port.o
    0x0002981a   0x0002981a   0x00000002   PAD
    0x0002981c   0x0002981c   0x000001ca   Code   RO          327    .text               swm341_sdram.o
    0x000299e6   0x000299e6   0x00000002   PAD
    0x000299e8   0x000299e8   0x000005ce   Code   RO          335    .text               swm341_sfc.o
    0x00029fb6   0x00029fb6   0x00000002   PAD
    0x00029fb8   0x00029fb8   0x00000b04   Code   RO          353    .text               swm341_timr.o
    0x0002aabc   0x0002aabc   0x00000356   Code   RO          361    .text               swm341_uart.o
    0x0002ae12   0x0002ae12   0x00000002   PAD
    0x0002ae14   0x0002ae14   0x000000a0   Code   RO          397    .text               swm341_wdt.o
    0x0002aeb4   0x0002aeb4   0x00000046   Code   RO          405    .text               gt_port_disp.o
    0x0002aefa   0x0002aefa   0x00000002   PAD
    0x0002aefc   0x0002aefc   0x0000004a   Code   RO          414    .text               gt_port_indev.o
    0x0002af46   0x0002af46   0x00000002   PAD
    0x0002af48   0x0002af48   0x0000000e   Code   RO          423    .text               gt_port_src.o
    0x0002af56   0x0002af56   0x00000002   PAD
    0x0002af58   0x0002af58   0x00000028   Code   RO          435    .text               gt_port_vf.o
    0x0002af80   0x0002af80   0x00000394   Code   RO          445    .text               gt_disp.o
    0x0002b314   0x0002b314   0x00002a08   Code   RO          454    .text               gt_draw.o
    0x0002dd1c   0x0002dd1c   0x0000032a   Code   RO          480    .text               gt_event.o
    0x0002e046   0x0002e046   0x00000002   PAD
    0x0002e048   0x0002e048   0x00000278   Code   RO          493    .text               gt_fs.o
    0x0002e2c0   0x0002e2c0   0x00001b3e   Code   RO          506    .text               gt_graph_base.o
    0x0002fdfe   0x0002fdfe   0x00000002   PAD
    0x0002fe00   0x0002fe00   0x00000058   Code   RO          517    .text               gt_handler.o
    0x0002fe58   0x0002fe58   0x00000286   Code   RO          525    .text               gt_img_decoder.o
    0x000300de   0x000300de   0x00000002   PAD
    0x000300e0   0x000300e0   0x000002f8   Code   RO          535    .text               gt_indev.o
    0x000303d8   0x000303d8   0x000001b0   Code   RO          548    .text               gt_mem.o
    0x00030588   0x00030588   0x00000274   Code   RO          562    .text               gt_obj_pos.o
    0x000307fc   0x000307fc   0x00000044   Code   RO          578    .text               gt_refr.o
    0x00030840   0x00030840   0x0000051e   Code   RO          586    .text               gt_style.o
    0x00030d5e   0x00030d5e   0x00000002   PAD
    0x00030d60   0x00030d60   0x000001f4   Code   RO          595    .text               gt_timer.o
    0x00030f54   0x00030f54   0x00000004   Code   RO          609    .text               gt_extra.o
    0x00030f58   0x00030f58   0x000005ce   Code   RO          616    .text               gt_draw_blend.o
    0x00031526   0x00031526   0x00000002   PAD
    0x00031528   0x00031528   0x00000464   Code   RO          625    .text               gt_png.o
    0x0003198c   0x0003198c   0x00009c1a   Code   RO          635    .text               lodepng.o
    0x0003b5a6   0x0003b5a6   0x00000002   PAD
    0x0003b5a8   0x0003b5a8   0x00000c7c   Code   RO          659    .text               gt_font.o
    0x0003c224   0x0003c224   0x0000006c   Code   RO          672    .text               gt_symbol.o
    0x0003c290   0x0003c290   0x0000034a   Code   RO          699    .text               gt_hal_disp.o
    0x0003c5da   0x0003c5da   0x00000002   PAD
    0x0003c5dc   0x0003c5dc   0x00000048   Code   RO          710    .text               gt_hal_fs.o
    0x0003c624   0x0003c624   0x000000f0   Code   RO          718    .text               gt_hal_indev.o
    0x0003c714   0x0003c714   0x000001ac   Code   RO          729    .text               gt_hal_src.o
    0x0003c8c0   0x0003c8c0   0x0000008c   Code   RO          739    .text               gt_hal_tick.o
    0x0003c94c   0x0003c94c   0x00000278   Code   RO          749    .text               gt_hal_vf.o
    0x0003cbc4   0x0003cbc4   0x00000874   Code   RO          761    .text               gt_anim.o
    0x0003d438   0x0003d438   0x000001ee   Code   RO          776    .text               gt_area.o
    0x0003d626   0x0003d626   0x00000002   PAD
    0x0003d628   0x0003d628   0x000000b2   Code   RO          785    .text               gt_color.o
    0x0003d6da   0x0003d6da   0x00000002   PAD
    0x0003d6dc   0x0003d6dc   0x000002be   Code   RO          793    .text               gt_effects.o
    0x0003d99a   0x0003d99a   0x00000002   PAD
    0x0003d99c   0x0003d99c   0x0000017a   Code   RO          812    .text               gt_math.o
    0x0003db16   0x0003db16   0x00000002   PAD
    0x0003db18   0x0003db18   0x00000d10   Code   RO          823    .text               gt_tlsf.o
    0x0003e828   0x0003e828   0x000003b2   Code   RO          842    .text               gt_vector.o
    0x0003ebda   0x0003ebda   0x00000002   PAD
    0x0003ebdc   0x0003ebdc   0x000003ce   Code   RO          906    .text               gt_imgbtn.o
    0x0003efaa   0x0003efaa   0x00000002   PAD
    0x0003efac   0x0003efac   0x00000362   Code   RO          928    .text               gt_input_number.o
    0x0003f30e   0x0003f30e   0x00000002   PAD
    0x0003f310   0x0003f310   0x00000274   Code   RO          956    .text               gt_label.o
    0x0003f584   0x0003f584   0x000000f6   Code   RO          987    .text               gt_obj.o
    0x0003f67a   0x0003f67a   0x00000002   PAD
    0x0003f67c   0x0003f67c   0x0000040e   Code   RO          996    .text               gt_obj_class.o
    0x0003fa8a   0x0003fa8a   0x00000002   PAD
    0x0003fa8c   0x0003fa8c   0x00000160   Code   RO         1048    .text               gt_rect.o
    0x0003fbec   0x0003fbec   0x00000650   Code   RO         1058    .text               gt_slider.o
    0x0004023c   0x0004023c   0x000001cc   Code   RO         1069    .text               gt_switch.o
    0x00040408   0x00040408   0x000009fa   Code   RO         1100    .text               gt_init_screen_home.o
    0x00040e02   0x00040e02   0x00000002   PAD
    0x00040e04   0x00040e04   0x00000004   Code   RO         1132    .text               gt_ui.o
    0x00040e08   0x00040e08   0x00000fa6   Code   RO         1139    .text               gt_gui_driver.lib(gt_gui_driver.o)
    0x00041dae   0x00041dae   0x0000000c   Code   RO         1168    .text               mc_w.l(tolower.o)
    0x00041dba   0x00041dba   0x00000040   Code   RO         1172    .text               mc_w.l(memmovea.o)
    0x00041dfa   0x00041dfa   0x00000024   Code   RO         1174    .text               mc_w.l(memseta.o)
    0x00041e1e   0x00041e1e   0x00000024   Code   RO         1176    .text               mc_w.l(strstr.o)
    0x00041e42   0x00041e42   0x0000000e   Code   RO         1178    .text               mc_w.l(strlen.o)
    0x00041e50   0x00041e50   0x0000001c   Code   RO         1180    .text               mc_w.l(strcmp.o)
    0x00041e6c   0x00041e6c   0x0000001a   Code   RO         1182    .text               mc_w.l(memcmp.o)
    0x00041e86   0x00041e86   0x00000012   Code   RO         1184    .text               mc_w.l(strcpy.o)
    0x00041e98   0x00041e98   0x000000b0   Code   RO         1451    .text               mf_w.l(fadd.o)
    0x00041f48   0x00041f48   0x00000064   Code   RO         1453    .text               mf_w.l(fmul.o)
    0x00041fac   0x00041fac   0x0000007c   Code   RO         1455    .text               mf_w.l(fdiv.o)
    0x00042028   0x00042028   0x0000014e   Code   RO         1457    .text               mf_w.l(dadd.o)
    0x00042176   0x00042176   0x000000e4   Code   RO         1459    .text               mf_w.l(dmul.o)
    0x0004225a   0x0004225a   0x000000de   Code   RO         1461    .text               mf_w.l(ddiv.o)
    0x00042338   0x00042338   0x0000001c   Code   RO         1463    .text               mf_w.l(fcmple.o)
    0x00042354   0x00042354   0x0000001c   Code   RO         1465    .text               mf_w.l(fcmpgt.o)
    0x00042370   0x00042370   0x00000036   Code   RO         1467    .text               mf_w.l(dcmple.o)
